:020000040800F2
:10100000002000207D400008495C00084D5C00087D
:1010100000000000000000000000000000000000D0
:10102000000000000000000000000000515C00080B
:101030000000000000000000555C0008595C00083A
:10104000CD400008CD400008CD400008CD4000084C
:10105000CD400008CD400008CD400008315E0008BA
:10106000CD400008E55D0008CD4000085D5C00084B
:10107000215D00080D5E0008CD400008CD4000084D
:10108000C15D0008655D000800000000815D00088A
:101090009D5D0008955D0008CD400008CD4000082A
:1010A000CD400008CD400008CD400008995D000803
:1010B000CD40000800000000CD4000080000000006
:1010C000002243088B4274D303098B425FD3030A87
:1010D0008B4244D3030B8B4228D3030C8B420DD39A
:1010E000FF22090212BA030C8B4202D31212090228
:1010F00065D0030B8B4219D300E0090AC30B8B4266
:1011000001D3CB03C01A5241830B8B4201D38B0313
:10111000C01A5241430B8B4201D34B03C01A5241B8
:10112000030B8B4201D30B03C01A5241C30A8B42FB
:1011300001D3CB02C01A5241830A8B4201D38B02E6
:10114000C01A5241430A8B4201D34B02C01A52418A
:10115000030A8B4201D30B02C01A5241CDD2C309FC
:101160008B4201D3CB01C01A524183098B4201D378
:101170008B01C01A524143098B4201D34B01C01A63
:10118000524103098B4201D30B01C01A5241C308DB
:101190008B4201D3CB00C01A524183088B4201D34A
:1011A0008B00C01A524143088B4201D34B00C01A36
:1011B0005241411A00D20146524110467047FFE7A2
:1011C00001B5002000F0F0F802BDC0460029F7D0BC
:1011D00076E7704703460B437FD4002243088B42D7
:1011E00074D303098B425FD3030A8B4244D3030BAE
:1011F0008B4228D3030C8B420DD3FF22090212BA73
:10120000030C8B4202D31212090265D0030B8B42EE
:1012100019D300E0090AC30B8B4201D3CB03C01AD8
:101220005241830B8B4201D38B03C01A5241430BB3
:101230008B4201D34B03C01A5241030B8B4201D3A3
:101240000B03C01A5241C30A8B4201D3CB02C01A0E
:101250005241830A8B4201D38B02C01A5241430A86
:101260008B4201D34B02C01A5241030A8B4201D375
:101270000B02C01A5241CDD2C3098B4201D3CB011C
:10128000C01A524183098B4201D38B01C01A5241CB
:1012900043098B4201D34B01C01A524103098B42CF
:1012A00001D30B01C01A5241C3088B4201D3CB00BA
:1012B000C01A524183088B4201D38B00C01A52419D
:1012C00043088B4201D34B00C01A5241411A00D24D
:1012D00001465241104670475DE0CA0F00D04942B6
:1012E000031000D34042534000229C4603098B4226
:1012F0002DD3030A8B4212D3FC22890112BA030AAE
:101300008B420CD3890192118B4208D3890192112F
:101310008B4204D389013AD0921100E08909C309B4
:101320008B4201D3CB01C01A524183098B4201D3B6
:101330008B01C01A524143098B4201D34B01C01AA1
:10134000524103098B4201D30B01C01A5241C30819
:101350008B4201D3CB00C01A524183088B4201D388
:101360008B00C01A5241D9D243088B4201D34B00A3
:10137000C01A5241411A00D20146634652415B10E5
:10138000104601D34042002B00D5494270476346C6
:101390005B1000D3404201B5002000F005F802BD0B
:1013A0000029F8D016E770477047C04610B5064CC4
:1013B0002378002B07D1054B002B02D0044800E016
:1013C00000BF0123237010BD480900200000000069
:1013D000B45E0008044B10B5002B03D00349044849
:1013E00000E000BF10BDC046000000004C09002016
:1013F000B45E0008F0B5DE46454657464E46D74B2C
:10140000E0B5DA6F188892B2D54D111AD54C89B271
:101410002D8893464A098BB0218062808D4200D38B
:10142000C8E0D14D2D888D4200D8C3E00021CF4DBA
:101430009E6A29805968091A89B28A4289414942BB
:10144000986807916160D968081A80B28242804129
:1014500041428C461869A16059690F1ABFB2BA425D
:10146000BF41794298690691E160D969081A80B252
:1014700082428041596A4542186A0595081A80B22D
:1014800082428041D96A404204906061881B80B2E8
:1014900082428041596B4642186B0396081A80B20B
:1014A00082428041D96BA6614642986B2561081A39
:1014B00080B28242804140420296E6610190206201
:1014C000596C1D6C1E6D481B80B282428041DD6CE0
:1014D0004142986C1F6E281A5D6D80B2AD1BADB293
:1014E000AA42AD416D429E6DAA46E562DD6D824223
:1014F0008041AE1B5D6EB6B2ED1BADB2AA42AD41EE
:101500006F4208979D6E6763DF6EB242B6417F1BE4
:10151000BFB2BA42BF417F421D6FB946A7635F6F3A
:101520009B6F7F1BBFB2BA42BF417F42B846E763A1
:101530005F46FB1A9BB2079D9A429241049B099118
:101540006B404B4061626146DF00039B059D594043
:101550000B004042019943404D4076429B003B4383
:1015600026636E4006991E43029B52424B405146F1
:101570004B405B001E434B462264A062089F9B00C9
:10158000FD001D43434615435A00794B15439946C8
:101590001B78002B15D0774B984643461B78002BC1
:1015A00014D1B54216D05422A35A0133A352482372
:1015B0000022E2540BB0F0BCBB46B246A946A0469E
:1015C000F0BD6C4B98461B78002B62D00F235D1B3F
:1015D000EDB2E6E70023654A13804622A35A0133A1
:1015E000A352236B012B01D1634A1370624651024F
:1015F0005246079B40009B020B431343069A170277
:10160000059A3B43D701049A3B439701039A3B4316
:1016100052011343029A12011343019AD200134359
:10162000099A9200134348221843A35C002B1FD150
:101630002F2852DD4D22A25C002A00D087E04F4DBA
:1016400028780028B6D04E4B1B78002BB2D14B46E1
:101650001B78002BAED05023E25C824200D195E093
:10166000E054042800D89BE04E230122E254A1E775
:10167000012B67D0022B60D0032B9BD1252899D159
:101680004C214733E35A605C3E49C8540023A354BD
:1016900090E703F0FBF9002828D04422A35C013333
:1016A000DBB2A354642B21D9012342461370636833
:1016B000A06A0793A3689C46E36806932369059391
:1016C00063690493A3690393E3690293236A019313
:1016D000636A0993E36A9A4678E7421E2E2A1BD86A
:1016E000294A264DC0B213802870ACE76368A06A0F
:1016F0000793A3689C46E36806932369059363698F
:101700000493A3690393E3690293236A0193636AD1
:101710000993E36A9A4640E7002890D14F23E35C9F
:10172000012B01D14C33E05400210023164A1180D3
:10173000124A13704E22A3543CE74A33E054493B0B
:10174000A35437E74933E052483BA35432E70E4AEB
:1017500010800A4A13704E22A3542BE74808002039
:101760003408002094040020800400204606002055
:1017700014060020610600204006002076060020A6
:10178000FF0500205C07002000060020042807D980
:101790004E22A35C0133DBB2A354052B00D809E72A
:1017A0004E230022E254242806D8324B80001B58D6
:1017B0009F460122304B1A702A78304B1A70002352
:1017C0002B70F7E648230122E254F5E72C4B5A7CB4
:1017D0002C4B1A70F0E72A4B5A7C01239B1A294A9A
:1017E0001370E9E751230022E254274A0133E25201
:1017F000E2E701225123E2549B18E0221201E25257
:10180000033BE35C012BD7D14D22A354D4E700F076
:10181000EBFA1B4B184A5B7C01331370CCE70122B7
:10182000174B9A74C8E70022154B9A74C4E701223B
:10183000134B5A740022134B1A70BDE70022104B51
:101840005A74104B01321A70B6E701220F4B1A700E
:10185000B2E70522084B1A70AEE70422064B1A7055
:10186000AAE70322044B1A70A6E70222024B1A7061
:10187000A2E7C046CC5E00081A0600204007002000
:101880005C070020EB000020FF0E00006406002033
:101890005222F0B5374DA95A002939D000200B004B
:1018A000A852080A0A0942404A400F2108001B01B9
:1018B00090430343304A1813145C08001840105C2E
:1018C000E40304431812EB6508401B11105C0B4045
:1018D000D35C8002402204435B011C432C6601253B
:1018E000264B274E1F787B1C9B00BF00F250F0193F
:1018F00041682D3A2B0093402340D3408909594039
:10190000890181600430013AF4D20023F351F0BD23
:101910001C4B1B78002B18D00300C213012A15D0D2
:101920008213012A1AD04213012A19D00213012A64
:1019300018D0C212012A17D08212012A16D04212E0
:10194000012A15D0A9650100ABE70F4B0F22083A19
:10195000134151020B43AA6599B2A2E70E22F6E7A2
:101960000D22F4E70C22F2E70B22F0E70A22EEE761
:101970000922ECE794040020605F0008450800207D
:10198000FC040020FF050020FFFF000070B50600EA
:10199000049D8E420CDC0FE0AB420FD08C1858191E
:1019A00064104010A14206D0A64209DC05002200C6
:1019B0009642F1DB280070BD9642FBDA1800FAE788
:1019C0000300611CE5E7C0460300401A00D5C81AB1
:1019D0007047C046044980B24A6A92B24B6A9B1A69
:1019E0009BB28342FAD370470048014010B5441EB1
:1019F00000280BD0FA20064980004A6A92B24B6A4E
:101A00009B1A9BB28342FAD3013CF6D210BDC0466A
:101A10000048014070B504000D1E5AD0002200207D
:101A2000072128E043B2C6B2002B2FDB7300D8B2E7
:101A30005BB2002B30DB4300D8B25BB2002B31DB52
:101A40004300D8B25BB2002B32DB4300D8B25BB2AA
:101A5000002B33DB4300D8B25BB2002B34DB4300F6
:101A6000D8B25BB24000002B00DA48400132D3B25A
:101A7000C0B29D422ED9A35C584043B24000002B17
:101A8000D0DA484043B2C6B2002BCFDA70004840EB
:101A900043B2C0B2002BCEDA4000484043B2C0B2DD
:101AA000002BCDDA4000484043B2C0B2002BCCDA64
:101AB0004000484043B2C0B2002BCBDA400048405F
:101AC00043B2C0B2002BCADA4000484043B2C0B2B1
:101AD000C8E7002070BDC04670B504AC25880A4C2C
:101AE0002070A170080A2271110AA3711A0A2B0A28
:101AF0006070E1702572092120006271E371FFF7C7
:101B000089FF607270BDC0469005002010B5064C7C
:101B100030222000054904F0BBF930212000FFF7F6
:101B200079FF3023E05410BD900500205C070020B1
:101B300070B59F4C9F4DC0222000296882B003F0F1
:101B400095F8E37D032B01D90223E375207E030082
:101B5000083B282B38D8103B182B00D8FEE0030098
:101B60000C3B0B2B00D807E10300083B032B00D8EC
:101B700010E1A888904BD862607E0300323B642B52
:101B80002BD8237D002B00D0C2E0430040086881A1
:101B90000A302B81A8812822A37E022053431433CC
:101BA000EB8102F085F86378002B1BD1EE89FA23D4
:101BB00096215B0000933000804ADB184900FFF754
:101BC000E5FEE88402B070BD7D4B7B4AEB80D362BA
:101BD000607E0300323B642BD3D996232B81413B9B
:101BE0006B81D8E7A07F0B2800D8B4E0052002F075
:101BF0005FF82023E35C734A7833FF335B002B826A
:101C000021239446E35C704A63445B006B82222389
:101C10009446E35C6D4A6344AB822323E35CAB757B
:101C20002423E35C013B59424B4113702523E35CC1
:101C30000021FA332B832723E1542831635C053BD1
:101C4000142B01D9052363542921635C013B092B23
:101C500001D90A2363542A23E15C481E082861D96C
:101C60000A21E1542B21635C463B462B01D9FF231B
:101C700063542C23E35C013B622B01D80123537096
:101C80002D21635C013B092B01D9052363542E23CD
:101C9000E35C092B0BD8022B00D185E02ED8002B5A
:101CA00006D0012B09D19370494A137005E0002337
:101CB0009370D3700122464B1A709623EE895B0015
:101CC0009E4203D200220D3BFF3BEA54E17E2020DE
:101CD000FFF780FA642104003000FFF7F1F92100DA
:101CE00080B2FFF777FA0C2168843000FFF7E8F93B
:101CF000210080B2FFF76EFAA88458E7042BDCD1EC
:101D000001230020334993700B7031490870D4E7E8
:101D100003212881FFF7D4F9C0B268810A30C0B22C
:101D2000A88138E74B015B1A9B005B1A5B0029898D
:101D30003D3BDBB2591829816989AB765918698115
:101D4000A98B5918A983E98B5918E9831A49486C5A
:101D500003434B6486E701F0ABFF4AE71E4B30229A
:101D600000931821164BFFF711FEA880207E030078
:101D70000C3B0B2B00D9F7E6114B182200930C21DA
:101D8000164BFFF703FEA880207E0300083B032BC1
:101D900000D9EEE6124B102200930721114BFFF7FA
:101DA000F5FD80B2A880E5E60123D37085E7C04643
:101DB0005C070020C0000020002C0140B80B000090
:101DC000CF0700006B0300005E050000C405002083
:101DD000E1040020E3040020E70300009E0F000060
:101DE000B50B00006D170000282210B5044B054804
:101DF0009A5CC02142701A6802F0B0FE10BDC04665
:101E0000C00000205C0700202B2370B5224D2C2140
:101E1000EB5C012B33D06B5C5A1ED2B2002A1ED071
:101E20006A5401221D4C13402922AB5472B6637CC4
:101E3000002B1FD062B602F06DFE194B62699A4208
:101E400002D92D230122EA540023A37323762C33D5
:101E5000EB5C013B5B00E4182B6BA38370BD062396
:101E600029220E4C6B54053B2374AB5472B6637C31
:101E7000002BDFD12C33E85C03F0C2FBDAE76A5CAD
:101E80000132D2B2062A03D9044C6B542374CBE737
:101E9000024C6A541340C7E7C0000020C40500206C
:101EA000C409000001211D4A70B5D3688B43D3607B
:101EB000FFF7AAFF1A4C1B49628D238D2F209B1818
:101EC0000A6B5B1094466344174D5A080A63285CFA
:101ED000002813D134228A5C180942439B0892B22D
:101EE000E2859A1A2D23CB5C2286002B13D0636BDC
:101EF0000E4A934201D80133636370BD2C20205CED
:101F00009B084243920992B2E2859A1A2D23CB5C38
:101F10002286002BEBD102F0F3FDE8E70020004021
:101F2000C4050020C00000205C0700200F2700002F
:101F3000F0B5C646294B00B598465B697D2B18D98C
:101F40008023DB055B6A7C2B0AD842469623128FDE
:101F50009B009A4204D24246526B643B9A421AD387
:101F60003A22434641469B5C0133DBB28B54642BDF
:101F70002ED835231A4D0024EB5C29263527002B5B
:101F800004D10BE0EB5D0134A34207DD02F094FDC8
:101F9000AB5D8342F6D180BCB846F0BD72B602F0AC
:101FA000A1FD434642465B8D414613858023DB05F8
:101FB0005A6A4A850022098E5A620A4B01315A62D6
:101FC000D96201211A61DA680A43DA6062B6E2E78F
:101FD00002F088FD002342465363DCE7C40500207D
:101FE000C000002000200040F0B5C64600B5C84D36
:101FF000C84CAB7C82B0002B00D1A0E0A378002BB2
:1020000000D1CDE0C44E8323A28FDB009A4200D3DF
:102010008AE11300303B9BB2FA2189008B420ED239
:102020002B216F7C705C2A39C91B884200D1EDE2FC
:1020300036215B00715C9BB25B1A2F33E3872F2A3A
:1020400000D97FE000230022E3874233E254432794
:102050003723E25DF35C9A4200D97AE0EF7C002FEF
:1020600000D184E0E08F1D2800D9FDE04423002248
:10207000E2522823EB5C9900C9188900884200DBF2
:10208000FEE04123E35C002B55D15033E35C002B91
:1020900051D04423EA7CE05A93009B181B012E3355
:1020A000834200DB29E13B27E35D002B00D1E3E223
:1020B0007389002A00D1CAE1FA22D20028330092A3
:1020C0008921964AFFF762FC5423E0522623EB5CF9
:1020D000002B00D007E16374E97C4433E25A8B00A3
:1020E0005B181B012E339A4200DC06E12E2A06D92A
:1020F0001E23697F0B41616B8B4200D902E254239E
:10210000E55A6A23F35AAB4202D254211D006352AE
:102110006378002B04D06C23F35E9D4200DD00E267
:10212000206E002807DD2F2A05D97D49FFF752F8D8
:1021300054232D18E55202B080BCB846F0BDA38FE1
:10214000754EE38743273723E25DF35C9A4200D85C
:1021500084E7AB7D002B00D180E703F00DFA02F09D
:10216000C1FC44230022E2522233E35589E746238F
:10217000E35C002B74D04723E35C002B00D0E6E047
:102180006749E06CFFF726F8442380B2E0528023D1
:102190001B01984200D24AE14423604AE25270E7B0
:1021A0002622AA5CA08F5C4E002A71D0FA22B77D4D
:1021B00092007F00B918884218DD2B226F7C94466C
:1021C000B25CBA4200D1CEE1637C002B00D000E1CA
:1021D00040230022E254FA22504BD20000932F23D6
:1021E000FFF7D4FBB77DE087A08F7F00FA22920033
:1021F000D31B9846834220DD2B21735C6F7C9C4669
:102200000123DA1B944500D1A1E1637C002B00D0AF
:10221000DFE040230022E254113B009342463F4B53
:102220000021FFF7B3FBFA23B77DE087A08F7F0083
:102230009B00DB1B984200DACBE0FA239B009C4614
:102240006744B84200DDC4E00023E387637C002BD1
:1022500000D1BEE00023012263744023E254B8E0C1
:102260004423E28FE2520CE71E2800D101E7282325
:10227000EB5C9A00D21892001100904200DA81E0E3
:10228000264AA0230092FFF781FB4423E052F8E6A0
:10229000FA23B27D9B005200D118884200DC7BE01B
:1022A0002B226B7CB25C9A4200D188E1FA221B4B54
:1022B000D20000932F23FFF769FBFA22B37DE0875A
:1022C000A08F5B009200D21A82426ADCFA2292004E
:1022D00094466344834200DA7BE000230022E387D4
:1022E0004233E25475E0EA7C93009B1844221B01C0
:1022F000A25A2E33934200DAA2E05623E35C002B6D
:1023000071D0052B6CD8074A9B00D3589F46C04616
:102310005C070020C4050020C0000020FF0700006B
:1023200010270000705F00082B216B7C715C9942C4
:1023300000D183E13620CC4B305CD118130049002A
:1023400089B2091A303B2F319BB2E18764E6F26B08
:10235000B36B2F21E08F0092C44AFFF717FB0100F7
:10236000C348FEF737FFE97E4908FEF733FF4823ED
:10237000E052E38F2E2B00D902E744233764E75263
:10238000E7647EE6A0231E210093713BFFF7FEFA6F
:102390004423E052E08F6CE6FA239B009A1A9042A5
:1023A0009BDA2B236F7CF15C2A3BDB1B994200D12B
:1023B000E8E02F2300210093AC4BFFF7E7FAFA2265
:1023C000B37DE087A08F5B009200D21A904200DBC1
:1023D0007CE7A378002B00D1B4E614E601F0B2FD4F
:1023E00056230022E2542B7D002B3AD15422A352D3
:1023F0003B33E35C002B00D197E02623EB5C002B02
:102400001ED0637C002B1FD0FA20A18F8000FFF725
:10241000DBFAFA2358229B00C3189BB2A352B2885E
:10242000013A93420ADB03F0A3FA627C09E02F2809
:1024300000D926E644233022E25222E603F05CF87B
:10244000627C002A00D076E64423E25A4EE6FA2265
:10245000D20000922F21854AFFF798FA5423E052C8
:1024600034E63B23E35C002B1AD101272D22636362
:10247000B754E3732B7F002B10D0E87C002810D1D9
:102480007C4A292394465822EB5C63445B00A352A8
:1024900003F032F867740122E87C03E003F06CF883
:1024A000E87C627C2C233C21F35C013B4B4368219C
:1024B000715A5B18B4219FB21BB249008B4200DBFA
:1024C000FBE00F39FF3963523900B423773109B289
:1024D0005B00994200DBEBE00D3BFF3BE152390032
:1024E000B423EF3109B25B00994200DBEBE00B3B18
:1024F000FF3BE152012801D14123E0545423002144
:10250000E1529EE754213389655A9D4201D21D0054
:102510006352F38BAB4200D3F3E554211D006352A9
:10252000EFE59DB25423E552FAE50121273AB15473
:1025300063632B7F002B00D0E1E0637C002B00D194
:10254000E0E02623EB5C002B00D05DE7F3E5002202
:1025500063743F33E35CE287002B00D139E700234B
:102560007754637455E6E387012363743F33E35C78
:10257000002B00D12DE701239A1A6346F254002361
:10258000637425E6F38C316B8B4200D3A8E0238F74
:10259000C72B00D9A4E000230122984663632D33A2
:1025A000F254023BF75402F09DFA42234246E254B1
:1025B000FA23B27D9B005200A08F9A1AF9E6F28CA2
:1025C000306B824200D382E0228FC72A00D97EE09E
:1025D0000122D31A2B220027B3542D232A3AF25476
:1025E000676302F07FFA4223E754FA239B009C467C
:1025F000B17DA08F4900614458E601F031FCEFE65F
:1026000001F004FDECE601F0CFFCE9E6F38C326B5F
:10261000934241D2238FC72B3ED8002301229846F4
:1026200063632D33F254023BF75402F05BFA42230A
:102630004246E254A28F1300303BF9E4F28C316B36
:102640008A422FD2228FC72A2CD80122D31A2B22BA
:102650000027B3542D232A3AF254676302F042FA5A
:102660004223A28FE75465E6E8FBFFFFFF07000067
:1026700000879303DE03000002F07EFF2D23F35C4E
:10268000002B36D03B230122E25432891733E25229
:102690000E3BEA7CE05A0BE54123E35C002BBCD106
:1026A000A387CFE44122A25C002ACED1A287C9E44D
:1026B0003B005C21F13B635211E75A23693FFF3F26
:1026C000BFB2E75200E75E21793F675212E741222D
:1026D000A25C002A00D07BE7FA208000A087E5E515
:1026E0004123E35C002B00D055E7FA208000A0874F
:1026F0005FE6E35D002B08D002F002FAC2E703F0C8
:1027000037F97AE602F038FF77E6FFF77DFB044BF6
:10271000044A33638023DB055A620123E355EBE768
:10272000102700008813000070B564250A4C635D13
:10273000012B0BD0022B02D0FFF756FC70BDA36E0D
:1027400098B2FFF7A5F800236355F7E7FEF752FEAE
:1027500000236355F0E7C046C4050020F8B5CE4617
:1027600047462B2380B54E4D5A21EA5C4D4C002A3A
:102770001ED1B420635A400001331BB2834200DBF8
:1027800073E063525C21B420625A4000013212B2FD
:10279000824200DB002262525E21B420625A400075
:1027A000013212B2824200DA6DE00022625214E07D
:1027B000625A013A13B2120400D566E063525C21FA
:1027C000625A013A10B2120452D460525E21625A27
:1027D000013A10B2120454D46052334A5B00985E3E
:1027E0006E23FA219846EB5A2D26C318A888C900F3
:1027F00058439146FEF7EEFC2C4F0A21BB5D58432F
:10280000FEF7E8FC80B202F08FFD5C23E35E4A46EF
:102810005B00985E4346FA21EB5AC900C318A888AA
:102820005843FEF7D7FCBB5D0A215843FEF7D2FCA4
:1028300080B202F07FFD5E23E35E4A465B00985E55
:102840004346FA21EB5AC900C318A8885843FEF73B
:10285000C1FCBB5D0A215843FEF7BCFC80B202F00C
:102860006FFDC0BCB946B046F8BD0023625289E78F
:102870006822FF3262525E21625A013A10B212049B
:10288000AAD56822FF326252A7E76823FF3363525A
:102890005C21625A013A10B2120400D495E7E7E7CE
:1028A000C0000020C4050020980100205C07002023
:1028B00080210022C90570B54B6A1F4C1F4D6385EE
:1028C0004A62286B1B04420012181B0CD218930892
:1028D0002B6353095B0098B2D3081B1A626B9BB23F
:1028E000E0852386042A25D94A6A9A42FCD3144AF1
:1028F000D362FFF789FA00232620A373E373636B87
:102900001049013363634A7F095C0A4305D1FA2306
:102910002A6BDB009A4207D370BD132BFCD9FA2334
:102920002A6BDB009A42F7D82D230022EA5402F0EA
:10293000E7F8F1E74A6ADAE7C4050020C0000020A2
:10294000002000405C0700205423F0B56C22C646EE
:102950007225BE4C00B5E35A615D2387A35A01334B
:10296000A3520232A35A0133A3520232A35A0133B3
:10297000A352203AA35C0B4304D17321605C00286E
:1029800000D08FE0B24EF17F00290ED070227A2065
:10299000B04D235AAA5C0133013A521891009BB200
:1029A0008A1823529200934256DC4123E55C002DA5
:1029B00006D0A94A53880133538080BCB846F0BD85
:1029C0002D23A44FFB5C002B04D03B23E35C002BA6
:1029D00000D064E17023E25A142A26D89F4B482283
:1029E0009A5C002A3ED1258F5023E35C002B04D053
:1029F0003B23E35C002B00D040E1637CFE88002B8E
:102A000046D05823E05A96497043FEF7E3FBBB8853
:102A1000914A0133C01880B210805223E552914B85
:102A2000DE6258639863D863C4E70022E252637899
:102A3000002B73D03B23E35C002B00D07EE1737F3F
:102A4000002BCBD14623E35C002BC7D03B23E35CB8
:102A5000002BC3D0814BA0E07C230122E254002351
:102A60002352A2E7626B952A00D8D3E05222A25AE1
:102A7000952A00D8D0E0FA2160694900884200D840
:102A800056E10620AC39FF39585443398846C8E02E
:102A90003000FA216843C900FEF79CFB6E4A80B201
:102AA0001080BAE7E08F002800D023E17426A35BF2
:102AB0006D4F01339BB2A353BB4200D862E776232C
:102AC000E35A1E2B00D8ADE10123A3542378002B39
:102AD00000D1ABE17823B921E65A49003000FEF776
:102AE000EFFAB92360555B0000259E420ED35F4B81
:102AF000722698465E4F01F0EDF96420FEF776FFEE
:102B000043461F60A35D0135AB42F4DCE378504ED1
:102B1000002B00D037E72622B35434E7737F002B15
:102B200090D03B23E35C002B00D157E74B4B396B34
:102B3000186B9A8B84468A1A996A186C51436144BF
:102B40001A621963814201DD010018634042884224
:102B500001DD01001863986BDD6A101A68435D6A35
:102B60009A636A4312185218596C5863DA638A429E
:102B700001DD0A00D9634942914201DD0A00D963AF
:102B8000216E8C463B4962448A4200DC2FE121667B
:102B90004622A25C002A00D121E74822386DA16EAE
:102BA0008446A25A386E8A1AB96C3A645143614419
:102BB0003965814201DD010038654042884201DD0E
:102BC00001003865B86DFD6C101A68437D6CBA65FC
:102BD0006A4312185218796E7865FA658A4201DDE7
:102BE0000A00F9654942914201DD0A00F965E16C8C
:102BF0008C46214962448A4200DCF3E0E164626B66
:102C0000632A00D9EBE600223A6548329A5C002A32
:102C100000D1E8E65222A25A4921022058544739ED
:102C20008846258FA91A814256DD424495B2FA2280
:102C3000396B2587520091425FD90121AB3AFF3AA7
:102C400099543423F27DFA54CEE6C046C4050020E0
:102C50005C070020C0000020440600204001002046
:102C600030F8FFFF002C0140204E000000300040F3
:102C7000AAAA000060E31600F05838014423E35A82
:102C80002F2B00D8B9E6FE88FA213000C90068432E
:102C9000FEF7A0FA684A013080B21080BDE601F06C
:102CA00021FF01F009FF2923FB5C002B30D1002814
:102CB00000D1A1E0A37B0133A373237E002B00D0BE
:102CC00088E67223A27BFB5C9A4200D882E601234D
:102CD0002376FFF7EDFD7DE6511B814211DD414674
:102CE000521A95B200214A22995434232587F27D45
:102CF000FA5479E67422A35244E64A2200219954F8
:102D000072E63422F17DB9540021163299546BE6F3
:102D100000287CD1A37B0133A373237E002B00D03A
:102D200058E67123A27BFB5C9A4200D852E6CEE7BC
:102D30004921102058543939884672E77E2384256A
:102D4000E35E2C22C8207959B25C8C469421424320
:102D50009A1AFB6F7958534363447A677B518B42CD
:102D600001DD0B0079514942994202DD8423F9507B
:102D70000B008C25802079593858511A41438820FE
:102D80003950B86F7A5150434018C0189823902298
:102D9000FB58B850984201DD1800BB505B4283429B
:102DA00002DD90221800BB506C252449FEF712FA70
:102DB0007B5B181A7B8900B27853984201DA18B20B
:102DC0007853FA23DB00984201DD6C22BB52737FFB
:102DD000002B00D0AAE64633E35C002B00D1FDE5D2
:102DE000174BDAE6002A00DA0022E26407E7002A3D
:102DF0001FDC00222266CBE62A22E37BBA5C013389
:102E0000DBB2E3739A4200D357E7A073E2E52A22CC
:102E1000E37BBA5C0133DBB2E3739A4200D37CE715
:102E2000A573D7E5A0536054064EACE501F052F807
:102E30006CE62266ACE6C04644060020102700007F
:102E4000400100205C070020F0B5DE464E465746A4
:102E50004546E0B585B001F041FFFE231B01C14AA4
:102E60001968C14E914205D1C04A5968914201D1B9
:102E700000F03AFC02F068F902F078FAFEF758FE2A
:102E8000BB4FFB78022B01D100F081FC0223FB70C9
:102E9000B84BC0217B60B84B3800BB6031233B731B
:102EA000093BF35C32687B7001F058FE7B7C013B90
:102EB0005A1E93412B22B354B388F3803B7D002BE1
:102EC00000D1FB742623FB5C002B12D0FA239B005D
:102ED0002022B3830123B3547B820023BB82BB75C2
:102EE000738932337381B3893233B3813389323397
:102EF000338100F073FF76230022A04CE25201F0F0
:102F0000A7FF9F4B9F4A1A6001F038FD4723E35CFF
:102F1000002B02D046230122E2549B4A9B4D1368AA
:102F200080211B051B0D13606B6000231268490193
:102F3000120C8A425B41AA60E5225B429343E6336E
:102F40002B7301F0ABFD8E4B99468E4B9B46E28B6B
:102F5000A38B9B18228C9B18628C9B18A28C9B18AD
:102F6000E28C9B180433626B5B10A3660623042A71
:102F700000D9033B7222B354013AB3544B465A462C
:102F80001A607B7D012B00D1A3E2022B00D158E215
:102F90006B887F4A934209D950229246A25C002A4C
:102FA00000D081E37B498B4200D9AAE36C227A4BA3
:102FB000A25A9A4219D97E23B421E35E490018042B
:102FC0009846FEF707F92B699C46744B60441B78C2
:102FD0002861022B00D11FE3032B00D10CE3012B4E
:102FE00000D1FFE26C230022E252636B9846FA2381
:102FF0009B00984500D8E3E143220021E38FA154D0
:10300000C72B00D853E2FA7C002A02D09F2B00D8AD
:10301000E2E16A7D002A00D1CCE1C822520093424D
:1030200000D2DFE10321A06EFEF7D4F8237C6061BB
:10303000002B03D043460A2B00D9A3E26B7F002B61
:1030400000D1B5E0336B782B00D8B1E0C221544BEE
:1030500089005A58C4201202120A5A508021800056
:103060001A58C9051202120A0A43C3211A50FF2036
:1030700089005A588243BF3802435A507C239846ED
:10308000E35C9A46002B00D0AEE020239846EB5C30
:10309000002B00D014E22122AB5C0133DBB2AB5435
:1030A000C82B00D9BAE00022904641234146E35C98
:1030B0003A32A154002B00D040E1A16E3948FEF70E
:1030C00089F83B23E35C0A21584380B2E883FDF78B
:1030D000F7FF2023F35C80B2E885002B00D03FE2AD
:1030E000FA226A23D200F2522B23287DF95C814216
:1030F00000D225E2636B632B00D9B2E1FA23326B75
:103100005B009A4200D8ACE10C22C03BFF3BF2547A
:103110002F23FB5C002B00D0B9E18023DB055A6A2A
:10312000214B9A4200D812E73B239A46E35C98462B
:10313000012B00D00BE74322A35C0133A35401F021
:10314000D1FC2D234246F2541733E35A2F2B04D8D7
:1031500000235246A354154B336300236363FFF7E8
:10316000A7FBF4E6DAE32559C0000020D963B84E86
:103170005C0700201241524B2034494EC405002008
:1031800000300040AAAA0000005801404406002078
:1031900010270000409C0000204E0000E5040020A5
:1031A00000E100E0C0270900C8AF0000881300005C
:1031B000C2208021D34B80001A58C9051202120A7E
:1031C0000A43C4211A50FF2089005A581202120AD9
:1031D0005A5004395A5882435A507C239846E35C2B
:1031E0009A46002B00D150E76B8A7E229A467821BE
:1031F000EB8BA25A615A287D00935346FEF76CFC74
:103200000A2002F001FD00234246A3542122AB5CB8
:103210000133DBB2AB54C82B00D844E701F0A8FA65
:10322000B94ABA499368688C0B4004210B439360F8
:10323000B74B1B889A46B74B190058439846FDF781
:103240003FFF5346C31A9800C018B34B00011988BA
:103250005346C91AFDF7BEFF43461E3080B2A8840C
:103260002875E88CAD495843FDF7B4FF4C23AC4AB0
:103270006421D35A5843FDF7ADFF7822A15ACB0001
:103280005B1AC018C310A3529846237AA5495A0066
:10329000895A60898A46A349013388526268DBB241
:1032A000944652466044801A6060632B00D9002324
:1032B00064212372FDF704FF964BA0810004000CEB
:1032C0002921A8625843FDF785FF974B0A219C46A8
:1032D0006044FDF77FFF03B2020400D57EE17E2249
:1032E000A3522378002B00D1E7E07223328BE35CFA
:1032F0005A4343461B041B0C9A4200DCDBE041238B
:103300008A4898468446E35CA98D9A05D21AD20071
:10331000D2185201D21A0131920089B26244A985B1
:10332000914200DD20E221220021A9540022904692
:1033300041463A32A154002B00D1BEE644239A46BE
:10334000E35A302B57D95022A25C002A53D0313B8C
:10335000572B00D96FE130239A46EB5C002B00D04D
:10336000F0E1FFF7FBF9FB7E714819009A46FDF783
:1033700031FF4423E35A804651466E480393FDF7DC
:1033800029FF43463021782200900398FEF7FEFA89
:10339000502398464246624B98520004000CFEF7B8
:1033A00019FB424696205E4B8000995AFDF712FFAA
:1033B000E883CCE5952B76D837236422F25431E6A6
:1033C000E38F002B12D14322A3544246642A6ED8C5
:1033D000FA7C002A00D11CE643220021A1546A7D18
:1033E000002AE7D043230022E2541BE64246642A27
:1033F00000D808E604E60123984642462F33EA54F3
:103400003B7F002B70D02923B188F85C0B00400073
:10341000133BC0184B1C9A46F38880B22087584350
:10342000FDF7D8FE5346181A288002F065F8424B83
:103430002A885A639A63DA63434663740023EB83F2
:1034400085E563691A00653A942A03D89A009B18A7
:10345000F3809DE5013B622B4DD8FA235B00F3809E
:1034600096E50C23FA2200935200093B642160691F
:10347000FEF78CFA3523326BF054312A00D947E637
:103480000222F2542F23FB5C002B00D145E61723C8
:10349000FA22208F64210093D2000A3BFEF776FACD
:1034A0002C23E05439E637230A22F254BAE54322AA
:1034B0000021A154A7E50023AB854133E35C32E74B
:1034C000FEF724FB312002F09FFB43465246EA54AC
:1034D000E1E5B288602100925308306BC822FEF704
:1034E00055FAF0807B7D50E5134A53639363D363B1
:1034F00002F042F8A2E7F82B00D849E50F4BF38021
:1035000046E5C04600E100E000240140E8FFFF7FFF
:10351000B8F7FF1FE40C0000C2F7FF1FFF0F000009
:1035200040010020780600203CF6FFFF204E0000FE
:10353000581B00002A030000002C0140E204000098
:103540009E4A2333D35A0A005B08984601230A3265
:1035500000930A394346FEF719FA6A23F052C9E587
:10356000B38B718C9846B38C9A464E239C46624628
:10357000924B9B5A524600934346FEF707FA6A2342
:10358000F052B1E50100A869FEF71EFA63695A0816
:10359000904219D9FA22D200934215D200226263D6
:1035A0002A7F01322A77BA7C002A11D14432A25AEA
:1035B0002F2A0DD93B220021A1542D220121B154E3
:1035C00032895131520862520022AB61227435E5D2
:1035D000FA22316B92009142EFD9EBE77E23002271
:1035E000E2527EE680232A7D9B001343744A1380B7
:1035F0000223744A1370F5E478231921E05AFDF789
:103600005FFDFF2303408020C00018436C4B6D4AD0
:10361000188001231370E5E443463221D8B2FDF748
:103620004FFDC3B2C020C0001843654B654A1880E7
:1036300003231370D6E430230122EA54FFF78EF8F7
:103640005346E35AC82B05D95A234246E252502228
:103650005A4B9A525023594AD05AFEF7BBF95A2373
:10366000E35E002B00D072E441223B21A354403A98
:1036700062540E3972548021534AC9053263626123
:10368000AA614A62142262634C4A63745233D15C69
:103690002C22B1547A7F002A01D0B289E252FEF77F
:1036A000B3FB01F053FE52E401F066FF00255346E0
:1036B000E5540C3BE5522F33E5540333E552434BBD
:1036C0005D639D63DD6301F049FE802229005200A5
:1036D0003F4802F0E6FBBFF34F8F3E4B3E4ADA60B5
:1036E000BFF34F8FC046FDE71B7B2B2B61D0352BE3
:1036F0005BD01F2B01D0FFF7BDFB384B3360FFF7CA
:10370000B9FB904601F038FF42465346E254442349
:10371000E2522F33E2540333E2522C4B5A639A6342
:10372000DA6301F01BFE802200215200284802F0DB
:10373000B8FBBFF34F8F274B274ADA60BFF34F8F99
:10374000C046FDE70121264AD3688B43D36001F0D0
:10375000C9F942461D4B5A639A63DA6302F04CF989
:1037600053464246EA54FCE500239A465246443307
:10377000E25201F001FF01F0B5F952463B23E25459
:10378000DB18E252263BE2544346E35CCBE53B794F
:10379000122B01D0FFF77AFB16337A78F35C9A424A
:1037A00001D3FFF783FBFFF771FB0E4B3360FFF78D
:1037B00061FB0D4B3360FFF75DFBC046400100200D
:1037C000E6040020E504002028230000002C01402E
:1037D0004808002000ED00E00400FA05007C000825
:1037E0000020004000F8000800F80108F0B5654C22
:1037F00083B063682268981A634B0100C218634B58
:103800009A4238D80023624E624D33802B78002BC9
:1038100043D06B78002B17D1AB78002B00D196E00A
:10382000A8885D4F01333988AB70FEF7CDF8322898
:1038300000D86CE000232B703B88AB806B78002BAA
:1038400009D061682368C91A544B994253D9AB799E
:103850004B2B00D980E000235149524AA86833809D
:1038600012680B88C41A944211DC1C1AA24212DAA4
:103870009B1A0B800DE000224B4B1A80454B986839
:103880004749484A0B881268C41A9442EDDD9B18D8
:103890000B8003B0F0BD0880FBE7444B9C7C002C00
:1038A0000FD0434B1A88904219D8424B1988FA23FB
:1038B0009B0000930023FEF769F8A8600023338083
:1038C000DEE7354B1A883B4B19883B4B00932F237F
:1038D000FEF75CF830283DDC0020AC60EEE72E4BB4
:1038E000511C1C88FA23DB0000932200334BFEF7A7
:1038F0004DF8A860E2E72F48AB7904880133E20075
:10390000121B5118DBB2C908AB710180A0E73988DE
:10391000226863689B1ACA00521A9B18DB08AA78AF
:103920009BB23B80322A00D887E7254A193B944650
:103930009BB23B806344DA0FD31821221B495B10F2
:103940008B5401236B7000F0FDFA3B8875E780B261
:10395000A88066E7A860B1E7164A002413881349D7
:1039600019339BB21380174A2C7094466344DA0FC4
:10397000D31820225B108B54FEF736FAAC7100F09E
:1039800013FB68E748080020DFFCFFFF7605000016
:10399000460600201C080020D2000020E1040000A0
:1039A00000060020780400203A0600205C07002072
:1039B000D4000020D0000020FF070000E903000031
:1039C0002AF9FFFF12FDFFFFF0B54D4D00262A003A
:1039D000002000274B4B4C4C9C469C8008CA7C35F1
:1039E0001168994206D0CB1AA34201D201279CB29A
:1039F0000126C01804320B009542F1D1002F47D0A8
:103A000063469C80002E28D0404B414D1A784009D7
:103A1000E860012A3ED03F4E3278012A0FD0197853
:103A20000A4319D1611E02293ED83B2814D83A49CD
:103A30002A740A7001321A700E21384B21E0C93CF9
:103A4000374BA4B29C4207D82F21334B1970022365
:103A500061468B71334B1A70F0BD2C4B2C4D1A788C
:103A60000020EE60012AD6D1621E022A38D9221F18
:103A7000042AD0D8012207211A70274B2A741A7001
:103A8000264B1970202361468B71264B1A70E3E791
:103A90001D4CB7E7621E022A1CD83B2820D91D4EB8
:103AA0003278012ABBD1D7E7221F042A02D8632823
:103AB000D2D8DFE7C93C1A4BA4B29C42CCD82F2104
:103AC000154A01231170022261468A71154A33702A
:103AD0001370C1E7221F042A9DD86328DFD8C9E7E5
:103AE00000220E260C492A740A700C4901320E700D
:103AF00020216646B1710B491A700A708BE7C046E7
:103B00004808002078040020204E0000C605002050
:103B10001C080020C7050020820400204508002062
:103B2000564D00003706002070B5534C2378002B0B
:103B300003D0524B1B78002B06D1514B1B78002B26
:103B400050D0012B0AD070BD4E4B1B78002B36D0C5
:103B500000F014FF02224C4B1A70F4E7474B1B781D
:103B6000002B32D1494D2B78012B73D0484B1B7859
:103B7000012B65D02378002BE5D12B78002B39D091
:103B80004449454B4A7C072A35D81888052832D93C
:103B90004D69424CAC46E06F246801326044D2B2B9
:103BA000001B4A744861082A25D1C208C00992B294
:103BB00080B23B4C1518101A258108831BE000F0D9
:103BC00021FF0122304B1A70BDE72E4B1B78002BD2
:103BD0000DD0344B1888FDF75BFEFDF70BFC00F0B1
:103BE000CDFEB0E7FFF7F0FE00F0C8FEABE700F057
:103BF00009FFA8E7284B2C4C2088002807D1254A2C
:103C00001278002A2BD11A8801321A809BE70022F1
:103C10001A80264B0026984200D894E71D4D698BE8
:103C2000FDF7D2FE322820D82B7F0133DBB22B7771
:103C3000322B02D96B78002B13D023886B8382E759
:103C400000F024FF164B002811D003229A7100F0D7
:103C500095FE8FE7FDF7CEFB00F090FE86E718801B
:103C600071E700F0D3F901232B702E77E5E70222EC
:103C70009A71FFF7BBFDEAE71406002061060020F9
:103C8000370600204408002028060020C605002032
:103C9000C70500201C0800203A0600204808002024
:103CA000780400202C06002002060020DC0500001D
:103CB000031C0B2800D90B23014A5B0013707047CB
:103CC00039080020F8B5DE4657464E4645460320E3
:103CD000E0B501F095FC7C239B46354B354C99466D
:103CE000354B00259A46A34411E0617800292FD175
:103CF000E801401B314B40008019596380B2996341
:103D0000D963FDF773FE00250234A3450DD0534659
:103D10002B4A26781A6000234A461380FF2EE4D1EE
:103D200001350234EDB2A345F1D101F025FC0023A9
:103D30002449224A09889362D1624A4613801E4B65
:103D40001F4A1A60F0BCBB46B246A946A046F8BD61
:103D50004B015B1ADB00591AFA231B019C461A48D7
:103D60006144FDF737FA0A23144F01008046BB6215
:103D70001648FDF72FFA164BF8621B781549584381
:103D8000FDF728FA7863B863F863E8014146451BFC
:103D90001148FDF71FFA6D00AE1964217043FDF75D
:103DA00019FA0004000CFDF721FE0025ACE7C0461F
:103DB000460600209007002000300040002C014003
:103DC000AAAA0000C4000020C0D8A700003E4900F5
:103DD00039080020CF070000A086010010B572B698
:103DE0003023194AD35CFF2B07D0FFF76BFF174B2B
:103DF0001A88174BDA6262B610BD154C154B0320BA
:103E0000E362154B1B786363A363E36301F0F8FB84
:103E10003723C820A362FDF7E9FD052001F0F0FB80
:103E20002823C820A362FDF7E1FD062001F0E8FB8E
:103E30001923C820A362FDF7D9FD01F09DFB0023E3
:103E4000064AA3621380D2E75C070020C40000206A
:103E5000002C0140CF070000390800204606002052
:103E600070B5154B154CE36272B63C23144D154EDC
:103E700001202E60A362144B1B786363A363E3638A
:103E800001F0BEFB4B20FDF7B1FD50234B20A36298
:103E9000FDF7ACFD5A234B20A3622E60FDF7A6FD73
:103EA00001F06AFB0023094AA3621380084B1B88B8
:103EB000E36262B670BDC046CF070000002C01402F
:103EC00000300040AAAA0000390800204606002061
:103ED000C400002010B572B6134C144B144AE362B0
:103EE000144B03201A605023A362134B1B786363A7
:103EF000A363E36301F084FB6420FDF777FD4623B1
:103F00006420A362FDF772FD28236420A362FDF7FD
:103F10006DFD01F031FB0023084AA3621380084BBA
:103F20001B88E36262B610BD002C0140CF07000081
:103F3000AAAA0000003000403908002046060020F0
:103F4000C400002010B5114B114C0220E362322353
:103F5000A362104B1B786363A363E36301F050FB20
:103F60009620FDF743FD0C4A0C4B96201A601E2349
:103F7000A362FDF73BFD01F0FFFA0023084AA362AC
:103F80001380084B1B88E36210BDC046CF070000BA
:103F9000002C014039080020AAAA0000003000408F
:103FA00046060020C400002010B5114B114C022021
:103FB000E3622823A362104B1B786363A363E3636C
:103FC00001F01EFB9620FDF711FD0C4A0C4B9620CC
:103FD0001A605023A362FDF709FD01F0CDFA00231A
:103FE000084AA3621380084B1B88E36210BDC046D9
:103FF000CF070000002C014039080020AAAA0000C9
:104000000030004046060020C4000020F8B5144DE2
:10401000144BEB6272B67724134B144F1B78144E7B
:104020006B63AB63EB63142120003E60FDF7D2F8B5
:10403000C0B201F0E5FA63100A330A20AB62023C19
:10404000FDF7D4FC631CEED101F096FA0023094A77
:10405000AB621380084B1B88EB6262B6F8BDC046AA
:10406000002C0140CF07000039080020003000403C
:10407000AAAA000046060020C40000200D4885467C
:104080000D480E490E4A002302E0D458C4500433B0
:10409000C4188C42F9D30B4A0B4C002301E0136087
:1040A0000432A242FBD301F0CDFE01F0CDFEFEF7BB
:1040B000CBFEFEE700200020C0000020940400207A
:1040C000C85F00089404002064090020FEE7000097
:1040D0008268030010B50120D20710D48C684A68AA
:1040E000D8682243CC6809682243054C204002432B
:1040F0000020DA601A69920092080A431A6110BD22
:10410000C73FFFFF8368020010B50120DB070ED414
:104110004C680B68D06823438C682343CC680969DA
:1041200023430B430249014000200B43D36010BDE1
:104130003CC2FEFFF0B5DE4657464E464546E0B56A
:104140000A684B6883B0002A00D172E09C460123C4
:1041500001245B4263449846A34600230AE00E69AB
:10416000C56874434E4635402C43C4601400013387
:10417000DC4041D05C4615009C4025402242F5D0F1
:104180002C006C436700BA46A2445746FF43B94629
:1041900057460668BE43674667433E430660464649
:1041A000012EDCD88668B2468E6857466643019673
:1041B0004E4637403E00019F37438760C6684F46F2
:1041C000B2460E6966430196564637403E00019F4F
:1041D00037436646C760022EC8D1FF2D1DD8644301
:1041E000056A2601361BB5434E69013374432C43DF
:1041F00004621400DC40BDD14346012B05D843685E
:10420000C96893434A431A434260002003B0F0BC9C
:10421000BB46B246A946A046F0BD2D0A6D436D438C
:10422000446A2E01761BB4434E69754325434562AB
:104230009CE7013B9846DFE70C23184A70B55168AC
:1042400005000B40082B11D0154B14492B604A6810
:1042500014481206120F825CD3406B604A68124900
:104260005205520F8A5CD340AB6070BD802350680A
:104270005B021840434258410C4B40421840084BE7
:104280000F249C46D16A6044214001315668FCF7F6
:1042900017FFB30C234002334343D6E7001002401C
:1042A00000127A00A85F0008B85F000800F7C2FF9C
:1042B000030070B50020002B33D1314A0333116B5A
:1042C0000B40022B52D0032B48D05168012B29D030
:1042D0000C230B40082B51D1802350685B021840FF
:1042E00043425841274B40421840274B0F249C46DD
:1042F000D16A6044214001315568FCF7E1FE0300BA
:10430000AD0C2C40A01C58431D4B20495A685B68DB
:104310001206120F8A5C5B05D0401D4A5B0FD35C0E
:10432000D84070BD0B330B40082B1DD18023506843
:104330005B02184043425841124B40421840124B16
:104340000F249C46D16A6044214001315568FCF736
:10435000B7FEAD0C2C4002346043E2E71368022242
:10436000100018401A42DCD00748DAE71800126A39
:1043700010401342D5D080200002D2E70248C3E7A4
:104380000010024000F7C2FF00127A00A85F000888
:10439000B85F00081D4A0368904226D08022D205EB
:1043A000904219D01A4A904216D01A4A904217D019
:1043B000194A90421DD0194A90421AD0184A904288
:1043C00017D003608B68C3620B8883620122436944
:1043D0001343436100207047702293434A6813439C
:1043E000104A1340CA681343EBE7702293434A68AC
:1043F00013430C4A1340CA68134303608B68C362BB
:104400000B8883620B7C0363E0E7C046002C01400D
:1044100000040040002000400040014000440140F2
:1044200000480140FFFCFFFF802370B55B0099420C
:1044300000D1ADE041D8012900D171E010296DD142
:10444000036A714D8B430362036A466884692C409A
:1044500015682D022C432025AB431D0013691B0159
:104460002B438B4351680D0168492B43884208D088
:104470006749884205D06749884202D06649884228
:1044800014D180218B431D00536940399B012B437C
:104490008B4391688D0161492B430E409169604DBA
:1044A000890031432940D569EE000E43D268466049
:1044B000846182630362002031E080235B019942C2
:1044C0002CD1016A574E504C31400162036A456855
:1044D000C1692140146824020C43534919401369EF
:1044E0001B030B435168334009030B434749884280
:1044F00008D04749884205D04649884202D04649FB
:10450000884204D149490D40916989010D43D2681F
:104510004560C46102640362002000E0012070BDB8
:104520007326036A8B430362036A44688569B54353
:10453000166835430226B343166933438B435168EB
:104540000B433249884208D03149884205D031496D
:10455000884202D03049884213D108218B43190088
:1045600053699B000B4304218B43916889000B43E3
:104570002F490C4091690C432E490C40D1694900E8
:104580000C43D26844608561426303620020C6E741
:104590007324016A264E31400162036A4168C5698D
:1045A000A54314682543234C1C4013691B02234375
:1045B0005468334024021C43144B984208D0144BD7
:1045C000984205D0134B984202D0134B984213D116
:1045D000134B144E1C4053690E409B0223430F4C57
:1045E00023409468A4021C43936919010E4B314384
:1045F0001940D3695E013143D3684160C561C3632B
:10460000046200208BE7C046FF8CFFFF002C0140B6
:10461000004001400044014000480140FFFBFFFF13
:10462000FFF7FFFFFFEFFFFFFFDFFFFFFFBFFFFF12
:10463000FFFEFFFFFFFDFFFF8A680B7B13430D4A60
:1046400013404A6813430C4A13400A6813430B4A49
:104650001A40CB8913430A4A13400A691343094A93
:1046600013404A69084913430B4013434364002035
:104670007047C046FFFBFFFFFFF7FFFFFFEFFFFFA5
:10468000FFDFFFFFFFBFFFFFFF7FFFFF30B50368C6
:1046900004000D0085B0DB071DD44B68C9680268B3
:1046A0000B4329690B43A9690B4320490A40134373
:1046B000036043681E4A1340AA681343436083683B
:1046C0001C4A13406A69134383601B4B984205D010
:1046D0001A4B984218D0012005B030BD0020FFF7DA
:1046E000E7FD0028F7D029680029F4D08023AA69C3
:1046F0001B029A420DD04B081818FCF7E1FC03048A
:104700001B0C0020E360E7E701A8FFF795FD039885
:10471000E7E74B084000C018FCF7D2FC084B034009
:104720000007400F1843E0600020D5E7F369FFFF62
:10473000FFCFFFFFFFFCFFFF0038014000440040B7
:10474000F0FF0000FA2110B58900FCF7B9FC002247
:10475000034B013858609A6005321A6010BDC0469C
:1047600010E000E0014B18607047C0469004002044
:10477000054B064A998811805988054A11801A8884
:10478000044B1A807047C0463C0800206606002093
:104790006A060020CE0500200321074A074B9360DC
:1047A000074BD36053681B0C1B040B435360136807
:1047B00002390B4313607047080002404024014057
:1047C0003C0800200023124A82B0019393681149EB
:1047D000194080231B060B4393609368002BFCDB7E
:1047E00001230193019B002B05D0019B013B019309
:1047F000019B002BF9D1064A064993680B40012121
:104800000B43936013681942FCD002B07047C04656
:1048100000240140E8FFFF7FF0B5C64600B592B026
:104820001022002102A801F03CFB1422002106A85E
:1048300001F037FB102200210EA801F032FB80208E
:10484000454B8000996990240143996180219A69C0
:10485000890202400192019A5A69E4050A435A61A9
:104860005B6908220B400093009B03230CA92000E6
:104870000C920D93FFF75EFC402203230C920D93E4
:1048800000230CA9200098461093FFF753FC334BEC
:1048900033491A6840200A401A601A6831490825CD
:1048A0000A4020211A601A682F4C0A431A601A68BD
:1048B000603182431A601A6800260A431A601A6837
:1048C0002A4900271140802252000A431A601A68C0
:1048D000274911408022D2000A431A60A36A254961
:1048E0000343A362A36A20002B43A3628023A26A2E
:1048F0005B021343A3620B681F4A1A4080231B0408
:10490000134380220B600023120602A90292039334
:1049100004960597FFF7DCFB002201230892099318
:10492000434606A920000A9306960797FFF7EAFB7D
:1049300004220721E3689343E36063698B430139F1
:104940000B4363616368934363606368AB43636075
:1049500012B080BCB846F0BD001002400800024012
:10496000EFBFFFFFFFCFFFFF00240140FFFCFFFF71
:10497000FFF3FFFF08270140FFFF3FFE0020022159
:10498000164B1870164B1A690A431A611A698A4342
:104990001A614122134B01399A61373A1A62124A5D
:1049A00012789A62114ADA625A690A435A61586265
:1049B0000F4A1048D060104890601048007850604E
:1049C0000F4810608022D86892000243DA601A6AA9
:1049D0000A431A621A680A431A60704744080020A2
:1049E000001002400004004082040020FFFF00008D
:1049F0004400024048080020340400407E040020A7
:104A00008B090000012210B502241848184B0270CF
:104A10001969214319611969A14319616021154B75
:104A2000154C99615D3919621449097899623D21E3
:104A3000D9625969114359611149CC60114C8C609C
:104A4000407817304860104808608021D868890095
:104A50000143D960196A114319628021586C090217
:104A60000143596419680A431A6010BD44080020C4
:104A70000010024000040040FC0400202C0800202C
:104A800044000240340400409B0900001020024B07
:104A90001B6918407047C046000400480449054A95
:104AA000CB681A4080235B001343CB607047C0463D
:104AB00000040048FFFCFFFF074A084B9446802291
:104AC0001868074BD2011B686344DB009A400E3321
:104AD0001040D840C0B27047E4FFFEBF1C00014048
:104AE00084040020044B05491A680A401A60802299
:104AF00092035A617047C04600040140FFFFDFFF88
:104B00008023034A9B0311680B4313607047C04620
:104B100000040140C8230D4A5B0012689A420ED27D
:104B200004210B4A13688B4313600A4B1B785A42CB
:104B30005A41094952055B058A60CB6070470421E0
:104B4000034A13680B431360EFE7C046D805002003
:104B50001C000140E900002000040140F0B5474678
:104B6000CE4680B585B016006A46CB0F5B185B1049
:104B700098465B000733DB08DB00D31A00AF9D4685
:104B80006D460C00814642460021280001F089F95B
:104B9000012C0BDD484600234178027809025C00B5
:104BA0000A4301332A5302309845F5DC434601217C
:104BB0002C4A7B60D3681942FCD113691B0604D5CB
:104BC000294B196851605B685360B30517D1022106
:104BD000244A13690B431361566113693E310B4339
:104BE00013613F39D3681942FCD12023D1680B42AD
:104BF00000D0D36002211B4A13698B431361002349
:104C0000BB60FB60FB687A689A421FD901202024B0
:104C100014490B6903430B61FA68BB685200525B8D
:104C20009B191A80CB681842FCD1CB681C4200D07B
:104C3000CC600B6983430B61BB680233BB60FB68CC
:104C40000133FB60FA687B689A42E2D38021BD465B
:104C5000044A13690B43136105B0C0BCB946B046A2
:104C6000F0BDC046002002408804002070B5002A34
:104C70002BDD040003230C4323405C4263410224E8
:104C80004D1C451BAC42A44164421C421ED0531E25
:104C9000082B1BD90B009408A4006418451A1E6841
:104CA000EE500433A342FAD103241300A343144269
:104CB0000BD0CC5CC4545C1CA24206DD0D5D0233FB
:104CC00005559A4201DDCA5CC25470BD8A18451A66
:104CD0000B786B5401319142FAD1F6E700B51B4BCA
:104CE0001B4883B01B4A9A1802CB11608342F9D14A
:104CF00001230320184A9169194391619269134075
:104D00000193019B154B196881431960FA211A68B8
:104D1000890002431A60124B1868FCF7D1F980230E
:104D200001385B04984200D3FEE7C0210D4A090612
:104D300050600D48036A1B021B0A0B4303620023E9
:104D400093600733136062B603B000BD0010000823
:104D5000C010000800F0FF170010024000000140E2
:104D60009004002010E000E000ED00E00121334A53
:104D700010B513688B430B4313601368304A1368F4
:104D80000B431360013113681942FCD0F8211368FA
:104D90008B4378390B431360536B7F390B43536359
:104DA000274A0131536B1942FCD0F821536B8B43D6
:104DB00078390B435363536A7F390B435362204A5C
:104DC0000131536A1942FCD053681E491940A0238F
:104DD0009B030B430F215360D36A8B43D362802321
:104DE00011685B040B4380211360154A8904136822
:104DF0000B42FCD0F0215368114C8B435360536835
:104E000011490B400321536053688B4301390B4315
:104E100053600C2263681340082BFBD10B48FFF74B
:104E200091FC0A48FFF79EFC0422636B9343636383
:104E3000236B013A9343236310BDC0460020024018
:104E400000100240FFFFC2FFFFF8FFFF006CDC0212
:104E5000064B074A1A60074A1A6002225A60FA2271
:104E600012019A60044A1A607047C0460030004040
:104E7000CCCC000055550000AAAA0000F0B5DE46D3
:104E800057464E464546E0B59DB01422002103A882
:104E900001F007F82022002114A801F002F81822DE
:104EA000002108A800F0FDFF182200210EA800F044
:104EB000F8FF80227D4D1201AB697D4C1343AB613D
:104EC000AB6903A913400293029B7A4B20009246E0
:104ED0000593FFF75FFA8022082123680026134319
:104EE0002360A368744A00271340A360734B6022B9
:104EF0009946A3698B460B43A36100231492159333
:104F000014AB1A00200007391696179718961997B0
:104F10001A961B97FFF788FA04215046A3698B4322
:104F2000A361A3690C310343A36100239846159341
:104F3000169314AB1A002000FFF776FAA3696048B5
:104F40005A460340A3614B465B68802113434A469F
:104F5000536043461593169314AB1A002000490082
:104F6000FFF762FA4B4604215B6820008B434946F9
:104F70004B604B6851460B4349464B60434680218A
:104F80001593169314AB1A004901FFF74DFA4B46DF
:104F9000494670225B684A4803404B6063682C2195
:104FA00093436360A36810329343A3606A46434609
:104FB00052180A932D3313706B464246DA858022CD
:104FC0000023920108A920000C920D9308960997DE
:104FD000FFF732FB80216A6989020A436A616B69C3
:104FE00000240B4080210193019B6A69C9020A4396
:104FF0006A616B6902220B400093009B0223022529
:105000000E920F932F4B0EA99846180010961197E9
:1050100012941395FFF78EF8012202230EA9404641
:105020000E920F931096119712941395FFF782F832
:10503000802202230E920F939023DB050EA9180005
:1050400098461096119712941395FFF773F88022E3
:105050000223D2000EA940460E920F93109611978C
:1050600012941395FFF766F88022022392000EA98E
:1050700040460E920F931096119712941395FFF7D6
:1050800059F880220223520040460EA90E920F9337
:105090001096119712941395FFF74CF81DB0F0BCC1
:1050A000BB46B246A946A046F0BDC046001002402D
:1050B000002C0140CF070000F8BFFFFF182C014073
:1050C000FFFBFFFF0004004800B589B00C2200215F
:1050D00004A800F0E6FE0222174B1848D9691143D4
:1050E000D961D9690A4080210192019A5A69C9029D
:1050F0000A435A615B6910220B400093009B022314
:1051000002920393012302A90793FFF713F8C22029
:1051100080210B4A80001358C9051B021B0A0B4350
:10512000135080231B0113600022064B9A623F320A
:10513000DA6209B000BDC046001002400004004819
:1051400000E100E000040040F0B5DE4657464E4660
:105150004546E0B591B0FFF709FE012280211027F6
:10516000684C9346A36949051343A361A36980264C
:1051700013400793079BE269B6020A43E261E369C1
:10518000614A0B400693069B1368604D3B431360D6
:1051900080226369D202334363616369904633407E
:1051A0000493049B63695A49134363616369134021
:1051B0000593059B9023DB05994680234A461B02F5
:1051C00093625A4663691343636163691340C22261
:1051D00009939200099BAB5819408023DB030B43D2
:1051E000AB5080238021DB002B60AB58C9051B022C
:1051F0001B0A0B43AB5080231B012B608A46FFF731
:105200003DFE5A46E36951461343E361E3690CA846
:1052100013400393039B17239B4653465A469A62B7
:105220003C4B073ACB62002100F03BFE636902224F
:105230003343636163690AA933400893089B0323DE
:1052400048460A920B93FEF775FF202203230A9229
:105250000B9300230AA948460E93FEF76BFFC32267
:10526000FF219200AB5858468B43AB5080235B0123
:105270002B60E26901310A43E261E369C4220B4019
:105280000A930A9BFA2324491B0188629200CB628D
:10529000AB5869301B021B0AAB5080231B032B60E9
:1052A0000B6803430B60E3691C493B43E361E3691B
:1052B0001F400297029BAB581940C0231B020B43AF
:1052C000AB5032212F22164B2E609A62D962414692
:1052D000A3690B43A361A3690B400193019B114B8D
:1052E0009A620C4ADA621A6882431A60FFF7ECFE8F
:1052F00000F0EAFB11B0F0BCBB46B246A946A0469E
:10530000F0BDC046001002400020024000E100E075
:10531000FFFF00FFFFFF000000200040FF00FFFF35
:105320000010004000480140014B58637047C046E0
:10533000002C0140014B98637047C046002C01408F
:10534000014BD8637047C046002C01400121024A3E
:1053500053690B4353617047002C01400022024BFC
:105360009A625A627047C0460004004070B501243A
:105370001021564B80251A6A2D0222431A621A6A9E
:1053800086B00A431A628022196A52000A43042135
:105390001A621A6A03A80A431A621A6A3C310A435B
:1053A0001A628022196AD2000A431A628022196A9C
:1053B00052010A431A6264221A641A6800212243C5
:1053C0001A605A6C90262A435A645A69F605224399
:1053D0005A613F4B1A6A22431A621A6822431A60C2
:1053E0000C2200F05EFD8022012312020092019344
:1053F0000323694630000293FEF79CFE142200212D
:10540000B56101A800F04DFD2023694631480093A5
:105410000494FEF78FFE304B1A6822431A605A69D3
:1054200022435A61DA682243DA60DA68A243DA601A
:105430002A4B1A6822431A605A6922435A61802310
:10544000DB051A6822431A605A6922435A61244BC9
:105450001A6822431A605A6922435A61DA68224361
:10546000DA60FFF7D9F9FFF797F9FFF7ABF90023F7
:105470001C4A009313681C491C431C4B1460186899
:10548000FBF71EFE0301181A0A218000FBF718FE25
:105490000090009B002B05D0009B013B0093009BDC
:1054A000002BF9D1C1208021114A80001358090630
:1054B0001B021B0A0B4313508023136080230D4AE9
:1054C0001B0211680B43136006B070BD002C014035
:1054D0000004004000040048002000400048014053
:1054E000001000401C000140400D0300900400200B
:1054F00000E100E0000401409023DB051A6819492F
:105500000C201140802252030A431A608022D200EC
:105510009A621A68144911408022D2020A431A6022
:10552000802292009A621A68104911408022520229
:105530000A431A6080220E4952009A620A68824326
:10554000043802430A600A6805388243013802437E
:105550000A601A6807491140802212020A431A6041
:105560007047C046FFFFCFFFFFFFF3FFFFFFFCFFC9
:1055700000040048FF3FFFFF0C211C4A1C48136831
:105580008B4308390B431360022393629023DB059E
:1055900019680840802149030143196080210320D4
:1055A000C900996211688143023801431160906219
:1055B0001A68104911408022D2020A431A608022E0
:1055C00092009A621A680C4911408022D2010A4363
:1055D0001A6080229A621A68084911408022520299
:1055E0000A431A60802252009A6270470004004801
:1055F000FFFFCFFFFFFFF3FFFF3FFFFFFFFFFCFFBA
:1056000010B5062843D8D24B80001B589F46032173
:10561000D04AD14813688B4302390B43136090235F
:105620009162DB05196808408021C90201431960B5
:105630008021890099621968C84808408021C90101
:1056400001431960802199611968C548084080218B
:10565000490201431960802149009962C14B1B7DB9
:10566000002B00D049E11368F4398B4308390B4310
:105670001360022393629021C9050B68BA4A1A404D
:1056800080239B03134341220B60B84B1A6010BD6B
:105690009023DB051A68B149032011408022D20112
:1056A0000A431A6080229A621A68AD49114080222A
:1056B00052020A431A60802252009A62A54A116877
:1056C000814302380143116090611968A248084083
:1056D0008021C90201431960802189009962A14B90
:1056E0001B7D002B00D015E11368F539FF398B4382
:1056F00008390B431360022393629021C9050B689C
:10570000994A1A4080239B03134351220B60974B05
:105710001A60BCE70C218F4A934813688B43083901
:105720000B431360022393629023DB051968084042
:10573000802149030143196080210320C900996237
:105740001168814302380143116090611A688249EF
:1057500011408022D2020A431A60802292009A628B
:10576000804A127D002A00D0E1E01A687B4911408E
:105770008022D2010A431A6080229A629021C905D0
:105780000B68774A1A4080239B02134361220B6007
:10579000764B1A607BE79023DB051A686F490C2073
:1057A00011408022D2010A431A6080229A621A684C
:1057B0006B4902241140802252020A431A6080225F
:1057C00052009A62634A11688143083801431160AC
:1057D00094611968644808408021490301431960B5
:1057E0008021C90099625F4B1B7D002B00D098E09F
:1057F000032113688B4302390B431360916290219C
:10580000C9050B68544A1A4080231B037CE7032117
:10581000504A514813688B4302390B43136090235D
:105820009162DB05196808408021C90201431960B3
:1058300080210C2089009962116881430838014356
:105840001160022191611A68474911408022520378
:105850000A431A608022D2009A62424A127D002ACC
:105860006DD11A683D4911408022D2010A431A6065
:1058700080229A629021C9050B68394A1A40802318
:105880009B02FFE60C21334A0224136836488B43FF
:1058900008390B43136090239462DB0519680840B4
:1058A00080214903014319608021C9009962196868
:1058B0002A4808408021C90101431960802199616B
:1058C0001968274808408021490201431960802156
:1058D00049009962234B1B7D002B15D11368FD39BC
:1058E0008B4302390B43136091629021C9050B6809
:1058F000194A1A4080231B0347E70C2113688B4386
:1059000004390B431360B6E6032113688B431C4331
:105910001460EAE70C2113688B4304390B431360CE
:10592000EBE6032113688B432343136067E71A6890
:105930000A491140802212020A431A601EE71A68BF
:1059400006491140802212020A431A6092E7C046BB
:105950008C5F000800040048FFFFF3FFFF3FFFFFDC
:10596000FFFFFCFF5C070020FFFFCFFF1C00014092
:105970000C211C4A1C4813688B4308390B431360E5
:10598000022393619023DB051968084080214903B5
:105990000143196080210320C90099621168814385
:1059A00002380143116090611A6810491140802249
:1059B000D2020A431A60802292009A621A680C4945
:1059C00011408022D2010A431A6080229A611A682B
:1059D00008491140802252020A431A608022520074
:1059E0009A62704700040048FFFFCFFFFFFFF3FFFC
:1059F000FF3FFFFFFFFFFCFF2D4B1B7D002B32D134
:105A00000C212C4A2C4813688B4308390B43136034
:105A1000022393629023DB051968084080218903E3
:105A2000014303201960116881430238014311606A
:105A300090621A6821491140802212030A431A60B9
:105A40001A681F4911408022D2010A431A6080223D
:105A50009A629021C9050B681A4A1A4080239B025A
:105A600013430B6070470C22124913480B68934391
:105A7000043A13430B609023DB051A681040802220
:105A80009203024303201A600A68824301380243EA
:105A90000A601A6809491140802212030A431A60F9
:105AA0001A6807491140802212020A431A60D0E79F
:105AB0005C07002000040048FFFFCFFFFFFFF3FF5B
:105AC000FF3FFFFFFFFFFCFF30B5002591B01C2218
:105AD000002108A800F0E5F980203E4B0595996962
:105AE000C0010143996180219A69C9020240019273
:105AF000019A5A69384C0A435A615B6940220B404B
:105B00000093009B02230292039303230122049338
:105B1000002302A9314806920793FEF70BFB236886
:105B20002F4A08A9134010221343236023682D4AEB
:105B3000134020222360236893432360236820328C
:105B40009343236023684032134323602368264A2B
:105B5000134023602368254A1340E1222360002379
:105B6000520208920993002200230A920B93082202
:105B700000230E951E4D0C920D932800FEF786FD16
:105B8000AB681C4A1C481340AB606B681B4A1C493D
:105B900013402A226B60AB689343AB602B68293AB1
:105BA00013432B602368174A0340102B0FD0A160CA
:105BB000E2603121084A53681B0C1B040B435360FD
:105BC0000B4A4F3193680B43936011B030BDE160D5
:105BD000A260EEE7001002401C00024000040048F2
:105BE000EFBFFFFFFFCFFFFFFFFCFFFFFFF3FFFF54
:105BF00000380140FFFBFFFF10400000FFB7FFFF30
:105C0000900500202838014070B50C240823012697
:105C10000B490A68A2431A430A600A4A1568B54349
:105C2000156053681B0C1B04034353601368334314
:105C3000136004220B68A34313430B6070BDC0467E
:105C4000003801401C0002407047C046FEE7C046D5
:105C50007047C0467047C0467047C04610B5274BD6
:105C60001B78002B03D0264B1B78002B2DD18022D4
:105C7000244BD201196811420BD02349097800291D
:105C800007D00A242148016AA143083C214301624C
:105C90005A601C4B1A68920406D41A68120402D582
:105CA000802252015A6010BD8022012152015A60A7
:105CB000174A13688B431360FDF736FF8023154A9C
:105CC0001B0211690B431361EDE780230D4A5B0151
:105CD00051680B43536000220D4B1A600E4B1B782A
:105CE000002B05D0FEF74AFE02220C4B1A70E5E7A6
:105CF000FEF788FE0122094B1A70DFE71406002028
:105D00006106002000000240C7050020000400409A
:105D100044000240000401404408002028060020FE
:105D200070B580250C4CAD0363692B420AD08023EB
:105D3000DB055A6A094B1B685B089A4203D9656107
:105D4000FCF7F6F870BDFEF7B7FE054B1B788342F3
:105D5000F8D16561F6E7C04600040140D80500208F
:105D6000E9000020054B10B51A69D20700D410BD18
:105D7000022252421A61FCF7E7FDF8E700100040EA
:105D8000022210B5024B52421A61FCF78BF810BD8B
:105D9000002000407047C0467047C046074B1A6954
:105DA000920702D5032252421A61044B1A69D207A4
:105DB00002D5022252421A617047C046004001409B
:105DC000074B1A69920702D5032252421A61044B0B
:105DD0001A69D20702D5022252421A617047C046A0
:105DE00000040040084B10B51A68920706D4082238
:105DF000054B19680A4200D05A6010BD01225A6052
:105E0000FEF7B6FCF3E7C04600000240074B1A69F4
:105E1000920702D5032252421A61044B1A69D20733
:105E200002D5022252421A617047C046002C01403E
:105E3000802210B5024B12025A61FCF775FC10BDAE
:105E4000000401407047C04670B500260C4D0D4C53
:105E5000641BA410A64209D1002600F02BF80A4DBD
:105E60000A4C641BA410A64205D170BDB300EB58C8
:105E700098470136EEE7B300EB5898470136F2E752
:105E8000C05F0008C05F0008C05F0008C45F000872
:105E9000002310B59A4200D110BDCC5CC45401332C
:105EA000F8E703008218934200D17047197001335C
:105EB000F9E70000F8B5C046F8BC08BC9E4670473C
:0C5EC000F8B5C046F8BC08BC9E46704710
:105ECC00B8170008B21700086A1800086218000812
:105EDC005A180008521800084A1800083C18000804
:105EEC002E180008261800081E180008B8170008FD
:105EFC000E180008F2170008E4170008B81700087D
:105F0C00B8170008B8170008B8170008B817000829
:105F1C00D6170008CC170008B8170008B8170008E7
:105F2C00B8170008B8170008B8170008B817000809
:105F3C00B8170008B8170008B8170008B8170008F9
:105F4C00B8170008B8170008B8170008B8170008E9
:105F5C00C4170008191B12131D1516171A090A0B62
:105F6C001E0D0E0FE0230008DC2300080626000897
:105F7C0000260008FA250008DC2300086400000055
:105F8C008E56000890560008145700080E5800084A
:105F9C0096570008845800080E56000800000000B0
:105FAC0000000000010203040607080900000000BD
:045FBC0001020304D7
:045FC000D5130008ED
:045FC400AD13000811
:105FC800007C0008CF07CF0778002D002D00D007F0
:105FD8004C046C07DC0564004A012D009001C800E0
:105FE800010014004600DC05020102010101000065
:105FF800D43000000105010AE80300001027000062
:10600800000000000A00000000000000640000001A
:106018000000000000000000000000000000000078
:106028001027000050C30000B400D007D0072D008F
:106038001E030300000000009001000000000000A3
:10604800E80300000000000000000000000000005D
:1060580000000000204E0000A08601006419000026
:1060680000000000010000000000000032000000F5
:106078000000000000000000000000000000000018
:106088001027000050C3000001020100D200D00711
:1060980064000500E8030000B400B700BA00BD00C2
:1060A800C100C400C700CA00CD00D000D300D6008C
:1060B800D900DC00E000E300E600E900EC00EF00B6
:1060C800F200F500F700FA00FD00000103010601E7
:1060D80009010B010E0111011301160119011B0120
:1060E8001E0120012301250128012A012C012F016D
:1060F80031013301350138013A013C013E014001CB
:10610800420144014601470149014B014D014E013D
:1061180050015101530154015601570158015A01C8
:106128005B015C015D015E015F016001610162016B
:106138006301630164016501650166016601670128
:106148006701670168016801680168016801680101
:1061580068016801680167016701670166016601F6
:106168006501650164016301630162016101600108
:106178005F015E015D015C015B015A015801570135
:10618800560154015301510150014E014D014B017B
:106198004901470146014401420140013E013C01D9
:1061A8003A0138013501330131012F012C012A014F
:1061B80028012501230120011E011B0119011601D7
:1061C800130111010E010B01090106010301000170
:1061D800FD00FA00F700F500F200EF00EC00E9001E
:1061E800E600E300E000DC00D900D600D300D000D0
:1061F800CD00CA00C700C400C100BD00BA00B70086
:10620800B400B100AE00AB00A700A400A1009E003E
:106218009B009800950092008F008C0088008500F4
:1062280082007F007C0079007600730071006E00A8
:106238006B006800650062005F005D005A0057004F
:10624800550052004F004D004A00480045004300E9
:1062580040003E003C003900370035003300300074
:106268002E002C002A0028002600240022002100ED
:106278001F001D001B001A0018001700150014004D
:106288001200110010000E000D000C000B000A0097
:1062980009000800070006000500050004000300C7
:1062A80003000200020001000100010000000000DC
:1062B80000000000000000000000000000000100D5
:1062C80001000100020002000300030004000500B1
:1062D800050006000700080009000A000B000C0072
:1062E8000D000E0010001100120014001500170018
:1062F80018001A001B001D001F00210022002400A6
:10630800260028002A002C002E003000330035001B
:10631800370039003C003E0040004300450048007B
:106328004A004D004F005200550057005A005D00CA
:106338005F006200650068006B006E00710073000A
:10634800760079007C007F008200850088008C0040
:106358008F009200950098009B009E00A100A40069
:10636800A700AB00AE00B1000614320078004B0065
:106378005A005A001E000201FA000000204E2000B8
:1063880050C308001C00014023016745AB89EFCDCD
:0463980000127A0075
:107BE00041524B5F34494E315F4630353100000021
:107BF0000000000000000000000000000000000085
:040000050800407D32
:00000001FF
