:020000040800F2
:1010000000200020713E0008515900085559000881
:1010100000000000000000000000000000000000D0
:101020000000000000000000000000005959000806
:1010300000000000000000005D5900086159000830
:10104000C13E0008C13E0008C13E0008C13E000884
:10105000C13E0008C13E0008C13E0008395B0008DF
:10106000C13E0008ED5A0008655900088D59000876
:10107000515A0008155B0008C13E0008C13E000837
:10108000C95A00086D5A000800000000895A00087B
:10109000A55A00089D5A0008C13E0008C13E00083C
:1010A000C13E0008C13E0008C13E0008A15A000828
:1010B000C13E000800000000C13E00080000000022
:1010C000002243088B4274D303098B425FD3030A87
:1010D0008B4244D3030B8B4228D3030C8B420DD39A
:1010E000FF22090212BA030C8B4202D31212090228
:1010F00065D0030B8B4219D300E0090AC30B8B4266
:1011000001D3CB03C01A5241830B8B4201D38B0313
:10111000C01A5241430B8B4201D34B03C01A5241B8
:10112000030B8B4201D30B03C01A5241C30A8B42FB
:1011300001D3CB02C01A5241830A8B4201D38B02E6
:10114000C01A5241430A8B4201D34B02C01A52418A
:10115000030A8B4201D30B02C01A5241CDD2C309FC
:101160008B4201D3CB01C01A524183098B4201D378
:101170008B01C01A524143098B4201D34B01C01A63
:10118000524103098B4201D30B01C01A5241C308DB
:101190008B4201D3CB00C01A524183088B4201D34A
:1011A0008B00C01A524143088B4201D34B00C01A36
:1011B0005241411A00D20146524110467047FFE7A2
:1011C00001B5002000F0F0F802BDC0460029F7D0BC
:1011D00076E7704703460B437FD4002243088B42D7
:1011E00074D303098B425FD3030A8B4244D3030BAE
:1011F0008B4228D3030C8B420DD3FF22090212BA73
:10120000030C8B4202D31212090265D0030B8B42EE
:1012100019D300E0090AC30B8B4201D3CB03C01AD8
:101220005241830B8B4201D38B03C01A5241430BB3
:101230008B4201D34B03C01A5241030B8B4201D3A3
:101240000B03C01A5241C30A8B4201D3CB02C01A0E
:101250005241830A8B4201D38B02C01A5241430A86
:101260008B4201D34B02C01A5241030A8B4201D375
:101270000B02C01A5241CDD2C3098B4201D3CB011C
:10128000C01A524183098B4201D38B01C01A5241CB
:1012900043098B4201D34B01C01A524103098B42CF
:1012A00001D30B01C01A5241C3088B4201D3CB00BA
:1012B000C01A524183088B4201D38B00C01A52419D
:1012C00043088B4201D34B00C01A5241411A00D24D
:1012D00001465241104670475DE0CA0F00D04942B6
:1012E000031000D34042534000229C4603098B4226
:1012F0002DD3030A8B4212D3FC22890112BA030AAE
:101300008B420CD3890192118B4208D3890192112F
:101310008B4204D389013AD0921100E08909C309B4
:101320008B4201D3CB01C01A524183098B4201D3B6
:101330008B01C01A524143098B4201D34B01C01AA1
:10134000524103098B4201D30B01C01A5241C30819
:101350008B4201D3CB00C01A524183088B4201D388
:101360008B00C01A5241D9D243088B4201D34B00A3
:10137000C01A5241411A00D20146634652415B10E5
:10138000104601D34042002B00D5494270476346C6
:101390005B1000D3404201B5002000F005F802BD0B
:1013A0000029F8D016E770477047C0468446080009
:1013B0006146FFE71FB504F0EDFD002801D40021D0
:1013C000C8421FBD10B504F079FD4042013010BD88
:1013D00010B504F0DFFD002801DB002010BD012066
:1013E00010BDC04610B504F0D5FD002801DD002079
:1013F00010BD012010BDC04610B504F085FD0028C9
:1014000001DC002010BD012010BDC04610B504F065
:101410007BFD002801DA002010BD012010BDC04670
:101420001C2101231B04984201D3000C10391B0A14
:10143000984201D3000A08391B09984201D30009D8
:10144000043902A2105C40187047C046040302022F
:1014500001010101000000000000000010B5064C71
:101460002378002B07D1054B002B02D0044800E065
:1014700000BF0123237010BD1E09002000000000E2
:10148000F8660008044B10B5002B03D0034904484C
:1014900000E000BF10BDC046000000002009002091
:1014A000F8660008F0B54546DE4657464E46C04A47
:1014B000E0B51368D16FBF4DC91ABF4C89B22D88F2
:1014C000480985B0218060808D4259D2BB4D2D885E
:1014D0008D4255D90021BA4D29801500211D803536
:1014E00000E0136856680832F31A9BB298429B4199
:1014F0005B4208C19542F4D1A268666894460196A1
:10150000E6696569B146E66A616AB246266902958E
:1015100033000396266AA769B346019EA26A754006
:101520004D40EE0065467D405540AD0035431E0000
:101530005B465E40236BE0685E4035434E46534653
:1015400046405E40636B76003543DE00A36BEDB230
:101550009B001E43236C1E43E36B5B001E43994BB1
:10156000F6B21B78002B12D0974B984643461B7857
:10157000002B11D1AE4215D05022A35A0133A352F1
:1015800005B0F0BCBB46B246A946A046F0BD8E4BA6
:1015900098461B78002B64D00F23984643469E1B29
:1015A000F6B2E7E700254626854B1D80A55B013591
:1015B000A553256B012D01D1844E35706546019BE5
:1015C0006D029B022B43554600022B4303430398B5
:1015D0008900C0010343029852008001034378014F
:1015E00003434846000103435846C00003431943E0
:1015F0000A432F2A1ADD4823E35C002B65D1744D82
:101600002A78002ABCD0734B1B78002BB8D16D4BC5
:101610001B78002BB4D04B23E15C91425DD0E254A7
:10162000042A64D949230122E254A9E7531E2E2B30
:1016300010D9002AE3D14A23E35C012B01D14733BF
:10164000E25400210023644A1180614A1370492248
:10165000A35495E70021604B5D4DD2B219802A70EA
:10166000D1E703F0F1F800281CD04422A35C013339
:10167000DBB2A354642B15D901234246137063686F
:10168000E0680193A368A7699C462369616A039394
:101690006369A26A0293E3699946236A9B46E36AF7
:1016A0009A4679E76368E0680193A368A7699C4656
:1016B0002369616A03936369A26A0293E3699946A5
:1016C000236A9B46E36A9A4650E7434B1A800023FD
:1016D0003F4A13704922A35452E7042A07D94921EB
:1016E000635C0133DBB26354052B00D848E7492320
:1016F0000021E154152A06D8384B92009B589F468A
:101700000122374B1A702A78364B1A7000232B703F
:1017100036E7354B5A7C354B1A70F4E7324B5A7C1E
:1017200001239B1A314A1370EDE74C230022E25447
:101730002F4A0233E252E6E74C230122E254E02230
:1017400002331201E252043BE35C012BDBD148225D
:10175000A354D8E700F082FA234B214A5B7C013383
:101760001370D0E70122204B9A74CCE700221E4B65
:101770009A74C8E701221C4B5A7400221B4B1A7042
:10178000C1E70022184B5A74184B01321A70BAE79D
:101790000522134B1A70B6E70422114B1A70B2E7F8
:1017A00003220F4B1A70AEE702220D4B1A70AAE704
:1017B0001408002000080020980400208004002065
:1017C00010060020E40500202D0600200A06002057
:1017D00042060020CF050020D00500201067000839
:1017E000EA0500200C07002028070020EB0000205D
:1017F000FF0E00004E22F0B52D4DA95A00293BD016
:1018000000200B00A852080A0A09424051400F224A
:1018100010001B0188430343264918130C5C100079
:101820001840085CE40304431812AB6510401B1118
:10183000085C1340CB5C800204435B011C431E4BDD
:101840001E4E1F7831327B1C9B00BF00EC65F250AE
:1018500040210125F0192D3A00E041682B0093400A
:101860002340D34089094B409B0183600430013AF7
:10187000F3D20023F351F0BD114B1B78002B0CD198
:10188000104B19000F2218001041012808D0013A0E
:10189000082AF8D100226A65B5E703000100F1E7E4
:1018A000083A134151020B436A6599B2ABE7C0464F
:1018B000980400206867000811080020FC0400203C
:1018C000CF050020FFFF000070B5049E05000DE06D
:1018D0008D420FDD9E420BD05418F018641040105A
:1018E0008C4206D0A54207DC060022009542EFDBC1
:1018F000300070BD1800FCE70300611CF6E7C0462D
:101900000300401A00D5C81A7047C046044980B287
:101910004A6A92B24B6A9B1A9BB28342FAD37047CF
:101920000048014010B5441E00280BD0FA2006499B
:1019300080004A6A92B24B6A9B1A9BB28342FAD3E6
:10194000013CF6D210BDC046004801400300881A91
:101950001A6910B594469C681A6A44436444186036
:101960001C61944201DD14001A615242A24201DD61
:1019700014001A619A699861811ADA6851435A68A9
:10198000596150435A6A40180019D861904201DDEC
:101990001000DA615242824201DD1000DA6104F087
:1019A00031FE10BD70B59F4C9F4DC02220002968AC
:1019B00082B003F061F8E37D032B01D90223E375C4
:1019C000207E0300083B282B38D8103B182B00D86A
:1019D000FEE003000C3B0B2B00D807E10300083BA3
:1019E000032B00D810E1A888904BD862607E0300DA
:1019F000323B642B2BD8237D002B00D0C2E0430068
:101A0000400868810A302B81A8812822A37E022009
:101A100053431433EB8102F045F86378002B1BD15C
:101A2000EE89FA2396215B0000933000804ADB1890
:101A30004900FFF749FFE88402B070BD7D4B7B4A47
:101A4000EB80D362607E0300323B642BD3D99623B4
:101A50002B81413B6B81D8E7A07F0B2800D8B4E0F5
:101A6000052002F01FF82023E35C734A7833FF332C
:101A70005B002B8221239446E35C704A63445B0045
:101A80006B8222239446E35C6D4A6344AB8223233A
:101A9000E35CAB752423E35C013B59424B4113707B
:101AA0002523E35C0021FA332B832723E1542831DB
:101AB000635C053B142B01D9052363542921635C26
:101AC000013B092B01D90A2363542A23E15C481EF8
:101AD000082861D90A21E1542B21635C463B462B3F
:101AE00001D9FF2363542C23E35C013B622B01D813
:101AF000012353702D21635C013B092B01D9052380
:101B000063542E23E35C092B0BD8022B00D185E014
:101B10002ED8002B06D0012B09D19370494A13709F
:101B200005E000239370D3700122464B1A70962370
:101B3000EE895B009E4203D200220D3BFF3BEA543C
:101B4000E17E2020FFF746FB642104003000FFF710
:101B5000B7FA210080B2FFF73DFB0C21688430000A
:101B6000FFF7AEFA210080B2FFF734FBA88458E7F4
:101B7000042BDCD101230020334993700B703149D1
:101B80000870D4E703212881FFF79AFAC0B2688170
:101B90000A30C0B2A88138E74B015B1A9B005B1A80
:101BA0005B0029893D3BDBB2591829816989AB76F5
:101BB00059186981A98B5918A983E98B5918E983A8
:101BC0001A49486C03434B6486E701F06BFF4AE710
:101BD0001E4B302200931821164BFFF775FEA8808C
:101BE000207E03000C3B0B2B00D9F7E6114B18228B
:101BF00000930C21164BFFF767FEA880207E0300A0
:101C0000083B032B00D9EEE6124B1022009307216C
:101C1000114BFFF759FE80B2A880E5E60123D3708F
:101C200085E7C04628070020C0000020002C0140A6
:101C3000B80B0000CF0700006B0300005E0500003A
:101C400090050020E0040020E2040020E7030000EB
:101C50009E0F0000B50B00006D170000282210B584
:101C6000044B05489A5CC02142701A6802F07CFE61
:101C700010BDC046C00000202807002070B50C4CE5
:101C80000C4A237A608959008D5A88526268013360
:101C900094466044401BDBB26060632B00D9002394
:101CA00064212372FFF70CFA80B2A08170BDC04698
:101CB000900500204406002010B502F0DBFD29232A
:101CC0000C4AD35C002B06D0002806D10A4A937B2D
:101CD0000133937310BD0028F8D12A200649125C05
:101CE000CB7B0133DBB2CB739A42F3D200238B73ED
:101CF000F0E7C046C0000020900500202B2370B5FF
:101D0000294D2C21EB5C012B41D06B5C5A1ED2B2C9
:101D1000002A2CD06A540122244C13402922AB54AF
:101D200072B6637C002B2DD062B602F0D1FD204B41
:101D300062699A4202D92D230122EA540023A37337
:101D400023762C33EB5C2A6B013B5B00E3189A8310
:101D5000E28BA38B9B18228C9B18628C9B18A28C05
:101D60009B18E28C9B1804335B10A36270BD0623A2
:101D700029220E4C6B54053B2374AB5472B6637C22
:101D8000002BD1D12C33E85C03F082FBCCE76A5CFA
:101D90000132D2B2062A03D9044C6B542374BDE736
:101DA000024C6A541340B9E7C0000020900500209F
:101DB000C409000001211D4A70B5D3688B43D3606C
:101DC000FFF79CFF1A4C1B49E28DA38D2F209B1817
:101DD0000A6B5B1094466344174D5A080A63285CEB
:101DE000002813D134228A5C180942439B0892B21E
:101DF00062869A1A2D23CB5CA286002B13D0A36B8C
:101E00000E4A934201D80133A36370BD3020205C99
:101E10009B084243920992B262869A1A2D23CB5CA8
:101E2000A286002BEBD102F049FDE8E7002000403C
:101E300090050020C0000020280700200F27000088
:101E4000F0B5C646294B00B598465B697D2B18D97D
:101E50008023DB055B6A7C2B0AD842469623928F4F
:101E60009B009A4204D24246926B643B9A421AD338
:101E70003E22434641469B5C0133DBB28B54642BCC
:101E80002ED835231A4D0024EB5C29263527002B4C
:101E900004D10BE0EB5D0134A34207DD02F0EAFC64
:101EA000AB5D8342F6D180BCB846F0BD72B602F09D
:101EB000F7FC43464246DB8D414693858023DB0594
:101EC0005A6ACA850022898E5A620A4B01315A62C7
:101ED000D96201211A61DA680A43DA6062B6E2E780
:101EE00002F0DEFC002342469363DCE7900500200D
:101EF000C000002000200040F0B5CE46474680B527
:101F0000B54DB64CAB7C83B0002B00D1AAE0A378D2
:101F1000002B00D1E0E0B24E4023E25A8323DB00E5
:101F20009A4200D3A8E11300303B9BB2FA2189000A
:101F30008B420FD22B216F7C705C2A39C91B8842DF
:101F400000D149E336215B00715C9BB25B1A4221F0
:101F50002F3363522F2A00D989E000224223E25214
:101F60000433E25447273723E25DF35C9A4200D9F9
:101F700084E0EF7C002F00D18EE04227E05B1D283B
:101F800000D915E148230022E2522823EB5C990096
:101F9000C9188900884200DB16E14523E35C002B69
:101FA0005BD15433E35C002B57D04823EA7CE05AE2
:101FB00093009B181B012E33834200DB52E13F2725
:101FC000E35D002B00D120E37389002A00D1F4E106
:101FD000FA22D200283300928921824AFFF774FC4A
:101FE0005823E0522623EB5C002B00D030E16374D1
:101FF000EA7C4833E75A93009B181B012E339F421B
:1020000000DC2FE12E2F06D91E236A7F1341A26B1D
:10201000934200D944E25823E35A6A22B25A9A42C0
:1020200001D25823E2526378002B06D06C23F25E73
:102030005823E15A914200DD41E2656E0021281CDF
:10204000FFF7DAF9002808D02F2F06D95826281CC8
:1020500003F07EFDA35BC018A05303B0C0BCB9461B
:10206000B046F0BD4023E25A5D4E0233E2524727AC
:102070003723E25DF35C9A4200D87AE7AB7D002B10
:1020800000D176E703F0C0F902F00AFC48230022F1
:10209000E2521E33E35580E74A23E35C002B00D174
:1020A00081E04B23E35C002B00D0F9E0276D4E4923
:1020B000381CFFF7A1F9002800D16FE14823494AF5
:1020C000E2524A49381CFFF783F9002800D164E73F
:1020D00048233022E25260E72622AA5C002A00D17F
:1020E00086E04022A05AFA223D4E9200B77D7F0042
:1020F000B91888421BDD6A7C2B279046F25D944616
:10210000424500D1DDE1637C002B00D017E1442380
:102110000022E254FA22334BD20000932F23FFF720
:10212000D3FB4223B77DE052023BE05A7F00FA2204
:102130009200D21B824222DD6B7C98462B234146C3
:10214000F75C9C462A3B591A8F4200D115E2637C0A
:10215000002B00D0F3E044230021E154153B009311
:10216000204BFFF7B1FB4223E052023BE05AFA2337
:10217000B77D9B007F00DB1B984200DADFE0FA238B
:102180009B009C466744B84200DDD8E04223002211
:10219000E252637C002B00D1D1E00023637444231E
:1021A0000132E254CBE04223E25A0633E252F4E633
:1021B0001E2800D1E9E62823EB5C9A00D218920091
:1021C0001100904200DA91E0064AA0230092FFF746
:1021D0007BFB4823E052E0E6280700209005002022
:1021E000C0000020FF07000000E0FF440000404264
:1021F0004023E05AFA23CA4E9B00B27D5200D11808
:10220000884200DC7CE02B226B7CB25C9A4200D1DD
:1022100094E1FA22C34BD20000932F23FFF754FB23
:102220004223FA22E052023BE05AB37D92005B0067
:10223000D21A824269DCFA229200944663448342B5
:1022400000DA7CE042230022E2520433E25476E0DA
:10225000EA7C93009B1848221B01A25A2E3393421A
:1022600000DAA3E05A23E35C002B72D0052B6DD873
:10227000AD4A9B00D3589F462B216B7C715C9942E1
:1022800000D192E13620A94B305CD11849001300EF
:1022900089B2091A4220303B2F319BB2215245E6C8
:1022A000A04AB36B91464222A05A9046F26B2F216E
:1022B00000924A46FFF708FB01009D48FEF78AFF9F
:1022C000E97E4908FEF786FF4C23E0524346E35A75
:1022D0002E2B00D898E0276D9649381CFFF78CF814
:1022E00000285BD048234A46E252EAE6A0231E219A
:1022F0000093713BFFF7E8FA4823E052E05B44E6C5
:10230000FA239B009A1A90429CDA2B236F7CF15C93
:102310002A3BDB1B994200D1E3E02F2300210093ED
:10232000804BFFF7D1FA4223FA22E052023BE05AF7
:10233000B37D92005B00D21A904200DB7BE7A3786A
:10234000002B00D193E6E7E501F0F6FC5A230022CA
:10235000E2542B7D002B3AD15822A3523F33E35C49
:10236000002B00D18AE02623EB5C002B1ED0637C7F
:10237000002B1FD04023FA20E15A8000FFF7C0FA5B
:10238000FA235C229B00C3189BB2A352B288013A85
:10239000934209DB03F08CF9627C08E0381C03F0FF
:1023A000D7FB4823E0528CE602F07CFF627C002AD7
:1023B00000D052E64823E75A24E6FA22D2000092DF
:1023C0002F21584AFFF780FA5823E0520AE63F23AC
:1023D000E35C002B20D101272D22A363B754E373C4
:1023E0002B7F002B16D0E87C002816D1524A2923D7
:1023F00094465C22EB5C63445B00A35202F052FF04
:1024000067740122E87C09E04823E752002337641F
:102410002365C2E502F0F8FFE87C627C2C233C21B6
:10242000F35C013B4B436821715A5B18B4219FB2A6
:102430001BB249008B4200DB0AE10B39FF396352C2
:102440003900B423773109B25B00994200DBFAE02E
:10245000093BFF3BE1523900B423EF3109B25B0085
:10246000994200DBFAE0073BFF3BE152012801D132
:102470004523E05458230021E15298E701212B3AEB
:10248000B154A3632B7F002B00D005E1637C002BAC
:1024900000D104E12623EB5C002B00D06AE7DCE5E9
:1024A00058213289635A934201D213006252F28B4F
:1024B0009A4200D3B1E55823E2521300ADE5E2524F
:1024C000BBE54222A352012363744333E35C002B38
:1024D00000D134E7012362469B1AF355002363744D
:1024E00015E6F38C316B8B4200D3C5E0A38FC72B6D
:1024F00000D9C1E0002301229846A3632D33F25492
:10250000023BF75402F0CCF946234246E254063B24
:10251000E05AFA23B27D9B0052009A1AFDE6C046AB
:10252000C0000020FF07000078670008E8FBFFFFFD
:102530000087930300E0FF44DE030000F28C306B61
:10254000824200D38EE0A28FC72A00D98AE00122FE
:10255000D31A2B220027B3542D232A3AF254A7630F
:1025600002F09EF94623E754063BE05AFA239B000B
:102570009C46B17D490061444BE6422100276374CB
:102580004333E35C6752002B00D1D8E663464146F3
:10259000F15400236374DEE501F05CFBD6E601F044
:1025A0002FFCD3E601F0FAFBD0E6F28C316B8A42C5
:1025B00042D2A28FC72A3FD80122D31A2B2200274A
:1025C000B3542D232A3AF254A76302F069F9462343
:1025D000E754063BE25A55E6F38C326B934224D221
:1025E000A38FC72B21D8002301229846A3632D3344
:1025F000F254023BF75402F053F946234246E254A8
:10260000063BE25A1300303B9CE402F0FDFE2D2312
:10261000F35C002B3AD03F230122E2543289173376
:10262000E2520E3BEA7CE05ACEE44523E35C002B09
:10263000D9D14022A35290E44522A25C002ABBD10A
:102640004023E25289E43B006021F13B635202E700
:102650005E23693FFF3FBFB2E752F1E66221793F57
:10266000675203E74522A25C002A00D06FE7FA20F8
:1026700040238000E052CCE54523E35C002B00D0F2
:1026800038E7FA2040238000E05246E6E35D002B65
:1026900008D002F013F9BEE703F00AF863E602F08F
:1026A000B3FE60E6FFF72AFB044B054A3363802341
:1026B000DB055A620123E355EBE7C0461027000013
:1026C0008813000070B56825094C635D012B0AD0A2
:1026D000022B02D0FFF710FC70BD208DFFF78AF8A7
:1026E00000236355F8E7FEF7DDFE00236355F1E7AD
:1026F00090050020F8B5CE4647462B2380B54E4DB9
:102700005E21EA5C4D4C002A1ED1B420635A400081
:1027100001331BB2834200DB73E063526021B420BB
:10272000625A4000013212B2824200DB0022625241
:102730006221B420625A4000013212B2824200DAB1
:102740006DE00022625214E0625A013A13B21204A0
:1027500000D566E063526021625A013A10B2120459
:1027600052D460526221625A013A10B2120454D417
:102770006052334A5B00985E6E23FA219846EB5A0A
:102780002D26C318A888C90058439146FEF722FD9C
:102790002C4F0A21BB5D5843FEF71CFD80B202F0AE
:1027A0009BFC6023E35E4A465B00985E4346FA2149
:1027B000EB5AC900C318A8885843FEF70BFDBB5D50
:1027C0000A215843FEF706FD80B202F08BFC62231B
:1027D000E35E4A465B00985E4346FA21EB5AC90025
:1027E000C318A8885843FEF7F5FCBB5D0A2158437F
:1027F000FEF7F0FC80B202F07BFCC0BCB946B046EC
:10280000F8BD0023625289E76822FF3262526221DA
:10281000625A013A10B21204AAD56822FF326252FB
:10282000A7E76823FF3363526021625A013A10B26E
:10283000120400D495E7E7E7C000002090050020CF
:10284000980100202807002080210022C90570B5CA
:102850004B6A1F4C1F4DE3854A62286B1B044200E4
:1028600012181B0CD21893082B6353095B0098B203
:10287000D3081B1A9BB26086A386A06B01E00428D4
:1028800002D94A6A9A42FAD3134AD362FFF736FA58
:1028900000232620A373E373A36B10490133A363C2
:1028A0004A7F095C0A4305D1FA232A6BDB009A426E
:1028B00007D370BD132BFCD9FA232A6BDB009A4295
:1028C000F7D82D230022EA5401F0F8FFF1E7C046C3
:1028D00090050020C00000200020004028070020B4
:1028E000F8B558236A22CE4647467025C54C80B5B8
:1028F000E35A615DA387A35A0133A3520232A35A5C
:102900000133A3520232A35A0133A3521A3AA35CF1
:102910000B4304D17121605C002800D0E0E0BA4E86
:10292000F37F002B0DD078217022B848635A805C69
:10293000013382009BB2121863529200934200DD71
:102940009CE04523E35C002B37D1B04F2D33FB5C7B
:10295000002B04D03F23E35C002B00D035E16E2335
:10296000E25A0A2A31D8AA4B984648234246D35CF9
:10297000002B00D088E0A58F5423E35C002B04D00B
:102980003F23E35C002B00D00EE1637CFE88002B2C
:1029900000D19BE05C23E05A9E497043FEF71AFC8D
:1029A000BB880133C0187E2380B2E0525623E55223
:1029B000994BDE6258639863D863984A1388013351
:1029C0001380C0BCB946B046F8BD0022E25263781D
:1029D000002B04D03F23E35C002B00D037E1737F52
:1029E000002B00D0B9E08A4B98464A23E35C002BC9
:1029F000BBD03F23E35C002BB7D04C233800E25A16
:102A0000A16A4030FEF7A2FF854903F007FB216D64
:102A100003F0B6F8834B051C191C9946FEF7ECFC35
:102A2000002808D10023281C191C9946FEF7D0FC69
:102A3000002800D138E14B462365A36B632B00D9F6
:102A400093E7002342463B654833D35C002B00D11B
:102A500091E75623E35A492240460221A58F81542B
:102A6000473AE81A88421FDC581B884200DCE6E03F
:102A70009B1A9DB200224A23A58721E07A230122D6
:102A8000E254002363525CE7A36B952BE1D95623F4
:102A9000E35A952BDFD9492240460121A58F815465
:102AA000483AE81A8842DFDD9B189DB2FA233A6B58
:102AB000A5875B009A4200D89EE00122AB3BFF3B1A
:102AC0004146CA54F27D163BFA5455E73000FA21CC
:102AD0006843C900FEF77EFB7E2380B2E05265E7C3
:102AE0004220205A002800D0A6E07226A35B4E4F59
:102AF00001339BB2A353BB4200D810E77423E35ABF
:102B00001E2B00D8C9E00123A3542378002B00D149
:102B1000C7E07623B921E65A49003000FEF7D0FA23
:102B2000B92360555B0000259E420ED33F4B7026B3
:102B300098463F4F01F0C8F86420FEF7F3FE434685
:102B40001F60A35D0135AB42F4DCE3782E4E002B11
:102B500000D0E5E62622B354E2E63F23E35C002BF7
:102B600000D100E72A4B396B18009A8B2030984629
:102B7000FEF7ECFE2A4903F051FA616E03F000F80B
:102B80002C4B051C191C9946FEF736FC002808D171
:102B90000023281C191C9946FEF724FC002800D1AC
:102BA00084E04B46636620E74823E35A2F2B00D886
:102BB000EBE6FE88FA213000C9006843FEF70AFB05
:102BC0007E23013080B2E052F0E601F069FEFFF7AB
:102BD00073F8237E002B00D0C1E62933FB5CA27B77
:102BE000002B54D07123FB5C9A4200D8B7E6012336
:102BF0002376FFF729FEB2E64A2300224146CA5453
:102C0000BAE6C0469005002028070020C00000203A
:102C10004001002030F8FFFF002C0140100600208A
:102C200017B7D13800E0FF44102700000030004003
:102C3000AAAA0000000016437222A3526FE63423B2
:102C4000F27D4146FA5400221633CA5494E62C23EE
:102C5000F35CC8325A4338007C237430E15EFEF7DF
:102C600075FE6C25124903F0D9F903F0ABFC7B5BD0
:102C7000181A7B8900B27853984201DA18B2785357
:102C8000FB88834200DBAAE66C22BB52A7E67223D4
:102C9000FB5C9A4200D862E6A9E7A0536054054E57
:102CA0003EE601F011F850E72565C6E665669CE64C
:102CB00017B7D13828070020F0B5DE464E465746F4
:102CC0004546E0B585B001F0E1FEFE231B01C24A96
:102CD0001968C24E914205D1C14A5968914201D149
:102CE00000F0FDFB02F072F902F018FAFEF75AFE4E
:102CF000BC4FFB78022B01D100F044FC0223BA4800
:102D0000FB70BA490F333B71103BCA5CC2540133AC
:102D10000D2BFAD1FEF7A2FF7B7C013B5A1E93419B
:102D20002B22B354B388F3803B7D002B00D1FB747E
:102D30002623FB5C002B12D0FA239B002022B383B6
:102D40000123B3547B820023BB82BB75738932336A
:102D50007381B3893233B38133893233338100F0E5
:102D600037FF74230022A24CE25201F07DFFA14BF9
:102D7000A14A1A6001F0E0FC4B23E35C002B02D077
:102D80004A230122E2549D4A9D4D136880211B0570
:102D90001B0D13606B60002312684901120C8A42FC
:102DA0005B41AA60E5225B429343E6332B7301F05B
:102DB00053FD904B9846904B9B46A36B042B00D938
:102DC000F3E006237122B3540132B35443465A460A
:102DD0001A607B7D002B00D0F3E02B88894A934258
:102DE00009D954229246A25C002A00D057E38649B2
:102DF0008B4200D980E36A22844BA25A9A421AD9A4
:102E00007C23E35E1800994603F0FCFB804903F045
:102E100005F9296902F0B4FE7E4B28611B78022B6C
:102E200000D1E9E2032B00D1D6E2012B00D1F2E27E
:102E30006A230022E252A36B9946FA239B0099452C
:102E400000D8DBE1422347220021E35AA154C72BDB
:102E500000D845E2FA7C002A02D09F2B00D8DAE1A4
:102E60006A7D002A00D1E0E1C8225200934200D2DC
:102E7000D7E10321A06AFEF7ADF9237C6061002B46
:102E800003D04B460A2B00D93AE26B7F002B00D1CE
:102E9000C8E0336B462B00D8C4E0C2215E4B8900EA
:102EA0005A58C4201202120A5A50802180001A581F
:102EB000C9051202120A0A43C3211A50FF208900D1
:102EC0005A588243BF3802435A507A239946E35CEA
:102ED000002B00D0C1E02022AB5C0133DBB2AB544D
:102EE000C82B00D9D5E00022914645234946E35C32
:102EF0003E32A154002B00D044E1A16A4748FEF7BE
:102F000069F93F23E35C0A21584380B2E883FEF766
:102F1000D7F82023F35C80B2E885002B00D045E28F
:102F2000FA226A23D200F2522B23287DF95C8142D7
:102F300000D211E2A36B632B00D9ABE1FA23326B11
:102F40005B009A4200D8A5E10C22C03BFF3BF25443
:102F50002F23FB5C002B00D0B2E18023DB055A6AF3
:102F60002F4B9A4200D828E73F239A46E35C9946C4
:102F7000012B00D021E74722A35C0133A35401F0C9
:102F80008FFC2D234A46F2541B33E35A2F2B04D8CF
:102F900000235246A3541B4B33630023A363FFF764
:102FA00053FCA36B042B00D80BE703237122B3540B
:102FB0000132B35443465A461A607B7D002B00D140
:102FC0000BE7B288602100925308306BC822FEF7ED
:102FD0007BFCF08001E7C046DAE32559C000002001
:102FE000D963B84E280700202C070020C7670008C7
:102FF0009005002000300040AAAA000000580140BF
:103000001006002088130000204E0000102700004A
:10301000610B363BE404002000E100E0C02709001A
:10302000C8AF0000C2208021D34B80001A58C905C8
:103030001202120A0A43C4211A50FF2089005A586A
:103040001202120A5A5004395A5882435A507A23AB
:103050009946E35C002B00D13DE7286902F078FD3A
:1030600083B29A467C227621EB8BA25A615A287D44
:103070000093534602F03AFC02F014FC00234A4647
:10308000A3542022AB5C0133DBB2AB54C82B00D875
:1030900029E701F057FAB94AB9499368688C0B409F
:1030A00004210B439360B74B1B889A46B64B19001B
:1030B00058439946FEF704F85346C31A9800C018BF
:1030C000B24B000119885346C91AFEF783F87623DC
:1030D0009A464B461E3080B2A8842875E88CAC49CD
:1030E0005843FEF777F84C23AA4A6421D35A584331
:1030F000FEF770F85346E25AD3009B1AC0185346A5
:10310000C010E052FEF7BAFD4B462921A862584391
:10311000FEF760F8A04B0A219C466044FEF75AF87F
:1031200003B2020400D553E17C22A3522378002B82
:1031300000D1DBE07623E25A063BE15C338B4B4364
:103140009A4200DBD0E04523944899468446E35CEC
:10315000A98D9A05D21AD200D2185201D21A013181
:10316000920089B26244A985914200DDF7E12022F4
:103170000021A9540022914649463E32A154002B19
:1031800000D1BAE648239A46E35A302B58D9542244
:10319000A25C002A54D0313B572B00D945E13023A3
:1031A0009A46EB5C002B00D0C7E1FFF7A3FAFB7E49
:1031B0007B4819009946FEF70DF84823E25A494624
:1031C000039078489246FEF705F830217822039B59
:1031D00000905046FEF778FB502399464A466D4BC7
:1031E00098520004000CFEF791FB4A469620694B6A
:1031F0008000995AFDF7EEFFE883DEE54223E35AAB
:10320000002B18D14722A3544A46642A68D8FA7C76
:10321000002A00D124E647220021A1546A7D002A19
:1032200003D047230022E25423E6952B54D83723BA
:103230006422F2541DE64A46642A00D80AE606E6ED
:10324000012399464A462F33EA543B7F002B50D046
:103250002923B188F85C0B004000133BC0187E2383
:103260009A464B1C0393F38880B2A0875843FDF71E
:10327000B1FF039B181A5346E05202F013F853466D
:10328000E25A494B5A639A63DA634B4663740023EC
:10329000EB8392E50C23FA2200935200093B642150
:1032A0006069FEF711FB3523326BF054312A00D9E7
:1032B0004EE60222F2542F23FB5C002B00D14CE699
:1032C0001723FA22A08F64210093D2000A3BFEF755
:1032D000FBFA3023E05440E637230A22F254C8E5D3
:1032E00047220021A154B5E50023AB854533E35CBB
:1032F0003DE72D4A53639363D36302F085F8C6E735
:103300000100A869FEF7FCFA63695A08904219D9CE
:10331000FA22D200934215D20022A2632A7F013200
:103320002A77BA7C002A11D14832A25A2F2A0DD905
:103330003F220021A1542D220121B154328955315F
:10334000520862520022AB6122749EE5FA22316B70
:1033500092009142EFD9EBE70E4A2333D35A0A0089
:103360005B08994601230A3200930A394B46FEF75F
:10337000ABFA6A23F052DDE500E100E000240140F1
:10338000E8FFFF7FB8F7FF1FE40C0000C2F7FF1F44
:10339000FF0F0000400100203CF6FFFF204E000020
:1033A000581B00002A030000002C0140B38B718CD5
:1033B0009946B38C9A464E239C4662467C4B9B5A58
:1033C000524600934B46FEF77FFA6A23F052ABE574
:1033D0007C230022E252A9E676231921E05AFDF768
:1033E0006FFEFF2303408020C0001843714B724AD8
:1033F0001880012313701BE54B463221D8B2FDF72C
:103400005FFEC3B2C020C00018436A4B6A4A1880EE
:10341000032313700CE580232A7D9B001343654A28
:1034200013800223644A137002E530230122EA5418
:10343000FFF760F95346E35AC82B05D95E234A4685
:10344000E2525B4A0E3BD3525023594AD05AFEF700
:103450005DFA5E23E35E002B00D0AEE445223F21FF
:10346000A354443A6254123972548021534AC90514
:1034700032636261AA614A621422A2634C4A637495
:103480005233D25C263BF2547B7F002B02D0562372
:10349000B289E252FEF732FC01F030FE8DE401F019
:1034A000B3FF00255346E5540C3BE5522933E55460
:1034B0000333E552424B5D639D63DD6301F026FEFD
:1034C0008022290052003F4803F00EF9BFF34F8FCE
:1034D0003D4B3E4ADA60BFF34F8FC046FDE71B7B92
:1034E0002B2B61D0352B5BD01F2B01D0FFF7FAFBC4
:1034F000374B3360FFF7F6FB914601F085FF4A46F4
:103500005346E2544823E2522933E2540333E25251
:103510002B4B5A639A63DA6301F0F8FD8022002195
:103520005200284803F0E0F8BFF34F8F264B274A9C
:10353000DA60BFF34F8FC046FDE70121254AD3680B
:103540008B43D36001F0ACF94A461D4B5A639A6332
:10355000DA6302F0F1F853464A46EA5425E60023BE
:103560009A4652464833E25201F04EFF01F098F974
:1035700052463F23E2543533E252203BE2544B465D
:10358000E35CF4E53B79112B01D0FFF7B7FB173370
:103590007A78F35C9A4201D3FFF7BEFBFFF7AEFBEC
:1035A0000D4B3360FFF79EFB0C4B3360FFF79AFB2C
:1035B00040010020E6040020E4040020282300004D
:1035C000002C01401408002000ED00E00400FA0582
:1035D000007C00080020004000F8000800F8010806
:1035E000F0B5654C83B063682268981A634B01009C
:1035F000C218634B9A4238D80023624E624D338022
:103600002B78002B43D06B78002B17D1AB78002B95
:1036100000D196E0A8885D4F01333988AB70FEF782
:103620006FF9322800D86CE000232B703B88AB8008
:103630006B78002B09D061682368C91A544B9942F2
:1036400053D9AB794B2B00D980E000235149524A22
:10365000A868338012680B88C41A944211DC1C1AC3
:10366000A24212DA9B1A0B800DE000224B4B1A800B
:10367000454B98684749484A0B881268C41A9442D7
:10368000EDDD9B180B8003B0F0BD0880FBE7444BD9
:103690009C7C002C0FD0434B1A88904219D8424B87
:1036A0001988FA239B0000930023FEF70DF9A86008
:1036B00000233380DEE7354B1A883B4B19883B4BA0
:1036C00000932F23FEF700F930283DDC0020AC608A
:1036D000EEE72E4B511C1C88FA23DB0000932200DE
:1036E000334BFEF7F1F8A860E2E72F48AB79048886
:1036F0000133E200121B5118DBB2C908AB71018023
:10370000A0E73988226863689B1ACA00521A9B187E
:10371000DB08AA789BB23B80322A00D887E7254A8B
:10372000193B94469BB23B806344DA0FD3182122A5
:103730001B495B108B5401236B7000F0FDFA3B8832
:1037400075E780B2A88066E7A860B1E7164A002452
:103750001388134919339BB21380174A2C7094466F
:103760006344DA0FD31820225B108B54FEF776FAED
:10377000AC7100F013FB68E714080020DFFCFFFFCA
:103780007605000010060020E8070020D200002087
:10379000E1040000D0050020780400200406002089
:1037A00028070020D4000020D0000020FF070000E0
:1037B000E90300002AF9FFFF12FDFFFF164A938874
:1037C000591E022912D8154BD9683B290DD8002162
:1037D00013481974012301700E2012490B7012490D
:1037E000087020219171114A13707047043B042B1B
:1037F000FBD80A49CB68632BF7D8012309480B741F
:103800000370074808490370072008702021917150
:10381000064A1370E9E7C04678040020E807002054
:1038200082040020920500201108002001060020DB
:10383000F0B5314EC64632000027002000252F4B40
:103840002F4C984600B59C8008CA7C361168994276
:1038500006D0CB1AA34201D201259CB20127C01881
:1038600004320B00B242F1D1002D01D043469C80BE
:10387000002F23D0234B244C4009D8602378012B00
:1038800023D0224E3378012B25D02278134312D136
:10389000FFF794FF43469B881D4AC93B9BB2934266
:1038A00009D82F211B4A01231170022241468A7137
:1038B000194A3370137080BCB846F0BD0020114B1C
:1038C000114CD8602378012BDBD1FFF777FF0F4E27
:1038D0003378012BD9D1424692880D49C93A92B228
:1038E0008A42E8D82F210B4A1170022241468A7180
:1038F000094A1370DFE7C04614080020780400204E
:10390000204E0000E80700209205002093050020CB
:10391000564D0000820400200106002070B5534C73
:103920002378002B03D0524B1B78002B06D1514B30
:103930001B78002B50D0012B0AD070BD4E4B1B784A
:10394000002B36D000F0F8FE02224C4B1A70F4E740
:10395000474B1B78002B32D1494D2B78012B73D06C
:10396000484B1B78012B65D02378002BE5D12B78B1
:10397000002B39D04449454B4A7C072A35D8188852
:10398000052832D94D69424CAC46E06F24680132BB
:103990006044D2B2001B4A744861082A25D1C2088B
:1039A000C00992B280B23B4C1518101A25810883C9
:1039B0001BE000F005FF0122304B1A70BDE72E4BD3
:1039C0001B78002B0DD0344B1888FDF713FFFDF743
:1039D00069FD00F0B1FEB0E7FFF72AFF00F0ACFE92
:1039E000ABE700F0EDFEA8E7284B2C4C2088002820
:1039F00007D1254A1278002A2BD11A8801321A8061
:103A00009BE700221A80264B0026984200D894E7B4
:103A10001D4D698BFDF774FF322820D82B7F0133B1
:103A2000DBB22B77322B02D96B78002B13D0238893
:103A30006B8382E700F008FF164B002811D00322A9
:103A40009A7100F079FE8FE7FDF72CFD00F074FE0F
:103A500086E7188071E700F0D3F901232B702E77E9
:103A6000E5E702229A71FFF7BBFDEAE7E4050020D3
:103A70002D0600200106002010080020F805002077
:103A80009205002093050020E8070020040600208E
:103A90001408002078040020B8050020D20500207A
:103AA000DC050000031C0B2800D90B23014A5B0036
:103AB0001370704705080020F8B5DE4657464E469D
:103AC00045460320E0B501F0E3FC7C239B46354BE3
:103AD000354C9946354B00259A46A34411E0617850
:103AE00000292FD1E801401B314B40008019596358
:103AF00080B29963D963FDF715FF002502345C4558
:103B00000DD053462B4A26781A6000234A4613806C
:103B1000FF2EE4D101350234EDB25C45F1D101F064
:103B200073FC00232449224A09889362D1624A46E1
:103B300013801E4B1F4A1A60F0BCBB46B246A94612
:103B4000A046F8BD4B015B1ADB00591AFA231B0192
:103B50009C461A486144FDF73DFB0A23144F0100BF
:103B60008046BB621648FDF735FB164BF8621B78A2
:103B700015495843FDF72EFB7863B863F863E801F5
:103B80004146451B1148FDF725FB6D00AE19642128
:103B90007043FDF71FFB0004000CFDF7C3FE00257A
:103BA000ACE7C046100600205C0700200030004053
:103BB000002C0140AAAA0000C4000020C0D8A70021
:103BC000003E490005080020CF070000A086010044
:103BD00010B572B63023194AD35CFF2B07D0FFF71C
:103BE0006BFF174B1A88174BDA6262B610BD154C83
:103BF000154B0320E362154B1B786363A363E363F8
:103C000001F046FC3723C820A362FDF78BFE052098
:103C100001F03EFC2823C820A362FDF783FE0620A6
:103C200001F036FC1923C820A362FDF77BFE01F0EA
:103C3000EBFB0023064AA3621380D2E7280700208B
:103C4000C4000020002C0140CF0700000508002020
:103C50001006002070B5154B154CE36272B63C237C
:103C6000144D154E01202E60A362144B1B78636324
:103C7000A363E36301F00CFC4B20FDF753FE5023DC
:103C80004B20A362FDF74EFE5A234B20A3622E6009
:103C9000FDF748FE01F0B8FB0023094AA362138038
:103CA000084B1B88E36262B670BDC046CF070000B8
:103CB000002C014000300040AAAA000005080020A6
:103CC00010060020C400002010B572B6134C144B2F
:103CD000144AE362144B03201A605023A362134B6F
:103CE0001B786363A363E36301F0D2FB6420FDF7F9
:103CF00019FE46236420A362FDF714FE28236420E6
:103D0000A362FDF70FFE01F07FFB0023084AA362C8
:103D10001380084B1B88E36262B610BD002C014083
:103D2000CF070000AAAA00000030004005080020CC
:103D300010060020C400002010B5114B114C0220C9
:103D4000E3623223A362104B1B786363A363E363D4
:103D500001F09EFB9620FDF7E5FD0C4A0C4B9620EA
:103D60001A601E23A362FDF7DDFD01F04DFB002369
:103D7000084AA3621380084B1B88E36210BDC0464B
:103D8000CF070000002C014005080020AAAA00006F
:103D90000030004010060020C400002010B5114B78
:103DA000114C0220E3622823A362104B1B7863634B
:103DB000A363E36301F06CFB9620FDF7B3FD0C4AAF
:103DC0000C4B96201A605023A362FDF7ABFD01F067
:103DD0001BFB0023084AA3621380084B1B88E36285
:103DE00010BDC046CF070000002C01400508002090
:103DF000AAAA00000030004010060020C4000020E5
:103E0000F8B5144D144BEB6272B67724134B144F74
:103E10001B78144E6B63AB63EB63142120003E6090
:103E2000FDF7D8F9C0B201F033FB63100A330A2062
:103E3000AB62023CFDF776FD631CEED101F0E4FAC3
:103E40000023094AAB621380084B1B88EB6262B601
:103E5000F8BDC046002C0140CF0700000508002037
:103E600000300040AAAA000010060020C400002074
:103E70000D4885460D480E490E4A002302E0D458ED
:103E8000C4500433C4188C42F9D30B4A0B4C0023A2
:103E900001E013600432A242FBD301F057FE02F0AE
:103EA000FFFBFEF709FFFEE700200020C000002016
:103EB0009804002028680008980400203809002091
:103EC000FEE700008268030010B50120D20710D47D
:103ED0008C684A68D8682243CC6809682243054C3C
:103EE000204002430020DA601A69920092080A43D7
:103EF0001A6110BDC73FFFFF8368020010B50120A3
:103F0000DB070ED44C680B68D06823438C682343CE
:103F1000CC68096923430B430249014000200B434D
:103F2000D36010BD3CC2FEFFF0B5DE4657464E469C
:103F30004546E0B50A684B6883B0002A00D172E0BC
:103F40009C46012301245B4263449846A346002318
:103F50000AE00E69C56874434E4635402C43C46080
:103F600014000133DC4041D05C4615009C402540E4
:103F70002242F5D02C006C436700BA46A244574653
:103F8000FF43B94657460668BE43674667433E430C
:103F900006604646012EDCD88668B2468E685746D3
:103FA000664301964E4637403E00019F3743876087
:103FB000C6684F46B2460E6966430196564637407C
:103FC0003E00019F37436646C760022EC8D1FF2DD1
:103FD0001DD86443056A2601361BB5434E6901337B
:103FE00074432C4304621400DC40BDD14346012BD2
:103FF00005D84368C96893434A431A434260002086
:1040000003B0F0BCBB46B246A946A046F0BD2D0A9F
:104010006D436D43446A2E01761BB4434E6975436C
:10402000254345629CE7013B9846DFE70C23184A8D
:1040300070B5516805000B40082B11D0154B144981
:104040002B604A6814481206120F825CD3406B60E2
:104050004A6812495205520F8A5CD340AB6070BD6A
:10406000802350685B021840434258410C4B404249
:104070001840084B0F249C46D16A6044214001310E
:104080005668FDF71DF8B30C234002334343D6E7CF
:104090000010024000127A00B0670008C0670008F4
:1040A00000F7C2FF0C23104A70B551680B40082B73
:1040B00001D00E4870BD802350685B021840434217
:1040C00058410B4B40421840084B0F249C46D16A84
:1040D0006044214001315568FCF7F2FFAD0C2C40E3
:1040E00002346043E6E7C0460010024000127A0046
:1040F00000F7C2FF030010B50020002B17D1164CAB
:104100000333226B1340022B1DD0032B13D0012B42
:104110000ED0FFF7C7FF626810491206120F8A5CC3
:104120006368D0405B050E4A5B0FD35CD84010BD7E
:10413000FFF7B8FFFBE702221000236818401A427D
:10414000F5D00848F3E71800226A10401342EED079
:1041500080200002EBE7C04600100240B067000874
:10416000C067000800127A001D4A0368904226D0FA
:104170008022D205904219D01A4A904216D01A4A8B
:10418000904217D0194A90421DD0194A90421AD035
:10419000184A904217D003608B68C3620B88836211
:1041A0000122436913434361002070477022934307
:1041B0004A681343104A1340CA681343EBE770225E
:1041C00093434A6813430C4A1340CA68134303607D
:1041D0008B68C3620B8883620B7C0363E0E7C04695
:1041E000002C01400004004000200040004001403D
:1041F0000044014000480140FFFCFFFF802370B5F0
:104200005B00994200D1ADE041D8012900D171E0B5
:1042100010296DD1036A714D8B430362036A4668AE
:1042200084692C4015682D022C432025AB431D00CA
:1042300013691B012B438B4351680D0168492B43C4
:10424000884208D06749884205D06749884202D031
:104250006649884214D180218B431D00536940393F
:104260009B012B438B4391688D0161492B430E4089
:104270009169604D890031432940D569EE000E43B4
:10428000D2684660846182630362002031E080234B
:104290005B0199422CD1016A574E504C314001626A
:1042A000036A4568C1692140146824020C435349DC
:1042B000194013691B030B435168334009030B4337
:1042C0004749884208D04749884205D04649884234
:1042D00002D04649884204D149490D40916989017B
:1042E0000D43D2684560C46102640362002000E0AF
:1042F000012070BD7326036A8B430362036A44681E
:104300008569B543166835430226B34316693343BE
:104310008B4351680B433249884208D03149884267
:1043200005D03149884202D03049884213D1082152
:104330008B43190053699B000B4304218B43916805
:1043400089000B432F490C4091690C432E490C40C6
:10435000D16949000C43D2684460856142630362BD
:104360000020C6E77324016A264E31400162036AC9
:104370004168C569A54314682543234C1C40136953
:104380001B0223435468334024021C43144B9842BD
:1043900008D0144B984205D0134B984202D0134BCF
:1043A000984213D1134B144E1C4053690E409B028C
:1043B00023430F4C23409468A4021C4393691901C2
:1043C0000E4B31431940D3695E013143D3684160DC
:1043D000C561C363046200208BE7C046FF8CFFFF0A
:1043E000002C0140004001400044014000480140D1
:1043F000FFFBFFFFFFF7FFFFFFEFFFFFFFDFFFFF09
:10440000FFBFFFFFFFFEFFFFFFFDFFFF8A680B7B83
:1044100013430D4A13404A6813430C4A13400A6879
:1044200013430B4A1A40CB8913430A4A13400A69C3
:104430001343094A13404A69084913430B40134385
:10444000436400207047C046FFFBFFFFFFF7FFFFFC
:10445000FFEFFFFFFFDFFFFFFFBFFFFFFF7FFFFF5C
:1044600030B5036804000D0085B0DB071DD44B6830
:10447000C96802680B4329690B43A9690B432049AA
:104480000A401343036043681E4A1340AA6813435B
:10449000436083681C4A13406A69134383601B4B63
:1044A000984205D01A4B984218D0012005B030BD73
:1044B0000020FFF71FFE0028F7D029680029F4D05C
:1044C0008023AA691B029A420DD04B081818FCF7EA
:1044D000F7FD03041B0C0020E360E7E701A8FFF7EA
:1044E000A5FD0398E7E74B084000C018FCF7E8FD7E
:1044F000084B03400007400F1843E0600020D5E759
:10450000F369FFFFFFCFFFFFFFFCFFFF0038014013
:1045100000440040F0FF0000FA2110B58900FCF7CC
:10452000CFFD0022034B013858609A6005321A60B3
:1045300010BDC04610E000E0014B18607047C04657
:1045400094040020054B064A998811805988054A31
:1045500011801A88044B1A807047C0460808002052
:1045600032060020360600209A0500200321074A63
:10457000074B9360074BD36053681B0C1B040B4322
:104580005360136802390B43136070470800024000
:1045900040240140080800200023124A82B0019301
:1045A00093681149194080231B060B43936093685D
:1045B000002BFCDB01230193019B002B05D0019B09
:1045C000013B0193019B002BF9D1064A06499368F0
:1045D0000B4001210B43936013681942FCD002B0D9
:1045E0007047C04600240140E8FFFF7FF0B593B05C
:1045F0001022002103A802F077F81422002107A856
:1046000002F072F8102200210EA802F06DF880204E
:10461000404B8000996990240143996180210826CC
:1046200003259A69890202400292029A5A69E405B6
:104630000A435A615B6920000B4001930CA9402793
:10464000019B0D950C96FFF76FFC0D9500250CA9AD
:1046500020000C971095FFF767FC2F4B2F491A6825
:104660002F4C0A401A601A682E4920000A40202167
:104670001A601A680A431A601A686031BA431A60ED
:104680001A680A431A601A682749114080225200AA
:104690000A431A601A68254911408022D2000A4351
:1046A0001A60A36A22493B43A362A36A3343A3620D
:1046B0008023A26A5B021343A3620B681D4A1A405F
:1046C00080231B0413430B60802303A91B06039361
:1046D000049505950695FFF7F5FB012307A9200032
:1046E0000A930795089509950B95FFF705FC042299
:1046F0000721E3689343E36063698B4301390B430C
:1047000063616368934363606368B343636013B03A
:10471000F0BDC0460010024008000240EFBFFFFF9E
:1047200000240140FFCFFFFFFFFCFFFFFFF3FFFF6F
:1047300008270140FFFF3FFE00200221164B1870A2
:10474000164B1A690A431A611A698A431A6141228F
:10475000134B01399A61373A1A62124A12789A62F7
:10476000114ADA625A690A435A6158620F4A10487C
:10477000D060104890601048007850600F4810607A
:104780008022D86892000243DA601A6A0A431A62E9
:104790001A680A431A60704710080020001002408F
:1047A0000004004082040020FFFF0000440002409B
:1047B00014080020340400407E0400208B0900000F
:1047C000012210B502241848184B027019692143C0
:1047D00019611969A14319616021154B154C996143
:1047E0005D3919621449097899623D21D962596984
:1047F000114359611149CC60114C8C6040781730DD
:104800004860104808608021D86889000143D96059
:10481000196A114319628021586C090201435964D5
:1048200019680A431A6010BD1008002000100240E9
:1048300000040040FC040020F8070020440002406F
:10484000340400409B0900001020024B1B691840F3
:104850007047C046000400480449054ACB681A4026
:1048600080235B001343CB607047C04600040048C0
:10487000FFFCFFFF074A084B944680221868074B4D
:10488000D2011B686344DB009A400E331040D840CD
:10489000C0B27047E4FFFEBF1C000140840400204A
:1048A000044B05491A680A401A60802292035A6133
:1048B0007047C04600040140FFFFDFFF8023034A2A
:1048C0009B0311680B4313607047C046000401400E
:1048D000204A1378012B32D0042B30D0022B29D060
:1048E000052B27D0032B21D0062B1FD0C8211A4A15
:1048F000490013688B4205D2042018490B68834392
:104900000B60136896229200934204D90421134A43
:1049100013680B431360124B1B78002B14D000223A
:10492000104B9A6080229203DA60704741220B4B51
:104930001A60DBE76121094B19601378D2E7512136
:10494000064B19601378C9E7064AD36080239B039E
:104950009360EAE7EC000020A40500201C00014061
:10496000E900002000040140F0B54746CE4680B57E
:1049700085B016006A46CB0F5B185B1098465B004B
:104980000733DB08DB00D31A00AF9D466D460C00F1
:10499000814642460021280001F0A6FE012C0BDDD5
:1049A000484600234178027809025C000A4301333B
:1049B0002A5302309845F5DC434601212C4A7B609E
:1049C000D3681942FCD113691B0604D5294B196819
:1049D00051605B685360B30517D10221244A136903
:1049E0000B431361566113693E310B4313613F3929
:1049F000D3681942FCD12023D1680B4200D0D36088
:104A000002211B4A13698B4313610023BB60FB60C7
:104A1000FB687A689A421FD90120202214490B6949
:104A200003430B61FC68BB686400645B9B191C80DA
:104A3000CB681842FCD1CB681A4200D0CA600B691F
:104A400083430B61BB680233BB60FB680133FB60CF
:104A5000FC687B689C42E2D38021BD46044A13690E
:104A60000B43136105B0C0BCB946B046F0BDC046AB
:104A70000020024088040020002A06DD5218401A57
:104A80000B78435401319142FAD1704700B51B4B6A
:104A90001B4883B01B4A9A1802CB11608342F9D19C
:104AA00001230320184A91691943916192691340C7
:104AB0000193019B154B196881431960FA211A680B
:104AC000890002431A60124B1868FCF7F9FA802338
:104AD00001385B04984200D3FEE7C0210D4A090665
:104AE00050600D48036A1B021B0A0B43036200233C
:104AF00093600733136062B603B000BD0010000876
:104B0000C010000800F0FF17001002400000014034
:104B10009404002010E000E000ED00E00121334AA1
:104B200010B513688B430B4313601368304A136846
:104B30000B431360013113681942FCD0F82113684C
:104B40008B4378390B431360536B7F390B435363AB
:104B5000274A0131536B1942FCD0F821536B8B4328
:104B600078390B435363536A7F390B435362204AAE
:104B70000131536A1942FCD053681E491940A023E1
:104B80009B030B430F215360D36A8B43D362802373
:104B900011685B040B4380211360154A8904136874
:104BA0000B42FCD0F0215368114C8B435360536887
:104BB00011490B400321536053688B4301390B4368
:104BC00053600C2263681340082BFBD10B48FFF79E
:104BD000A3FC0A48FFF7B0FC0422636B93436363B2
:104BE000236B013A9343236310BDC046002002406B
:104BF00000100240FFFFC2FFFFF8FFFF006CDC0265
:104C000030B589B01022002104A801F06DFD80208C
:104C1000134A80025169902401435161536903256D
:104C200003400193019B0223E40502A920000293A3
:104C30000395FFF779F920230293002302A92000AE
:104C400006930395FFF770F9C321FF20054B8900F8
:104C50005A5882435A50802252011A6009B030BD1E
:104C60000010024000E100E0064B074A1A60074AC4
:104C70001A6002225A60FA2212019A60044A1A60EB
:104C80007047C04600300040CCCC000055550000B5
:104C9000AAAA0000F0B5DE4657464E464546E0B5A6
:104CA0009DB01422002103A801F01EFD2022002146
:104CB00014A801F019FD1822002108A801F014FD24
:104CC000182200210EA801F00FFD8022704E120163
:104CD000B369704D1343B361B36903A913400293E1
:104CE000029B6D4B280090460593FFF73DFA80220A
:104CF0002B68914613432B60AB68684A002413402D
:104D00000822AB60AB6992461343AB61602314AADF
:104D100001212800149315941694179418941A944A
:104D200019941B94FFF76AFA0422AB6993469343E4
:104D30004246AB61AB6910211343AB6114AA280052
:104D400015941694FFF75AFA5146AB69544A554FD9
:104D50001340AB617B6828000B437B6080235B00C2
:104D60009A4614AB1A00514615941694FFF746FA6A
:104D700059467B6828008B4341467B607B681594CD
:104D80000B4380217B6014AB1A0049011694FFF796
:104D900035FA7B68424A2C21134070227B606B6895
:104DA000280093434A466B60AB6893436A46AB6006
:104DB0002D23521813706B46DC85802308A99B01B4
:104DC0000C93089409940A940D94FFF71FFB80211B
:104DD000726989020A437261736902250B4080215E
:104DE0000193019B7269C9020A43726173692E4E75
:104DF0000B4000930EA93000009B0E950F95109468
:104E0000119412941395FFF78FF801233000902628
:104E10000EA90E930F951094119412941395FFF709
:104E200083F84B46F6050EA930000E930F951094AB
:104E3000119412941395FFF777F880230EA9DB00E5
:104E400030000E930F951094119412941395FFF760
:104E50006BF880230EA99B0030000E930F951094E1
:104E6000119412941395FFF75FF8534630000EA982
:104E70000E930F951094119412941395FFF754F814
:104E80001DB0F0BCBB46B246A946A046F0BDC04628
:104E900000100240002C0140CF070000F8BFFFFFC8
:104EA000FFFBFFFF182C0140000400488020104A3F
:104EB0004000D16982B00143D161D3690D4A0340FA
:104EC0000193019B17239362FA23C4200A491B0113
:104ED000D36280000B581B021B0A0B5080231B035C
:104EE0000B60802113680B43136002B07047C0460B
:104EF000001002400020004000E100E00123114AC0
:104F000082B05169104819435161C2215269890028
:104F100013400193019B0D4B5A5810408022D2033D
:104F200002435A5080228020D2001A605A58C0058D
:104F30001202120A02435A50802212011A6002B071
:104F40007047C04600100240FFFF00FF00E100E094
:104F500000B589B00C22002104A801F0C5FB022293
:104F60008020164BC002D9691143D961D96911401B
:104F7000019101995969014359615B6902A9034093
:104F80000093009B10230E4802930F3B039207935C
:104F9000FEF7CAFFC22080210A4A80001358C905C3
:104FA0001B021B0A0B43135080231B0113600022BA
:104FB000054B9A623F32DA6209B000BD0010024030
:104FC0000004004800E100E000040040F0B5C646DF
:104FD000012500B588B0FFF7A1FD80211026374CD0
:104FE0004905A36980272B43A361A369FF022B40D6
:104FF0000293029BE2690A43E261E369304A0B4093
:105000000193019B1368334313608022636992020A
:10501000134363616369904613400693069B63697B
:1050200080223B436361636912023B400793079B05
:105030009023DB059A62FFF761FFFFF72BFEE36920
:1050400017222B43E361E3691D400595059B8023EF
:105050001C4DDB059A62DD62FFF7D2FDFFF726FFEC
:10506000C420E36980003343E361E36916491E40CD
:105070000496049B154B1A581140C02212020A4391
:105080001A50424664211A602F22114B9A62D9624B
:10509000A3691C313B43A361A3691F400397039B92
:1050A0000C4B9A62DD621A688A431A60FFF750FF60
:1050B00000F04AFB08B080BCB846F0BD00100240CA
:1050C00000200240FFFF0000FF00FFFF00E100E0C2
:1050D0000010004000480140014B58637047C04633
:1050E000002C0140014B98637047C046002C0140E2
:1050F000014BD8637047C046002C01400121024A91
:1051000053690B4353617047002C01400022024B4E
:105110009A625A627047C0460004004070B501248C
:105120001021554B80251A6A2D0222431A621A6AF1
:1051300086B00A431A628022196A52000A43042187
:105140001A621A6A90260A431A621A6A3C310A43A2
:105150001A628022196AD2000A431A628022196AEE
:1051600052010A431A6264221A641A680021224317
:105170001A605A6C03A82A435A645A69F6052243F6
:105180005A613E4B1A6A22431A621A6822431A6015
:105190000C2201F0A9FA032369463000029301941E
:1051A0000095FEF7C1FE14220021B56101A801F0AF
:1051B0009BFA20236946324800930494FEF7B4FE1C
:1051C000304B1A6822431A605A6922435A61DA68DE
:1051D0002243DA60DA68A243DA602B4B1A68224372
:1051E0001A605A6922435A618023DB051A682243F8
:1051F0001A605A6922435A61244B1A6822431A6082
:105200005A6922435A61DA682243DA60FFF7EEF9FD
:10521000FFF7ACF9FFF7C0F900231D4A00931368AC
:105220001C491C431C4B14601868FBF749FF030121
:10523000181A0A218000FBF743FF0090009B002B07
:1052400005D0009B013B0093009B002BF9D1C120AE
:105250008021124A8000135809061B021B0A0B43C7
:1052600013508023136080230D4A1B0211680B43E7
:10527000136006B070BDC046002C01400004004021
:105280000004004800200040004801400010004099
:105290001C000140400D03009404002000E100E0E8
:1052A000000401409023DB051A6819490C201140C5
:1052B000802252030A431A608022D2009A621A683E
:1052C000144911408022D2020A431A6080229200BF
:1052D0009A621A6810491140802252020A431A60E9
:1052E00080220E4952009A620A68824304380243BF
:1052F0000A600A6805388243013802430A601A6866
:1053000007491140802212020A431A607047C046C2
:10531000FFFFCFFFFFFFF3FFFFFFFCFF000400488C
:10532000FF3FFFFF0E4B0F4A1B7D002B10D10321C7
:1053300013688B4302390B43136091629021C905B6
:105340000B68094A1A4080231B0313430B60704704
:10535000032113688B4301390B431360EEE7C0460A
:105360002807002000040048FFFFF3FF114B1B7DBE
:10537000002B14D19023DB051A680F4911408022BD
:10538000D2010A431A6080229A629021C9050B68F3
:105390000A4A1A4080239B0213430B6070479021F6
:1053A000C9050B68044A1A4080231B0213430B6093
:1053B000EBE7C04628070020FF3FFFFFFFFFFCFF91
:1053C0000E4B0F4A1B7D002B11D10C2113688B4310
:1053D00008390B431360022393629021C9050B68BF
:1053E000084A1A4080239B0313430B6070470C212B
:1053F00013688B4304390B431360EEE72807002042
:1054000000040048FFFFCFFF0C211C4A1C48136812
:105410008B4308390B431360022393629023DB050F
:105420001968084080214903014319608021032045
:10543000C90099621168814302380143116090628A
:105440001A68104911408022D2020A431A60802251
:1054500092009A621A680C4911408022D2010A43D4
:105460001A6080229A621A6808491140802252020A
:105470000A431A60802252009A6270470004004872
:10548000FFFFCFFFFFFFF3FFFF3FFFFFFFFFFCFF2B
:1054900010B506282CD8804B80001B589F4603214E
:1054A0007E4A13688B4302390B4313609023916249
:1054B000DB051A687A4911408022D2020A431A6039
:1054C000802292009A621A68764911408022D201A5
:1054D0000A431A6080229A611A6873491140802237
:1054E00052020A431A60802252009A62FFF768FF54
:1054F00010BD9023DB051A686A4903201140802201
:10550000D2010A431A6080229A621A6866491140E1
:10551000802252020A431A608022604952009A6235
:105520000A688243023802430A6088611A685C494B
:1055300011408022D2020A431A60802292009A62AD
:10554000FFF73EFFD4E70C21544A584813688B43B9
:1055500008390B431360022393629023DB0519681B
:105560000840802149030143196080210320C900BC
:1055700099621168814302380143116090611A6891
:10558000474911408022D2020A431A6080229200C9
:105590009A62FFF7EBFEABE70321404A40481368ED
:1055A0008B4302390B43136090239162DB0519682A
:1055B00008408021C9020143196080210C20890024
:1055C0009962116881430838014311600221916199
:1055D0001A6836491140802252030A431A60802219
:1055E000D2009A62FFF7C2FE82E79023DB051A68B9
:1055F0002C490C2011408022D2010A431A608022DB
:105600009A621A6828491140802252020A431A609D
:105610008022224952009A620A6882430838024373
:105620000A6002228A611A682049114080225203CE
:105630000A431A608022D2009A62FFF773FE57E78E
:105640000C21164A13688B4308390B43136002235D
:1056500093629023DB051A6814491140802252039B
:105660000A431A608022D2009A621A680D491140DA
:105670008022D2010A431A6080229A611A680A497C
:105680001140802252020A431A60802252009A621C
:10569000FFF748FE2CE7C046946700080004004866
:1056A000FFFFF3FFFF3FFFFFFFFFFCFFFFFFCFFF09
:1056B0000C211C4A1C4813688B4308390B431360A8
:1056C000022393619023DB05196808408021490378
:1056D0000143196080210320C90099621168814348
:1056E00002380143116090611A681049114080220C
:1056F000D2020A431A60802292009A621A680C4908
:1057000011408022D2010A431A6080229A611A68ED
:1057100008491140802252020A431A608022520036
:105720009A62704700040048FFFFCFFFFFFFF3FFBE
:10573000FF3FFFFFFFFFFCFF10B5FFF741FEFFF744
:10574000F1FDFFF713FE10BDF0B5002591B01C224E
:10575000002109A800F0C8FF8020434B06959969F5
:10576000C0010143996180219A69C90202400292F5
:10577000029A5A6940270A435A615B6901260B4025
:105780000193019B0223394C049303A90133384848
:105790000593079608950397FEF7C6FB2368354ADD
:1057A000C62013401022134323602368324AC021CD
:1057B00013402022236023688000934323602368E2
:1057C0006032BB43236023680906134323602368C8
:1057D0002A4A134023602368294A1340294A236038
:1057E00013581B021B0A0B43135080231B05136025
:1057F000E1235B02099308230A950B950C950E95FE
:105800000F95214D09A928000D93FEF729FEAB68DD
:105810001E4A1F481340AB606B681E4A1E49134066
:105820002A226B60AB689343AB602B681B4A1E4314
:105830002E6023680340102B13D0A160E2600B4B55
:1058400017495A680978120C12040A4302215A6057
:105850001A680A431A601A6806310A431A6011B0BE
:10586000F0BDE160A260EAE7001002401C000240C7
:1058700000040048EFBFFFFFFFCFFFFFFFFCFFFF6B
:10588000FFF3FFFF00E100E000380140FFFBFFFFF6
:1058900010400000FFB7FFFF140900202838014026
:1058A000900400200C2008210D4B10B51A680D4CF7
:1058B00082430A430C491A604A682478120C120485
:1058C000224380244A609A6822439A600A687F3C97
:1058D00022430A6004211A6882430A431A6010BDF9
:1058E00000380140900400201C000240F0B5050083
:1058F00005A8164E00880C0A3700B1703271110AE3
:10590000B3711A0A030A7470F3710724002330720A
:105910003570F1707271701C093708226B4004E019
:10592000013AD2B2DBB2002A09D059B25B00002999
:10593000F6DA013A6340D2B2DBB2002AF5D18742EF
:1059400002D005780130E8E77372F0BD1409002039
:105950007047C046FEE7C0467047C0467047C04625
:105960007047C046074B1A68920602D41A6812069E
:1059700006D5102201215A60034A13688B43136035
:105980007047C046000002401C00024010B5274B83
:105990001B78002B03D0264B1B78002B2DD18022A7
:1059A000244BD201196811420BD0234909780029F0
:1059B00007D00A242148016AA143083C214301621F
:1059C0005A601C4B1A68920406D41A68120402D555
:1059D000802252015A6010BD8022012152015A607A
:1059E000174A13688B431360FDF798FF8023154A0D
:1059F0001B0211690B431361EDE780230D4A5B0124
:105A000051680B43536000220D4B1A600E4B1B78FC
:105A1000002B05D0FEF790FE02220C4B1A70E5E732
:105A2000FEF7CEFE0122094B1A70DFE7E4050020E5
:105A30002D060020000002409305002000040040D5
:105A4000440002400004014010080020F805002036
:105A50008022054B9203596910B5114200D110BD47
:105A60005A61FCF7EDF9FAE700040140054B10B567
:105A70001A69D20700D410BD022252421A61FCF703
:105A80002FFFF8E700100040022210B5024B5242EF
:105A90001A61FCF78FF910BD002000407047C04626
:105AA0007047C046074B1A69920702D5032252423B
:105AB0001A61044B1A69D20702D5022252421A61B6
:105AC0007047C04600400140074B1A69920702D553
:105AD000032252421A61044B1A69D20702D50222EC
:105AE00052421A617047C04600040040084B10B58E
:105AF0001A68920706D40822054B19680A4200D09A
:105B00005A6010BD01225A60FEF71CFDF3E7C04643
:105B100000000240074B1A69920702D50322524245
:105B20001A61044B1A69D20702D5022252421A6145
:105B30007047C046002C0140802210B5024B120273
:105B40005A61FCF7BFFD10BD000401407047C0461C
:105B50009E2110B5C905041CFBF758FC002803D191
:105B6000201C00F02FFD10BD9E21201CC90500F057
:105B70007BFB00F027FD80231B069C466044F2E778
:105B8000F0B5C64643025B0A4E0245004F00DA00FC
:105B9000C40F9C46700A904600B52D0E3F0EC90FEB
:105BA000B6098C424BD0EA1B002A36DD002F61D0AB
:105BB000FF2D00D1ADE08023DB041E431B2A00DC57
:105BC000D3E001204346181A430100D48CE0800141
:105BD00087093800FBF724FC05388740854200DC44
:105BE000B6E02D1AB3483840430704D00F230340D2
:105BF000042B00D00430430100D478E06A1CFE2D51
:105C000065D08001430A9C46D2B26346D005184352
:105C1000E407204380BCB846F0BD002A35D07A1B8B
:105C2000002D00D0AFE04346002B00D1A7E0531E6B
:105C3000012A00D12FE1FF2A69D01A00AAE0E91B4E
:105C4000002970DD002F37D0FF2D62D08023DB04C8
:105C50001E431B2900DCB0E001204044430143D532
:105C60000135FF2D33D00123934A034040081040F3
:105C70001843B9E7002E00D183E0511E012A00D15C
:105C8000D8E0FF2A45D00A0098E7FE276A1C174291
:105C900000D086E0002D00D0B7E04346002B00D1B5
:105CA000F3E00022002EB0D0981B430100D4FAE0AC
:105CB00043460C00F01A97E7002E00D1C8E04A1EB8
:105CC000012900D1AEE0FF2923D01100C1E7002354
:105CD000FF229C4699E7FE216A1C114277D0FF2AD9
:105CE000F5D0150046447008430700D07EE7C3088E
:105CF000FF2D0ED05B025B0A9C46EAB285E7002EC0
:105D000007D08022D203134203D0104201D10C00ED
:105D10000300002BDBD08020C00318434002430A5D
:105D20009C46FF2271E70029D5D07A1B002D60D157
:105D30004346002B24D0531E012A73D0FF2AE7D0FC
:105D40001A001B2A00DC85E001203D00801985E750
:105D500020233A00451B38000135EA405D1BA8406E
:105D6000431E9841002510433EE7202330009B1A34
:105D700031009840D140431E9841084322E70C006F
:105D800003001500B4E7FF2FC1D080234046DB0499
:105D9000184380461B2A51DD01200C003D00301ABB
:105DA00012E743469F1B7B012BD4002F00D010E746
:105DB0000023002400229C4627E7202332003000E5
:105DC000CA40591A8840431E9841104345E7002DA8
:105DD0004AD14346002B63D00022002E00D114E7A5
:105DE00030004044430100D47EE7324B0135184077
:105DF0007AE7FF2F8CD080234146DB041943884685
:105E00009FE743460C00F71AE3E64246002A00D01B
:105E100075E7002E00D07AE78023DB0300249C4640
:105E2000FF22F2E6300040440125430100D45BE745
:105E3000022518E743460125981BC5E62023444662
:105E40004046D4409A1A9040431E98412043A4E70C
:105E50000D004DE7202341464046D1409A1A90401C
:105E6000431E9841084370E74246002A00D14FE79D
:105E7000002E00D14DE78022D203134200D148E723
:105E8000104200D045E7030043E7002E90D00C00FD
:105E900084460022B9E643460C00F01A013593E629
:105EA00084460022B1E6002800D01DE7002300242C
:105EB0009C46AAE6FFFFFFFBFFFFFF7D70B5420097
:105EC00045024E024C00C30F6D0A0120120E760AE5
:105ED000240EC90FFF2A06D0FF2C03D0A24201D105
:105EE000B54206D070BD002DFCD1FF2CFAD1002E9A
:105EF000F8D18B4206D00120002AF3D12800431E9E
:105F00009841EFE70020EDE770B5420045024E02F0
:105F10004C00C30F6D0A120E760A240EC80FFF2A1A
:105F20001BD0FF2C0ED0002A1BD1002C01D1002E3B
:105F30001CD0002D0CD083421CD00221581E0840DA
:105F4000013870BD002E22D1002AF4D1002DF2D1EB
:105F50000028F6D101204042F3E7002D17D1FF2C95
:105F6000F0D0002CE7D1002EE5D1E6E70020002D8F
:105F7000E7D0E2E7A24205DCEADBB54202D8E7D38C
:105F80000020DEE74342584140000138D9E70220B3
:105F90004042D6E770B5420045024E024C00C30FA6
:105FA0006D0A120E760A240EC80FFF2A0BD0FF2CA2
:105FB0000DD0002A1FD1002C16D1002E14D10020A4
:105FC000002D10D009E0002D0CD1FF2C13D1002E94
:105FD00008D1002A08D0834212D00221581E08405E
:105FE000013800E0022070BD002DF4D10028FAD164
:105FF00001204042F7E7002CEDD1002EEBD1ECE779
:10600000A24205DCF2DBB54202D8EFD30020EAE77A
:106010004342584140000138E5E7C046F0B54F46DD
:106020004646D64644024500C0B5640A0F1C2D0EF4
:10603000C60F002D00D18DE0FF2D00D192E000238E
:10604000802099469A46E400C00404437F3D7802CC
:10605000430A98467B001B0EFF0F002B00D170E017
:10606000FF2B00D186E04246D00080227F3BED1816
:106070000023D204024390469C4631004B467940AF
:10608000681C0F2B1CD8764A9B00D3589F463900BA
:106090004446E2465346022B0FD0032B00D1D7E0F3
:1060A000012B37D100200024C0052043C907084335
:1060B000E0BCBA46B146A846F0BDFF200024F3E795
:1060C000260C2404220C44462404240C43462700B6
:1060D0001B0C574374435A435E4312193B0C9B18E5
:1060E0009C4203D980225202944666443F041A041B
:1060F0003F0CD2199401671EBC411B0C920E9B19D8
:1061000014439B011C431B0100D49BE00123620844
:106110001C40144302007F32002A64DD630704D070
:106120000F232340042B00D00434230103D50200A5
:106130004C4B80321C40FE2ABFDCA401640AD0B262
:10614000B2E74346002B3DD14A4601331A439146FC
:106150009C4692E7002C29D104239946033B002555
:106160009A4674E7002C1BD108239946063BFF256D
:106170009A466CE74346FF35002B0BD102234A4673
:106180001A4391469C4678E753463100022B00D0D3
:1061900083E792E703234A461A4391469C466CE7FD
:1061A0000C239946093BFF259A4650E72000FBF750
:1061B00037F97625431F9C4000236D4299469A4645
:1061C0002D1A44E74046FBF72BF94246431F9A40FD
:1061D00000232D1A90469C46763D4EE780240021F0
:1061E000FF20E40360E701239B1A1B2B00DD59E726
:1061F00022009E30DA4084401300621E94411C430A
:10620000630704D00F232340042B00D00434630120
:106210001AD50120002447E78020C003044209D09A
:106220004346034206D14446044364023900FF203A
:10623000640A39E78020C003044364023100FF2070
:10624000640A31E7280065E7A4010020640A2BE70F
:106250008020C00304436402FF20640A24E7C04690
:10626000D8670008FFFFFFF7F8B5CE464746430260
:106270005B0A4E02DA009446720A914645004A00D3
:1062800080B52D0E1F00C40F120EC90FB609FF2ACC
:106290005BD0012041408C4239D0A81A00285ADD39
:1062A000002A6AD0FF2D00D1D9E08022D204164303
:1062B0001B2800DCE9E001206346181A430100D4E2
:1062C000B4E0800187093800FBF7AAF80538874059
:1062D000854200DCCCE02D1AB5483840430704D095
:1062E0000F230340042B00D00430430100D4A0E06E
:1062F0006A1CFE2D00D18DE08001470AD2B2D00584
:106300003843E4072043C0BCB946B046F8BDA81ADC
:106310008046002845DD002A70D0FF2D00D19EE088
:106320008023DB041E4343461B2B00DCD2E001200C
:10633000604443017AD50135FF2D6BD001239D4A7E
:106340000340400810401843C8E7002E20D08C427C
:1063500023D02800FF38002839D0571B002D00D04B
:106360009DE06346002B00D1DBE07B1E012F00D1B6
:106370000DE1FF2F71D01F0098E0002E00D1A7E0A3
:10638000421E012800D1E6E0FF2868D010008FE708
:1063900001204140A14200D07FE7FF2040428046DB
:1063A000A8444046002838D0511B002D00D1AEE053
:1063B000FF2A00D1DFE080236046DB0418438446D7
:1063C0001B2900DCD9E0012015008019B1E7FE206F
:1063D0006A1C104271D1002D00D0A6E06346002B4C
:1063E00000D1D9E00022002E00D188E7981B43019C
:1063F00000D4E1E063460C00F01A6FE7002E00D1F4
:10640000B7E00200013A012800D19CE0FF2826D025
:10641000904688E7FF22002771E7FE206A1C1042A1
:1064200064D0FF2AF6D0150066447008430700D0F8
:1064300056E7C308FF2D12D05B025F0AEAB25EE79F
:106440006246002A00D196E0002E08D08022D203B6
:10645000134204D04846104201D10C004B46002B99
:10646000D8D08027FF031F437F02FF227F0A46E721
:1064700020233A00451B38000135EA405D1BA84047
:10648000431E98410025104328E720231B1A3200A1
:106490009E40C2403000431E984110430CE7FF2A43
:1064A000DBD080236046DB04184384461B2F56DD77
:1064B00001200C001500301A00E763469F1B7B018A
:1064C0003DD4002F00D0FEE600240022002716E76E
:1064D0000500AFE7320043464146DA4020235B1A0D
:1064E0009E403000431E9841104321E7002DA7D164
:1064F0006346002B59D00022002E00D1FFE6300069
:106500006044430192D52A4B013518408EE763461B
:10651000002B47D04B1E012915D0FF292BD0190085
:106520004EE70C004B463D0084E76246002A8BD1C3
:10653000002E92D180270024FF22FF03DFE663466E
:106540000C00F71ABFE6300060440125430100D477
:106550006CE70225F2E663460125981BAEE6202390
:1065600064466046FC40DF1BB840431E9841204310
:106570009FE705005EE74B4671E7202365466046CE
:10658000CD40591A8840431E984128431CE7634672
:106590000C000125F01A91E6002E95D00C004F4614
:1065A0000022ACE64B460D0044E74F460022A6E62B
:1065B000FFFFFFFBFFFFFF7D002800D036E7002430
:1065C00000279CE641024200C30F490A0020120E38
:1065D0007E2A03DD9D2A02DD094A98187047802033
:1065E00000040143952A07DC9620821AD1404842D4
:1065F000002BF3D10800F1E7963A9140F7E7C04647
:10660000FFFFFF7FF8B5002813D0C317C6185E4000
:10661000C40F3000FAF704FF9E2305001B1A962BC7
:106620000FDC082801DD083DAE407602760AD8B2BC
:1066300002E0002400200026C0053043E407204388
:10664000F8BD992B0CDD05223100121AD1400A0049
:10665000010030001B318840411E88410243160072
:10666000052D12DC31000D4F3940720709D00F2083
:106670003040042805D004314A0102D59F23394017
:106680005B1B89014E0AD8B2D6E76A1F96403100DB
:10669000024F39407207F4D0E9E7C046FFFFFFFB25
:1066A00070B500260C4D0D4C641BA410A64209D1F8
:1066B000002600F021F80A4D0A4C641BA410A642E3
:1066C00005D170BDB300EB5898470136EEE7B30033
:1066D000EB5898470136F2E7206800082068000868
:1066E000206800082468000803008218934200D143
:1066F000704719700133F9E7F8B5C046F8BC08BC1B
:106700009E467047F8B5C046F8BC08BC9E46704728
:106710000617000800170008A8170008A0170008AF
:10672000981700089017000806170008821700083D
:10673000741700086C170008641700080617000893
:1067400054170008381700082A1700080617000811
:1067500006170008061700080617000806170008A5
:106760001C17000812170008191B12131D15161705
:106770001A090A0B1E0D0E0F4C23000848230008AF
:10678000A42500089E250008982500084823000835
:1067900064000000F0540008F25400084655000858
:1067A00098550008EA550008405600089E54000815
:1067B00000000000000000000102030406070809B1
:1067C000000000000102030441524B2034494E31C5
:1067D00020534C4F00000000C0600008906000088B
:1067E000906000088E6000089460000894600008C3
:1067F000DC6100088E60000894600008DC6100081D
:10680000946000088E6000088861000888610008B4
:0868100088610008186200080D
:0868180038F3FF7F01000000CE
:0468200085140008D3
:046824005D140008F7
:10682800007C0008CF07CF0778002D002D00D00787
:106838004C046C07DC0564004A012D009001C80077
:10684800010014004600DC050201020101010000FC
:10685800D43000000105010AE803000010270000F9
:10686800000000000A0000000000000064000000B2
:106878000000000000000000000000000000000010
:106888001027000050C30000B400D007D0072D0027
:106898001E0303000000000090010000000000003B
:1068A800E8030000000000000000000000000000F5
:1068B80000000000204E0000A086010064190000BE
:1068C800000000000100000000000000320000008D
:1068D80000000000000000000000000000000000B0
:1068E8001027000050C3000001020100D200D007A9
:1068F80064000500E8030000B400B700BA00BD005A
:10690800C100C400C700CA00CD00D000D300D60023
:10691800D900DC00E000E300E600E900EC00EF004D
:10692800F200F500F700FA00FD000001030106017E
:1069380009010B010E0111011301160119011B01B7
:106948001E0120012301250128012A012C012F0104
:1069580031013301350138013A013C013E01400162
:10696800420144014601470149014B014D014E01D5
:1069780050015101530154015601570158015A0160
:106988005B015C015D015E015F0160016101620103
:1069980063016301640165016501660166016701C0
:1069A8006701670168016801680168016801680199
:1069B800680168016801670167016701660166018E
:1069C80065016501640163016301620161016001A0
:1069D8005F015E015D015C015B015A0158015701CD
:1069E800560154015301510150014E014D014B0113
:1069F8004901470146014401420140013E013C0171
:106A08003A0138013501330131012F012C012A01E6
:106A180028012501230120011E011B01190116016E
:106A2800130111010E010B01090106010301000107
:106A3800FD00FA00F700F500F200EF00EC00E900B5
:106A4800E600E300E000DC00D900D600D300D00067
:106A5800CD00CA00C700C400C100BD00BA00B7001D
:106A6800B400B100AE00AB00A700A400A1009E00D6
:106A78009B009800950092008F008C00880085008C
:106A880082007F007C0079007600730071006E0040
:106A98006B006800650062005F005D005A005700E7
:106AA800550052004F004D004A0048004500430081
:106AB80040003E003C00390037003500330030000C
:106AC8002E002C002A002800260024002200210085
