:020000040800F2
:10000000001000202102000871020008710200089F
:1000100000000000000000000000000000000000E0
:100020000000000000000000000000007102000855
:1000300000000000000000007102000871020008CA
:1000400071020008710200087102000871020008C4
:1000500071020008710200087102000871020008B4
:1000600071020008710200087102000871020008A4
:100070007102000871020008710200087102000894
:1000800071020008710200080000000071020008FF
:100090007102000871020008710200087102000874
:1000A0007102000871020008710200087102000864
:1000B000710200080000000071020008000000004A
:1000C000002243088B4274D303098B425FD3030A97
:1000D0008B4244D3030B8B4228D3030C8B420DD3AA
:1000E000FF22090212BA030C8B4202D31212090238
:1000F00065D0030B8B4219D300E0090AC30B8B4276
:1001000001D3CB03C01A5241830B8B4201D38B0323
:10011000C01A5241430B8B4201D34B03C01A5241C8
:10012000030B8B4201D30B03C01A5241C30A8B420B
:1001300001D3CB02C01A5241830A8B4201D38B02F6
:10014000C01A5241430A8B4201D34B02C01A52419A
:10015000030A8B4201D30B02C01A5241CDD2C3090C
:100160008B4201D3CB01C01A524183098B4201D388
:100170008B01C01A524143098B4201D34B01C01A73
:10018000524103098B4201D30B01C01A5241C308EB
:100190008B4201D3CB00C01A524183088B4201D35A
:1001A0008B00C01A524143088B4201D34B00C01A46
:1001B0005241411A00D20146524110467047FFE7B2
:1001C00001B5002000F006F802BDC0460029F7D0B6
:1001D00076E770477047C04610B5064C2378002B71
:1001E00007D1054B002B02D0044800E000BF0123DB
:1001F000237010BD1A02002000000000400E00080D
:10020000044B10B5002B03D00349044800E000BFA5
:1002100010BDC046000000001C020020400E000877
:100220000D4885460D480E490E4A002302E0D45879
:10023000C4500433C4188C42F9D30B4A0B4C00232E
:1002400001E013600432A242FBD300F0A3FA00F0F5
:10025000B3FD00F0D5FAFEE70010002000000020FA
:1002600004000020600E000804000020340200207A
:10027000FEE7F7B500254B680A6800935E1E130081
:10028000EB4009D1012E05D84368C96893434A431E
:100290001A4342600020FEBD01241300AC402340FD
:1002A00022422BD01A0003275A435743BC46FF4330
:1002B000019767460468BC43009F57433C43046072
:1002C000012E06D88C6886685443019F3E40344313
:1002D00084600C69C6685443019F3E402643009CDD
:1002E000C660022C0AD14C69FF2B09D80F26524355
:1002F00056436243036AB3431A4302620135BAE7C5
:100300000F261B0A5B435B435E436343426AB2436F
:100310001A434262F2E700002E4A030090420AD1DB
:1003200080222D4B1201D9680A43DA60DA682B4922
:100330000A40DA600BE08022D205904209D1012107
:10034000254B1A690A431A611A698A431A61002007
:100350007047234A904203D11F4B02211A69F1E7EB
:10036000204A904203D11C4B10211A69EAE71E4A29
:10037000904209D18022184B520019690A431A6130
:100380001A691A490A40E1E7194A904208D18022C5
:10039000114B5202D9680A43DA60DA681549C7E797
:1003A000154A904208D180220B4B9202D9680A4329
:1003B000DA60DA681149BBE7114A01209342C7D1DC
:1003C0008022054BD202D9680A43DA60DA680D4907
:1003D000AEE7C046002C014000100240FFF7FFFFCF
:1003E000000400400010004000200040FFFEFFFF1E
:1003F00000400140FFFFFEFF00440140FFFFFDFF02
:1004000000480140FFFFFBFF204A10B503689042FF
:1004100006D08024E405A04202D01D4CA0420CD19D
:100420007024A3434C682343904212D08024E405F7
:10043000A0420ED0164CA0420BD0164CA04208D0C1
:10044000154CA04205D0154CA04202D0144CA0423D
:1004500003D1144C2340CC68234303608B68C362F0
:100460000B888362904208D00B4B984205D00B4B0F
:10047000984202D00A4B984201D10B7C03630123BE
:10048000426913434361002010BDC046002C014067
:1004900000040040002000400040014000440140B2
:1004A00000480140FFFCFFFFFA2110B58900FFF76B
:1004B00007FE0022034B013858609A6005321A602B
:1004C00010BDC04610E000E0014B18607047C04608
:1004D000000000200123F0B5150087B00A4300900A
:1004E0000E0000201A4232D14A08294C0192E268DB
:1004F0001A42FCD123691B0603D5264B6360264BA9
:100500006360AB050FD102332361656122693E331D
:10051000134323610123E268110019401A42FAD102
:100520002023E36021610023012704930593059BA9
:10053000019A93420DD3802322692900134323613A
:100540003200009800F05CFC43425841C0B207B052
:10055000F0BD0599009B4900591802AB0222981D75
:1005600000F05CFC2761049B02AAD2885B191A8008
:10057000E3681A003A403B42FAD12023E36022614B
:10058000049B02330493059B01330593CFE7C046D8
:100590000020024023016745AB89EFCD10B500F084
:1005A0003DFC10BD10B5124B1B78012B03D000226F
:1005B000104B1A8010BDE0220F4C120623689B18C6
:1005C000802252029342F2D80C4B0D4A1B689B18B2
:1005D0008022D2029342EAD872B68020C005FFF78B
:1005E0009BFE236862689D4683F308881047E1E715
:1005F000007C00080400002000100008041000081F
:1006000000F0FFF7054A10B51168054C00022140C3
:100610001160D36823400343D36010BD0004004839
:10062000FFFCFFFF10B50120FFF7ECFF10BD00003D
:1006300070B5154B154C5B6AA544DB0020D5144BF7
:100640001B780F2B1CD0013BDBB2FD2B18D880226E
:100650006846D2000F4900F0E1FB80260F236A466E
:100660008025002493707600ED002000094B3100B6
:10067000E21801346844FF34FFF72CFFAC42F4D198
:100680008023DB009D4470BD0010024000FCFFFF92
:10069000027C0008007C00088021C9054A6A044BDE
:1006A00092B25A804B6A9B1A9BB29842FAD8704712
:1006B000040000201020084B10B598611A68074903
:1006C0001140802252000A431A605A6882435A60DD
:1006D0002430FFF7E1FF10BD00040048FFFCFFFFDE
:1006E000F8B510270B4E0500B7623420FFF7D4FF92
:1006F000082401231D420BD0B761013C3420E4B231
:10070000FFF7CAFF6D08002CF3D11023B361F8BDC9
:10071000B762F2E70004004810B50400FFF7CAFF13
:100720002000FFF7DDFFFFF77DFF10BD10B5302083
:10073000FFF7F2FF0022014B1A8010BD04000020D9
:1007400010B5C220FFF7E8FF024A13880133138077
:1007500010BDC0460400002010B5C120FFF7DCFF2B
:10076000024A13880133138010BDC04604000020E4
:1007700070B504000D00FFF79DFF65192078FFF7A5
:10078000AFFF01343420FFF787FFAC42F6D1FFF70B
:1007900049FF70BD704700000023F7B50400012633
:1007A00018000B4F0191019A9A4200DCFEBD08220D
:1007B000E15C0D0045404008354201D0784080B2F0
:1007C000013AD2B24908002AF3D10133EBE7C0461F
:1007D00001A0FFFF70B50400074D01002800FFF7DE
:1007E000DBFF064B1A5D2B5D12021343181A4242BF
:1007F0005041C0B270BDC046180100201901002050
:100800001023D949F0B50A68D84C13430B60012373
:100810000A688FB09A431A430A60226800AF1343F4
:100820002360022322681A42FCD0F82223689343F3
:100830001A008023134323600123626B1343636315
:100840000223626B1A42FCD0F822636B93431A00B6
:100850008023134363630123626A134363620223A9
:10086000626A1A42FCD06368C14A1A40A0239B0303
:1008700013430F226360E36A9343E3628023226899
:100880005B041343236080239B0422681A42FCD03C
:10089000F0226368934363606368B64A134003229F
:1008A0006360636893431A00022313430C2263605E
:1008B00063681340082BFBD1AF48FFF7F5FDAE4846
:1008C000FFF702FE10230125DB1814220021D8199E
:1008D00000F0ADFAE36980262B43E361E369F60596
:1008E0002B407B617B692F233B84303BBB62113300
:1008F000DB18D9193000FFF787FD802133689F4A44
:100900008B433360B36813407022B36073689343C2
:100910007360B3688B43B3603368002193433360E3
:1009200033685C3A2B43336010269319D81900F0D2
:100930007EFA80216269C9020A4362616369904854
:100940000B408021FB61FB69626989020A43626195
:1009500063693E620B40BB61BB69B319D9193D6342
:10096000FFF787FC0220FFF74DFEFA20002640002B
:10097000FFF792FE35001022814B1B69134201D113
:100980000135ADB20A20FFF787FEFA23E1221B01F1
:100990005200954200D91E0001369E42EBDBE12356
:1009A0005B009D4204D9636ADB0001D4FFF7FAFDC6
:1009B0000120FFF727FEFA20FA244000FFF76CFE23
:1009C000102664006E4B1B69334201D10135ADB274
:1009D0000A20013CFFF760FE002CF3D1002D19D056
:1009E0002000FFF70FFEFA20FA254000FFF754FE23
:1009F00010266D00624B1B69334201D10134A4B251
:100A00000A20013DFFF748FE002DF3D1002C01D054
:100A1000FFF7C8FD0020FFF7F5FDFFF709FE0023F3
:100A20008122584C584E190052002000337100F0BA
:100A3000FEF9FFF7F7FD0023BC60FB607B6000223E
:100A4000514B52485A718022D205516A89B259805D
:100A500010244B4A126922424CD080228220D205B7
:100A6000526A197992B25A8040001024444B1B6993
:100A7000234253D125001A20FFF70EFE404B1B697D
:100A80001D4023423FD13420FFF706FE01223C4B9C
:100A90003D4C1B691B091340AB4062790135134380
:100AA000DBB23B606371082DEDD13420FFF7F4FD1C
:100AB0001022334B1B69134225D001232371A379E4
:100AC000002B67D023897A6802339A4233D0BB68FF
:100AD0003A681A707B6801339BB27B608122FB68A5
:100AE00052000133FB60BB680133BB60FB6893427B
:100AF000A5D11CE08022D205526A521A92B28242DB
:100B0000A6D965221A80204B1B79002B0FD11E4BD2
:100B10001B88642B83D9FFF745FD80E78023DB0525
:100B20005B6A9B1A9BB283429FD900299DD0164BCA
:100B30009B79002B45D0144C26893000FFF74AFEE4
:100B400000283BD08022124D00215200280000F0E6
:100B50006EF932000B49280000F060F9FFF7E6FD5E
:100B60000023A371D3E7C0460020024000100240DA
:100B7000FFFFC2FFFFF8FFFF006CDC02F8BFFFFFC2
:100B8000000400481801002004000020204E00004E
:100B9000180000208023DB055B6A62889B1A9BB2E9
:100BA000FA2B0ED8BB683A681A700223FA68FF3332
:100BB0009A4293D12388143323808FE7FFF7C0FD37
:100BC000A5E7764C237C20787D2B0DD1237A0D2B45
:100BD0009DD1637A422B9AD1714809210830FFF7E1
:100BE000C7FD0023237592E7237D7D2B05D1237B51
:100BF0000D2B02D1637B422BEED0230028331B78D0
:100C00007D2B07D1631CDB7F0D2B03D1A31CDB7F66
:100C1000422BE1D0634D00280ED1A27863781343B4
:100C2000E278134301D165332B80C120FFF774FDB7
:100C30002B8801332B806AE701281BD10130FFF795
:100C4000C9FD0028BAD0EA68574B9A4202D8FFF78C
:100C500083FD5CE7554B298955489A4203D1022907
:100C600001D90F238370FFF735FC0028EFD0FFF781
:100C70005DFD4CE7FF2822D1FB38FFF7ABFD0028D4
:100C80009CD000233380E378A1781B020B435BBA2E
:100C90009BB2F360202B02D1444BF360E7E7212B9A
:100CA00001D1444BF9E7222B01D13369F5E78022CA
:100CB000D2009342CBD3802212059B18EDE7FE2889
:100CC00012D1FA38FFF786FD002800D176E7A37825
:100CD000012B06D0E3782B810123AB71FFF7A2FC37
:100CE00015E780235B00F6E7FD2809D1FB38FFF705
:100CF00071FD002800D161E7C120FFF70DFD06E777
:100D0000022809D1FFF766FD002800D156E7264BDF
:100D1000EA689A429BD9AAE7032886D101386E4631
:100D2000FFF758FD002803D1FFF70AFDB546EEE6B0
:100D3000EB68BB60002B02D1FFF70EFDF6E764788D
:100D4000002C01D10134FF3423006A460A33DB084A
:100D5000DB00D31A9D46E21C00216846FB6000F0D0
:100D600066F822006846B968FFF718FC210068465B
:100D7000FFF712FDFB68FA681855631C000AD0548F
:100D80003022F968A31CCA546846E11CFFF7F0FC46
:100D9000EB681C1900232C61EB60C7E718010020E9
:100DA000E00F000804000020FF0F0008007C00088E
:100DB00018000020E07B000870B500260C4D0D4C9B
:100DC000641BA410A64209D1002600F039F80A4D90
:100DD0000A4C641BA410A64205D170BDB300EB58A9
:100DE00098470136EEE7B300EB5898470136F2E733
:100DF000580E0008580E0008580E00085C0E000837
:100E000030B500240139A24201D1002005E0035D84
:100E100001340D5DAB42F6D0581B30BD002310B538
:100E20009A4200D110BDCC5CC4540133F8E70300F2
:100E30008218934200D1704719700133F9E700001E
:100E4000F8B5C046F8BC08BC9E467047F8B5C04629
:080E5000F8BC08BC9E46704787
:040E5800010200088B
:040E5C00D9010008B0
:040E600000127A0002
:100FE000DAE32559D963B84E343731141F060602A7
:040FF00030000000CD
:0400000508000221CC
:00000001FF
