:020000040800F2
:10100000000D0020D1100008191D0008D51400089B
:1010100000000000000000000000000000000000D0
:10102000000000000000000000000000091E000891
:1010300000000000000000001B1D00080B1E00083F
:10104000E3100008E3100008E3100008E3100008B4
:10105000E3100008E3100008E3100008C1140008C2
:10106000E3100008E5130008E3100008111400085D
:1010700041120008751F0008E3100008E310000883
:101080009D1F0008C51F000800000000351F000854
:10109000491F0008711F0008E3100008E310000852
:1010A000E3100008E3100008E3100008E11F000847
:1010B000E310000800000000E31000080348854624
:1010C00000F080F80048004721390008000D00209A
:1010D0000448804704480047FEE7FEE7FEE7FEE7D6
:1010E000FEE7FEE7311F0008BD10000803460B4372
:1010F0009B0703D009E008C9121F08C0042AFAD2CE
:1011000003E00B780370401C491C521EF9D2704753
:10111000D2B201E00270401C491EFBD2704700228F
:10112000F6E710B513460A4604461946FFF7F0FFE6
:10113000204610BD70B50446002903D000202022AF
:10114000012310E0002801D00020C043C046C04663
:101150000DE02546D5408D4205D30D469540641BD4
:101160001D46954040191546521E002DF1DC2146C2
:1011700070BD000070B5002504462E46002911D030
:10118000002C01DA01254442002901DA01264942F6
:101190002046FFF7CFFFB54200D04042002D00D0DF
:1011A000494270BD002C02DA0121C90702E0002C7F
:1011B00000DD03490846C046C046214670BD000018
:1011C000FFFFFF7F064C0125064E05E0E36807CCD4
:1011D0002B430C3C98471034B442F7D3FFF772FF0F
:1011E0004C5E00086C5E000870B58C180578401CD9
:1011F0006B075B0F01D10378401C2A1106D10278DE
:10120000401C03E006780E70401C491C5B1EF9D19F
:101210002B0705D40023521E0DD40B70491CFAE78E
:101220000378401CCB1A921C03E01D780D70491CFA
:101230005B1C521EF9D5A142D8D3002070BD00001E
:10124000B0B5A34C2068800213D50120450509489C
:101250000068094909684908884203D9256002F0F5
:10126000C9F9B0BD01F0FAFE04490978884200D1FD
:101270002560B0BD240000407C050020CE00002089
:1012800005488188054A11804188054A11800088F7
:10129000044908807047C0469C0500205C0500207A
:1012A0006005002046050020F0B593B0002709979F
:1012B000089707970697012148020B460291444977
:1012C0004A6802434A604A6802400A920A985804EF
:1012D0000A6802430A60096801400A9103260596DC
:1012E0000A980820039004900920C40604AD204603
:1012F000294600F021F908970596402001900490B6
:101300002046294600F018F932480168324A0A405E
:101310000260310302688A430260016820220A43A6
:1013200002600168019CA1430160016880220A43B8
:101330000260310202688A43029B1902511801605F
:10134000B10202688A4399021E4651180160234D7A
:1013500028682043286028680399084328601804F7
:10136000296801432960072080051D490A688243D6
:10137000D80510180860D8070F901297119710978A
:101380002C46283C0FA9204600F0A6F80E970D9693
:101390000C970B970A970AA9204600F0B7F804208B
:1013A000C04329461C390A6802400A60294614399C
:1013B0000A6806231343B3430B60243D29680140A8
:1013C0002960286803998843286013B0F0BDC0469F
:1013D0001410024008000240EFBFFFFF2824014024
:1013E0000827014010B5094C2068800703D4206805
:1013F000000707D410BD01206060FFF741FF20689F
:101400000007F7D50820606010BDC046000002400C
:1014100070B524480078002813D0214800780028AF
:101420000FD00124200320490A6802430A600020EB
:10143000086421480078002827D003F0BFFB022071
:1014400026E001241848011F0A6852040CD5174AE7
:101450001278002A08D0A203154B1D6802262E43DD
:101460000825AE431E6002600A68920405D409682C
:10147000090401D52103016070BD21030160016CE5
:10148000A143016404F07CFB04E003F0D7FC204698
:101490000A490870E00307490A6802430A6070BD00
:1014A0001005002017050020040002401A05002046
:1014B0002004004010040140E00400200105002049
:1014C00080B50120C0030249086003F001FB80BD24
:1014D00014040140FEE700008268D20712D1C268FE
:1014E000094B13404A681A438B681343CA681A436E
:1014F000C26003229207036993430968194301619B
:101500000020704701207047C73FFFFF70B5826819
:10151000D2070CD1C268074B134074C909681A433B
:1015200022432A4332430A43C260002070BD012097
:1015300070BDC0463CC2FEFFF0B584B00B68002B06
:1015400049D000250191009010E07F437F433B4646
:101550000F2159438E435D4335430098055101994E
:10156000039D6D1C0B681C46EC4035D00122AA403F
:101570001A40F6D00395144654434B6826465E4302
:10158000032767430568BD4335430560FE43029367
:101590005D1E2346012D05D88D685D438768374061
:1015A0002F4387600D695D43C76837402F43C7608D
:1015B000029D022D039DD4D1170A05D024244D6924
:1015C0000659002FC1D104E020244D690659002F8F
:1015D000BBD15B43BCE700234A68521E012A05D8F1
:1015E000C968594342689A430A434260002004B0E4
:1015F000F0BD000080B57D21C900FFF79BFD401EB6
:1016000003494860002088600520086080BDC0460E
:1016100010E000E0B0B504463E4D28680C210140C2
:101620003D4808290FD12968C90300D43B48A96A5D
:101630000F220A40511CFFF77DFD014628688002F9
:10164000000F801C4843206029680906090F354AAD
:10165000515CC840606029684905490F304A515CB7
:10166000C840A060B0BDC04610B5002801D0002021
:1016700010BD284CE16A0320084003281AD0022834
:101680001FD0012823D120680C21014022480829BD
:101690003FD12168C90300D42048A16A0F220A4023
:1016A000511CFFF747FD014620688002000F801C97
:1016B000484310BD201F00688007C1171648084026
:1016C00010BD0120C103E0698003084010BD2068FF
:1016D0000C210140104808290FD12168C90300D40A
:1016E0000E48A16A0F220A40511CFFF723FD014654
:1016F00020688002000F801C484321682268520540
:10170000520F074B9A5C0906090F064B595CC840FB
:10171000D04010BD0410024000127A0000093D00C4
:10172000325E0008225E0008014908607047C0462A
:101730009C010020B0B51F22D30234C99C433F2333
:101740009B029D430B782B4323430F242403A24386
:101750001A4303239B034C688D689C4314434988B8
:10176000034A0A4022432A4342640020B0BDC046D7
:10177000FF1F0000B0B5056801229407A04205D004
:10178000234B984202D0234B984217D170239D439C
:101790004B682B43204DA84214DD204CA04206DCB0
:1017A0001B4CA04216D0204CA04213D02EE01C4C63
:1017B000A0420FD01B4CA0420CD027E02B46164D68
:1017C000A842EADCA04205D0124CA04202D0174C3D
:1017D000A0421BD103242402A343CC681C43046011
:1017E0008B68C3620B8883629A4BC3180A24E34157
:1017F000072B06D814469C40E1231C4201D0097CEB
:1018000001634169114341610020B0BD1C46E6E718
:10181000002C014000040040FF2B0140FF43014029
:1018200000480140004401400040014000200040C9
:10183000F0B584B00123FF2945DC01296CD01029C3
:1018400067D1016A102399430162016A30239943E9
:1018500013695B085C010C43176851680901214357
:101860007C4C06190A24E64145688469072E1ED877
:1018700003970127B740E126374217D00326B60267
:10188000B543536902939769D369BF002646744CE8
:101890003C402C43DD0025433446C0239943029B42
:1018A0005B08DB010B43916889011943039F456085
:1018B00073231B029C433B0223438361D2688263F0
:1018C0000162002325E001273D02A9425FD03D03CC
:1018D000A9421ED1016AA94301625E4945180A2145
:1018E000CD41016A436814680194546803941469F3
:1018F0000294C669072D00D98FE03C46AC40E12533
:101900002C4200D189E0BC03A3439469A4011C4389
:1019100084E0184604B0F0BD0127F943036A0B4088
:10192000036213690B40046A032102918C431C4338
:10193000166851682143474BC3180A24E3414568A0
:101940008469072B1BD803963E469E40E1231E4226
:1019500014D0029B1B029D437B0256690296976935
:10196000D6699F432F4375003D430C239943029B47
:101970005B08DB000B43916889001943039E4560B7
:1019800073239C4334438461D26842635CE0016A00
:10199000A94301623149491C13691B020B40032111
:1019A00002910902056A8D431D4311680391516834
:1019B0000B022B43274941180A25E9414668C569AE
:1019C00007291DD88F40E1210F4219D0029C210325
:1019D0008E43516901919169D769009709011E4FA2
:1019E0000F40374300994E013E43A1028B431C49EF
:1019F000091D019CA4020C401C4391688B022343E7
:101A0000466073218D4303990D43C561D168C1635D
:101A100003620023184604B0F0BD1C4644607323E3
:101A20001B029E43019B1B023343C361D2680264C5
:101A3000032212039143084A1032029B1B031340F6
:101A40000B4303990903194301620023184604B0AC
:101A5000F0BDC04600D4FEBFF0DFFFFFFFFDFFFF7B
:101A6000FCF7FFFF70B584B0044600680125C0078D
:101A700024D10E4620682449014070680843F1686B
:101A8000014330690843B169014321600320010328
:101A900062688A43B168114361600002A1688143B2
:101AA00070690843A060194884420AD018488442EB
:101AB00004D10020FFF7D8FD002808D1284604B043
:101AC00070BD01A8FFF7A6FD03980028F6D0316885
:101AD0000029F3D00122D203B36993420AD1400016
:101AE0004A081018FFF726FB0A4901400007400F7B
:101AF000401804E04A081018FFF71CFB80B2E060B1
:101B00000025284604B070BDF369FFFF0044004083
:101B100000380140F0FF000006480749016007490E
:101B20000160022141607D21490181600449016019
:101B30007047C04600300040CCCC00005555000036
:101B4000AAAA0000F0B59FB000251D951C951B9515
:101B50001A9519950E950124E3020393694A50687A
:101B60001843506019A90D740D80506818401190E9
:101B7000184631381B901198634E3046FFF7FAFD36
:101B800030688021049108433060B0685F490140AB
:101B9000B160B069082101910843B06112951395B5
:101BA000149515951695179518956020119011AFFD
:101BB000304621463A46FFF73BFE0420C1430091E0
:101BC000B0690840B061B06903990843B0611395EA
:101BD0001295102130463A46FFF72AFEB0694C496B
:101BE0000840B061F06901990843F06113951295BE
:101BF0002102019130463A46FFF71AFEF06900993A
:101C00000840F061F06903990843F061139512955B
:101C1000210330463A46FFF70BFEF0693C49084085
:101C2000F06170687021884370600BA9CD812D2010
:101C30000873B068049A9043B060109560030F90E9
:101C40000D950C950B953046FFF774FD2746600403
:101C50002C4B1968014319601968014005910598DA
:101C6000A0040294196801431960196801401E918B
:101C700002240A94099508950795069405941E98E0
:101C8000244805AE3146FFF757FC0A94099508959C
:101C90000795069405971F483146FFF74DFC0A94B7
:101CA0000995089507950694049805900920C7069C
:101CB00038463146FFF740FC0A9409950895079588
:101CC000069402988002059038463146FFF734FCAE
:101CD0000A94099508950795069402984002059084
:101CE00038463146FFF728FC0A9409950895079570
:101CF00006940198059038463146FFF71DFC1FB049
:101D0000F0BDC04614100240002C0140F8BFFFFF98
:101D1000FFFBFFFF0004004870477047F0B581B03B
:101D2000334801680125A9430160324CE07CE17B26
:101D300001290AD1401CE074C1B2072903D32E48FF
:101D40000573E5742846284009E0411EE174080641
:101D500003D1294805730621E17428468843A073FE
:101D6000EFF3108072B6244FF87B002802D1E07C9C
:101D700000F01EFA62B600F0FBF9204E30682049F0
:101D8000884200D3E5720020F8763877E07C400086
:101D90008019216D41824820385A4A22BA5A1018B7
:101DA00040084018410821652F22F04B9A5C002A18
:101DB00003D07A7F4A43910902E0A2780109514396
:101DC0008008401A4222B8523987E07A002805D0AC
:101DD000B0680C49884207D901B0F0BD01F028F87D
:101DE000B06808498842F7D8401CB06001B0F0BD27
:101DF0000C200040C0000020000500207C050020D1
:101E0000C50900000F27000070477047B0B545496D
:101E10000A68012002430A600968434D29680143AA
:101E200029602968890708D42968890705D42968A1
:101E3000890702D429688907F3D52B6880210B43D1
:101E4000782293432B606B6B03436B636B6B9B0735
:101E500008D46B6B9B0705D46B6B9B0702D46B6B31
:101E60009B07F3D56B6B0B4393436B63696A014329
:101E70006962696A890708D4696A890705D4696A49
:101E8000890702D4696A8907F3D53D2109046A6884
:101E90008A430521C90451186960E96A0F229143F8
:101EA000E96201062A680A432A6041062A680A4252
:101EB00008D12A680A4205D12A680A4202D12A6852
:101EC0000A42F3D06968F022914369600721090250
:101ED0006A688A436A60696802220A4382436A60C8
:101EE00069680C20014008290BD069680140082965
:101EF00007D069680140082903D0696801400829B2
:101F0000EED10A4C2046FFF775FB2046FFF70CFC8C
:101F1000686B042188436863286B03218843286326
:101F2000B0BDC0460020024000100240006CDC0240
:101F30007047000080B50120C04302490860FFF7E8
:101F4000EDFE80BD102000400220C04307490A6812
:101F5000920703D40A68D20704D1704708600A6860
:101F6000D207FAD0401C08607047C04610400140BC
:101F7000704700000220C04307490A68920703D453
:101F80000A68D20704D1704708600A68D207FAD0FD
:101F9000401C08607047C046102C01400220C0431E
:101FA00007490A68920703D40A68D20704D1704728
:101FB00008600A68D207FAD0401C08607047C04623
:101FC0001004004080B505480168C90704D001210C
:101FD000C943016003F0DAFB80BDC0461010004029
:101FE0007047000081B0002000902248026822491A
:101FF0000A405218183202600268002A08D50268A6
:10200000002A05D50268002A02D50268002AF3D406
:1020100001220092009B002B17D0009B5B1E0093B7
:10202000009B002B11D0009B5B1E0093009B002B9C
:102030000BD0009B5B1E0093009B002B05D0009BE8
:102040005B1E0093009B002BE7D103680B401343FA
:102050000360014608390A68D20708D10A68D20726
:1020600005D10A68D20702D10968C907F1D001B0C9
:102070007047C04608240140E8FFFF7F70B5F54B6C
:1020800018680421014308208143196002249C62DE
:1020900003210A050920C00605689543012216059B
:1020A000AD190560950285621D681543A5431D6045
:1020B0009A628B0404689C439304E3180360530200
:1020C00083628B0304689C439303E31803608023BB
:1020D0008362090403688B431104591801601102DB
:1020E000816270BD70B5DC490A7DDA4C20680C2332
:1020F0009843002A03D008221043206004E0042201
:10210000104320600220A062032213050920C006AC
:1021100005689D4301235E05AD1905600E7D2568A8
:102120009543002E03D002263543256002E01D436F
:102130002560A36294040568A543DC042C1904609F
:102140000C7D95030168A943002C03D0DC032143D7
:10215000016004E09C03214301608021816211043D
:1021600002688A4359045118016070BDD9060020E5
:102170000C4800680009182801D8002000E0012060
:102180008000B9490A6804239A4310180860064879
:1021900001784A424A415105044A116000784005DD
:1021A000506070477C050020CE00002008040140EC
:1021B000F0B5411E052900D94AE10920C006C046F4
:1021C0007944097949008F440232618FBEED0322C0
:1021D000910303688B4301218C031B190360802347
:1021E0008362130404689C430B04E31803600B022E
:1021F0008362984B1D680D430224A5431D609961BD
:102200009204056895438A04AA1802604A02826211
:10221000914A167D1D680C22954349058F4A002E70
:1022200000D1EDE0082425431D6051230AE1894ACD
:10223000116804230B4308218B431360022494622A
:1022400003210B0505689D4301231E05AD1905609B
:102250009D02856215681D43A543156093618A043C
:10226000046894439A04A21802605A0282627A4A6D
:10227000157D890304688C4359047A4A002D00D1E6
:10228000C4E0DB031C4304606123DBE0714A116896
:10229000012319430224A1431160936203218D0499
:1022A0000668AE439D04751905605D028562156878
:1022B00004262E430825AE43166094610A0504687F
:1022C00094431A05A21802609A028262624A157D3E
:1022D000890304688C435904624A002D00D19CE0B4
:1022E000DB031C430460ACE003218A0304689443CD
:1022F00001239A03A2180260802282620A04046801
:1023000094431A04A21802601A028262514C226895
:10231000042515430822954325600225A5610A0579
:10232000066896431A05B21802609A0282624A4A07
:10233000177D26688E43D904494A002F73D02E4357
:10234000266051237EE0434B196804220A4308218A
:102350008A431A6002249C6203210A050668964398
:1023600001252A05B2180260AA0282628A03066861
:102370009643AA03B2180260802282610A040668AA
:1023800096432A04B21802602A028262324A177DFA
:102390001E688E43E904324A002F49D026431E604E
:1023A00061234FE02B4B1A6801210A430224A24308
:1023B0001A609962032295040668AE438D0475196C
:1023C00005604D02856295030668AE438D0375195D
:1023D0000560802585611204056895430A04AA18E2
:1023E00002600A0282621C4A167D1D680C22954317
:1023F00049051A4A002E20D0082425431D6020E0FC
:10240000042635431D609C6251231BE09B031C4343
:10241000046080238362612314E09B031C430460F7
:10242000802383620DE01E432660A362512309E0EE
:102430002E431E609D62612304E0042635431D6027
:102440009C624123046814400C4304600648036006
:10245000F0BDC04600040048D9060020FFFFCFFFB2
:10246000FFFFF3FFFFFFFCFF1C000140F0B589B048
:10247000D2480268C16F891AD14DA9818BB259091E
:102480006981D04C2488A34200D822E1CE4C248814
:10249000A34200D31DE1CD4B00271F8043689A1A49
:1024A00092B201268A42324600D83A462A628268AF
:1024B000C3689A1A92B28A42324600D83A466A6291
:1024C000026943699A1A92B28A42324600D83A4661
:1024D000AA628269C3699A1A92B28A42324600D8C5
:1024E0003A460792EA62026A436A9A1A92B28A42AA
:1024F000324600D83A4606922A63826AC36A9A1A1A
:1025000092B28A42324600D83A4605926A63026B1A
:10251000436B9A1A92B28A42324600D83A460492E3
:10252000AA63826BC36B9A1A92B28A42324600D86F
:102530003A460892EA63026C436C9A1A92B28A4253
:10254000324600D83A4602922A64826CC36C9A1AC8
:1025500092B28A42324600D83A4601926A64026DCB
:10256000436D9A1A92B28A42324600D83A46009295
:10257000AA64826DC36D9A1A92B28A42324600D81A
:102580003A460392EA64026E436E9A1A92B28A4203
:10259000334600D83B462B65826EC46EA21A92B2B7
:1025A0008A42344600D83C466C65026F456FAA1AD1
:1025B00092B28A42324600D83A46B44DAA65856F37
:1025C000C06F401B80B2884200D83E46AF48C66507
:1025D000016A456A806A069F7940029F7940C90076
:1025E000059F7D40019F7D40AD000D43049948400B
:1025F0000099484047000898079948400890D8003B
:10260000A100081851004418A14B1878A149097875
:1026100001430DD100F038FD9D4B002808D09B49A7
:102620000879401C0871C0B2652801D301201870D8
:10263000A0193D43089A03994A401978002901D00E
:102640000F214840FE210D40A91888423BD18F4CF4
:10265000226A636A27462837E1CFA16B0791E16BB5
:10266000089192025B02134302021A43EB011343E7
:10267000B2011A437B0113430798010119430898DB
:10268000C0000843216C636CA26CE66C8D000543AE
:102690005900294325460020E84B1880E3895B1C3C
:1026A000E381012E02D17C4B01241C701143AA79D5
:1026B000002A10D0022A1BD0012A1ED10220A871A4
:1026C000298209B0F0BD002070498871488A401CF9
:1026D000488209B0F0BD30291ADB6A78002A17D089
:1026E0006E4800220270DC480180AA7009B0F0BD7B
:1026F0000320A871E97109B0F0BD032AE9D12529A9
:10270000E7D1298AEA79D14B5A54A87109B0F0BDB2
:102710004A1E2E2A06D861480170CF480022028046
:10272000C8B20EE0002902D05C48007809E02978A0
:10273000012901D10021697058490870C6490880F3
:10274000A8700028C5D0564909780029C1D151493F
:1027500009780029BDD0E978884202D00021A9700B
:10276000E870052805D3A978491CA970C9B20629C3
:10277000AFD3294600258D70411E232900D97FE063
:102780007944097949008F44114215464A234E5530
:102790005C607B2865327B7B7B7B7B3A717B7B7BC0
:1027A0007B7B7B7B7B7B7B7B7B7B7B773E490120C1
:1027B000087065E03C490320087061E0D8050020FE
:1027C00080040020F0040020400100204405002087
:1027D000364801210170062052E002F039FA9B4888
:1027E000407C401C304908702C48007848E027495C
:1027F0004D7107204002FF3008810E2040E09348D1
:10280000407C0121081A27490870142038E0264925
:102810000220087034E024490420087030E0224986
:10282000052008702CE01F4801210170874845747D
:10283000072025E01B4805708448012141740820C9
:102840001EE08248857409201AE0804801218174C5
:102850000A2015E001210D4B597107204002188113
:102860001A780D20012A0BD1597009E07748407C75
:102870000C490870152003E00120044988712420C8
:1028800006490D700A49087009B0F0BD80040020A7
:1028900010050020170500200E050020D806002096
:1028A00013050020CF0000200B050020200500208C
:1028B00030080020F0B581B05C4E03CE081A5C4FA2
:1028C000C1195D4A083E91420ED85C4D00242C800F
:1028D0005B4B5978002909D0D978002969D19978BA
:1028E00000292DD018892CE0524D88E05749897C69
:1028F0001E4600290DD057490A887D21CB00904201
:1029000015D9504C248809010091511C5B1C2246AA
:1029100011E04C490A884E4909887D231B012F3359
:1029200000932F2301F00EFF312806DA06E0484914
:1029300009880093002301F005FF044634615EE03E
:102940001881491C99703F4F398880B200F080FB94
:10295000332804D33A4844700346394621E0388886
:102960000721414305CE101A4018C0083880344A68
:102970009178083E33291346394612D3193881B26B
:10298000314A8918CA0F8918490821221F462F4B3E
:1029900099540121F9702B49088001F0CFFF294992
:1029A0003B4608881881D878002828D003CE081A1A
:1029B0001F4F19797D22D200FA32904208D2491C69
:1029C0001971234A138807265E433018C008108007
:1029D000C8B24C2813D31E48018819318AB2BA18DC
:1029E0003332D30FD21852082023184EF254FE4F20
:1029F0007C70018002F02CF93C7101F07BFF00201B
:102A0000288015480288F84909698C1A134B1B68FD
:102A10009C4201DDD11806E0541A9C4203DDD11A14
:102A2000018001B0F0BD018001B0F0BDD8050020EB
:102A3000DFFCFFFF3A05002076050000440500207A
:102A4000E4040020DC0000202AF9FFFFD906002062
:102A5000DA000020DE0000203E050020A801002052
:102A600080B266490A680B689B1A9BB298420ED9DD
:102A70000B689B1A9BB2984209D90B689B1A9BB2B0
:102A8000984204D90B689B1A9BB29842EBD87047C6
:102A9000F0B500283ED003260640451E7D21C90022
:102AA000554A564B002E32D01C681F683F1B1740FA
:102AB0008F420ED21F683F1B17408F4209D21F68FA
:102AC0003F1B17408F4204D21F683F1B17408F42A5
:102AD000EBD3012E2C461BD01C681F683F1B1740F0
:102AE0008F420ED21F683F1B17408F4209D21F68CA
:102AF0003F1B17408F4204D21F683F1B17408F4275
:102B0000EBD3022E07D1841E032D1FD202E0044610
:102B1000032D1BD2F0BD1C681E68361B16408E426A
:102B20000ED21E68361B16408E4209D21E68361B16
:102B300016408E4204D21E68361B16408E42EBD3DE
:102B4000C41E032D02D2E5E7241FE3D018681D68D8
:102B50002D1A15408D420ED21D682D1A15408D423A
:102B600009D21D682D1A15408D4204D21D682D1AF8
:102B700015408D42EBD318681D682D1A15408D4203
:102B80000ED21D682D1A15408D4209D21D682D1ACE
:102B900015408D4204D21D682D1A15408D42EBD38D
:102BA00018681D682D1A15408D420ED21D682D1A09
:102BB00015408D4209D21D682D1A15408D4204D250
:102BC0001D682D1A15408D42EBD318681D682D1A0B
:102BD00015408D42B8D21D682D1A15408D42B3D2D2
:102BE0001D682D1A15408D42AED21D682D1A154054
:102BF0008D42EBD3A8E7C046F8FF0000244801400F
:102C0000F0B5764BC9337648438076490F68002586
:102C10002A4603E052182835782D77D071494E198D
:102C20007168CF1B1BD1B768791A21D1F168CF1B0E
:102C300027D13769791A2DD17169CF1B33D1B76983
:102C4000791A39D1F169CF1B3FD1376A791A45D149
:102C5000716ACF1B4BD1B76A791ADCD050E09CB2B5
:102C6000A74201D247803B46D219B768791ADDD016
:102C70009CB2A14201D241800B465218F168CF1B91
:102C8000D7D09CB2A74201D247803B46D2193769C0
:102C9000791AD1D09CB2A14201D241800B46521880
:102CA0007169CF1BCBD09CB2A74201D247803B4673
:102CB000D219B769791AC5D09CB2A14201D241801C
:102CC0000B465218F169CF1BBFD09CB2A74201D26C
:102CD00047803B46D219376A791AB9D09CB2A142D3
:102CE00001D241800B465218716ACF1BB3D09CB2FF
:102CF000A74201D247803B46D219B76A791A8AD0D7
:102D00009CB2A14286D241800B4683E75109364DE1
:102D1000A961364C2178012925D1591E89B2022991
:102D20000AD80F21C9018A4206D20021A971304E6A
:102D300031700E262D490EE0191F89B2042912D8D0
:102D40001921C9018A420ED2294901260E7027494C
:102D50000E70A91D0726274F3E7001260E702021F8
:102D6000017025490E70254E317801290BD1C93BE0
:102D700099B21A4A914230D21D492F220A7001217C
:102D80003170022125E02778002F26D1002924D197
:102D9000591E89B2022909D80F21C9018A4205D2D8
:102DA0000021A971124A11700E210DE0191F89B27C
:102DB0000429DCD81921C9018A42D8D20C49012240
:102DC0000A702270AC1D07210A4A1170012121707E
:102DD0002021094A012313700170F0BD574D0000F6
:102DE0003C010020D8050020E40400201905002043
:102DF000A4010020E1040020180500201A0500208D
:102E00000748084981600849C1604168074A0A408B
:102E1000D11C4160016801220A4302607047C0462C
:102E200008000240402401409C0500200000FFFFF4
:102E30000120400566490A6802430A607047C0469F
:102E4000F0B587B059480168012529430160016840
:102E500010220A430260290202680A4302600168E4
:102E600004220A430260016840220A430260A90268
:102E700002680A430260290302680A43026064216F
:102E80000162014620390A682A430A60EE03416A5A
:102E9000314341620C380168294301604448016AAA
:102EA00029430162016829430160002706970597BD
:102EB000049703200390029501960920C40601A9F6
:102EC0002046FEF739FBA661069704970595039700
:102ED000029720200190594801A9FEF72DFB3548A3
:102EE00001460C390A682A430A60816829438160D7
:102EF0000168294301600168A94301602E48016807
:102F000029430160416929434161A80701682943B8
:102F100001604169294341612848016829430160F2
:102F2000416929434161C1682943C160FEF7BCF989
:102F3000FFF766FFFFF756F80197524801682943EB
:102F400001601F4800681F49FEF7F4F8062141435D
:102F500001910198002817D00198401E0190019816
:102F6000002811D00198401E0190019800280BD034
:102F70000198401E01900198002805D00198401E3C
:102F8000019001980028E7D1FF2000060E490A6849
:102F90008243E807101808600C48802101600C4843
:102FA00001683143016007B0F0BDC046202C0140EC
:102FB000000400400C200040004801400010004088
:102FC0009C010020400D030004E400E000E100E06B
:102FD0000004014070B5194B186804210143082012
:102FE0008143196002249C6103210A050920C0065F
:102FF0000568954301221605AD19056095028562A5
:103000001D681543A5431D609A618B0404689C43A9
:103010009304E3180360530283628B0304689C43A8
:103020009303E318036080238361090403688B43DF
:103030001104591801601102816270BD000400483A
:103040000248016801220A4302607047142C0140C3
:10305000401AC1174840401A7047000007480068EE
:10306000C00007494018012189038140054A1268C0
:103070000A400E30C240D0B27047C046A0010020C6
:1030800020FFF7FF1C0001400248016810200840A3
:103090007047C04610040048F0B5002934D0012222
:1030A0000A40012933D100210D46002A2AD0425C72
:1030B0006A405100072052B2002A00D5C1E04A0000
:1030C00049B2002900D5C2E0510052B2002A00D511
:1030D000C3E04A0049B2002900D5C4E0510052B211
:1030E000002A00D5C5E04A0049B2002900D5C6E053
:1030F000510052B2002A00D5C7E04D0049B2002964
:1031000000D54540E8B2F0BD0025E8B2F0BDFE2391
:103110000B4000210D4602E0891C8B42C5D0465C65
:103120006E407500072476B2002E40D46E006DB25A
:10313000002D41D4750076B2002E42D46E006DB2DF
:10314000002D43D4750076B2002E44D46E006DB2CB
:10315000002D45D4770075B2002D46D47D007EB297
:10316000002E00D56540461876786E40750076B220
:10317000002E40D46E006DB2002D41D4750076B2A1
:10318000002E42D46E006DB2002D43D4750076B28D
:10319000002E44D46E006DB2002D45D4770075B278
:1031A000002D46D47D007EB2002EB5D547E06540A7
:1031B0006E006DB2002DBDD56640750076B2002E52
:1031C000BCD565406E006DB2002DBBD56640750064
:1031D00076B2002EBAD565406E006DB2002DB9D51D
:1031E0006640770075B2002DB8D567407D007EB28D
:1031F000002EB7D4B7E765406E006DB2002DBDD587
:103200006640750076B2002EBCD565406E006DB28A
:10321000002DBBD56640750076B2002EBAD565404C
:103220006E006DB2002DB9D56640770075B2002DE5
:10323000B8D567407D007EB2002E00D46CE76540B3
:103240006AE741404A0049B2002900D43CE74240C5
:10325000510052B2002A00D43BE741404A0049B233
:10326000002900D43AE74240510052B2002A00D46B
:1032700039E741404A0049B2002900D438E74240CA
:10328000510052B2002A00D437E741404D0049B204
:10329000002900D436E734E710B582B047490B68FF
:1032A0000120420713604B6853608B689360CB68C2
:1032B000D3600B6913614B6953618B699361CB696F
:1032C000D3610B6A13624B6A53628B6A9362CB6A57
:1032D000D3620B6B13634B6B53638B6B9363CB6B3F
:1032E000D3630B6C13644B6C53648B6C9364CB6C27
:1032F000D3640B6D13654B6D53658B6D9365CB6D0F
:10330000D3650B6E13664B6E53668B6E9366CB6EF6
:10331000D3660B6F13674B6F53678B6F9367C96FE0
:10332000D16727490B68274A13604B6853608B6845
:103330009360CB68D3600B6913614B6953618B69F0
:103340009361CB69D3610B6A13624B6A53628B6AD8
:103350009362CB6AD3620B6B13634B6B53638B6BC0
:103360009363C96BD16318490A6802430A6009680C
:10337000014001910198154801680324A1430160AF
:103380000168214301607D20C10011480068FDF7FC
:10339000D1FE401E010E00D0FEE78F490D4A50605D
:1033A0000D4803680B40A107591801600020906088
:1033B0000720106062B602B010BDC04600100008C1
:1033C000801000088000002018100240000001401A
:1033D0009C01002010E000E020ED00E0F0B593B08B
:1033E000FEF714FD784F7868012601963043786027
:1033F000786830400C900C983007B9680143B96088
:10340000B96801400C910C9870480168102207922D
:1034100011430160750438682843386038682840D3
:103420000C900C98B10408913868084338603868EB
:1034300008400C900C980920C1060391F0038862A3
:10344000386830433860386830400C900C98FF2062
:103450000B9000045E4A11688143B00508181060A3
:10346000B0025C49086010685B4B1840B407001953
:103470001060F00209900860FEF764FBB868304302
:10348000B860B86830400C900C98172002900694F1
:10349000A0625248E06200200A90119010900F90B4
:1034A0000E90386804952843386038682840129098
:1034B00003260D96022005900C9012980CAD039CEB
:1034C00020462946FEF738F80A9810900D962020DD
:1034D0000C9020462946FEF72FF83D4948680B9A84
:1034E000904348600D467D20400101466031394BD4
:1034F0001960019C2102BA680A43BA60BA680A409E
:103500000C920C993649029A8A62C862A868324ABB
:103510001040A860E00418600A68802002430A6036
:10352000B968079D2943B960B96829400C910C9985
:103530000B990902264B9A688A43B1035118996086
:103540001E462449049A0A6026492F220A60322323
:103550004B607968089B19437960796819400C9130
:103560000C9921498A621D4ACA620A6882430A602C
:10357000B86805990843B860B86808400C900C9882
:1035800038681843386038681840129011940A9CC3
:1035900010940F940E940D910C95129813480CA949
:1035A000FDF7CAFF30680C490840069940183060A2
:1035B0000998084908600E4804603F21416002F004
:1035C00057F813B0F0BDC04614100240002002406E
:1035D00008E400E000E100E0FFFFFF00FFFF000063
:1035E000002000402810004000480140000400482E
:1035F00028040040B0B5244C20687E2819D3234805
:103600000168C4487C2909D84021415AC9084A297F
:1036100004D8A16889087D2900D2B0BD417D491C2C
:103620004175C8B2652804D301F0BAF80020A06043
:10363000B0BDAD4C607B002809D00025FFF70EFD22
:10364000A17B8842E9D06D1C607B8542F6D3EFF305
:10365000108072B601F0A4F84A20AE490A5A4823F5
:10366000CA520A4A13680B5200201060084A90613F
:103670004223C95A491C116250601068012101435C
:10368000116062B6B0BDC0467C0500202400004039
:103690000C200040F0B583B0934EF16C934CC022E7
:1036A000204601F061FAE07D042801D30220E07594
:1036B000207E014608398E4A8E4F8F4D28291AD810
:1036C00018281CD30097182130222B4601F03AF815
:1036D0007086207E01460C390B2914D9FC2101404B
:1036E00008291CD18549009107211022854B01F042
:1036F00029F8708614E01046F930308611E0014652
:103700000C390B29EAD800950C2118227C4B01F0CA
:1037100019F87086207EFC2101400829E2D0708EC5
:1037200085B2794818380560607E014632396429CF
:103730000AD8217D00290CD030850321FDF7FAFC41
:10374000B0850A30F0850AE05520B0859620308596
:1037500005E04108B185400030850A31F185A07E41
:10376000282568431430B082022001F077FF60788A
:10377000002840D0A07F0B2800D9052001F06EFF63
:10378000272100200290605421462031CA783271EE
:103790008A785E4BD218F2832522A25CFA323284F8
:1037A0002022A25C52005A4BD218728349784900F9
:1037B0004F480918B1832421615C491E4A424A419D
:1037C0005449CA70625D1A3A1523DB439A4201D804
:1037D000052262552925675D0B3F0A23DA4397428C
:1037E00000D863552A27E05D05460A3DEDB2F62D67
:1037F00003D8E35517E0B58A5CE00923DB43434374
:103800003D3BF370D8B2338D1B183385B38D1B1835
:10381000B385738F1B187387738D1B1873853A4D8F
:103820002B6803432B60334F2B23E05C7330C0B213
:10383000B82801D8FF20E0542C20205C401E6228CC
:1038400001D8012088712D23E05C0B38904201D80B
:103850000520E0542E20235C092B0AD8042B0ED817
:103860000A461A327B441B795B009F4402310608EA
:103870003300029888764876274A01201070B58A6E
:10388000A8084A2801D80298B071E17E2020FDF7EF
:1038900051FC04460C212846FDF74CFC2146FDF75F
:1038A00049FC308764212846FDF744FC2146FDF79A
:1038B00041FCF0864B2081000846C83000900F483C
:1038C000C21C7B1C284600F03DFFB08403B0F0BD55
:1038D0000120D0E71048029A0270104801220270BD
:1038E00019310A46C9E7C046C0000020D9060020A9
:1038F000D6060000E7030000CF070000B50B00006C
:103900009E0F00006D170000442C01405E05000072
:10391000EE02000000050020810400208004002049
:1039200000B58FB0FFF7B8FC7F2045012868EB4950
:10393000884211D16868EA4988420DD1287B1F2846
:1039400005D02B2805D0352806D1E64802E0E64808
:1039500000E0E648E649C864FFF740FDFFF770FA6B
:10396000FFF798FEE34C217912204140E2780223D0
:1039700006935A400A4304D16178DD4A12788A429C
:103980001AD9312121734E21E1724921A1723421CA
:103990006172202121724B21E1715221A1714121DB
:1039A000617120710220E070D14801786170C26CB1
:1039B000C021204601F05AF9CD4A508E1086607C15
:1039C000401E411E8841D073207D002801D1002077
:1039D000E07426200290205CC74B002814D0002001
:1039E000E0740121A174C24A91716075A0752075BF
:1039F0001846BE305087908D32309085D08D323051
:103A0000D085108D3230108501F01EF8BB4F002696
:103A10007E87FEF781F8BA48BA49016001F0CEF816
:103A20003878002801D0012078711F35B648016828
:103A300029400160F9660068010C3967000FAC4C41
:103A400001D11920C64301200D90BE7701F0E8FD99
:103A5000FF200890014668317D2082000792C20055
:103A60000B9200010E90A34D0F460C9108E0A74861
:103A70000A9E066046608660FEF700FB5A203E52B2
:103A8000A3488068052801D3032000E006209B4F4F
:103A9000A07460749E4AD08A918A0818118B4018CD
:103AA000518B4018918B4018D18B4018001D400855
:103AB000D060934893490160687D012809D1206D49
:103AC000618E00914B086021C82200F03BFE2086E9
:103AD000687D022815D18E48006801466539942911
:103AE00002D8052141430BE0411E632902D20C9903
:103AF0008D3105E0F921C943FA388842854900D85B
:103B000021864420385A8449884209D3F97D002906
:103B100001D000F0B5FC8149884201D300F0D0FC0F
:103B2000B88D7F49884232D32D20C100FC8D2004FE
:103B3000FDF720FB796F401878677A4800780328F2
:103B400009D0022816D001281FD10C999931F87F8D
:103B50000843022115E05420385A73494143090CA7
:103B6000401A400840180009C1B26348D6300843E3
:103B7000012106E0E0B229214143C80A03214A029B
:103B80008018684A1170694908800020B885B88E8D
:103B900001210023C8280A4600D31A465C4CA668B7
:103BA000642E00D81946434243410B9CA6420D9C0B
:103BB00000D81C46002C01D1114001D00021B9745D
:103BC000E97C00294A4C03D09F2801D80021B97410
:103BD000397A002906D00C992931884208D2002070
:103BE000B87405E0952801D8642000E00A20E0714F
:103BF000474DE86803210A91FDF7BCFA01462860A9
:103C0000387B00282ED00B2E2CD3414D2869FFF78E
:103C10001FFA29680E9A914220D24A0890421DD973
:103C200000203B4A9060FA79521CFA71226D0B9B7E
:103C30009A4200D901202F4BBA8F2F2A0D9A00D813
:103C4000CBE29B7C002B00D0CCE2012A01D10020EA
:103C5000F8740120E072208D400838862C480161FC
:103C600000203873226D3B7C314E304608380168A5
:103C7000304C2140002B0FD0792A0DD301603068E1
:103C80002C4908402C49243901433160301F016818
:103C900040200843BF210AE0274A243A114301602B
:103CA0003068244908403060301F00680899884314
:103CB000104D311F0860B87B00283FD076203B5A5A
:103CC0005420395A5A203C5AFA8DF87F009400F05B
:103CD00043FC3C460E340A2039E0C046DAE325595D
:103CE000D963B84E00F80008007C000800F801080D
:103CF000C0000020D90600202A0300000005002093
:103D000000300040AAAA000000580140342C0140B5
:103D10007C050020E204000011270000419C000007
:103D2000214E000085040020AF47000088040020D9
:103D300010E400E0FFFFFF00240000402020385C7A
:103D4000002808D000F0F8FB3C462034312001F078
:103D5000BDF800202070787B401C7873C0B2C92861
:103D600079D3FDF78DFACA4908884989091A5C2276
:103D7000BA5A121A50205043FDF7FCF906461E3677
:103D80005E203E525424385B072545436020385A54
:103D9000C0494843C049FDF7CDF9C049C98C4843E3
:103DA00064210991FDF7C6F94019C5083D53BC4986
:103DB0000868BC4A1040001D08607A7C5300BA4C69
:103DC000E05A4621795AE152FE77521CD3B20026BE
:103DD000632B334600D81346B44F7B74B44B5A68F8
:103DE000101A401858600999FDF7A4F9F88680B2B6
:103DF000B867A84948432921FDF79CF9AD49401807
:103E00000A21FDF7B7F9010400D53046F885F878A6
:103E100000281DD0787AA149098C4143A8B281427B
:103E200014D9788D401C7885397DA34A5143A34A23
:103E3000891880B281420BDA0024BC87FEF71EF994
:103E400000F0AEFC7C87FC74FC7501E000207885F6
:103E5000002078739A4D00227A75387D00283ED074
:103E6000B88F312877D3F97D002974D088288B4CFE
:103E700000D935E18D4EB07800280C9F0FD0914AC3
:103E8000106801218843106000F08AFC00248E48ED
:103E9000046044608460FEF725F9B4707F4C4C22C6
:103EA000B05AE17B002900D11CE2411E08B2002873
:103EB000384600D40846B0524E21725A521E13B2F0
:103EC000002B3B4600D4134673525021715A4A1EB0
:103ED00011B20029394600D51DE211461BE2744893
:103EE000C1687A48FDF746F9F97C41435A203952B6
:103EF00088B277494843C00C62217852674CA17957
:103F000000290E993E4609D0638F228FE18E634CC3
:103F1000A48F0094614C00F015FC0146A1862B2073
:103F20002A5CF07F904209D9A38F012100911146AC
:103F30000A390A325B0800F005FCA0865C488068FC
:103F400063282ED8216D079881422AD90C20322966
:103F5000069933D233E00A920126BE70287F0028EA
:103F60004E4C00D183E52920285C4000658E28183E
:103F700013384021785281B2208E48432946FDF7FC
:103F8000D9F8281A4E4D401C5824385300F0BAFD79
:103F9000385B424C4C49086048608860FE730A9E5A
:103FA0006CE5434800680C21009164210323079AC3
:103FB00000F0C8FB216D3229069900D301466173D8
:103FC0002F20285C002809D04020305A172100916A
:103FD00064210D230E9A00F0B5FB70773D48006810
:103FE0003D49884200D24BE53048C07C012800D0D2
:103FF00046E52E4DA87C401CA87400F0D1FB0120A2
:104000000990E072A88F2F2803D83448206500203B
:10401000E8740026264886602E4F38684A21685288
:104020003E60216D0A9A4A4380B21018C1084209C5
:104030005200891A4223E952800820652A8788B2F3
:104040001B498968052915D239681E490862E07C38
:10405000E17B01291A4D00D0C9E0401CE074C1B2D7
:10406000072904D3114809990173E1740846099995
:104070000840C7E039688142E7D239688142E4D21A
:1040800039688142E1D239688142F3D3DDE7C04625
:10409000B8F7FF1FE40C0000FF0F0000C000002075
:1040A00008240140E8FFFF7F3208002000050020BF
:1040B0007C0500203CF6FFFF7CFCFFFF204E00004B
:1040C000D90600200C200040342C0140C0270900F4
:1040D000CDCC000024000040C9AF000088130000D0
:1040E0000A920121F548059181704C23C05AE17B69
:1040F00000290C9E049300D17AE1411E08B20028E9
:10410000304600D40846ED4DE8524E216A5A521E00
:1041100013B2002B334600D413466B525021695A18
:104120004A1E11B20029314600D41146502309938A
:10413000F64AD15240210391615A00B24000EF4A41
:10414000105E0918608E48430E9F3946FDF712F83D
:104150002D25EC4C615D48430A263146FDF70AF8EF
:1041600080B201F069FA039CE54B185B4E21E74AE7
:10417000515E4900EE4A515E4118588E4843394617
:10418000FCF7F8FFF349495D48433146FCF7F2FF7D
:1041900080B201F057FADA4B185B0999DB4A515E9D
:1041A0001C464900E24A515E4118588E4843394640
:1041B000FCF7E0FFE749495D48433146FCF7DAFF89
:1041C00080B201F045FAD14FB88FC82859D9049E62
:1041D0000A98B8530998E08755E002469B7C002B6B
:1041E00000D132E50246012A00D130E531E5411E19
:1041F000E174080604D1C548099901730621E174E8
:1042000009988843A073EFF3108072B6BF48C07B53
:10421000002802D1E07CFDF7CBFF62B6FDF7A8FFD6
:10422000BF480068BA49884201D90998E072B74886
:10423000C67606778675BA4A9068411C9160E07C24
:1042400040008218206D5082029AAA5C531E9A4147
:104250006B7F002B0D9B00D11346012B07D1142936
:1042600000D20DE40E99491C884205D308E40E994A
:10427000884201D3FFF704FCE672FEF7D9FDFFF791
:10428000FFFBE08F049EFEF7EBFBB85B0028B14D0F
:1042900001D0FFF7F5FB9D49059ACA740A9E0E7579
:1042A0009C482065E2729E4B186118609A4A106023
:1042B000CE7314209860687F002801D0E08D0886B6
:1042C000207BE17B012900D0ADE0401CE074C1B24D
:1042D000072904D38D4805990173E17408460599AF
:1042E0000840ABE0431C18B20021B842084600DC8D
:1042F0001846B0524E22B35A5B1C1CB2BC420C464C
:1043000000DC1C46B4525022B25A521C13B2BB42BB
:1043100000DC11467A4C50220A92B1524026A15B31
:10432000059600B24000824A105E0918608E48432C
:104330000E9F3946FCF71EFF2D210991695C484309
:104340000A252946FCF716FF80B201F075F9A05B3B
:104350004E216E4A515E4900754A515E4118608E89
:10436000484339463E46FCF705FF7A49099FC95D37
:1043700048432946FCF7FEFE80B201F063F9059838
:10438000205A0A99614A515E4900694A515E4118B2
:10439000608E48433146FCF7EDFE6E49C95D4843E7
:1043A0002946FCF7E7FE80B201F052F96948C57E64
:1043B00055482946FCF7BEFE06465E482946654D2F
:1043C000FCF7B8FE03465148808F009630217822D2
:1043D00000F0B8F9E08780B2FEF742FB0C98F130AC
:1043E000E18FFCF7A7FE5A21484A5052FFF748FBDD
:1043F000411C08B2B0420A9800DC0846434AD05239
:104400004E21525A521C13B2B3420A9B00DC13468F
:104410003E4A53525021515A4A1C11B2B1420A9994
:1044200000DC82E682E6411EE174080604D13748CA
:10443000059901730621E17405988843A073EFF391
:10444000108072B63148C07B002802D1E07CFDF7B5
:10445000AFFE62B6FDF78CFE314800682C498842F9
:1044600001D90598E0722948C6760677E07C4000BD
:104470002B494018216D4182FEF7E2FDFFF700FB5A
:10448000FDF7FCFD0020F875387624490860486087
:10449000B8877887886000F0D3FB012001022148AB
:1044A000FCF73DFEBFF34F8F1F4820490160BFF36B
:1044B0004F8F00BF00BF00BF00BFFAE7000500201C
:1044C000FDF7DCFD0020F875387614490860486077
:1044D000B8877887886000F0B3FB0120010211489B
:1044E000FCF71DFEBFF34F8F0F4810490160BFF36B
:1044F0004F8F00BF00BF00BF00BFFAE7AC01002034
:10450000C0000020D90600202A030000000500207A
:10451000C40900002823000024000040342C01407E
:104520007C050020D80500200CED00E00400FA0511
:10453000AC010020581B0000B0B5124CE9493025F1
:1045400020462A46FCF7D2FD20462946FEF7A4FD68
:104550006055B0BDD9060020B0B50A4C049D257247
:10456000A3712271A1702070280AE071180A60718D
:10457000100AE070080A607009212046FEF78CFDE1
:104580006072B0BDA4050020F0B583B0664E3589D9
:10459000002D02D00020308115E0644909780029FF
:1045A00000D16348C10B09D10322930303400121C9
:1045B0008C03A34200D090E0062200E00722726143
:1045C000D040550205435C480078800001905B496B
:1045D0000C1840236360290A5948405C009082000F
:1045E00018469043A0602F09794069400F26029633
:1045F0008E43290189194C4A91610099CA001A40D9
:104600004240E260C8030090029807404C48C75DF2
:10461000B90200980143029805404948405D009066
:1046200045010D434648805D02902E4606433E48B4
:10463000C661C80A1840504020618A0A1A404240A8
:104640006261480A18405040A061B90019404140D9
:10465000E161FA001A404A4022623F20C043024012
:10466000A9091940514061626A091A404A40A26290
:10467000290919405140E162009DAA001A404A40B0
:104680002263E90019405140616372081A404A40B0
:10469000A263024071001E405640E663194071401B
:1046A00021640022254D019EAA51029DAA001A40B4
:1046B0004A406264E90019405140A1642A011A404D
:1046C0004A40E26469011940514021650140E80710
:1046D000400E4840606503B0F0BD07235B03034014
:1046E0004C03A34201D1052269E70F231B030340BA
:1046F0000C03A34201D1042261E71F23DB02034024
:10470000CC02A34200D15AE73F2292020240890222
:104710008A4201D1022252E77F2149020140054A23
:1047200089184A424A414AE78004002013050020C4
:10473000FFFF000000FEFFFFE10400209C070020B7
:104740003A5E0008F0B5059C88421EDD0F461D4606
:10475000264682421EDD1346974210DCB5421BD02E
:1047600071194C10D9194A10974217D08242EFDACA
:10477000511C1A46234634468142E7DB05E01946C0
:104780003A4633462C468142E0DB824200DC234637
:104790001846F0BD3046F0BD2846F0BD2046F0BDBD
:1047A0000120400502490A6882430A604861704757
:1047B00000040140F0B581B0C04DC1486860EFF31E
:1047C000108072B6BF480078E8602861686179247B
:1047D0009B4E9C4F3760A41E14212046FCF7AAFC78
:1047E000C0B2FDF7E5FC60080A3028600A20FEF739
:1047F0004FF9022CEED8FDF741FC00202860B249A9
:104800000880B2480088686062B601B0F0BDC0465A
:10481000F0B583B00320FDF7CBFC00213520AA4E74
:10482000A54A02910B4604E05B1CA81C313D7E2D7D
:104830004AD2054683488249086002983080501960
:10484000401E0778FF2FEFD0505D00282ED00A21A0
:104850009A4E3160F72141437D20400109182248DA
:104860000193FCF767FC044620482146FCF762FCF4
:1048700070609449097848439149FCF75BFCF0600B
:10488000306170610198C0B2FE214143CE191848D1
:104890002146FCF74FFC70438B4E6421FCF74AFC29
:1048A00080B2FEF7F5F8844A0023BEE7002483486F
:1048B000C46004614461D8B2FE214143C819FEF7C7
:1048C000E7F87D4A2346B0E7FDF7D8FB00207B4A96
:1048D00010607E490988516030805A485849086004
:1048E00003B0F0BDD9060020C0D8A700003E4900A3
:1048F000A0860100B0B5714D71486860282028601D
:1049000070480078E860286168610220FDF750FC7B
:1049100096242046FEF7BCF849484A4901605020D9
:1049200028602046FEF7B4F8FDF7A8FB00202860B9
:1049300065490880654800886860B0BDB0B55F4DC6
:104940005F486860322028605E480078E86028612F
:1049500068610220FDF72CFC96242046FEF798F8AB
:104960003748384901601E2028602046FEF790F83D
:10497000FDF784FB002028605349088053480088D5
:104980006860B0BDB0B5EFF3108072B64B4D4C48C7
:1049900068602B482B490160502028604948007806
:1049A000E860286168610320FDF702FC642420466A
:1049B000FEF76EF8462028602046FEF769F82820AA
:1049C00028602046FEF764F8FDF758FB00202860B9
:1049D0003D4908803D480088686062B6B0BDC04669
:1049E000F0B581B0354D36486860EFF3108072B68F
:1049F000134E144F37603C20286032480078E8603E
:104A0000286168610120FDF7D3FB4B242046FEF7A7
:104A10003FF8502028602046FEF73AF85A202860D8
:104A200037602046FEF734F8FDF728FB00202860A9
:104A30002549088025480088686062B601B0F0BD4D
:104A400000300040AAAA0000B0B5EFF3108072B6A3
:104A500030208549085C194DFF2802D0FFF7D8FEA9
:104A600025E01748686017480078E86028616861A9
:104A70000320FDF79DFB37202860C8242046FEF761
:104A800007F80520FDF794FB282028602046FDF755
:104A9000FFFF0620FDF78CFB192028602046FDF75C
:104AA000F7FFFDF7EBFA084800210180296007486D
:104AB0000088686062B6B0BDD9060020282C01408D
:104AC000CF070000D505002044050020F20000209B
:104AD00010B50A4C6078022808D0012803D1FDF7F0
:104AE000C5FC0020607000F011FA10BD04488089F8
:104AF000FFF74AFD0020607010BDC0460005002091
:104B00007C050020B0B503210A050920C006036812
:104B10009343012214051B190360930283628B04E3
:104B200004689C439304E3180360530283620B04FC
:104B300004689C431304E318036013028362094B67
:104B40001C68082525430424A5431D601C68022514
:104B5000254395431D60890303688B43D10359188E
:104B60000160B0BD00040048F0B5012A24DB032435
:104B700013462340551E032D01D200240EE0A2430C
:104B800000240D5D055505190E1977786F70B778FB
:104B9000AF70F678EE70241DA242F2D1002B0BD03C
:104BA000625C0255012B07D0621C555C8554022BB8
:104BB00002D0A21C515C8154F0BD0000B0B5BC48CD
:104BC0000168022211430160016891430160B94804
:104BD0000146083941220A600A2101601349097817
:104BE00081601349C16002460C3A136801210B43EE
:104BF000136000224260B14B0E4CDC60044614345A
:104C00009C600D4C24785C600C4C1C604B0204468C
:104C1000143C25681D43256003680B430360A94BC2
:104C20001A70203802680A430260B0BDA401002057
:104C3000FFFF0000D80500203C0100208B09000088
:104C400002480021416001607047C04624040040D2
:104C500080B504490A7804484270CA6CC02100F04B
:104C600005F880BDC0000020D9060020F0B503AFD4
:104C70008BB06E46F41D193415467161B061C80FD2
:104C80000B1801221946F2609143C91D0722914376
:104C90006A46501A59108546F0613161FCF73FFAB7
:104CA0007069022859DBB269032033691946014053
:104CB000B160591E03297460356001D2002121E0E2
:104CC0008343736100231946D25CB069C0184478ED
:104CD0002402A218F569EA528278C4782402A21844
:104CE000EC186280027945792D02AA18A280827997
:104CF000C07900028018E080B2690833091D70692C
:104D00008842E1D1B368002B7468356825D049002A
:104D1000B069405CB2695218527812021018F269F8
:104D200071615052012B18D07069801CB1690A5C06
:104D3000B1690B185B781B029A18F3691A52B169B2
:104D4000B068022809D00A467069001D095C121873
:104D5000527812025118F26911523069A060354838
:104D60000168C90708D00168C90705D00168C907EB
:104D700002D00168C907F3D14168090606D52E495A
:104D80000A680346083B1A6049681960A905F36878
:104D90001DD1426802210A43426085604268402377
:104DA000134343600268D20708D00268D20705D0D7
:104DB0000268D20702D00268D207F3D102689206D5
:104DC00001D52022026042688A434260F3680021D4
:104DD000616007E04168994341606168891C6160D6
:104DE0002168491C21602168A26891421AD2416859
:104DF0001943416021684900F269515A6268515370
:104E00000168C90708D00168C90705D00168C9074A
:104E100002D00168C907F3D101688906DAD52021DB
:104E20000160D7E7416880220A434260FC1F053CCD
:104E3000A546F0BD0C20024044010020B0B51C483E
:104E40000168022211430160016891430160194821
:104E50000146083960220A60032101601649097879
:104E600081603D21C16002460C3A136801210B4369
:104E70001360124B124ADA60024614329A60114AE9
:104E8000547817345C60104C1C604B020446143C90
:104E900025681D43256003680B430360CB03446A08
:104EA0001C4344621170203802680A430260B0BD9E
:104EB0001010024020040040EA0400204400024098
:104EC0009C070020E00400209B090000F0B50C497D
:104ED0000C680822144304239C430C60094C256889
:104EE0000126B54325606568074F2F40381860607C
:104EF0002068304320600868184390430860F0BD84
:104F0000003801401C0002400000FFFFF0B585B0F2
:104F1000F14DA87C002805D0F04E707E002805D009
:104F2000F08F2CE1ED48C18F818694E17D22D10084
:104F3000EB48037958000491411826202D5CF08F2E
:104F40000124E743002D039417D0814243D2E44A61
:104F5000D27BE14C657CAA4241D10124F473002547
:104F60000295B5863579002D4DD0029BF373A21AB8
:104F7000DB4BDA73D84D039C36E081422DD2029789
:104F8000D74BDF7BD44D6B7C01979F4239D1307D6D
:104F9000431E98414023F35AC82B234600D30346AF
:104FA000CF4DAC8C2D6DA542029F00D80346012B3E
:104FB0007AD1CC48002484600120C94DE87201995F
:104FC000401AE873FFF7ECFBB472287940000499AB
:104FD0004118F08F6AE0C04D17E0BF4D72E0F27BE0
:104FE000002ABD4D039C10D100223271BE4A0092AE
:104FF0002F3A2F23FFF7A6FBB086B9480379F08F2D
:1050000003E0029F54E0B44D039C5F4304997A1877
:10501000824212D9697C01256F1AB14CE47BA74208
:1050200015D1F5730025B5863479002C34D0F5738D
:10503000AB4BD973039C049F0EE00F465900CA196D
:10504000824219D30022791A814219D919E0F17BE1
:105050000029039C049F0AD1002131712F23009362
:10506000A14BFFF76FFBB0869D480379F08F9A4DF7
:105070005900CA198242E5D20122791A814200D828
:105080001446002C78D10021B186F27B002A73D01F
:1050900001223271F1736FE08F4D039C049F590020
:1050A000CA198242CED2E7E7D000F0878A4D039C2E
:1050B0008D4A00922F3A2F23FFF744FBB086884891
:1050C0000379F08F39465943049A8A18824229D9C4
:1050D000697C01230291591A814CE47BA1422BD1B6
:1050E000307D411E88414021715AC829039900D35F
:1050F00001467B4DAC8C2D6DA54200D8014601299F
:105100001DD1774D0298E873EB72764800248460D5
:10511000FFF746FBB4722879474304983A180746CC
:10512000F08F0FE0049F5900CA1982421AD201225F
:10513000791A81421AD91AE0039C049F04E0049F63
:10514000F7873846644D039C2F2100910021664B60
:10515000FFF7F8FAB08662480379F08F5900CA1950
:105160008242E4D30022791A814200D81446002CEE
:1051700002D10021B172B186717E00296BD07D21F0
:10518000CC0021462F3188422DD9554FF97B6A7CBE
:10519000914222D1B88C3D6D0122002385421046F8
:1051A00000D818464025755BC82D00D31A4610401C
:1051B000327D531E9A410243012A0BD149480025F2
:1051C00085600120F872401AF873FFF7E9FAB572AA
:1051D000F08F01E00020F0873F4D397A4200511AEC
:1051E000A54A8918B1860146303989B2A1422DD22B
:1051F0002F46697C0122531A394CE57BAB421FD103
:10520000A08C256D00238542104600D81846402505
:10521000755BC82D00D31A461040327D531E9A414B
:105220000243012A0AD1E1730120E072F54800250A
:105230008560FFF7B5FAB572F08F01E00020F087C6
:10524000217A4200511A3139B1863D462F2802D8C1
:105250000020B072B086E94FF879E74EB17C814208
:105260000AD9A87D002807D0FCF708FFFFF798FAB5
:105270006620B074002054E0E87C002805D0B08E91
:105280001D2825D80021B1873EE07079002847D03D
:105290003078002871D0796CBB6CB08E00912F21D2
:1052A000D74C2246FFF74EFA0146D748FBF762FF7C
:1052B000E97E4908FBF75EFF3085B08E2E2869D85D
:1052C00000207865B0877066307D00282ED024E1FC
:1052D0001E280BD11E2017E0D90600200005002053
:1052E000C00000207C050020FF0700002821695C29
:1052F00014224A43824207D9A02100911E212F2364
:10530000FFF720FAB087B08E28216A5C1421514340
:10531000814207D8BA4A0092A023FFF713FA00E0AF
:10532000B08EB087307D002800D0F6E0F07D0028F8
:1053300000D1F2E0E97C5024204648432F30B28F60
:10534000904200D986E0F07C00286BD1FCF796FEF5
:10535000F87A002861D1F07C00285CD1F87CF97BD8
:10536000012928D1401CF874C1B2072902D30120B9
:105370003073F8740121014027E0706EA349FBF7F8
:10538000F9FE81B2302900D830210004C00E0DD0C2
:105390009B490BE0706E9D49FBF7ECFE81B2302912
:1053A00000D830210004C00E00D02146B187307DE6
:1053B0000028BBD0B1E0401EF874010603D10120E3
:1053C00030730620F87401218143B973EFF3108024
:1053D00072B6F07B002802D1F87CFCF7E9FE62B6D9
:1053E000FCF7C6FE87480168894A914202D3012131
:1053F000824AD1720021F1763177804F396D834A2C
:105400003A65FA7C834B844D1D605200101841822E
:105410000120F074774DFDF70BFD0120F074388DFD
:105420003086E97CBB8DB08F754A002905D01146C6
:105430002F3900912833892103E011462F3900913B
:105440002F21FFF77FF970862620285C002801D1E4
:105450000020F073E87C60432F30B18F884259D927
:10546000F07A052815D8C046784400794000874472
:105470001205080B0E05C046FFF7FFFFFFF75EFAA7
:1054800007E0FFF737FA04E0FFF794F901E0FFF7D0
:10549000A7FA0020F072287D00281BD0F07C00289D
:1054A0006CD0F87C3C214143388B40183C385B4938
:1054B00002B2FF2368339A4200DD40184C22B052FA
:1054C00002B2782A15DCEF231B183353F02A16DDBD
:1054D000773115E000207086F17C00296FD14949B1
:1054E00088600120F872287F002863D0FDF772FDE4
:1054F00065E00B46EF331B183353F02AE8DC7721C5
:1055000008184E217052E87C012801D10120307525
:1055100000207086F07B002801D005B0F0BDB18F6F
:105520002F2910D3687F1E22C240364880689042DF
:1055300009D23A8D708E904201D2728610467A8DD1
:10554000904200D97286B88E748E844201D97086DA
:105550000446B079002805D02220385E844201DD5F
:1055600084B27486B06E0128D7DB3029D5D32749A1
:10557000FBF7E0FD2018708605B0F0BD2148002142
:1055800081600122FA72B175287F00280FD0E87C73
:10559000002886D12920285C40001949401843384A
:1055A00070840492FFF7AEFA0498F07379E7FCF781
:1055B00065FD76E7F07B002801D1FCF75FFD262032
:1055C000295CF07B0029A6D00028A4D0F18F7D2093
:1055D000C4002046FDF73CFD0019708480B2798E2E
:1055E000491E814202DDFFF78DFA93E7FDF7F2FCD9
:1055F00090E7C046D906002000050020C00000202A
:10560000FF0700007C05002000879303102700009F
:10561000C5090000240000408813000098FEFFFF29
:105620000320000203490A68824301200002101887
:10563000086070470C040048014908607047C04684
:10564000342C0140014908607047C046382C0140A5
:10565000014908607047C0463C2C01400B2800D32C
:105660000B204000014908707047C046D505002056
:10567000F0B58FB00120069082030192034600909E
:105680003B484168114341604168114008910899C5
:10569000990402680A4302600068084008900024E8
:1056A000079405940220039008984026029603254B
:1056B0000495304802A9FBF73FFF2F4F38682F4968
:1056C00001401031396028033968814339603868F6
:1056D0002021884338603868B043386038688026B5
:1056E000304338602802396881433960A80239683C
:1056F000814339600E940D9408200C900B940A9409
:105700000994E120400208901D4D2C46083C08A950
:105710002046FCF7A7F9009B98022968814329607D
:105720000920C002291F0A6882430A6028682A21CA
:105730008843286020681843206001991031386838
:105740000840102805D10F48F86028462030B8607E
:1057500004E00C48B86028462030F86078680A49B0
:105760000140313179602868304328600FB0F0BDC6
:1057700014100240000400481C000240EFBFFFFF6D
:1057800008380140A40500200000FFFFF0B583B0F9
:10579000F04D688E4027E853A88D401CA885A88C42
:1057A000401CA884E88C401CE884E87D002844D193
:1057B000687A002841D1287E00283ED0A88E002893
:1057C00003D052200021295237E05220295A491C87
:1057D000295289B2E04A91422FD3698F1F291ED3E3
:1057E00002970120E875E87800281CD054202C5A34
:1057F000B92041002046FBF79DFC68726008B9287B
:1058000013D30024D54FD64EFFF7BCF86420FDF724
:105810003FF93E60641C687A8442F5D305E00021BC
:105820002952297609E0FFF7ADF8A87E0028029FEB
:1058300003D12620CB4900220A54CA4EF17F002909
:1058400010D056202A5A521C2A5292B2C64B5B786C
:10585000C91814234B43143B934203D2002129520D
:105860000120A873287D002800D06CE1BE4CE07AAE
:1058700000283FD0E87C00283CD0FEF791FFFDF7E0
:10588000EDFBA17B00290DD000280DD0A87D401C88
:10589000A875227CC0B2904214D8E87E002829D195
:1058A000287F16E0002806D0287F401C2877EA7E53
:1058B000002A1FD10BE0A87D401CA875227CC0B235
:1058C00090420BD900202877EA7E002A12D10029C5
:1058D00008D0617CC0B2884208D80BE0E87E00287E
:1058E00008D1287FA17CC0B2884203D90120E87684
:1058F00000F000FAE88C152800D2B8E000200090F3
:10590000E884E97CA8790028029701913FD000291A
:105910003DD02E20285E2C21715CC722D2434A4301
:105920001018924908608A69831A8E68CA680F69DC
:105930005A434A6188614643F3190E6AB34200DB59
:1059400033467642B34200DC33460B61D2184B68D3
:10595000584310184A6A9042029F00DB1046524298
:105960009042804E00DC1046C8618149FBF702FC82
:10597000618C081802B2A18D8A4200DB014608B290
:105980007D210901884200DB084660840199707F0F
:10599000002831D000292FD0E08A216D091A7348E0
:1059A0008162026C8B1A066B426B876B5A43C2632F
:1059B00001644E43F319866CB34200DB33467642F2
:1059C000B34200DC33468363D218C36A594351188B
:1059D000C26C9142029F00DB11465242914200DCB0
:1059E00011464164A86E08186249884200DB0846E7
:1059F000C1178843A86601996879002837D0002923
:105A000035D03846298DFB4AD268511A6165E26E5D
:105A10008B1AE66D226E676E5A43A266E1664E43AC
:105A2000F319666FB34200DB33467642B34200DCC3
:105A300033466366D218A36D59435118A26F914241
:105A4000074600DB11465242914200DC11462167B5
:105A50006A6E8918484A914200DB1146CA17914381
:105A60006966E4488068632801D8009860666079B8
:105A700000282CD07D208000DE4B196881420190E7
:105A8000384601D8102600E00626298E02229629E3
:105A9000174600D337469B68962B00D33A4662726E
:105AA00007462B5A5E1A964207DD8918E953216D85
:105AB000019881421ED9012005E0C81A904201DDFB
:105AC000881AE8530020A072CD48C07DA070E87D00
:105AD000002814D0E87C002811D0A88F30280ED3DD
:105AE000EE5B278E304678437D210901FBF722FBD0
:105AF000401C1FE00020A072E87D0028EAD1E87B6E
:105B000000280FD0688C26463C46378E78437D218E
:105B10000901FBF70FFB718E081A401C58216852CF
:105B20002E5B09E0EE5B278E304678437D2109012C
:105B3000FBF700FB5821685210490F6080B2886063
:105B4000C8602E8608614420295A491C295203B096
:105B5000F0BDC04600050020214E0000003000408E
:105B6000AAAA0000D9060020C00000204C01002095
:105B7000F0D8FFFF60E31600F05838012C2C0140EC
:105B800070B54E4800784E4C217800290BD0002883
:105B900009D04D480078002810D0FFF70FF854487E
:105BA0000221017070BD4749097801290CD00029F4
:105BB00024D1FDF725F8FFF701F870BDFFF73EF996
:105BC0004B480121017070BD00280CD03E48007880
:105BD000002814D03D480088FEF7D6FCFCF746FCB0
:105BE000FEF7ECFF70BD3A4D287801280AD03948FD
:105BF000007801280ED0207800281DD070BDFFF756
:105C00001DF970BDFCF732FCFEF7D8FF3148007873
:105C10000128F0D1FDF738FA002803D02E480321DF
:105C2000017004E02C4802210170FCF743FEFEF7EE
:105C3000C5FF20780028E1D128490A88284C287817
:105C4000002816D06079072813D8062A11D3431CE0
:105C5000637124480568C06F401B65694019606125
:105C6000082B06D1C309C008C51AA581C0181A4B54
:105C700098801D4D2888002805D16378002B02D11B
:105C8000501C088070BD00260E8018498842B5D38C
:105C90006189FDF7DDF9322801D82078461C26708D
:105CA000F0B2332807D3E078002804D1FEF782FD54
:105CB0000120000220802888608170BD100500202E
:105CC0001705002018050020E004002088050020AA
:105CD000190500201A0500203C0100203A0500208B
:105CE000E4040020D805002034050020DD05000074
:105CF00001050020F0B581B03B4801684A223B4EC7
:105D0000B152002404603A4D2A6D0323534389B2F3
:105D10005918CA084B095B00D21A4227F253890866
:105D20002965338791B2334FBA68052A11D20068CA
:105D300031480160E87CE97B012917D1401CE874F7
:105D4000C1B2072902D301203073E8740121014058
:105D500016E002688A42EBD202688A42E8D2026800
:105D60008A42E5D202688A42F3D3E1E7401EE87432
:105D7000010603D1012030730620E874012181431C
:105D8000A973EFF3108072B6F07B002802D1E87C93
:105D9000FCF70EFA62B6FCF7EBF93868174988424F
:105DA00001D30120E872F4763477B475B868411CE9
:105DB000B960E87C4000C219286D50822622104B41
:105DC0009A5C5B7F13437D221201002B05D01429BE
:105DD00008D3511C884202D304E0904202D2EC72F4
:105DE000FDF726F801B0F0BD2400004000050020BA
:105DF000C00000207C0500202C200040C5090000C8
:105E0000D906002002E008C8121F08C1002AFAD1F2
:105E100070477047002001E001C1121F002AFBD12A
:105E200070470000000000000000010203040607A4
:105E300008090000000001020304191B12131D15BC
:105E400016171A090A0B1E0D0E0F0000705E0008CF
:105E5000C0000020C0030000E811000858610008DD
:105E60008004002080080000145E0008000000008C
:105E7000101A021E012D6401010A0102010105052B
:105E8000010102030301D0076419B418084C046C23
:105E900007DC054A0E14DC05D2127812C81A2D024E
:105EA0001008CF07CF07D0071412462A90281912DE
:105EB0002123102733E803127C6408D430720A02CD
:105EC000136429302350C312202B204E084009238D
:105ED000016745AB89EFCD6390013950F123204E26
:105EE0004BA086215927110A1932601113127A1218
:105EF0001C3401400832FA12B412B712BA12BD12A1
:105F0000C112C412C712CA12CD12D012D312D612A5
:105F1000D912DC12E012E312E612E912EC12EF12CF
:105F2000F212F51AF7321AFD671866030106010925
:105F3000010B010E0111011301160119011B011EB4
:105F40000120012301250128012A012C012F013103
:105F5000013301350138013A013C013E0140014263
:105F60000144014601470149014B014D014E0150D9
:105F7000015101530154015601570158015A015B67
:105F8000015C015D015E015F01600161016201630D
:105F9000021C640165021A66023A6702FA68024945
:105FA000182922292A3A64361A62401A60481A5E71
:105FB000501A5C581A5A601A57681A54701A517855
:105FC0001A4E801A4B881A47901A44981A40A01A01
:105FD0003CA81A38B01A33B81A2FC01A2AC81A2582
:105FE000D01A20D81A1BE01A16E81A11F01A0BF86A
:105FF00015060103011301FD12FA12F712F512F250
:1060000012EF12EC12E912E612E312E012DC12D9DE
:1060100012D612D312D012CD12CA12C712C412C194
:1060200012BD12BA12B712B412B112AE12AB12A74D
:1060300012A412A1129E129B129812951292128F04
:10604000128C128812851282127F127C12791276BB
:1060500012731271126E126B126812651262125F65
:10606000125D125A125712551252124F124D124A05
:106070001248124512431240123E123C1239123796
:10608000123512331230122E122C122A1228122616
:10609000122412221221121F121D121B121A121880
:1060A000121712151214121212111210120E120DD2
:1060B000120C120B120A12091208120712061A0504
:1060C0000212041A03021A020219D9190201124912
:1060D000182922292A3A04361A06401A08481A0AA8
:1060E000501A0C581A0E601A11681A14701A177880
:1060F0001A1A801A1D881A21901A24981A28A01A90
:106100002CA81A30B01A35B81A39C01A3EC81A432A
:10611000D01A48D81A4DE01A52E81A57F01A5DF80A
:10612000126212651268126B126E1271127312767D
:106130001279127C127F128212851288128C128FB1
:10614000129212951298129B129E12A112A412A7DB
:0861500012AB12AE52B10000C7
:020000040800F2
:107BE00041524B5F34494E315F4630353100000021
:107BF0000000000000000000000000000000000085
:04000005080010BD22
:00000001FF
