:020000040800F2
:1010000000200020814200084D5E0008515E00086B
:1010100000000000000000000000000000000000D0
:10102000000000000000000000000000555E000805
:101030000000000000000000595E00085D5E00082E
:10104000D1420008D1420008D1420008D142000834
:10105000D1420008D1420008D142000835600008A2
:10106000D1420008E95F0008D1420008615E000833
:10107000255F000811600008D1420008D142000835
:10108000C55F0008695F000800000000855F000878
:10109000A15F0008995F0008D1420008D142000812
:1010A000D1420008D1420008D14200089D5F0008EB
:1010B000D142000800000000D142000800000000FA
:1010C000002243088B4274D303098B425FD3030A87
:1010D0008B4244D3030B8B4228D3030C8B420DD39A
:1010E000FF22090212BA030C8B4202D31212090228
:1010F00065D0030B8B4219D300E0090AC30B8B4266
:1011000001D3CB03C01A5241830B8B4201D38B0313
:10111000C01A5241430B8B4201D34B03C01A5241B8
:10112000030B8B4201D30B03C01A5241C30A8B42FB
:1011300001D3CB02C01A5241830A8B4201D38B02E6
:10114000C01A5241430A8B4201D34B02C01A52418A
:10115000030A8B4201D30B02C01A5241CDD2C309FC
:101160008B4201D3CB01C01A524183098B4201D378
:101170008B01C01A524143098B4201D34B01C01A63
:10118000524103098B4201D30B01C01A5241C308DB
:101190008B4201D3CB00C01A524183088B4201D34A
:1011A0008B00C01A524143088B4201D34B00C01A36
:1011B0005241411A00D20146524110467047FFE7A2
:1011C00001B5002000F0F0F802BDC0460029F7D0BC
:1011D00076E7704703460B437FD4002243088B42D7
:1011E00074D303098B425FD3030A8B4244D3030BAE
:1011F0008B4228D3030C8B420DD3FF22090212BA73
:10120000030C8B4202D31212090265D0030B8B42EE
:1012100019D300E0090AC30B8B4201D3CB03C01AD8
:101220005241830B8B4201D38B03C01A5241430BB3
:101230008B4201D34B03C01A5241030B8B4201D3A3
:101240000B03C01A5241C30A8B4201D3CB02C01A0E
:101250005241830A8B4201D38B02C01A5241430A86
:101260008B4201D34B02C01A5241030A8B4201D375
:101270000B02C01A5241CDD2C3098B4201D3CB011C
:10128000C01A524183098B4201D38B01C01A5241CB
:1012900043098B4201D34B01C01A524103098B42CF
:1012A00001D30B01C01A5241C3088B4201D3CB00BA
:1012B000C01A524183088B4201D38B00C01A52419D
:1012C00043088B4201D34B00C01A5241411A00D24D
:1012D00001465241104670475DE0CA0F00D04942B6
:1012E000031000D34042534000229C4603098B4226
:1012F0002DD3030A8B4212D3FC22890112BA030AAE
:101300008B420CD3890192118B4208D3890192112F
:101310008B4204D389013AD0921100E08909C309B4
:101320008B4201D3CB01C01A524183098B4201D3B6
:101330008B01C01A524143098B4201D34B01C01AA1
:10134000524103098B4201D30B01C01A5241C30819
:101350008B4201D3CB00C01A524183088B4201D388
:101360008B00C01A5241D9D243088B4201D34B00A3
:10137000C01A5241411A00D20146634652415B10E5
:10138000104601D34042002B00D5494270476346C6
:101390005B1000D3404201B5002000F005F802BD0B
:1013A0000029F8D016E770477047C04610B5064CC4
:1013B0002378002B07D1054B002B02D0044800E016
:1013C00000BF0123237010BDF008002000000000C2
:1013D000B8600008044B10B5002B03D00349044843
:1013E00000E000BF10BDC04600000000F40800206F
:1013F000B8600008F0B5DE46454657464E46D74B26
:10140000E0B5DA6F188892B2D54D111AD54C89B271
:101410002D8893464A098BB0218062808D4200D38B
:10142000C8E0D14D2D888D4200D8C3E00021CF4DBA
:101430009E6A29805968091A89B28A4289414942BB
:10144000986807916160D968081A80B28242804129
:1014500041428C461869A16059690F1ABFB2BA425D
:10146000BF41794298690691E160D969081A80B252
:1014700082428041596A4542186A0595081A80B22D
:1014800082428041D96A404204906061881B80B2E8
:1014900082428041596B4642186B0396081A80B20B
:1014A00082428041D96BA6614642986B2561081A39
:1014B00080B28242804140420296E6610190206201
:1014C000596C1D6C1E6D481B80B282428041DD6CE0
:1014D0004142986C1F6E281A5D6D80B2AD1BADB293
:1014E000AA42AD416D429E6DAA46E562DD6D824223
:1014F0008041AE1B5D6EB6B2ED1BADB2AA42AD41EE
:101500006F4208979D6E6763DF6EB242B6417F1BE4
:10151000BFB2BA42BF417F421D6FB946A7635F6F3A
:101520009B6F7F1BBFB2BA42BF417F42B846E763A1
:101530005F46FB1A9BB2079D9A429241049B099118
:101540006B404B4061626146DF00039B059D594043
:101550000B004042019943404D4076429B003B4383
:1015600026636E4006991E43029B52424B405146F1
:101570004B405B001E434B462264A062089F9B00C9
:10158000FD001D43434615435A00794B15439946C8
:101590001B78002B15D0774B984643461B78002BC1
:1015A00014D1B54216D05422A35A0133A352482372
:1015B0000022E2540BB0F0BCBB46B246A946A0469E
:1015C000F0BD6C4B98461B78002B62D00F235D1B3F
:1015D000EDB2E6E70023654A13804622A35A0133A1
:1015E000A352236B012B01D1634A1370624651024F
:1015F0005246079B40009B020B431343069A170277
:10160000059A3B43D701049A3B439701039A3B4316
:1016100052011343029A12011343019AD200134359
:10162000099A9200134348221843A35C002B1FD150
:101630002F2852DD4D22A25C002A00D087E04F4DBA
:1016400028780028B6D04E4B1B78002BB2D14B46E1
:101650001B78002BAED05023E25C824200D195E093
:10166000E054042800D89BE04E230122E254A1E775
:10167000012B67D0022B60D0032B9BD1252899D159
:101680004C214733E35A605C3E49C8540023A354BD
:1016900090E703F0FDFA002828D04422A35C013330
:1016A000DBB2A354642B21D9012342461370636833
:1016B000A06A0793A3689C46E36806932369059391
:1016C00063690493A3690393E3690293236A019313
:1016D000636A0993E36A9A4678E7421E2E2A1BD86A
:1016E000294A264DC0B213802870ACE76368A06A0F
:1016F0000793A3689C46E36806932369059363698F
:101700000493A3690393E3690293236A0193636AD1
:101710000993E36A9A4640E7002890D14F23E35C9F
:10172000012B01D14C33E05400210023164A1180D3
:10173000124A13704E22A3543CE74A33E054493B0B
:10174000A35437E74933E052483BA35432E70E4AEB
:1017500010800A4A13704E22A3542BE7F007002092
:10176000DC0700209804002084040020B20600203A
:1017700080060020CD060020AC060020E4060020F4
:1017800068060020040700206A060020042807D904
:101790004E22A35C0133DBB2A354052B00D809E72A
:1017A0004E230022E254242806D8324B80001B58D6
:1017B0009F460122304B1A702A78304B1A70002352
:1017C0002B70F7E648230122E254F5E72C4B5A7CB4
:1017D0002C4B1A70F0E72A4B5A7C01239B1A294A9A
:1017E0001370E9E751230022E254274A0133E25201
:1017F000E2E701225123E2549B18E0221201E25257
:10180000033BE35C012BD7D14D22A354D4E700F076
:1018100003FB1B4B184A5B7C01331370CCE701229E
:10182000174B9A74C8E70022154B9A74C4E701223B
:10183000134B5A740022134B1A70BDE70022104B51
:101840005A74104B01321A70B6E701220F4B1A700E
:10185000B2E70522084B1A70AEE70422064B1A7055
:10186000AAE70322044B1A70A6E70222024B1A7061
:10187000A2E7C046D060000886060020E5060020EA
:101880000407002014010020FF0E0000D0060020F5
:101890005222F0B5374DA95A002939D000200B004B
:1018A000A852080A0A0942404A400F2108001B01B9
:1018B00090430343304A1813145C08001840105C2E
:1018C000E40304431812EB6508401B11105C0B4045
:1018D000D35C8002402204435B011C432C6601253B
:1018E000264B274E1F787B1C9B00BF00F250F0193F
:1018F00041682D3A2B0093402340D3408909594039
:10190000890181600430013AF4D20023F351F0BD23
:101910001C4B1B78002B18D00300C213012A15D0D2
:101920008213012A1AD04213012A19D00213012A64
:1019300018D0C212012A17D08212012A16D04212E0
:10194000012A15D0A9650100ABE70F4B0F22083A19
:10195000134151020B43AA6599B2A2E70E22F6E7A2
:101960000D22F4E70C22F2E70B22F0E70A22EEE761
:101970000922ECE79804002064610008ED070020CC
:101980000005002068060020FFFF000070B506007B
:10199000049D8E420CDC0FE0AB420FD08C1858191E
:1019A00064104010A14206D0A64209DC05002200C6
:1019B0009642F1DB280070BD9642FBDA1800FAE788
:1019C0000300611CE5E7C0460300401A00D5C81AB1
:1019D0007047C046044980B24A6A92B24B6A9B1A69
:1019E0009BB28342FAD370470048014010B5441EB1
:1019F00000280BD0FA20064980004A6A92B24B6A4E
:101A00009B1A9BB28342FAD3013CF6D210BDC0466A
:101A10000048014070B504000D1E5AD0002200207D
:101A2000072128E043B2C6B2002B2FDB7300D8B2E7
:101A30005BB2002B30DB4300D8B25BB2002B31DB52
:101A40004300D8B25BB2002B32DB4300D8B25BB2AA
:101A5000002B33DB4300D8B25BB2002B34DB4300F6
:101A6000D8B25BB24000002B00DA48400132D3B25A
:101A7000C0B29D422ED9A35C584043B24000002B17
:101A8000D0DA484043B2C6B2002BCFDA70004840EB
:101A900043B2C0B2002BCEDA4000484043B2C0B2DD
:101AA000002BCDDA4000484043B2C0B2002BCCDA64
:101AB0004000484043B2C0B2002BCBDA400048405F
:101AC00043B2C0B2002BCADA4000484043B2C0B2B1
:101AD000C8E7002070BDC04670B504AC25880A4C2C
:101AE0002070A170080A2271110AA3711A0A2B0A28
:101AF0006070E1702572092120006271E371FFF7C7
:101B000089FF607270BDC0469405002010B5064C78
:101B100030222000054904F0BDFA30212000FFF7F3
:101B200079FF3023E05410BD940500200407002005
:101B3000F0B5AD4CAD4DC0222000296883B003F054
:101B400097F96378022B00D80CE1A679771EFFB2D3
:101B5000E37D2A2B46D81A1F052A43D9032B46D8E2
:101B6000A34ADB001370207E0300083BDBB2882B06
:101B700049D8642306215843FFF72CFB01009D48F8
:101B8000FFF728FB9C4BA880D862312F41D8B300C7
:101B9000F3185B001A009132FF3292B22B81617E02
:101BA00008003238642801D85B189BB2AA81282229
:101BB0006B81A37E022053431433EB8102F07AF948
:101BC0006378002B29D1EE89FA2396215B000093DC
:101BD00030008A4ADB184900FFF7D8FE5023E8524C
:101BE00003B0F0BD1021824A1170032BB8D90A3B13
:101BF000DBB2202BB7D87E4A1370207E0300083B4F
:101C0000DBB2882BB5D97E4B7B4AEB80D362312F78
:101C1000BDD9C82200235200C0E7A07F0B2800D8FE
:101C2000C2E0052002F046F92023E35C754A7833D0
:101C3000FF335B002B8221239446E35C724A6344AA
:101C40005B006B8222239446E35C00226344AB82F8
:101C50002323E35CAB752523E35CFA332B83272333
:101C6000E2542832A35C053B142B01D90523A3546D
:101C70002922A35C013B092B01D90A23A3542A235F
:101C8000E25C511E082900D891E00A22E2542B227E
:101C9000A35C463B462B01D9FF23A3542C23E35CD2
:101CA000534A013B622B01D8012353702D21637AE3
:101CB0005B006B62A37AAB62E37A5B00EB62635C0E
:101CC000013B092B01D9052363542E23E35C092B27
:101CD0000BD8022B00D183E03AD8002B06D0012B81
:101CE00009D14A4993700B7005E0002301219370DC
:101CF000D370464B1970607909283FD80A231371B5
:101D00003E33E8540133E8540133E8549623EE8916
:101D10005B009E4202D20022E13BEA54E17E202099
:101D2000FFF758FA642104003000FFF7C9F92100D9
:101D300080B2FFF74FFA4C230C21E8523000FFF736
:101D4000BFF9210080B2FFF745FA4E23E8523BE786
:101D5000042BD0D1012300202D4993700B702B4907
:101D60000870C8E7A02363719F3BE380294B0027DD
:101D7000A36000230126E3602374E9E601230A211E
:101D80001371FFF79DF94823EA5CC0B2904200D27C
:101D9000E8544923EA5C904200D2E8544A23EA5CC2
:101DA0009042B3D2E854B1E702F084F83CE7530123
:101DB0009B1A9B009B1A5B006A893D3BDBB29A1819
:101DC0006A812A89AB769A182A81AA8B9A18AA83E3
:101DD000AA899A18AA81084A516C0B43536456E7A2
:101DE0000123D37087E7C04604070020C00000200D
:101DF000C805002070330C00002C0140B80B000017
:101E0000CF0700006B0300005E050000E504002022
:101E1000E70400200A64006410B5034BC0211A686F
:101E2000024802F09DFF10BDC00000200407002002
:101E3000542370B5264C5521E35C012B39D0635CEB
:101E40005A1ED2B2002A21D062540122214D1340E1
:101E50005222A35472B67B23EB5C002B24D062B6D3
:101E600002F05AFF1C4BEA6F9A4202D95623012214
:101E7000E25400237822AB54184A13705533E35CC4
:101E8000013B5B00D318A26D9A8070BD062301222E
:101E9000104D63547433EA545222793BA35472B602
:101EA0007B23EB5C002BDAD15533E05C03F0AAFC1A
:101EB000D5E7625C0132D2B2062A04D97A22054DF6
:101EC0006354AB54C4E7034D62541340C0E7C046AB
:101ED000C0000020C8050020C409000048060020FA
:101EE00001211D4A70B5D3688B43D360FFF7A0FF73
:101EF0001A4C1B49628A238A2F209B188A6D5B101B
:101F000094466344174D5A088A65285C002813D10B
:101F100015489B0800784243920992B2E2829A1ACD
:101F20005623CB5C2283002B12D0E3690F4A9342E5
:101F300001D80133E36170BD207D9B0842439209C3
:101F400092B2E2829A1A5623CB5C2283002BECD108
:101F500002F0D8FEE9E7C046002000404806002015
:101F6000C000002004070020C80500200F27000043
:101F7000F8B55C23144DEB5C002B0DD000245226E9
:101F80005C2703E0EB5D0134A34205DD02F096FE21
:101F9000AB5D8342F6D1F8BD72B602F0A5FE0B4AE6
:101FA000538A13828023DB05596A51820021128BE8
:101FB0005962074B01325962DA621961DA680131FC
:101FC0000A43DA6062B6E6E7C00000204806002057
:101FD00000200040F0B5D6464F464646C0B5C74D36
:101FE00082B0AB7C002B2FD0C54FBA78002A00D12D
:101FF000BEE0C44CC44E26216B5C002B00D08DE1AA
:102000008323628CDB009A4200D389E21300303BC9
:102010009BB2FA2189008B420ED25421687C775CF6
:102020005339091A8F4200D1EFE25D215B00715CE8
:102030009BB25B1A2F33A3842F2A09D800230022D6
:10204000A3842B33E25403E0AE4CAF4E638CA384E5
:102050002C275E23E25DF35C9A4203D9AB7D002B13
:1020600000D007E1EF7C002F00D169E0A08C1D2893
:1020700000D9ECE00023E3852823EB5C9900C91824
:102080008900884200DBEEE02A23E35C002B51D17B
:102090003833E35C002B4DD0EA7CE08D93009B1835
:1020A0001B012E33834200DB1AE12027E35D002B66
:1020B00000D170E33389002A00D157E2FA22D2001E
:1020C00000928921914A2833FFF760FCA0872623DC
:1020D000EB5C002B00D036E27B22894FBB54E97CBD
:1020E000E28D8B005B181B012E339A4200DCF8E076
:1020F0002E2A06D91E23697F0B41E1698B4200D944
:102100003DE2A58F82494B8AAB4201D21D00A387D5
:102110007B78002B04D01423CB5E9D4200DD3BE294
:10212000A06C002806DD2F2A04D97A49FFF752F85F
:102130002818A08702B0E0BCBA46B146A846F0BD58
:102140003023E35C002B00D17EE03123E35C002BE5
:1021500000D0FDE06F49606BFFF73CF8802380B250
:10216000E0851B01984200D290E1684BE3858BE744
:1021700026216B5C634C002B00D184E0FA20638C39
:10218000800084469A46604EB37D5B009C44E245E5
:102190001DDD6B7C99465423F05C8046484500D198
:1021A000A1E27B23FB5C002B00D011E1262300225F
:1021B000E254FA22554B5046009361462F23D20039
:1021C000FFF7E4FB638CA0849A46B37D5B00FA22A0
:1021D0009200D21A524523DD6B7C54219C46735CDD
:1021E000604699460123181A814500D1A6E27B2357
:1021F000FB5C002B00D0EBE026230021E1540933E7
:1022000050460093414BFFF7C1FB638CFA229A467C
:10221000B37D92005B00A084D21A924500DAD7E029
:10222000FA229200944663449A4500DDD0E00023F0
:10223000A3847B33FA5C002A00D1C9E00022FA545F
:102240000122553BE254C3E0A38CE3851CE71E2822
:1022500000D111E72823EB5C9A00D21892001100FC
:10226000904200DA8DE0294AA0230092FFF78EFB0E
:10227000E08509E703F082FA02F036FD0023E385EA
:102280006633E35500E7FA231F4E9B00B27D608C56
:102290005200D118884200DC7CE054226B7CB25C96
:1022A0009A4200D1F0E1FA22184BD20000932F237A
:1022B000FFF76CFBFA22B37DA084608C5B00920078
:1022C000D21A82426BDCFA22920094466344834223
:1022D00000DA7DE000230022A3842B33E25477E070
:1022E000074F3E23E35C002B00D19DE0052B00D976
:1022F00097E0094A9B00D3589F46C0460407002038
:10230000C805002048060020C0000020FF0700008C
:102310004001002010270000746100088322638CB4
:10232000D200934259D36A7C944654229146B25CBF
:102330009246624500D10FE27B22BA5C002A00D0AF
:1023400086E626220021A154C94A944663445FE0F0
:10235000726E336E2F21A08C0092C64AFFF716FBD7
:102360000100C548FEF736FFE97E4908FEF732FF57
:10237000A38C60862E2B00D9ECE6E785B7666763F1
:1023800082E6A0231E210093713BFFF7FFFAE08550
:10239000A08C71E6FA239B009A1A90429ADA542391
:1023A000F35C697C9C4601235B1A9C4500D1A9E142
:1023B0002F2300210093AF4BFFF7E8FAFA22B37DF9
:1023C000A084608C5B009200D21A904200DB7AE716
:1023D000BB78002B00D13BE60DE6FA22303B9BB2E6
:1023E0009200934200D38FE06A7C9146542290463B
:1023F000B25C484694460122101A844500D164E13B
:102400007B22BA5C002A00D022E626220021A154B9
:102410005D22B25C5B009B1A2F33A38418E601F0A7
:1024200093FE3E230022E2542B7D002B34D1A38760
:102430002033E35C002B00D1B1E02623EB5C002BC2
:1024400000D18AE07B23FB5C002B00D18CE0BB78C1
:10245000002B00D1ECE1638CFA211A00303A92B2E1
:1024600089008A4200D301E253005D22B25C9B1ACC
:1024700040222F339BB2A352804A934200D8D4E12A
:1024800003F078FB7B23FB5C984669E02F2800D99A
:10249000FAE53023E385F7E52023E35C002B00D148
:1024A00090E0E97C7B23FB5C984655233C22F35C5F
:1024B000013B5343724A128A9B18B42298B21BB252
:1024C0005200934200DB78E1273AFF3AA352020020
:1024D000B423773212B25B009A4200DB73E1253BF2
:1024E000FF3BE2520200B423EF3212B25B009A4289
:1024F00000DB5EE1233BFF3BE252012901D12A23AD
:10250000E1540023A3872BE00023A3847B33FA5CF0
:10251000002A00D19CE50022FA547A3B635497E5E7
:1025200054216B7C715C994200D187E05D20504B57
:10253000305CD1181300490089B2091A303B2F31A1
:102540009BB2A18465E5EA7C4E4F93009B181B016A
:10255000E28D2E33934200DBC3E67B23FB5C98467F
:102560004346002B00D0E5E5E28DC1E5FA22D2001A
:1025700000922F213F4AFFF709FAA087A7E5A58F10
:1025800073899D4201D21D00A387B389AB4200D35A
:10259000B8E51D00A387B5E59DB2A587C0E5562225
:1025A0000121E361B1542B7F002B00D03AE17B2362
:1025B000FB5C002B00D14BE12623EB5C002B00D011
:1025C00045E7B7E556220121B1542332E361BB54FC
:1025D0002B7F9846002B00D121E1E97C002900D017
:1025E00060E7012B00D05DE72923C822EB5C534351
:1025F000883AA352214A934200D840E103F0BAFA44
:102600007B23FB5CE97C98464FE75023B26DF35A7D
:10261000934200D3F5E0238DC72B00D9F1E00122CE
:1026200056230027F254023BF054E76102F05CFBB2
:102630002B23628CE7541300303BF6E45022B16D3B
:10264000B25A8A4200D3CCE0228DC72A00D9C8E012
:102650000122D31A54220027B3545623533AF2547A
:10266000E76102F041FB2B23628CE7545EE7C04632
:10267000E8FBFFFFFF07000000879303CE07000081
:1026800040010020C80500205022B06DB25A82429D
:1026900000D39DE0228DC72A00D999E00122D31AE8
:1026A0005422B35400239846533AE3615633F2540C
:1026B00002F01AFB2B234246E254FA239B009C466D
:1026C000B17D608C49006144EDE50020A0847B3041
:1026D0003A54625C002A00D1BAE442464946B154F9
:1026E00000223A5491E60120A2847B22615CB85416
:1026F000002900D16CE601214046091AF15400235B
:10270000BB5453E55023B06DF35A834271D2238DED
:10271000C72B6ED8002301229846E3615633F2544A
:10272000023BF15402F0E0FA2B234246E254FA2332
:10273000B27D9B005200608C9A1A39E60020A0847A
:102740007B303B542533E35C002B00D140E66346ED
:10275000735400233B544FE50022A2847B329446FD
:102760007A3A904662464046615CB854002900D1EE
:102770006EE401215246881A4A466146B05400224E
:102780007A54DEE501F06EFC4BE601F041FD48E6CF
:1027900001F00CFD45E602F0F1FF5623F35C002B3F
:1027A00037D020230122E2547389E08D6387EA7CCD
:1027B00080E446227938A0529FE642236938FF38E8
:1027C00080B2E05283E603004422F13BA35289E643
:1027D0002A22A25C002A00D060E7FA2080006084F0
:1027E00061E52A22A25C002A00D031E76284FFF76B
:1027F00025FC2A23E35C002B8CD1FA208000608426
:10280000D6E52A23E35C002B00D008E76384FFF7BA
:1028100015FCE35D002B1ED002F074FAC1E702F054
:10282000ADFF3EE603F0A6F907E602F067FF94E687
:10283000FA20618C8000FFF7C7F8FA2340229B0042
:10284000C3189BB2A352BA78002A00D114E602E65C
:1028500002F094FFF1E5FFF7EBFA0E4B0E4AB36579
:102860008023DB055A620123E355D5E78322D2009A
:1028700093420BD3094A944663445B00F5E502F0AA
:102880003DFF7B234246FA54E97C0EE64023E35A9F
:10289000F2E5C0461027000088130000E8FBFFFFA8
:1028A00070B54C250A4C635D012B0BD0022B02D076
:1028B000FFF790FB70BD236D98B2FEF7E9FF002390
:1028C0006355F7E7FEF796FD00236355F0E7C04632
:1028D00048060020F8B5CE464746542380B54E4DF5
:1028E0004221EA5C4D4C002A1ED1B420635A4000BC
:1028F00001331BB2834200DB73E063524421B420F6
:10290000625A4000013212B2824200DB002262525F
:102910004621B420625A4000013212B2824200DAEB
:102920006DE00022625214E0625A013A13B21204BE
:1029300000D566E063524421625A013A10B2120493
:1029400052D460524621625A013A10B2120454D451
:102950006052FA21324A5B00985E324B2D2698462F
:10296000DB8AC900C318A88891465843FEF732FC99
:102970002D4F0A21BB5D5843FEF72CFC80B202F0BC
:10298000D5FD4423E35E4A465B00985E4346FA2148
:10299000DB8AC900C318A8885843FEF71BFCBB5D3F
:1029A0000A215843FEF716FC80B202F0C5FD46230B
:1029B000E35E4A465B00985E4346FA21DB8AC90023
:1029C000C318A8885843FEF705FCBB5D0A2158438D
:1029D000FEF700FC80B202F0B5FDC0BCB946B046BF
:1029E000F8BD0023625289E76822FF326252462115
:1029F000625A013A10B21204AAD56822FF3262521A
:102A0000A7E76823FF3363524421625A013A10B2A8
:102A1000120400D495E7E7E7C00000204806002034
:102A2000980100204001002004070020802100229E
:102A3000C90570B54B6A214C214D63824A62A86D6D
:102A4000204E42001B0412181B0CD2183078930839
:102A5000AB6543439B0998B2D3081B1AE2699BB24A
:102A6000E0822383042A27D94A6A9A42FCD3164A71
:102A7000D362FFF7DDF9002378222620B354013218
:102A8000B354E36911490133E3614A7F095C0A43A6
:102A900005D1FA23AA6DDB009A4207D370BD132B30
:102AA000FCD9FA23AA6DDB009A42F7D856230022FC
:102AB000EA5402F027F9F1E74A6AD8E7480600200D
:102AC000C0000020C80500200020004004070020AE
:102AD000F8B55422CE4647465A25924C80B5A38F6E
:102AE000615D2385A35A0133A3520232A35A0133F5
:102AF000A3520232A35A0133A352203AA35C0B43E0
:102B000004D15B21605C002800D0C7E0864FF97FCC
:102B100000290ED06220854D235A2A7E0133013AC6
:102B2000521891009BB28A1823529200934200DD02
:102B300090E02A23E55C002D5CD17D4E2C33F35CC4
:102B4000002B5FD17B4B98465823E25A0A2A12D9B0
:102B500065220121A1540022E25243465B78002BFA
:102B600000D1F3E02023E35C002B00D0C6E17B7FA3
:102B7000002B00D19BE1434619795423C9B2E05A96
:102B8000FEF70EFC002915D1E369608F952B00D864
:102B900063E1952800D860E14246FA23D26F5B00DA
:102BA0009A4200D9A7E14A234822F35C5F49DBB28D
:102BB0008B5457E1658F25853823E35C002B03D0C8
:102BC0002022A25C002A5AD17B2241468A5C002A3C
:102BD00046D04023F688E05A57497043FEF7FAFA88
:102BE0006823301880B2E052544B6587DE62586328
:102BF0009863D8636A22A35A0133A352C0BCB94672
:102C0000B046F8BD2023E35C002B9BD002F06CF8AB
:102C100002F054F85223F35C002B00D055E1454BF1
:102C20009846002800D1B2E1782241469B5C0133EE
:102C30008B542378002B00D086E7782342463B4D07
:102C4000D25CAB7E9A4200D87EE701232370FFF767
:102C5000EDFE79E764230122E2540023235268E762
:102C60003A7F022A00D10CE1F688FA213000C9002F
:102C70006843FEF7AFFA682380B2E052B4E7E28D12
:102C80002F2AA1D9F688FA213000C9006843FEF73F
:102C9000A1FA6823013080B2E052A5E7A08C002899
:102CA00000D00FE15C26A35B254F01339BB2A353F9
:102CB000BB4200D82AE75E23E35A1E2B00D886E1E8
:102CC0000123194FA3542333FB5C012B00D082E175
:102CD000B9215F33E65A49003000FEF7F1F9B92314
:102CE00060555B0000259E4210D3164B5A2699462C
:102CF000154B984601F0F0F96420FEF777FE4B463D
:102D000042461A60A35D0135AB42F3DC094B98469D
:102D10004246DB789278134300D0F8E62622BB5473
:102D2000F5E6C046480600200407002040010020C8
:102D3000C0000020C805002030F8FFFF002C014033
:102D40001027000000300040AAAA00007B7F002B63
:102D500000D1ACE02023E35C002B00D10BE7A04DB9
:102D6000296BB26D8C46AB8B296CD31AAA6A2B6285
:102D70005A4362442A638A4201DD0A0029634942B8
:102D8000914201DD0A002963A96BE86A591A41439F
:102D9000686AAB6343435B189B186A6C6963EB63B7
:102DA000934201DD1300EA6352429A4201DD1300AF
:102DB000EA63A26C94468B4A6344934200DCE1E0F0
:102DC000A2643023E35C002B00D1D4E6B16F226D06
:102DD0008C468821638E7158D31A326FB3665A437A
:102DE0006244B2678A4201DD0A00B16749429142FA
:102DF00001DD0A00B16780203158756F3350F06EE5
:102E0000591A694343435B189B188C22F16784214C
:102E1000B2587350934201DD1300725052429A42ED
:102E200002DD8423F2501300626B94466E4A6344C1
:102E3000934200DCC6E06263E369632B00D99AE643
:102E40000023B367434619795423C9B2E05AFEF709
:102E5000A7FA002900D0ADE6608F4822B35C604934
:102E6000DBB28B54258D2A1A9A4202DDC518ADB209
:102E70002585421B934200DB9EE6C31A9DB2258541
:102E80009AE6002B00D1EFE6022002F0BBFCFA210B
:102E9000387BF688C9007043FEF79CF98300181848
:102EA000682340002D3080B2258DE0529CE630230F
:102EB000E35C002B00D15EE62023E35C002B00D115
:102EC00059E683E75C22A35220E6484B9846002847
:102ED0006BD1782241469B5C01338B542378002BC5
:102EE00000D031E6782342463D4DD25C6B7E9A425B
:102EF00000D829E6A9E6AC3BFF3B55E66623E35E36
:102F00002C22C820BA5C5043326B181A9446B36A1C
:102F1000326C4343634430623363934201DD1300F8
:102F2000326352429A4201DD13003263B26BF16A9E
:102F3000821A4A43716AB06348438018C018736CA0
:102F40007263F063984201DD1800F3635B428342D1
:102F500001DD1800F3632649FEF73CF9204DAB8AEA
:102F6000181A338900B2A882984201DA18B2A882EE
:102F7000FA23DB00984200DDAB827B7F002B00D080
:102F8000EEE61EE7002B29DC0023A36419E7792273
:102F900041469B5C0133DBB28B54263AB25C9A42C9
:102FA00000D346E67823C854CEE5792241469B5C9F
:102FB0000133DBB28B54263AB25C9A428ED278232C
:102FC000CD54C1E5002B00DA0023636334E7094FD9
:102FD0006054A0539BE501F07FF897E6A364F0E608
:102FE0004001002060E31600F0583801C8050020B9
:102FF0001027000004070020F0B5DE464E46574675
:103000004546E0B585B001F06BFFFE231B01C14AC8
:103010001968C14E914205D1C04A5968914201D107
:1030200000F07DFC02F092F902F0A2FAFEF780FDBA
:10303000BB4FFB78022B04D13B79132B01D100F05D
:10304000ACFC0223FB7011333B71C021103B3800F4
:1030500032687B7001F084FE7B7C013B5A1E9341F9
:103060005422B354B388F3803B7D002B00D1FB7412
:103070002623AC4AFB5C9346002B15D0FA239B0019
:103080004B22B3830123B3547B820023BB82BB75E5
:1030900033895946323333815B46013A9B5A323386
:1030A0008B5273893233738100F09AFF5E230022C2
:1030B0009D4CE25201F0CEFF9C4B9D4A1A6001F0FC
:1030C0005FFD3123E35C002B02D030230122E25468
:1030D000984A8021136849011B051B0D1360E366A4
:1030E00000231268120C8A425B412267E5225B4290
:1030F0009343E633713AA35401F0D2FD8E4B8F4DCA
:103100009846E288A3889B1822899B1862899B189D
:10311000A2899B18E2899B180433E2695B1023653E
:103120000623042A00D9033B5A46937653767F4BF5
:103130007F4A1A607B7D012B00D188E2022B00D1EF
:1031400042E26A237E4AE35A93420AD938229246DF
:10315000A25C002A00D0C3E37A498B4201D900F077
:10316000EBFB5422784BA25A9A4219D96623B42118
:10317000E35E490018049946FEF72CF8A36F9C46BD
:10318000724B60441B78A067022B00D110E3032B25
:1031900000D1FDE2012B00D1EFE254230022E252E4
:1031A000E3699946FA239B00994500D8DCE12C227B
:1031B0000021A38CA154C72B00D83CE2FA7C002A42
:1031C00002D09F2B00D8DBE17D22A25C002A00D137
:1031D000C4E1C8225200934200D2D8E10321206DFD
:1031E000FDF7F8FF43464246D8677A23D35C002BAD
:1031F00003D04B460A2B00D97CE26B79002B00D11F
:10320000ACE0B36D782B00D8A8E0C221504B890008
:103210005A58C4201202120A5A50802180001A58AB
:10322000C9051202120A0A43C3211A50FF2089005D
:103230005A588243BF3802435A5064239946E35C8C
:103240009A46002B00D0A5E02B7A002B00D0F6E1A7
:103250006523E35C012B00D1B5E02A23E25C002367
:103260009946EB75002A00D041E1216D3948FDF700
:10327000B1FF2023E35C0A21584380B2E880FDF7C8
:103280001FFF4B23F35C80B22883002B00D0EFE1BB
:10329000FA235A46DB0053822B23F95C5133E05C5E
:1032A000814200D2FBE1E369632B00D99DE1FA235F
:1032B000B26D5B009A4200D897E10C22993BFF3B2C
:1032C000F2542F23FB5C002B00D0A5E18023DB050B
:1032D0005A6A214B9A4200D813E720239A46E35CAE
:1032E0009946012B00D00CE72C22A35C0133A35498
:1032F00001F0FAFC56234A46F254E38D2F2B04D8F2
:1033000000235246A3540E4BB3650023E361FFF73D
:103310008DFBF6E6DAE32559C0000020D963B84EEC
:103320000407002040010020480600200030004033
:10333000AAAA000000580140C8050020C8060020C5
:1033400088130000204E000010270000E904002030
:1033500000E100E0C0270900C8AF0000C2208021C2
:10336000D74B80001A58C9051202120A0A43C42119
:103370001A50FF2089005A581202120A5A50043972
:103380005A5882435A5064239946E35C9A46002B6C
:1033900000D159E7A36F66221B0C9A4660217C205E
:1033A000EB88A25A615A205C00935346FEF794FBC7
:1033B0000A2002F02BFD00234A46A3546523E35C58
:1033C000012B00D049E701F0D5FABE4ABE49936807
:1033D00068890B4004210B439360BC4B1B889A46C1
:1033E000BB4B190058439946FDF76AFE5346C31A72
:1033F0009800C018B74B000119885346C91AFDF749
:10340000E9FE7C224B461E3080B2A054A881E88998
:10341000B1495843FDF7DEFE5A464C23D35A642186
:103420005843FDF7D7FE6022A15ACB005B1AC018A3
:10343000C31099469BB2A3529A4643461B7B742005
:103440005A004244118A013303914146085ADBB2C3
:1034500010828A689446039A6044801A88604246C3
:10346000312B00D9002313733221FDF729FE424688
:103470007623D052964B0004000C29212861584332
:10348000FDF7A8FE954B0A219C466044FDF7A2FE7D
:1034900003B2020400D5ADE16622A3522423FB5CF3
:1034A000012B00D1AEE1022B06D13B7A534500D867
:1034B000B2E1AB8A0133AB822A23E25C99469000E9
:1034C000801803011B1A58011B1885489B0084466D
:1034D0005B42A98A6344994200DDA3E16523002190
:1034E000E15400239946EB75002A00D1BDE6E38D37
:1034F000302B55D93822A25C002A51D0313B572BB2
:1035000000D9B0E1AB7E002B00D035E2FFF7E2F945
:10351000FB7E744819009A46FDF75CFEE38D8146F8
:10352000514671480393FDF755FE4B4630217822F2
:1035300000900398FEF72AFA502399465B464A46C4
:1035400098520004000CFEF745FA5B464A46962066
:10355000995A8000FDF73EFEE880D2E5952B66D8AB
:103560005E236422F25439E6A38C002B13D12C2263
:10357000A3544A46642A5ED8FA7C002A00D123E686
:103580002C220021A1545132A25C002AE6D02C2327
:103590000022E25422E64A46642A00D80EE60AE6F1
:1035A0000123AB763B7F9946012B00D1CFE0022B64
:1035B00000D10CE100224D4B5A639A63DA6302F0AA
:1035C000DDF80023EB809CE54346DB6F1A00653A8B
:1035D000942A03D89A009B18F380B2E5013B622B32
:1035E00040D8FA235B00F380ABE50C23FA22404677
:1035F00000935200093B6421C06FFEF7C7F95C23BA
:10360000B26DF054312A00D95BE60222F2542F2326
:10361000FB5C002B00D159E61723FA22208D642190
:103620000093D2000A3BFEF7B1F920754EE65E2307
:103630000A22F254D2E52C220021A154BEE5FEF765
:1036400065FA312002F0E2FB53462B7200E6B288A5
:10365000602100925308B06DC822FEF797F9F08000
:103660007B7D6BE5F82B00D86BE5214BF38068E59B
:10367000B38B4C219C464E23F25A715A91465A46BE
:10368000D35A4A4600936346FEF780F95B46588258
:103690002B23F95C5133E05C814200D303E65A46A8
:1036A0002E3BD35A0A005B08994601230A32009345
:1036B0000A394B46FEF76AF95B465882F3E5C04685
:1036C00000E100E000240140E8FFFF7FB8F7FF1FA2
:1036D000E40C0000C2F7FF1FFF0F00003CF6FFFFE5
:1036E00010270000581B00002A030000002C014096
:1036F000E204000001002868FEF766F94346DB6F2C
:103700005A08904217D9FA22D200934213D20022CB
:10371000E2612A7901322A71BA7C002A11D1E28D44
:103720002F2A0ED920220021A15456220121B15462
:103730007289520862877A22002140462B608154A8
:103740005BE5FA22B16D92009142EED9EAE72833A7
:10375000F85C9F335843883BE052F38896495843BE
:103760009A46FDF737FD6823504480B29A46E052EE
:1037700063286BD802F0FEF923E77B33E25C8533E4
:10378000FF3313438D4A138002238D4A137004E5DF
:1037900060231921E05AFDF793FCFF2303408020AA
:1037A000C0001843854B864A188001231370F4E447
:1037B0004B463221D8B2FDF783FCC3B2C020C00013
:1037C00018437E4B7E4A188003231370E5E40220E1
:1037D00002F018F8FA213B7BF088C9005843FDF746
:1037E000F9FC83001B18774A5B002D335363936306
:1037F000D363E6E666230022E2522423FB5C012B1E
:1038000000D050E65933E35C328B5A434B461B04DD
:103810001B0C9A4200DD4CE6AB7D002B00D04BE642
:10382000AB8249E60123AB7500239A46E38501F09C
:10383000A5FF01F059FA002220235146E2543E33FD
:10384000E152263BE2544B46E25C47E601F056FF6C
:103850005346E25A5B4B49465A639A63DA637B23C9
:103860004246D154ADE60123AB76FFF733F8E38D42
:10387000C82B05D942234A46E2525A460E33D35248
:1038800050235A46D05AFEF7A5F84223E35E002B98
:1038900000D036E42A222021A354293A625436313A
:1038A00072544146484ACA678021C905B2652A60F8
:1038B0004A6214224146E26167328B545A465233BF
:1038C000D25C0333F2547B7F002B03D04A235A4649
:1038D000D35A6387FEF7ACFA01F03AFEFFF711FC0A
:1038E00001F04CFF00255346E5542333E5540333E0
:1038F000E552344BE5855D639D63DD6301F030FE89
:10390000802229005200314802F0CDFBBFF34F8FD7
:103910002F4B304ADA60BFF34F8FC046FDE71B7B69
:103920002B2B45D0352B3FD01F2B01D0FFF77AFB37
:10393000294B3360FFF776FB914601F01FFF4A46A3
:103940005346E2545B23E2540333E2521D4BE285BB
:103950005A639A63DA6301F003FE80220021520069
:103960001A4802F0A0FBBFF34F8F194B194ADA60D7
:10397000BFF34F8FC046FDE70121184AD3688B4340
:10398000D36001F0B1F94A460E4B5A639A63DA6389
:1039900002F034F94B46AB76B8E57B78022B01D9BF
:1039A000FFF75AFBFFF74DFB0D4B3360FFF73AFB78
:1039B0000C4B3360FFF736FB30F8FFFFEA040020C2
:1039C000E9040020002C014028230000F00700201B
:1039D00000ED00E00400FA05007C00080020004033
:1039E00000F8000800F80108F0B5654C83B0636882
:1039F0002268981A634B0100C218634B9A4238D868
:103A00000023624E624D33802B78002B43D06B78BD
:103A1000002B17D1AB78002B00D196E0A8885D4F22
:103A200001333988AB70FDF7CFFF322800D86CE046
:103A300000232B703B88AB806B78002B09D061682A
:103A40002368C91A544B994253D9AB794B2B00D9EF
:103A500080E000235149524AA868338012680B88DD
:103A6000C41A944211DC1C1AA24212DA9B1A0B806F
:103A70000DE000224B4B1A80454B98684749484A55
:103A80000B881268C41A9442EDDD9B180B8003B0BA
:103A9000F0BD0880FBE7444B9C7C002C0FD0434BCF
:103AA0001A88904219D8424B1988FA239B00009338
:103AB0000023FDF76BFFA86000233380DEE7354B62
:103AC0001A883B4B19883B4B00932F23FDF75EFF71
:103AD00030283DDC0020AC60EEE72E4B511C1C88EA
:103AE000FA23DB0000932200334BFDF74FFFA86061
:103AF000E2E72F48AB7904880133E200121B51182A
:103B0000DBB2C908AB710180A0E73988226863681D
:103B10009B1ACA00521A9B18DB08AA789BB23B80FA
:103B2000322A00D887E7254A193B94469BB23B804E
:103B30006344DA0FD31821221B495B108B540123F5
:103B40006B7000F001FB3B8875E780B2A88066E7E8
:103B5000A860B1E7164A00241388134919339BB2B1
:103B60001380174A2C7094466344DA0FD31820222E
:103B70005B108B54FEF750F9AC7100F017FB68E74F
:103B8000F0070020DFFCFFFF76050000B2060020F2
:103B9000C4070020D2000020E10400006A060020D3
:103BA0007C040020A606002004070020D40000208A
:103BB000D0000020FF070000E90300002AF9FFFF02
:103BC00012FDFFFFF0B54D4D00262A000020002712
:103BD0004B4B4C4C9C469C8008CA7C3511689942E2
:103BE00006D0CB1AA34201D201279CB20126C018ED
:103BF00004320B009542F1D1002F47D063469C80E0
:103C0000002E28D0404B414D1A784009E860012A27
:103C10003ED03F4E3278012A0FD019780A4319D18D
:103C2000611E02293ED83B2814D83A492A740A70EA
:103C300001321A700E21384B21E0C93C374BA4B237
:103C40009C4207D82F21334B1970022361468B7198
:103C5000334B1A70F0BD2C4B2C4D1A780020EE60BF
:103C6000012AD6D1621E022A38D9221F042AD0D8AE
:103C7000012207211A70274B2A741A70264B1970DB
:103C8000202361468B71264B1A70E3E71D4CB7E782
:103C9000621E022A1CD83B2820D91D4E3278012AE8
:103CA000BBD1D7E7221F042A02D86328D2D8DFE786
:103CB000C93C1A4BA4B29C42CCD82F21154A0123EF
:103CC0001170022261468A71154A33701370C1E780
:103CD000221F042A9DD86328DFD8C9E700220E26B8
:103CE0000C492A740A700C4901320E702021664674
:103CF000B1710B491A700A708BE7C046F0070020BB
:103D00007C040020204E0000CA050020C4070020CB
:103D1000CB05002086040020ED070020564D000052
:103D2000A306002070B5544C2378002B03D0534BCE
:103D30001B78002B07D1524B1B78002B00D16FE072
:103D4000012B0AD070BD4F4B1B78002B55D000F0D3
:103D500017FF02224C4B1A70F4E7484B1B78002BDC
:103D600051D14A4D2B78012B75D0494B1B78012B33
:103D700067D02378002BE5D12B78002B1DD0454A46
:103D8000537C072B19D844490988052915D954694A
:103D90004248A446C16F006801336144DBB2091A8E
:103DA00053745161082B08D1CB08C9099BB289B261
:103DB0003B485C18591A048111833A4C208800282A
:103DC00036D0394BDB79002BBCD1334A0026138027
:103DD000364B9842B6D92F4D698BFDF7F5FD322849
:103DE00047D82B7F0133DBB22B77322B02D96B788C
:103DF000002B3AD023886B83A4E700F005FF012253
:103E0000214B1A709EE71F4B1B78002B0DD0284BBF
:103E10001888FDF73DFDFDF7EDFA00F0B1FE91E7E2
:103E2000FFF7D0FE00F0ACFE8CE700F0EDFE89E776
:103E3000184B1B78002BC4D1174A13880133138009
:103E400080E700F025FF164B002809D003229A7165
:103E500000F096FE8DE7FDF7CDFA00F091FE84E7C5
:103E600002229A71FFF7C0FDF2E700F0D1F90123B9
:103E70002B702E77BEE7C04680060020CD060020BE
:103E8000A3060020EC07002094060020CA050020AD
:103E9000CB050020C4070020A6060020F007002064
:103EA0007C0400206C06002004070020DC050000D4
:103EB00098060020031C0B2800D90B23014A5B0045
:103EC00013707047E1070020F8B5DE4657464E46AE
:103ED00045460320E0B501F095FC7C239B46354B1D
:103EE000354C9946354B00259A46A34411E061783C
:103EF00000292FD1E801401B314B40008019596344
:103F000080B29963D963FDF771FD00250234A345A2
:103F10000DD053462B4A26781A6000234A46138058
:103F2000FF2EE4D101350234EDB2A345F1D101F009
:103F300025FC00232449224A09889362D1624A461B
:103F400013801E4B1F4A1A60F0BCBB46B246A946FE
:103F5000A046F8BD4B015B1ADB00591AFA231B017E
:103F60009C461A486144FDF735F90A23144F0100B5
:103F70008046BB621648FDF72DF9164BF8621B7898
:103F800015495843FDF726F97863B863F863E801EB
:103F90004146451B1148FDF71DF96D00AE1964211E
:103FA0007043FDF717F90004000CFDF71FFD002515
:103FB000ACE7C046B20600203807002000300040C1
:103FC000002C0140AAAA0000C4000020C0D8A7000D
:103FD000003E4900E1070020CF070000A086010055
:103FE00010B572B63023194AD35CFF2B07D0FFF708
:103FF0006BFF174B1A88174BDA6262B610BD154C6F
:10400000154B0320E362154B1B786363A363E363E3
:1040100001F0F8FB3723C820A362FDF7E7FC052079
:1040200001F0F0FB2823C820A362FDF7DFFC062087
:1040300001F0E8FB1923C820A362FDF7D7FC01F0CB
:104040009DFB0023064AA3621380D2E704070020E9
:10405000C4000020002C0140CF070000E107002031
:10406000B206002070B5154B154CE36272B63C23C6
:10407000144D154E01202E60A362144B1B78636310
:10408000A363E36301F0BEFB4B20FDF7AFFC5023BD
:104090004B20A362FDF7AAFC5A234B20A3622E609B
:1040A000FDF7A4FC01F06AFB0023094AA362138018
:1040B000084B1B88E36262B670BDC046CF070000A4
:1040C000002C014000300040AAAA0000E1070020B7
:1040D000B2060020C400002010B572B6134C144B79
:1040E000144AE362144B03201A605023A362134B5B
:1040F0001B786363A363E36301F084FB6420FDF733
:1041000075FC46236420A362FDF770FC282364201D
:10411000A362FDF76BFC01F031FB0023084AA362A8
:104120001380084B1B88E36262B610BD002C01406F
:10413000CF070000AAAA000000300040E1070020DD
:10414000B2060020C400002010B5114B114C022013
:10415000E3623223A362104B1B786363A363E363C0
:1041600001F050FB9620FDF741FC0C4A0C4B9620C9
:104170001A601E23A362FDF739FC01F0FFFA002349
:10418000084AA3621380084B1B88E36210BDC04637
:10419000CF070000002C0140E1070020AAAA000080
:1041A00000300040B2060020C400002010B5114BC2
:1041B000114C0220E3622823A362104B1B78636337
:1041C000A363E36301F01EFB9620FDF70FFC0C4A8E
:1041D0000C4B96201A605023A362FDF707FC01F0F8
:1041E000CDFA0023084AA3621380084B1B88E362C0
:1041F00010BDC046CF070000002C0140E1070020A1
:10420000AAAA000000300040B2060020C40000202E
:10421000F8B5144D144BEB6272B67724134B144F60
:104220001B78144E6B63AB63EB63142120003E607C
:10423000FCF7D0FFC0B201F0E5FA63100A330A20A0
:10424000AB62023CFDF7D2FB631CEED101F096FAA3
:104250000023094AAB621380084B1B88EB6262B6ED
:10426000F8BDC046002C0140CF070000E107002048
:1042700000300040AAAA0000B2060020C4000020BE
:104280000D4885460D480E490E4A002302E0D458D9
:10429000C4500433C4188C42F9D30B4A0B4C00238E
:1042A00001E013600432A242FBD301F0CDFE01F025
:1042B000CDFEFEF7A1FEFEE700200020C00000209A
:1042C00098040020CC610008980400200C0900200C
:1042D000FEE700008268030010B50120D20710D469
:1042E0008C684A68D8682243CC6809682243054C28
:1042F000204002430020DA601A69920092080A43C3
:104300001A6110BDC73FFFFF8368020010B501208E
:10431000DB070ED44C680B68D06823438C682343BA
:10432000CC68096923430B430249014000200B4339
:10433000D36010BD3CC2FEFFF0B5DE4657464E4688
:104340004546E0B50A684B6883B0002A00D172E0A8
:104350009C46012301245B4263449846A346002304
:104360000AE00E69C56874434E4635402C43C4606C
:1043700014000133DC4041D05C4615009C402540D0
:104380002242F5D02C006C436700BA46A24457463F
:10439000FF43B94657460668BE43674667433E43F8
:1043A00006604646012EDCD88668B2468E685746BF
:1043B000664301964E4637403E00019F3743876073
:1043C000C6684F46B2460E69664301965646374068
:1043D0003E00019F37436646C760022EC8D1FF2DBD
:1043E0001DD86443056A2601361BB5434E69013367
:1043F00074432C4304621400DC40BDD14346012BBE
:1044000005D84368C96893434A431A434260002071
:1044100003B0F0BCBB46B246A946A046F0BD2D0A8B
:104420006D436D43446A2E01761BB4434E69754358
:10443000254345629CE7013B9846DFE70C23184A79
:1044400070B5516805000B40082B11D0154B14496D
:104450002B604A6814481206120F825CD3406B60CE
:104460004A6812495205520F8A5CD340AB6070BD56
:10447000802350685B021840434258410C4B404235
:104480001840084B0F249C46D16A604421400131FA
:104490005668FCF715FEB30C234002334343D6E7BE
:1044A0000010024000127A00AC610008BC610008F4
:1044B00000F7C2FF030070B50020002B33D1314A52
:1044C0000333116B0B40022B52D0032B48D05168A1
:1044D000012B29D00C230B40082B51D1802350688D
:1044E0005B02184043425841274B40421840274B3B
:1044F0000F249C46D16A6044214001315568FCF785
:10450000DFFD0300AD0C2C40A01C58431D4B20497F
:104510005A685B681206120F8A5C5B05D0401D4A20
:104520005B0FD35CD84070BD0B330B40082B1DD103
:10453000802350685B02184043425841124B40426E
:104540001840124B0F249C46D16A6044214001312F
:104550005568FCF7B5FDAD0C2C4002346043E2E732
:1045600013680222100018401A42DCD00748DAE72C
:104570001800126A10401342D5D080200002D2E702
:104580000248C3E70010024000F7C2FF00127A00A1
:10459000AC610008BC6100081D4A0368904226D047
:1045A0008022D205904219D01A4A904216D01A4A57
:1045B000904217D0194A90421DD0194A90421AD001
:1045C000184A904217D003608B68C3620B888362DD
:1045D00001224369134343610020704770229343D3
:1045E0004A681343104A1340CA681343EBE770222A
:1045F00093434A6813430C4A1340CA681343036049
:104600008B68C3620B8883620B7C0363E0E7C04660
:10461000002C014000040040002000400040014008
:104620000044014000480140FFFCFFFF802370B5BB
:104630005B00994200D1ADE041D8012900D171E081
:1046400010296DD1036A714D8B430362036A46687A
:1046500084692C4015682D022C432025AB431D0096
:1046600013691B012B438B4351680D0168492B4390
:10467000884208D06749884205D06749884202D0FD
:104680006649884214D180218B431D00536940390B
:104690009B012B438B4391688D0161492B430E4055
:1046A0009169604D890031432940D569EE000E4380
:1046B000D2684660846182630362002031E0802317
:1046C0005B0199422CD1016A574E504C3140016236
:1046D000036A4568C1692140146824020C435349A8
:1046E000194013691B030B435168334009030B4303
:1046F0004749884208D04749884205D04649884200
:1047000002D04649884204D149490D409169890146
:104710000D43D2684560C46102640362002000E07A
:10472000012070BD7326036A8B430362036A4468E9
:104730008569B543166835430226B343166933438A
:104740008B4351680B433249884208D03149884233
:1047500005D03149884202D03049884213D108211E
:104760008B43190053699B000B4304218B439168D1
:1047700089000B432F490C4091690C432E490C4092
:10478000D16949000C43D268446085614263036289
:104790000020C6E77324016A264E31400162036A95
:1047A0004168C569A54314682543234C1C4013691F
:1047B0001B0223435468334024021C43144B984289
:1047C00008D0144B984205D0134B984202D0134B9B
:1047D000984213D1134B144E1C4053690E409B0258
:1047E00023430F4C23409468A4021C43936919018E
:1047F0000E4B31431940D3695E013143D3684160A8
:10480000C561C363046200208BE7C046FF8CFFFFD5
:10481000002C01400040014000440140004801409C
:10482000FFFBFFFFFFF7FFFFFFEFFFFFFFDFFFFFD4
:10483000FFBFFFFFFFFEFFFFFFFDFFFF8A680B7B4F
:1048400013430D4A13404A6813430C4A13400A6845
:1048500013430B4A1A40CB8913430A4A13400A698F
:104860001343094A13404A69084913430B40134351
:10487000436400207047C046FFFBFFFFFFF7FFFFC8
:10488000FFEFFFFFFFDFFFFFFFBFFFFFFF7FFFFF28
:1048900030B5036804000D0085B0DB071DD44B68FC
:1048A000C96802680B4329690B43A9690B43204976
:1048B0000A401343036043681E4A1340AA68134327
:1048C000436083681C4A13406A69134383601B4B2F
:1048D000984205D01A4B984218D0012005B030BD3F
:1048E0000020FFF7E7FD0028F7D029680029F4D061
:1048F0008023AA691B029A420DD04B081818FCF7B6
:10490000DFFB03041B0C0020E360E7E701A8FFF7CF
:1049100095FD0398E7E74B084000C018FCF7D0FB73
:10492000084B03400007400F1843E0600020D5E724
:10493000F369FFFFFFCFFFFFFFFCFFFF00380140DF
:1049400000440040F0FF0000FA2110B58900FCF798
:10495000B7FB0022034B013858609A6005321A6099
:1049600010BDC04610E000E0014B18607047C04623
:1049700094040020054B064A998811805988054AFD
:1049800011801A88044B1A807047C046E407002043
:10499000D2060020D60600203C0600200321074A4C
:1049A000074B9360074BD36053681B0C1B040B43EE
:1049B0005360136802390B431360704708000240CC
:1049C00040240140E40700200023124A82B00193F2
:1049D00093681149194080231B060B439360936829
:1049E000002BFCDB01230193019B002B05D0019BD5
:1049F000013B0193019B002BF9D1064A06499368BC
:104A00000B4001210B43936013681942FCD002B0A4
:104A10007047C04600240140E8FFFF7FF0B5C6465E
:104A200000B592B01022002102A801F03CFB142234
:104A3000002106A801F037FB102200210EA801F08A
:104A400032FB8020454B8000996990240143996195
:104A500080219A69890202400192019A5A69E4050B
:104A60000A435A615B6908220B400093009B0323B1
:104A70000CA920000C920D93FFF75EFC402203234B
:104A80000C920D9300230CA9200098461093FFF779
:104A900053FC334B33491A6840200A401A601A68A5
:104AA000314908250A4020211A601A682F4C0A4310
:104AB0001A601A68603182431A601A6800260A4335
:104AC0001A601A682A4900271140802252000A43BE
:104AD0001A601A68274911408022D2000A431A60DE
:104AE000A36A25490343A362A36A20002B43A36260
:104AF0008023A26A5B021343A3620B681F4A1A4019
:104B000080231B04134380220B600023120602A99A
:104B10000292039304960597FFF7DCFB0022012322
:104B200008920993434606A920000A930696079720
:104B3000FFF7EAFB04220721E3689343E36063691C
:104B40008B4301390B43636163689343636063681C
:104B5000AB43636012B080BCB846F0BD00100240A9
:104B600008000240EFBFFFFFFFCFFFFF002401401E
:104B7000FFFCFFFFFFF3FFFF08270140FFFF3FFEA1
:104B800000200221164B1870164B1A690A431A614D
:104B90001A698A431A614122134B01399A61373AE3
:104BA0001A62124A12789A62114ADA625A690A4300
:104BB0005A6158620F4A1048D060104890601048FF
:104BC000007850600F4810608022D868920002433D
:104BD000DA601A6A0A431A621A680A431A6070474E
:104BE000EC07002000100240000400408604002072
:104BF000FFFF000044000240F007002034040040A2
:104C0000820400208B090000012210B502241848FC
:104C1000184B02701969214319611969A14319617F
:104C20006021154B154C99615D3919621449097859
:104C300099623D21D9625969114359611149CC608A
:104C4000114C8C6040781730486010480860802113
:104C5000D86889000143D960196A1143196280211B
:104C6000586C09020143596419680A431A6010BD5F
:104C7000EC07002000100240000400400005002066
:104C8000D407002044000240340400409B09000087
:104C90001020024B1B6918407047C04600040048B2
:104CA0000449054ACB681A4080235B001343CB605C
:104CB0007047C04600040048FFFCFFFF074A084B4E
:104CC000944680221868074BD2011B686344DB00BE
:104CD0009A400E331040D840C0B27047E4FFFEBF88
:104CE0001C00014088040020044B05491A680A4052
:104CF0001A60802292035A617047C0460004014046
:104D0000FFFFDFFF8023034A9B0311680B431360FF
:104D10007047C04600040140C8230D4A5B0012687A
:104D20009A420ED204210B4A13688B4313600A4B3C
:104D30001B785A425A41094952055B058A60CB608B
:104D400070470421034A13680B431360EFE7C04622
:104D5000440600201C000140120100200004014014
:104D6000F0B54746CE4680B585B016006A46CB0FF3
:104D70005B185B1098465B000733DB08DB00D31A37
:104D800000AF9D466D460C0081464246002128003A
:104D900001F089F9012C0BDD4846002341780278A7
:104DA00009025C000A4301332A5302309845F5DCBE
:104DB000434601212C4A7B60D3681942FCD1136918
:104DC0001B0604D5294B196851605B685360B30515
:104DD00017D10221244A13690B43136156611369E9
:104DE0003E310B4313613F39D3681942FCD1202374
:104DF000D1680B4200D0D36002211B4A13698B4358
:104E000013610023BB60FB60FB687A689A421FD97C
:104E10000120202414490B6903430B61FA68BB6825
:104E20005200525B9B191A80CB681842FCD1CB68A8
:104E30001C4200D0CC600B6983430B61BB6802331A
:104E4000BB60FB680133FB60FA687B689A42E2D37F
:104E50008021BD46044A13690B43136105B0C0BCF1
:104E6000B946B046F0BDC046002002408C04002088
:104E700070B5002A2BDD040003230C4323405C4261
:104E8000634102244D1C451BAC42A44164421C42B8
:104E90001ED0531E082B1BD90B009408A4006418C5
:104EA000451A1E68EE500433A342FAD103241300BE
:104EB000A34314420BD0CC5CC4545C1CA24206DD5C
:104EC0000D5D023305559A4201DDCA5CC25470BDC6
:104ED0008A18451A0B786B5401319142FAD1F6E7E2
:104EE00000B51B4B1B4883B01B4A9A1802CB1160BC
:104EF0008342F9D101230320184A91691943916132
:104F0000926913400193019B154B19688143196005
:104F1000FA211A68890002431A60124B1868FCF7DC
:104F2000CFF8802301385B04984200D3FEE7C0210C
:104F30000D4A090650600D48036A1B021B0A0B4309
:104F40000362002393600733136062B603B000BDB1
:104F500000100008C010000800F0FF170010024009
:104F6000000001409404002010E000E000ED00E0AB
:104F70000121334A10B513688B430B431360136848
:104F8000304A13680B431360013113681942FCD097
:104F9000F82113688B4378390B431360536B7F39C7
:104FA0000B435363274A0131536B1942FCD0F8215C
:104FB000536B8B4378390B435363536A7F390B43ED
:104FC0005362204A0131536A1942FCD053681E498A
:104FD0001940A0239B030B430F215360D36A8B43DB
:104FE000D362802311685B040B4380211360154A50
:104FF000890413680B42FCD0F0215368114C8B4399
:105000005360536811490B400321536053688B432D
:1050100001390B4353600C2263681340082BFBD10A
:105020000B48FFF791FC0A48FFF79EFC0422636BD4
:1050300093436363236B013A9343236310BDC046DC
:105040000020024000100240FFFFC2FFFFF8FFFFF8
:10505000006CDC02064B074A1A60074A1A600222FB
:105060005A60FA2212019A60044A1A607047C046D8
:1050700000300040CCCC000055550000AAAA00002A
:10508000F0B5DE4657464E464546E0B59DB0142283
:10509000002103A801F007F82022002114A801F044
:1050A00002F81822002108A800F0FDFF18220021B4
:1050B0000EA800F0F8FF80227D4D1201AB697D4CF7
:1050C0001343AB61AB6903A913400293029B7A4B74
:1050D000200092460593FFF75FFA8022082123689B
:1050E000002613432360A368744A00271340A3607B
:1050F000734B60229946A3698B460B43A36100233F
:105100001492159314AB1A002000073916961797BE
:10511000189619971A961B97FFF788FA042150469C
:10512000A3698B43A361A3690C310343A3610023EB
:1051300098461593169314AB1A002000FFF776FAE1
:10514000A36960485A460340A3614B465B688021CF
:1051500013434A46536043461593169314AB1A0003
:1051600020004900FFF762FA4B4604215B682000EB
:105170008B4349464B604B6851460B4349464B6055
:10518000434680211593169314AB1A004901FFF78B
:105190004DFA4B46494670225B684A4803404B60D3
:1051A00063682C2193436360A36810329343A36028
:1051B0006A46434652180A932D3313706B46424693
:1051C000DA8580220023920108A920000C920D9319
:1051D00008960997FFF732FB80216A6989020A4322
:1051E0006A616B6900240B4080210193019B6A690D
:1051F000C9020A436A616B6902220B400093009B5B
:10520000022302250E920F932F4B0EA998461800E9
:105210001096119712941395FFF78EF8012202232E
:105220000EA940460E920F93109611971294139563
:10523000FFF782F8802202230E920F939023DB0562
:105240000EA9180098461096119712941395FFF71F
:1052500073F880220223D2000EA940460E920F93CB
:105260001096119712941395FFF766F88022022387
:1052700092000EA940460E920F9310961197129429
:105280001395FFF759F880220223520040460EA9D9
:105290000E920F931096119712941395FFF74CF8F6
:1052A0001DB0F0BCBB46B246A946A046F0BDC04604
:1052B00000100240002C0140CF070000F8BFFFFFA4
:1052C000182C0140FFFBFFFF0004004800B589B027
:1052D0000C22002104A800F0E6FE0222174B184819
:1052E000D9691143D961D9690A4080210192019A93
:1052F0005A69C9020A435A615B6910220B40009344
:10530000009B022302920393012302A90793FFF754
:1053100013F8C22080210B4A80001358C9051B02D4
:105320001B0A0B43135080231B0113600022064B02
:105330009A623F32DA6209B000BDC04600100240F6
:105340000004004800E100E000040040F0B5DE4643
:1053500057464E464546E0B591B0FFF709FE01229B
:1053600080211027684C9346A36949051343A36124
:10537000A369802613400793079BE269B6020A439C
:10538000E261E369614A0B400693069B1368604D36
:105390003B43136080226369D202334363616369D4
:1053A000904633400493049B63695A4913436361F5
:1053B000636913400593059B9023DB059946802381
:1053C0004A461B0293625A466369134363616369E9
:1053D0001340C22209939200099BAB5819408023C5
:1053E000DB030B43AB5080238021DB002B60AB58E9
:1053F000C9051B021B0A0B43AB5080231B012B600A
:105400008A46FFF73DFE5A46E36951461343E3617E
:10541000E3690CA813400393039B17239B46534651
:105420005A469A623C4B073ACB62002100F03BFEA1
:10543000636902223343636163690AA933400893B5
:10544000089B032348460A920B93FEF775FF202220
:1054500003230A920B9300230AA948460E93FEF7F2
:105460006BFFC322FF219200AB5858468B43AB50D1
:1054700080235B012B60E26901310A43E261E36949
:10548000C4220B400A930A9BFA2324491B01886219
:105490009200CB62AB5869301B021B0AAB508023D1
:1054A0001B032B600B6803430B60E3691C493B4300
:1054B000E361E3691F400297029BAB581940C02388
:1054C0001B020B43AB5064212F22164B2E609A62B5
:1054D000D9624146A3690B43A361A3690B400193C1
:1054E000019B114B9A620C4ADA621A6882431A6075
:1054F000FFF7ECFE00F0EAFB11B0F0BCBB46B24691
:10550000A946A046F0BDC04600100240002002405F
:1055100000E100E0FFFF00FFFFFF0000002000406F
:10552000FF00FFFF0010004000480140014B58639E
:105530007047C046002C0140014B98637047C0463D
:10554000002C0140014BD8637047C046002C01403D
:105550000121024A53690B4353617047002C0140FB
:105560000022024B9A625A627047C0460004004013
:1055700070B501241021564B80251A6A2D02224352
:105580001A621A6A86B00A431A628022196A5200A5
:105590000A4304211A621A6A03A80A431A621A6AA1
:1055A0003C310A431A628022196AD2000A431A6205
:1055B0008022196A52010A431A6264221A641A6824
:1055C000002122431A605A6C90262A435A645A6971
:1055D000F60522435A613F4B1A6A22431A621A683F
:1055E00022431A600C2200F05EFD80220123120289
:1055F000009201930323694630000293FEF79CFE5C
:1056000014220021B56101A800F04DFD2023694658
:10561000314800930494FEF78FFE304B1A68224302
:105620001A605A6922435A61DA682243DA60DA68FA
:10563000A243DA602A4B1A6822431A605A6922434D
:105640005A618023DB051A6822431A605A69224393
:105650005A61244B1A6822431A605A6922435A61DC
:10566000DA682243DA60FFF7D9F9FFF797F9FFF715
:10567000ABF900231C4A009313681C491C431C4BC4
:1056800014601868FBF71CFD0301181A0A2180003A
:10569000FBF716FD0090009B002B05D0009B013B03
:1056A0000093009B002BF9D1C1208021114A80007A
:1056B000135809061B021B0A0B4313508023136067
:1056C00080230D4A1B0211680B43136006B070BDA6
:1056D000002C01400004004000040048002000406D
:1056E00000480140001000401C000140400D030034
:1056F0009404002000E100E0000401409023DB0559
:105700001A6819490C201140802252030A431A607A
:105710008022D2009A621A68144911408022D20273
:105720000A431A60802292009A621A681049114056
:10573000802252020A431A6080220E4952009A6265
:105740000A688243043802430A600A6805388243C3
:10575000013802430A601A68074911408022120288
:105760000A431A607047C046FFFFCFFFFFFFF3FFF9
:10577000FFFFFCFF00040048FF3FFFFF0C211C4A15
:105780001C4813688B4308390B4313600223936250
:105790009023DB0519680840802149030143196003
:1057A00080210320C90099621168814302380143B6
:1057B000116090621A68104911408022D2020A4397
:1057C0001A60802292009A621A680C491140802265
:1057D000D2010A431A6080229A621A68084911406D
:1057E000802252020A431A60802252009A62704755
:1057F00000040048FFFFCFFFFFFFF3FFFF3FFFFF65
:10580000FFFFFCFF10B5062843D8D24B80001B5881
:105810009F460321D04AD14813688B4302390B437A
:10582000136090239162DB05196808408021C9024A
:10583000014319608021890099621968C8480840AD
:105840008021C90101431960802199611968C54807
:105850000840802149020143196080214900996272
:10586000C14B1B7D002B00D049E11368F4398B43F9
:1058700008390B431360022393629021C9050B681A
:10588000BA4A1A4080239B03134341220B60B84B52
:105890001A6010BD9023DB051A68B149032011403E
:1058A0008022D2010A431A6080229A621A68AD49A6
:1058B0001140802252020A431A60802252009A62EA
:1058C000A54A11688143023801431160906119684B
:1058D000A24808408021C902014319608021890043
:1058E0009962A14B1B7D002B00D015E11368F5399F
:1058F000FF398B4308390B431360022393629021D5
:10590000C9050B68994A1A4080239B03134351220F
:105910000B60974B1A60BCE70C218F4A93481368C1
:105920008B4308390B431360022393629023DB05FA
:105930001968084080214903014319608021032030
:10594000C900996211688143023801431160906176
:105950001A68824911408022D2020A431A608022CA
:1059600092009A62804A127D002A00D0E1E01A6813
:105970007B4911408022D2010A431A6080229A6238
:105980009021C9050B68774A1A4080239B02134374
:1059900061220B60764B1A607BE79023DB051A6867
:1059A0006F490C2011408022D2010A431A608022E4
:1059B0009A621A686B4902241140802252020A43FB
:1059C0001A60802252009A62634A11688143083843
:1059D00001431160946119686448084080214903BB
:1059E000014319608021C90099625F4B1B7D002B28
:1059F00000D098E0032113688B4302390B431360F6
:105A000091629021C9050B68544A1A4080231B03F8
:105A10007CE70321504A514813688B4302390B43FA
:105A2000136090239162DB05196808408021C90248
:105A30000143196080210C2089009962116881431B
:105A4000083801431160022191611A6847491140E9
:105A5000802252030A431A608022D2009A62424A8C
:105A6000127D002A6DD11A683D4911408022D20171
:105A70000A431A6080229A629021C9050B68394A4C
:105A80001A4080239B02FFE60C21334A022413684C
:105A900036488B4308390B43136090239462DB052F
:105AA0001968084080214903014319608021C90019
:105AB000996219682A4808408021C9010143196088
:105AC00080219961196827480840802149020143D3
:105AD0001960802149009962234B1B7D002B15D151
:105AE0001368FD398B4302390B4313609162902197
:105AF000C9050B68194A1A4080231B0347E70C218C
:105B000013688B4304390B431360B6E60321136813
:105B10008B431C431460EAE70C2113688B43043960
:105B20000B431360EBE6032113688B43234313609D
:105B300067E71A680A491140802212020A431A6074
:105B40001EE71A6806491140802212020A431A60B1
:105B500092E7C0469061000800040048FFFFF3FF91
:105B6000FF3FFFFFFFFFFCFF04070020FFFFCFFF09
:105B70001C0001400C211C4A1C4813688B43083947
:105B80000B431360022393619023DB0519680840DF
:105B9000802149030143196080210320C9009962D3
:105BA0001168814302380143116090611A681049FD
:105BB00011408022D2020A431A60802292009A6227
:105BC0001A680C4911408022D2010A431A608022CF
:105BD0009A611A6808491140802252020A431A60E9
:105BE000802252009A62704700040048FFFFCFFFF6
:105BF000FFFFF3FFFF3FFFFFFFFFFCFF2D4B1B7D70
:105C0000002B32D10C212C4A2C4813688B430839C5
:105C10000B431360022393629023DB05196808404D
:105C200080218903014303201960116881430238F0
:105C30000143116090621A682149114080221203C9
:105C40000A431A601A681F4911408022D2010A4390
:105C50001A6080229A629021C9050B681A4A1A407C
:105C600080239B0213430B6070470C221249134898
:105C70000B689343043A13430B609023DB051A68C7
:105C8000104080229203024303201A600A68824374
:105C9000013802430A601A68094911408022120340
:105CA0000A431A601A6807491140802212020A4307
:105CB0001A60D0E70407002000040048FFFFCFFF70
:105CC000FFFFF3FFFF3FFFFFFFFFFCFF30B50025A5
:105CD00091B01C22002108A800F0E5F980203E4B7D
:105CE00005959969C0010143996180219A69C902AA
:105CF00002400192019A5A69384C0A435A615B6921
:105D000040220B400093009B022302920393032343
:105D100001220493002302A9314806920793FEF75B
:105D20000BFB23682F4A08A913401022134323605A
:105D300023682D4A13402022236023689343236065
:105D40002368203293432360236840321343236047
:105D50002368264A134023602368254A1340E12222
:105D600023600023520208920993002200230A9222
:105D70000B93082200230E951E4D0C920D932800C4
:105D8000FEF786FDAB681C4A1C481340AB606B688D
:105D90001B4A1C4913402A226B60AB689343AB60DB
:105DA0002B68293A13432B602368174A0340102BB2
:105DB0000FD0A160E2603121084A53681B0C1B041C
:105DC0000B4353600B4A4F3193680B43936011B000
:105DD00030BDE160A260EEE7001002401C0002400E
:105DE00000040048EFBFFFFFFFCFFFFFFFFCFFFFF6
:105DF000FFF3FFFF00380140FFFBFFFF10400000F2
:105E0000FFB7FFFF940500202838014070B50C242F
:105E1000082301260B490A68A2431A430A600A4A6A
:105E20001568B543156053681B0C1B04034353608E
:105E300013683343136004220B68A34313430B60BE
:105E400070BDC046003801401C0002407047C0468B
:105E5000FEE7C0467047C0467047C0467047C04620
:105E600010B5274B1B78002B03D0264B1B78002B3B
:105E70002DD18022244BD201196811420BD0234925
:105E80000978002907D00A242148016AA143083C67
:105E9000214301625A601C4B1A68920406D41A68A6
:105EA000120402D5802252015A6010BD80220121C5
:105EB00052015A60174A13688B431360FDF732FF93
:105EC0008023154A1B0211690B431361EDE7802300
:105ED0000D4A5B0151680B43536000220D4B1A6061
:105EE0000E4B1B78002B05D0FEF74AFE02220C4B0E
:105EF0001A70E5E7FEF788FE0122094B1A70DFE70A
:105F000080060020CD06002000000240CB050020C6
:105F1000000400404400024000040140EC0700205F
:105F20009406002070B580250C4CAD0363692B42AC
:105F30000AD08023DB055A6A094B1B685B089A422A
:105F400003D96561FCF714F870BDFEF7B7FE054B89
:105F50001B788342F8D16561F6E7C0460004014032
:105F60004406002012010020054B10B51A69D20723
:105F700000D410BD022252421A61FCF7A9FDF8E7D5
:105F800000100040022210B5024B52421A61FBF78A
:105F9000A7FF10BD002000407047C0467047C046B4
:105FA000074B1A69920702D5032252421A61044B29
:105FB0001A69D20702D5022252421A617047C046BE
:105FC00000400140074B1A69920702D50322524252
:105FD0001A61044B1A69D20702D5022252421A6191
:105FE0007047C04600040040084B10B51A6892077D
:105FF00006D40822054B19680A4200D05A6010BD29
:1060000001225A60FEF7B6FCF3E7C04600000240EA
:10601000074B1A69920702D5032252421A61044BB8
:106020001A69D20702D5022252421A617047C0464D
:10603000002C0140802210B5024B12025A61FCF77D
:106040002FFC10BD000401407047C04670B500260B
:106050000C4D0D4C641BA410A64209D1002600F083
:106060002BF80A4D0A4C641BA410A64205D170BD42
:10607000B300EB5898470136EEE7B300EB5898476A
:106080000136F2E7C4610008C4610008C461000879
:10609000C8610008002310B59A4200D110BDCC5C45
:1060A000C4540133F8E703008218934200D17047CB
:1060B00019700133F9E70000F8B5C046F8BC08BC18
:1060C0009E467047F8B5C046F8BC08BC9E4670476F
:1060D000B8170008B21700086A180008621800080C
:1060E0005A180008521800084A1800083C180008FE
:1060F0002E180008261800081E180008B8170008F7
:106100000E180008F2170008E4170008B817000876
:10611000B8170008B8170008B8170008B817000823
:10612000D6170008CC170008B8170008B8170008E1
:10613000B8170008B8170008B8170008B817000803
:10614000B8170008B8170008B8170008B8170008F3
:10615000B8170008B8170008B8170008B8170008E3
:10616000C4170008191B12131D1516171A090A0B5C
:106170001E0D0E0F222400081E2400089027000880
:106180008A270008842700081E2400083200000027
:10619000925800089458000818590008125A00082C
:1061A0009A590008885A0008125800080000000098
:1061B00000000000010203040607080900000000B7
:0461C00001020304D1
:0461C400D5130008E7
:0461C800AD1300080B
:1061CC00007C0008CF07CF072D007800C800D0074F
:1061DC004C046C07DC0564004A012D0090010000A2
:1061EC00000000009001000000000000E803000027
:1061FC000000000000000000000000000000000093
:10620C00204E0000A086010002010101140046008E
:10621C00DC05010201010100D430000005010A0077
:10622C00E803000010270000000000000A00000036
:10623C0000000000640000000000000000000000EE
:10624C0000000000000000001027000050C30000F8
:10625C00B400D007D0072D001E0303006419000002
:10626C0000000000010000000000000032000000EF
:10627C000000000000000000000000000000000012
:10628C001027000050C3000002002D00D200D007E0
:10629C0064000500E8030000B400B700BA00BD00BC
:1062AC00C100C400C700CA00CD00D000D300D60086
:1062BC00D900DC00E000E300E600E900EC00EF00B0
:1062CC00F200F500F700FA00FD00000103010601E1
:1062DC0009010B010E0111011301160119011B011A
:1062EC001E0120012301250128012A012C012F0167
:1062FC0031013301350138013A013C013E014001C5
:10630C00420144014601470149014B014D014E0137
:10631C0050015101530154015601570158015A01C2
:10632C005B015C015D015E015F0160016101620165
:10633C006301630164016501650166016601670122
:10634C0067016701680168016801680168016801FB
:10635C0068016801680167016701670166016601F0
:10636C006501650164016301630162016101600102
:10637C005F015E015D015C015B015A01580157012F
:10638C00560154015301510150014E014D014B0175
:10639C004901470146014401420140013E013C01D3
:1063AC003A0138013501330131012F012C012A0149
:1063BC0028012501230120011E011B0119011601D1
:1063CC00130111010E010B0109010601030100016A
:1063DC00FD00FA00F700F500F200EF00EC00E90018
:1063EC00E600E300E000DC00D900D600D300D000CA
:1063FC00CD00CA00C700C400C100BD00BA00B70080
:10640C00B400B100AE00AB00A700A400A1009E0038
:10641C009B009800950092008F008C0088008500EE
:10642C0082007F007C0079007600730071006E00A2
:10643C006B006800650062005F005D005A00570049
:10644C00550052004F004D004A00480045004300E3
:10645C0040003E003C00390037003500330030006E
:10646C002E002C002A0028002600240022002100E7
:10647C001F001D001B001A00180017001500140047
:10648C001200110010000E000D000C000B000A0091
:10649C0009000800070006000500050004000300C1
:1064AC0003000200020001000100010000000000D6
:1064BC0000000000000000000000000000000100CF
:1064CC0001000100020002000300030004000500AB
:1064DC00050006000700080009000A000B000C006C
:1064EC000D000E0010001100120014001500170012
:1064FC0018001A001B001D001F00210022002400A0
:10650C00260028002A002C002E0030003300350015
:10651C00370039003C003E00400043004500480075
:10652C004A004D004F005200550057005A005D00C4
:10653C005F006200650068006B006E007100730004
:10654C00760079007C007F008200850088008C003A
:10655C008F009200950098009B009E00A100A40063
:10656C00A700AB00AE00B1000614013278004B005E
:10657C0001005A005A001E0002010000FA0000003F
:10658C00204E200050C308001C0001402301674529
:08659C00AB89EFCD00127A007B
:107BE00041524B5F34494E315F52414D505F4630F8
:107BF000353100000000000000000000000000001F
:04000005080042812C
:00000001FF
