:020000040800F2
:1010000000200020814300084D5F0008515F000868
:1010100000000000000000000000000000000000D0
:10102000000000000000000000000000555F000804
:101030000000000000000000595F00085D5F00082C
:10104000D1430008D1430008D1430008D143000830
:10105000D1430008D1430008D1430008356100089E
:10106000D1430008E9600008D1430008615F00082F
:101070002560000811610008D1430008D143000831
:10108000C560000869600008000000008560000875
:10109000A160000899600008D1430008D14300080E
:1010A000D1430008D1430008D14300089D600008E7
:1010B000D143000800000000D143000800000000F8
:1010C000002243088B4274D303098B425FD3030A87
:1010D0008B4244D3030B8B4228D3030C8B420DD39A
:1010E000FF22090212BA030C8B4202D31212090228
:1010F00065D0030B8B4219D300E0090AC30B8B4266
:1011000001D3CB03C01A5241830B8B4201D38B0313
:10111000C01A5241430B8B4201D34B03C01A5241B8
:10112000030B8B4201D30B03C01A5241C30A8B42FB
:1011300001D3CB02C01A5241830A8B4201D38B02E6
:10114000C01A5241430A8B4201D34B02C01A52418A
:10115000030A8B4201D30B02C01A5241CDD2C309FC
:101160008B4201D3CB01C01A524183098B4201D378
:101170008B01C01A524143098B4201D34B01C01A63
:10118000524103098B4201D30B01C01A5241C308DB
:101190008B4201D3CB00C01A524183088B4201D34A
:1011A0008B00C01A524143088B4201D34B00C01A36
:1011B0005241411A00D20146524110467047FFE7A2
:1011C00001B5002000F0F0F802BDC0460029F7D0BC
:1011D00076E7704703460B437FD4002243088B42D7
:1011E00074D303098B425FD3030A8B4244D3030BAE
:1011F0008B4228D3030C8B420DD3FF22090212BA73
:10120000030C8B4202D31212090265D0030B8B42EE
:1012100019D300E0090AC30B8B4201D3CB03C01AD8
:101220005241830B8B4201D38B03C01A5241430BB3
:101230008B4201D34B03C01A5241030B8B4201D3A3
:101240000B03C01A5241C30A8B4201D3CB02C01A0E
:101250005241830A8B4201D38B02C01A5241430A86
:101260008B4201D34B02C01A5241030A8B4201D375
:101270000B02C01A5241CDD2C3098B4201D3CB011C
:10128000C01A524183098B4201D38B01C01A5241CB
:1012900043098B4201D34B01C01A524103098B42CF
:1012A00001D30B01C01A5241C3088B4201D3CB00BA
:1012B000C01A524183088B4201D38B00C01A52419D
:1012C00043088B4201D34B00C01A5241411A00D24D
:1012D00001465241104670475DE0CA0F00D04942B6
:1012E000031000D34042534000229C4603098B4226
:1012F0002DD3030A8B4212D3FC22890112BA030AAE
:101300008B420CD3890192118B4208D3890192112F
:101310008B4204D389013AD0921100E08909C309B4
:101320008B4201D3CB01C01A524183098B4201D3B6
:101330008B01C01A524143098B4201D34B01C01AA1
:10134000524103098B4201D30B01C01A5241C30819
:101350008B4201D3CB00C01A524183088B4201D388
:101360008B00C01A5241D9D243088B4201D34B00A3
:10137000C01A5241411A00D20146634652415B10E5
:10138000104601D34042002B00D5494270476346C6
:101390005B1000D3404201B5002000F005F802BD0B
:1013A0000029F8D016E770477047C04610B5064CC4
:1013B0002378002B07D1054B002B02D0044800E016
:1013C00000BF0123237010BD0409002000000000AD
:1013D000B8610008044B10B5002B03D00349044842
:1013E00000E000BF10BDC04600000000080900205A
:1013F000B8610008F0B5DE46454657464E46D74B25
:10140000E0B5DA6F188892B2D54D111AD54C89B271
:101410002D8893464A098BB0218062808D4200D38B
:10142000C8E0D14D2D888D4200D8C3E00021CF4DBA
:101430009E6A29805968091A89B28A4289414942BB
:10144000986807916160D968081A80B28242804129
:1014500041428C461869A16059690F1ABFB2BA425D
:10146000BF41794298690691E160D969081A80B252
:1014700082428041596A4542186A0595081A80B22D
:1014800082428041D96A404204906061881B80B2E8
:1014900082428041596B4642186B0396081A80B20B
:1014A00082428041D96BA6614642986B2561081A39
:1014B00080B28242804140420296E6610190206201
:1014C000596C1D6C1E6D481B80B282428041DD6CE0
:1014D0004142986C1F6E281A5D6D80B2AD1BADB293
:1014E000AA42AD416D429E6DAA46E562DD6D824223
:1014F0008041AE1B5D6EB6B2ED1BADB2AA42AD41EE
:101500006F4208979D6E6763DF6EB242B6417F1BE4
:10151000BFB2BA42BF417F421D6FB946A7635F6F3A
:101520009B6F7F1BBFB2BA42BF417F42B846E763A1
:101530005F46FB1A9BB2079D9A429241049B099118
:101540006B404B4061626146DF00039B059D594043
:101550000B004042019943404D4076429B003B4383
:1015600026636E4006991E43029B52424B405146F1
:101570004B405B001E434B462264A062089F9B00C9
:10158000FD001D43434615435A00794B15439946C8
:101590001B78002B15D0774B984643461B78002BC1
:1015A00014D1B54216D05422A35A0133A352482372
:1015B0000022E2540BB0F0BCBB46B246A946A0469E
:1015C000F0BD6C4B98461B78002B62D00F235D1B3F
:1015D000EDB2E6E70023654A13804622A35A0133A1
:1015E000A352236B012B01D1634A1370624651024F
:1015F0005246079B40009B020B431343069A170277
:10160000059A3B43D701049A3B439701039A3B4316
:1016100052011343029A12011343019AD200134359
:10162000099A9200134348221843A35C002B1FD150
:101630002F2852DD4D22A25C002A00D087E04F4DBA
:1016400028780028B6D04E4B1B78002BB2D14B46E1
:101650001B78002BAED05023E25C824200D195E093
:10166000E054052800D89BE04E230122E254A1E774
:10167000012B67D0022B60D0032B9BD1252899D159
:101680004C214733E35A605C3E49C8540023A354BD
:1016900090E703F07DFB002828D04422A35C0133AF
:1016A000DBB2A354642B21D9012342461370636833
:1016B000A06A0793A3689C46E36806932369059391
:1016C00063690493A3690393E3690293236A019313
:1016D000636A0993E36A9A4678E7421E2E2A1BD86A
:1016E000294A264DC0B213802870ACE76368A06A0F
:1016F0000793A3689C46E36806932369059363698F
:101700000493A3690393E3690293236A0193636AD1
:101710000993E36A9A4640E7002890D14F23E35C9F
:10172000012B01D14C33E05400210023164A1180D3
:10173000124A13704E22A3543CE74A33E054493B0B
:10174000A35437E74933E052483BA35432E70E4AEB
:1017500010800A4A13704E22A3542BE7040800207D
:10176000F00700209804002084040020C006002018
:101770008C060020DD060020BA060020F8060020B6
:10178000740600201807002076060020052807D9D7
:101790004E22A35C0133DBB2A354052B00D809E72A
:1017A0004E230022E254242806D8314B80001B58D7
:1017B0009F4601222F4B1A702A782F4B1A70002354
:1017C0002B70F7E648230122E254F5E72B4B5A7CB5
:1017D0002B4B1A70F0E7294B5A7C01239B1A284A9D
:1017E0001370E9E751230022E25402330132E2543C
:1017F000E2E701235122A354D218A3544E33E35CF1
:10180000012BD9D1053AA354D6E700F0ABFB1B4B13
:10181000184A5B7C01331370CEE70122174B9A7490
:10182000CAE70022154B9A74C6E70122134B5A747B
:101830000022134B1A70BFE70022104B5A74104B52
:1018400001321A70B8E701220E4B1A70B4E7052274
:10185000084B1A70B0E70422064B1A70ACE703225B
:10186000044B1A70A8E70222024B1A70A4E7C04684
:10187000D061000892060020F90600201807002019
:1018800014010020E2060020F8B551237C4DEB5CEA
:10189000002B30D15233EB5C002B38D05223002286
:1018A000EA540133EB5C002B00D1B5E05323002256
:1018B000744CEA54744B2A00012158329171402231
:1018C0006B66AC660125714B714F1E78731C9B00D3
:1018D000B600FA50B81941682D3A2B0093402340C6
:1018E000D34089095940890181600430013AF4D21A
:1018F0000023BB51F8BD2C005834A6795827002E80
:1019000048D00023A3715233EB5C002BC6D1532384
:10191000EB5C002BCAD15F4B1B78002B00D17EE023
:101920000100C313012B7BD08313012B00D19FE057
:101930004313012B00D199E00313012B00D193E055
:10194000C312012B00D195E08312012B00D195E049
:101950004312012B00D18FE000232B66020A0309FA
:1019600053400F2258401300090183430B434A4957
:1019700018130C5C10001840085CE40304431812B0
:101980001040085C80020443181102408A5C520136
:10199000144394E7A3886288E95B01330132013183
:1019A0009BB292B289B2A3806280E953272B3FD8C1
:1019B000C72A4AD9394B19211888FFF781FBFF2321
:1019C00003408020C000184366805223EB5C002B4C
:1019D00000D063E75333EB5C002B00D066E7020ACC
:1019E000030953400F221100434099430B000001AB
:1019F00029490343000B0C5C10001840085CE40309
:101A0000044318121040085C80020443181102407D
:101A10008A5C520114434EE7214C224B4BE722498A
:101A20000F23083B19415A0211432B6688B295E7F0
:101A30001E4B32210020185EFFF7CCFBFF23034032
:101A4000C020C0001843A680BFE7C72906D9802060
:101A5000174B80001B78EE531843B6E75223EB5C1C
:101A6000002B00D01AE752E70C23DAE70D23D8E762
:101A70000E23D6E70B23D4E70923D2E70A23D0E7C6
:101A800098040020FB3D0700F1EF00000108002052
:101A9000080500207406002064620008B6060020D5
:101AA0003B67070001E00000FFFF0000BC060020CC
:101AB000DE06002070B50600049D8E420CDC0FE0AF
:101AC000AB420FD08C18581964104010A14206D0B8
:101AD000A64209DC050022009642F1DB280070BD19
:101AE0009642FBDA1800FAE70300611CE5E7C046FE
:101AF0000300401A00D5C81A7047C046044980B296
:101B00004A6A92B24B6A9B1A9BB28342FAD37047DD
:101B10000048014010B5441E00280BD0FA200649A9
:101B200080004A6A92B24B6A9B1A9BB28342FAD3F4
:101B3000013CF6D210BDC0460048014070B504001B
:101B40000D1E5AD000220020072128E043B2C6B261
:101B5000002B2FDB7300D8B25BB2002B30DB4300CD
:101B6000D8B25BB2002B31DB4300D8B25BB2002BA2
:101B700032DB4300D8B25BB2002B33DB4300D8B278
:101B80005BB2002B34DB4300D8B25BB24000002BC9
:101B900000DA48400132D3B2C0B29D422ED9A35CD4
:101BA000584043B24000002BD0DA484043B2C6B29E
:101BB000002BCFDA7000484043B2C0B2002BCEDA1F
:101BC0004000484043B2C0B2002BCDDA400048404C
:101BD00043B2C0B2002BCCDA4000484043B2C0B29E
:101BE000002BCBDA4000484043B2C0B2002BCADA27
:101BF0004000484043B2C0B2C8E7002070BDC046B4
:101C000070B504AC25880A4C2070A170080A2271B6
:101C1000110AA3711A0A2B0A6070E170257209215A
:101C200020006271E371FFF789FF607270BDC046EA
:101C30009C05002010B5064C30222000054904F018
:101C4000A9FA30212000FFF779FF3023E05410BDBE
:101C50009C05002018070020F0B5C64600B5B54C1D
:101C6000B54DC0222000296882B003F081F9637865
:101C7000022B00D81CE1A679731EDBB29846E37DE7
:101C8000AE4F2A2B52D81A1F052A4FD9032B51D9F0
:101C90000A3BDBB2202B52D9207E0300083BDBB28B
:101CA000882B53D8642306215843FFF793FA010089
:101CB000A348FFF78FFAA34BA880D8624346312B85
:101CC0004BD8B300F3185B001A009132FF3292B286
:101CD0002B81617E08003238642801D85B189BB2E2
:101CE000AA8128226B81A37E022053431433EB8107
:101CF00002F060F96378002B37D1EE89FA239B005C
:101D000098469621F53BFF3B0093300043468E4AB0
:101D10004900FFF7CFFE5023E852A37C002B20D0D0
:101D20004346BB6002B080BCB846F0BD10223A709A
:101D3000032BADD8DB00DBB21A000A32E2753B7030
:101D4000207E0300083BDBB2882BABD97F4B7D4A5A
:101D5000EB80D3624346312BB3D9C8220023520013
:101D6000B6E7FA23DB00BB60DCE7A07F0B2800D8D6
:101D7000D9E0052002F01EF92023E35C744A783391
:101D8000FF335B002B8221239446E35C714A63445A
:101D90005B006B8222239446E35C00226344AB82A7
:101DA0002323E35CAB752523E35CFA332B832723E2
:101DB000E2542832A35C053B142B01D90523A3541C
:101DC0002922A35C013B092B01D90A23A3542A230E
:101DD000E25C511E082977D90A22E2542B22A35C27
:101DE000463B462B01D9FF23A3542C23E35C013B44
:101DF000622B01D801237B702D22637A5B006B621A
:101E0000A37AAB62E37A5B00EB62A35C013B092B34
:101E100001D90523A3542E23E35C092B0BD8022BF5
:101E200000D183E03AD8002B06D0012B09D14A4AD1
:101E3000BB70137005E000230122BB70FB70464BA2
:101E40001A706079092858D809233B713F33E85448
:101E50000133E8540133E8549623EE895B009E4237
:101E600002D20022E13BEA54E17E2020FFF7B2F9E2
:101E7000642180463000FFF723F9414680B2FFF726
:101E8000A9F94C230C21E8523000FFF719F941461B
:101E900080B2FFF79FF94E23E8522FE7042BD0D1F1
:101EA000012300212D4ABB7013702B4A1170C8E723
:101EB000A02363719F3BE380294B0126A36000238D
:101EC0009846E3602374DAE653019B1A9B009B1A41
:101ED0005B006A893D3BDBB29A186A812A89AB763E
:101EE0009A182A81AA8B9A18AA83AA899A18AA8171
:101EF000144A516C0B43536470E700230A213B7171
:101F0000FFF7DEF84823EA5CC0B2904200D2E85402
:101F10004923EA5C904200D2E8544A23EA5C9042AA
:101F20009AD2E85498E702F045F825E70123FB70C0
:101F300087E7C04618070020C0000020D005002019
:101F400070330C00002C0140B80B0000CF070000DC
:101F50006B0300005E050000E5040020E70400209C
:101F60000A64006410B5034BC0211A68024802F0ED
:101F700077FF10BDC000002018070020542370B563
:101F8000274C5521E35C012B3BD0635C5A1ED2B237
:101F9000002A23D062540122224D13405222A3541E
:101FA00072B67F23EB5C002B26D062B602F034FFC2
:101FB000AA681D4BF5321968FF328A4202D25622B6
:101FC0000121A15400227C211A716A545532A25C6D
:101FD000013A52009B18A26D1A8170BD062301229E
:101FE000104D63547833EA5452227D3BA35472B6A9
:101FF0007F23EB5C002BD8D15533E05C03F082FCEF
:10200000D3E7625C0132D2B2062A04D97E22054DA2
:102010006354AB54C2E7034D62541340BEE7C0465D
:10202000C0000020D00500205006002001211D4ADC
:1020300070B5D3688B43D360FFF7A0FF1A4C1B49E0
:10204000E28AA38A2F209B188A6D5B109446634412
:10205000174D5A088A65285C002813D115489B083B
:1020600000784243920992B262839A1A5623CB5C5B
:10207000A283002B12D0236A0F4A934201D8013366
:10208000236270BD207E9B084243920992B2628314
:102090009A1A5623CB5CA283002BECD102F0B2FE3D
:1020A000E9E7C0460020004050060020C0000020A4
:1020B00018070020D00500200F270000F8B55C238A
:1020C000144DEB5C002B0DD0002452265C2703E05E
:1020D000EB5D0134A34205DD02F070FEAB5D83428F
:1020E000F6D1F8BD72B602F07FFE0B4AD38A938216
:1020F0008023DB05596AD1820021928B5962074BFC
:1021000001325962DA621961DA6801310A43DA6030
:1021100062B6E6E7C0000020500600200020004024
:10212000F0B5D6464F464646C0B5C74D82B0AB7CEB
:10213000002B2FD0C54FBA78002A00D1C1E0C44C83
:10214000C44E2623EB5C002B00D08DE18323E28C70
:10215000DB009A4200D389E21300303B9BB2FA21A4
:1021600089008B420ED25421687C775C5339091A5E
:102170008F4200D1F3E25D215B00715C9BB25B1A80
:102180002F3323852F2A09D80023002223852F33BC
:10219000E25403E0AE4CAF4EE38C238530275E2340
:1021A000E25DF35C9A4203D9AB7D002B00D008E1DD
:1021B000EF7C002F00D16DE0208D1D2800D9EDE0CF
:1021C000002363862823EB5C9900C91889008842A4
:1021D00000DBEFE02E23E35C002B55D13C33E35CC6
:1021E000002B51D0EA7C608E93009B181B012E338C
:1021F000834200DB1BE12427E35D002B00D179E360
:102200003389002A00D157E2FA22D2002833009203
:102210008921914AFFF74EFC4023E0522623EB5CD4
:10222000002B00D035E27F22884FBB54E97C628EC0
:102230008B005B181B012E339A4200DCF8E02E2A3B
:1022400006D91E23697F0B41216A8B4200D93DE2EA
:102250004023E55A81494B8AAB4202D240201D00FF
:1022600023527B78002B04D01423CB5E9D4200DDEB
:102270003BE2E06C002807DD2F2A05D97849FEF7FC
:10228000A9FF40232818E05202B0E0BCBA46B1468C
:10229000A846F0BD3423E35C002B7CD03523E35CFF
:1022A000002B00D0F8E06E49A06BFEF793FF80236F
:1022B00080B260861B01984200D28BE1664B638638
:1022C00088E72623EB5C624C002B00D182E0E38C94
:1022D000FA219A465F4E8900B37D5B0059188A4502
:1022E0001CDD6B7C98465423F05C8446404500D14D
:1022F000A4E27F23FB5C002B00D00DE12A23002207
:10230000E254FA22544B50460093D2002F23FFF799
:10231000D1FBE38C20859A46B37D5B00FA229200C4
:10232000D21A524523DD6B7C54219C46735C604677
:1023300099460123181A814500D1AFE27F23FB5C47
:10234000002B00D0E8E02A230021E1540533504659
:102350000093414BFFF7AEFBE38CFA229A46B37D24
:1023600092005B002085D21A924500DAD4E0FA226E
:102370009200944663449A4500DDCDE00023238516
:102380007F33FA5C002A00D1C6E00022FA54012211
:10239000553BE254C0E0238D63861BE71E2800D125
:1023A00010E72823EB5C9A00D218920011009042AB
:1023B00000DA8AE0284AA0230092FFF77BFB6086C0
:1023C00008E703F05BFA02F00FFD00236386663333
:1023D000E355FFE6FA231F4E9B00B27DE08C5200CE
:1023E000D118884200DC79E054226B7CB25C9A42BE
:1023F00000D1F3E1FA22184BD20000932F23FFF70C
:1024000059FBFA22B37D2085E08C5B009200D21A42
:10241000824268DCFA22920094466344834200DAE6
:102420007AE00023002223852F33E25474E0074F23
:102430004223E35C002B00D199E0052B00D993E007
:10244000084A9B00D3589F4618070020D00500205B
:1024500050060020C0000020FF07000040010020BF
:1024600010270000746200088322E38CD20093429C
:1024700057D35422687CB15C9146814200D11BE263
:102480007F22BA5C002A00D088E62A220021A154CB
:10249000CC4A944663445EE0726E336E2F21208DE9
:1024A0000092C94AFFF706FB0100C848FEF792FEFA
:1024B000E97E4908FEF78EFE238DE0862E2B00D99B
:1024C000F1E66786B766A76384E6A0231E21009322
:1024D000713BFFF7EFFA6086208D73E6FA239B00CD
:1024E0009A1A90429DDA5423F35C697C9C4601233E
:1024F0005B1A9C4500D1B5E12F2300210093B24B1C
:10250000FFF7D8FAFA22B37D2085E08C5B009200B9
:10251000D21A904200DB7DE7BB78002B00D13DE66C
:102520000FE6FA22303B9BB29200934200D390E038
:102530006A7C904654224146B05C9446533A511A04
:10254000884200D16BE17F22BA5C002A00D025E6E8
:102550002A220021A1545D22B25C5B009B1A2F331A
:1025600023851BE601F070FE42230022E2542B7DFE
:10257000002B35D14022A3522433E35C002B00D141
:10258000B7E02623EB5C002B00D18CE07F23FB5CC3
:10259000002B00D18EE0BB78002B00D1F7E1E38C5B
:1025A000FA211A00303A92B289008A4200D30CE232
:1025B00053005D22B25C9B1A44222F339BB2A3527C
:1025C000834A934200D8DFE103F054FB7F23FB5C96
:1025D00098466BE02F2800D9FCE530236386F9E5A7
:1025E0002423E35C002B00D196E0E97C7F23FB5C95
:1025F000984655233C22F35C013B5343754A128AAB
:102600009B18B42298B21BB25200934200DB83E1C4
:10261000233AFF3AA3520200B423773212B25B008E
:102620009A4200DB7EE1213BFF3BE2520200B423F1
:10263000EF3212B25B009A4200DB69E11F3BFF3BC5
:10264000E252012901D12E23E15440230022E2521B
:102650002CE0002323857F33FA5C002A00D19DE51E
:102660000022FA540122553BE25497E554216B7C39
:10267000715C994200D18BE05D20524B305CD118E7
:102680001300490089B2091A303B2F319BB22185D2
:1026900065E5EA7C504F93009B181B01628E2E3338
:1026A000934200DBC4E67F23FB5C98464346002B45
:1026B00000D0E9E5628EC2E5FA22D20000922F2115
:1026C000414AFFF7F7F94023E052A7E5402173891B
:1026D000655A9D4201D21D006352B389AB4200D3BB
:1026E000B8E540211D006352B4E59DB24023E55298
:1026F000BFE501211632B15423622B7F002B00D09D
:102700003FE17F23FB5C002B00D150E12623EB5CF3
:10271000002B00D03FE7B7E556220121B154273204
:102720002362BB542B7F9846002B00D126E1E97C25
:10273000002900D05AE7012B00D057E72923C822EF
:10274000EB5C5343843AA352214A934200D845E1BB
:1027500003F090FA7F23FB5CE97C984649E750231D
:10276000B26DF35A934200D3FAE0A38DC72B00D980
:10277000F6E0012256230027F254023BF054276270
:1027800002F032FB2F23E28CE7541300303BF2E4DB
:102790005022B16DB25A8A4200D3D1E0A28DC72A2D
:1027A00000D9CDE00122D31A54220027B354562376
:1027B000533AF254276202F017FB2F23E28CE754BE
:1027C0005AE7C046E8FBFFFFFF07000000879303BE
:1027D000CE07000040010020D00500205022B06D3F
:1027E000B25A824200D3A2E0A28DC72A00D99EE04D
:1027F0000122D31A5422B35400239846533A236239
:102800005633F25402F0F0FA2F234246E254FA23F0
:102810009B009C46B17DE08C49006144EAE50021C3
:1028200021857F317A542932A25C002A00D1B5E497
:1028300062464046B05400227A5489E6012022853F
:102840007F22B8542930205C9146002800D163E6ED
:102850000120804662464046801AF0544A460023D2
:10286000BB544BE55023B06DF35A834270D2A38D15
:10287000C72B6DD800230122984623625633F254A9
:10288000023BF15402F0B0FA2F234246E254FA23FD
:10289000B27D9B005200E08C9A1A2DE60020208524
:1028A0007F303B542933E35C002B00D134E6634690
:1028B000735400233B5446E500202B322085013021
:1028C000B8542930205C9046002800D166E40120ED
:1028D000844660464A46411AB154002241467A5421
:1028E000D3E501F03FFC3FE601F012FD3CE601F0CC
:1028F000DDFC39E602F0C2FF5623F35C002B37D033
:1029000024230122E2547389608EE387EA7C77E412
:102910004A227938A05294E646236938FF3880B2BB
:10292000E05278E603004822F13BA3527EE62E22D5
:10293000A25C002A00D05BE7FA208000E08459E521
:102940002E22A25C002A00D02CE7E284FFF71CFCB8
:102950002E23E35C002B8DD1FA208000E084CBE5B0
:102960002E23E35C002B00D003E7E384FFF70CFC8D
:10297000E35D002B1ED002F045FAC1E702F07EFFB6
:1029800033E603F077F9FCE502F038FF8BE6FA2036
:10299000E18C8000FFF7ACF8FA2344229B00C318B7
:1029A0009BB2A352BA78002A00D109E6F7E502F0FB
:1029B00065FFE6E5FFF7E2FA0D4B0E4AB3658023AB
:1029C000DB055A620123E355D5E78322D200934207
:1029D0000BD3094A944663445B00EAE502F00EFF1C
:1029E0007F234246FA54E97C03E64423E35AE7E5B1
:1029F0001027000088130000E8FBFFFF70B550258A
:102A00000A4C635D012B0BD0022B02D0FFF788FB31
:102A100070BD636D98B2FEF737FF00236355F7E78B
:102A2000FEF7E8FC00236355F0E7C046500600209F
:102A3000F8B5CE464746542380B54E4D4621EA5C54
:102A40004D4C002A1ED1B420635A400001331BB202
:102A5000834200DB73E063524821B420625A400095
:102A6000013212B2824200DB002262524A21B420BB
:102A7000625A4000013212B2824200DA6DE0002256
:102A8000625214E0625A013A13B2120400D566E0B1
:102A900063524821625A013A10B2120452D4605271
:102AA0004A21625A013A10B2120454D46052FA21F7
:102AB000324A5B00985E324B2D269846DB8AC9006D
:102AC000C318A88891465843FEF784FB2D4F0A216E
:102AD000BB5D5843FEF77EFB80B202F0A7FD4823A2
:102AE000E35E4A465B00985E4346FA21DB8AC900F2
:102AF000C318A8885843FEF76DFBBB5D0A215843F5
:102B0000FEF768FB80B202F097FD4A23E35E4A4677
:102B10005B00985E4346FA21DB8AC900C318A88887
:102B20005843FEF757FBBB5D0A215843FEF752FBA3
:102B300080B202F087FDC0BCB946B046F8BD0023A4
:102B4000625289E76822FF3262524A21625A013A90
:102B500010B21204AAD56822FF326252A7E7682396
:102B6000FF3363524821625A013A10B2120400D472
:102B700095E7E7E7C00000205006002098010020FC
:102B8000400100201807002080210022C90570B5EF
:102B90004B6A214C214DE3824A62A86D204E4200CF
:102BA0001B0412181B0CD21830789308AB654343F2
:102BB0009B0998B2D3081B1A226A9BB26083A38335
:102BC000042A26D94A6A9A42FCD3164AD362FFF7EE
:102BD000D5F900237C222620B3540132B354236A52
:102BE0001149013323624A7F095C0A4304D1B36867
:102BF000AA6D9A4207D370BD132BFCD9FA23AA6D94
:102C0000DB009A42F7D856230022EA5402F0FAF881
:102C1000F1E74A6AD9E7C04650060020C00000200C
:102C2000D00500200020004018070020F8B5402300
:102C30005822CE46474660259D4C80B5E35A615DDB
:102C4000A385A35A0133A3520232A35A0133A352DC
:102C50000232A35A0133A3520232A35A0133A352C0
:102C6000223AA35C0B4304D16121605C002800D0B0
:102C7000DBE0904FF97F00290ED068208E4D235A5B
:102C80002A7E0133013A521891009BB28A182352CE
:102C90009200934200DD8AE02E23E55C002D56D1A0
:102CA000864E2833F35C002B59D1854B98465E2322
:102CB000E25A0A2A12D96B220121A1540022E252BF
:102CC00043465B78002B00D106E12423E35C002B14
:102CD00000D0BBE17B7F002B00D190E143461A7905
:102CE0005C23E15A914268D90022E252236AE08FC4
:102CF000952B00D989E04822B35C6F49DBB28B5435
:102D0000A58D2A1A9A4202DDC518ADB2A585421BCF
:102D1000934254DAC31A9DB23C23E35CA585002B91
:102D200051D17F2241468A5C002A5FD04423F68835
:102D3000E05A64497043FEF74DFA6E23301880B2B2
:102D4000E052614BE587DE6258639863D863702276
:102D5000A35A0133A352C0BCB946B046F8BD2423E0
:102D6000E35C002BA1D002F03FF802F027F85223D9
:102D7000F35C002B00D050E1514B9846002800D165
:102D8000ADE17C2241469B5C01338B542379002BBF
:102D900000D08CE77C234246474DD25CAB7E9A4202
:102DA00000D884E701232371FFF7EEFE7FE76A2353
:102DB0000122E254002323526EE7E58FA5853C23D0
:102DC000E35C002BADD02422A25C002AA9D0628E45
:102DD0002F2AA6D9F688FA213000C9006843FEF7E9
:102DE000F9F96E23013080B2E052AAE73A7F022A55
:102DF00000D1EEE0F688FA213000C9006843FEF702
:102E0000E9F96E2380B2E0529BE7952800D872E77B
:102E1000FA2322685B009A4200D914E14A2348222F
:102E2000F35C2549DBB28B546AE7208D002800D083
:102E3000F0E06226A35B254F01339BB2A353BB4254
:102E400000D816E76423E35A1E2B00D867E101235C
:102E5000184FA3542333FB5C012B00D063E1B9214D
:102E60006533E65A49003000FEF72AF9B923605568
:102E70005B0000259E4210D3154B60269946154BEA
:102E8000984601F0A9F96420FEF744FE4B464246FD
:102E90001A60A35D0135AB42F3DC094B984642460C
:102EA000DB789278134300D0E4E62622BB54E1E6B7
:102EB000500600201807002040010020C00000201C
:102EC000D005002030F8FFFF002C01401027000043
:102ED00000300040AAAA00007B7F002B00D18EE0CA
:102EE0002423E35C002B00D1F8E6914D296BB26DF1
:102EF0008C46AB8B296CD31AAA6A2B625A43624464
:102F00002A638A4201DD0A0029634942914201DDB8
:102F10000A002963A96BE86A591A4143686AAB63DE
:102F200043435B189B186A6C6963EB63934201DD52
:102F30001300EA6352429A4201DD1300EA63E26C35
:102F400094467C4A6344934200DCC3E0E264342349
:102F5000E35C002B00D1C1E6B16F626D8C46882125
:102F6000E38E7158D31A326FB3665A436244B26724
:102F70008A4201DD0A00B1674942914201DD0A003F
:102F8000B16780203158756F3350F06E591A69431C
:102F900043435B189B188C22F1678421B25873500D
:102FA000934201DD1300725052429A4202DD8423A3
:102FB000F2501300A26B94465F4A6344934200DCD4
:102FC000A8E0A263236A632B00D987E60023B367D6
:102FD00084E6002B00D10DE7022002F093FCFA21D9
:102FE000387BF688C9007043FEF7F4F883001818A0
:102FF0006E2340002D3080B2A58DE052A1E634232F
:10300000E35C002B00D169E62423E35C002B00D1B4
:1030100064E6A1E76222A3522BE6484B98460028BB
:103020006BD17C2241469B5C01338B542379002B6E
:1030300000D03CE67C2342463D4DD25C6B7E9A42FA
:1030400000D834E6AEE6AC3BFF3BE8E66C23E35E3B
:103050002C22C820BA5C5043326B181A9446B36ACB
:10306000326C4343634430623363934201DD1300A7
:10307000326352429A4201DD13003263B26BF16A4D
:10308000821A4A43716AB06348438018C018736C4F
:103090007263F063984201DD1800F3635B42834280
:1030A00001DD1800F3632649FEF794F8204DAB8A42
:1030B000181A338900B2A882984201DA18B2A8829D
:1030C000FA23DB00984200DDAB827B7F002B00D02F
:1030D0000CE73CE7002B29DC0023E36437E77D2283
:1030E00041469B5C0133DBB28B542A3AB25C9A4274
:1030F00000D34BE67C23C854D9E57D2241469B5C36
:103100000133DBB28B542A3AB25C9A428ED27C23D2
:10311000CD54CCE5002B00DA0023A36352E7094F1E
:103120006054A053A6E501F057F8B6E6E3640EE755
:103130004001002060E31600F0583801D00500205F
:103140001027000018070020F0B5DE464E4657460F
:103150004546E0B585B001F043FFFE231B01BD4AA3
:103160001968BD4E914205D1BC4A5968914201D1BE
:1031700000F058FC02F06AF902F07AFAFEF76CFDF2
:10318000B74FFB78022B04D13B79142B01D100F00F
:1031900088FC0223FB7012333B71C021113B3800C5
:1031A00032687B7001F05CFE7B7C013B5A1E9341D0
:1031B0005422B354B388F3803B7D002B00D1FB74C1
:1031C0002623A84AFB5C9046002B15D0FA239B00CF
:1031D0004B22B3830123B3547B820023BB82BB7594
:1031E00033894146323333814346013A9B5A323365
:1031F0008B5273893233738100F072FF6423002293
:10320000994CE25201F0A6FF984B994A1A6001F0DE
:1032100037FD3523E35C002B02D034230122E25436
:10322000944A8021136849011B051B0D13606367D5
:1032300000231268120C8A425B41A267E5225B42BE
:103240009343E633693AA35401F0AAFD8A4B8B4DB0
:103250009946628923899B18A2899B18E2899B1849
:10326000228A9B18628A9B1804335B106365236A69
:10327000042B00D911E2BB7C002B00D18CE204238B
:10328000424653769376794B794A1A607B7D012BBF
:1032900000D10DE2022B00D117E27023784AE35AE5
:1032A000934209D93C229346A25C002A00D09AE3BB
:1032B00074498B4200D9C2E358239A465246724B56
:1032C000A25A9A420DD96C23B421E05E4900000451
:1032D000FDF780FF2B6852469C460023604428601F
:1032E000A352236A9A46FA239B009A4500D8FBE131
:1032F00030220021238DA154C72B00D851E2FA7C43
:10330000002A02D09F2B00D8FAE12A79002A00D1A6
:10331000E4E1C8225200934200D2F7E10321606D3C
:10332000FDF758FF7E234A46D35C2060002B03D074
:1033300053460A2B00D969E26B7B002B00D1ABE02E
:10334000B36D782B00D8A7E0C221504B89005A58A2
:10335000C4201202120A5A50802180001A58C9054E
:103360001202120A0A43C3211A50FF2089005A5838
:103370008243BF3802435A506A239A46E35C9B4615
:10338000002B00D0A4E0AB7C002B00D011E26B231B
:10339000E35C012B00D1B2E02E23E25C00239A46CD
:1033A00051462333E954002A00D03DE1616D38488D
:1033B000FDF710FF2423E35C0A21584380B22882E2
:1033C000FDF77EFE4B23F35C80B2A884002B00D077
:1033D00058E2FA234246DB0053822B23A87BF95C98
:1033E000814200D23EE2236A632B00D9B3E1FA2383
:1033F000B26D5B009A4200D8ADE10C22993BFF3BD5
:10340000F2542F23FB5C002B00D0BAE18023DB05B4
:103410005A6A204B9A4200D81BE724239B46E35C60
:103420009A46012B00D014E73022A35C0133A35449
:1034300001F0DAFC56235246F254638E2F2B04D847
:1034400000235A46A3540E4BB36500232362FFF7B3
:103450009BFBFEE6DAE32559C0000020D963B84E95
:1034600018070020400100205006002000300040D6
:10347000AAAA000000580140D0050020D006002074
:1034800088130000204E00001027000000E100E03B
:10349000C0270900C8AF0000C2208021CC4B8000AB
:1034A0001A58C9051202120A0A43C4211A50FF20F1
:1034B00089005A581202120A5A5004395A58824343
:1034C0005A506A239A46E35C9B46002B00D15AE788
:1034D0006B886C229B4666212B8AA25A615AA87B74
:1034E00000935B46FEF78CFB0A2002F00FFD0023E1
:1034F0005246A3546B23E35C012B00D04CE701F050
:10350000B9FAB44AB4499368A88A0B4004210B4322
:103510009360B24B1B889B46B14B190058439A46A7
:10352000FDF7CEFD5B46C31A9800C018AD4B0001F5
:1035300019885B46C91AFDF74DFE53461E3080B20E
:10354000E882A873288BA8495843FDF743FE4246FA
:103550004C23D35A64215843FDF73CFE6622A15AFE
:10356000CB005B1AC018C3109A469BB2A3529B466D
:103570004B461B7C78205A004A44918A01330391C0
:103580004946085ADBB29082CA689446039A60445E
:10359000801AC8604A46312B00D9002313743221A7
:1035A000FDF78EFD4A467A23D0528D4B0004000C65
:1035B0002921E8615843FDF70DFE8C4B0A219C46FA
:1035C0006044FDF707FE03B2020400D594E16C22CB
:1035D000A3522423FB5C012B00D195E1022B06D1E1
:1035E0003B7A5B4500D899E12B8C01332B842E2349
:1035F000E25C9A469000801803011B1A58011B18C0
:103600007B489B0084465B42298C6344994200DDE1
:103610008BE16B230021E15400239A46514623336A
:10362000E954002A00D1C1E6638E302B77D93C22C1
:10363000A25C002A73D0313B572B00D997E1262397
:103640009B46EB5C002B00D019E2FFF7F1F9FB7E03
:10365000684819009A46FDF7BDFD628E51460390F9
:1036600065489346FDF7B6FD30217822039B009014
:103670005846FEF71FFA50239A4643465246985240
:103680000004000CFEF73AFA434652469620995A37
:103690008000FDF79FFD2882DBE503234246537639
:1036A0009376564B564A1A607B7D012B00D0F1E58C
:1036B000B288602100925308B06DC822FEF7FAF973
:1036C000F0807B7D022B00D0E7E523681A00653A85
:1036D000942A39D89A009B18F380DEE5952B64D89C
:1036E0005E236422F25419E6238D002B12D130227E
:1036F000A3545246642A54D8FA7C002A00D104E626
:1037000030220021A1542A79002AE7D03023002258
:10371000E25403E65246642A00D8F0E5ECE526239D
:103720000122EA543B7F9A46012B00D1BBE0022BD9
:1037300000D1CEE00022334B5A639A63DA6302F081
:103740009DF800232B8284E5013B622B39D8FA23B4
:103750005B00F380A1E50C23FA2200935200093BA1
:1037600064212068FEF7A6F95C23B26DF054312A7B
:1037700000D946E60222F2542F23FB5C002B00D135
:1037800044E61723FA22A08D64210093D2000A3B5D
:10379000FEF790F9207639E6062342465376937673
:1037A00071E530220021A154A9E55E230A22F254DA
:1037B000B4E5FEF73FFA312002F0A8FB5B46AB749C
:1037C000E5E5F82B00D868E50F4BF38065E5C046CA
:1037D00000E100E000240140E8FFFF7FB8F7FF1F91
:1037E000E40C0000C2F7FF1FFF0F00003CF6FFFFD4
:1037F00010270000581B00002A0300000030004082
:10380000AAAA0000002C0140E20400000100A86800
:10381000FEF76EF923685A08904217D9FA22D200AF
:10382000934213D2002222622A7B01322A73BA7C8D
:10383000002A11D1628E2F2A0ED924220021A154F0
:1038400056220121B15472895208E2877E2200215A
:103850004846AB6081546FE5FA22B16D9200914207
:10386000EED9EAE742462333D35A0A005B089A4668
:1038700001230A3200930A395346FEF71BF94346E7
:103880005882B0E5B38B4C219C464E23F25A715AB4
:1038900092464246D35A524600936346FEF70AF9CF
:1038A0004346588299E52833F85C9F335843843B5C
:1038B000E052F388824958439B46FDF78BFC6E2308
:1038C000584480B29B46E052632843D802F0D2F9B4
:1038D00037E7022002F016F8FA213B7BF088C90096
:1038E0005843FDF777FC83001B18764A5B002D33A5
:1038F00053639363D36324E76C230022E2522423AF
:10390000FB5C012B00D069E65F33E35C328B5A43EA
:1039100053461B041B0C9A4200DD65E62223EB5C38
:10392000002B00D063E62B8461E601222223EA54B7
:1039300000239B46638601F0A1FF01F055FA0022A7
:1039400024235946E2544033E152283BE254534683
:10395000E25C5EE601F052FF5B46E25A594B51468B
:103960005A639A63DA637F234A46D154E9E62623F1
:103970000122EA54FFF75CF8638EC82B05D9462371
:103980005246E25242460A33D35250234246D05A5C
:10399000FEF7B4F84623E35E002B00D059E42E2254
:1039A0002421A3542D3A6254323172548021464A64
:1039B000C905B2652260AA604A62142249462262A1
:1039C0006B328B5442465233D25C0333F2547B7FCA
:1039D000002B03D04A234246D35AE387FEF7CEFAA0
:1039E00001F036FE35E401F049FF00255B46E55461
:1039F0002533E5540333E552324B65865D639D63A1
:103A0000DD6301F02DFE8022290052002F4802F0D4
:103A1000CAFBBFF34F8F2E4B2E4ADA60BFF34F8F96
:103A2000C046FDE71B7B2B2B46D0352B40D01F2BF0
:103A300001D0FFF79FFB284B3360FFF79BFB9246BB
:103A400001F01CFF52465B46E2546123E25403330B
:103A5000E2521C4B62865A639A63DA6301F000FEFD
:103A6000802200215200194802F09DFBBFF34F8FC6
:103A7000174B184ADA60BFF34F8FC046FDE70121AC
:103A8000164AD3688B43D36001F0AEF952460D4B12
:103A90005A639A63DA6302F031F95B465246EA549C
:103AA000D3E57B78022B01D9FFF77EFBFFF771FB93
:103AB0000B4B3360FFF75EFB0A4B3360FFF75AFB9B
:103AC00030F8FFFF002C01402823000004080020EC
:103AD00000ED00E00400FA05007C00080020004032
:103AE00000F8000800F80108F0B5654C83B0636881
:103AF0002268981A634B0100C218634B9A4238D867
:103B00000023624E624D33802B78002B43D06B78BC
:103B1000002B17D1AB78002B00D196E0A8885D4F21
:103B200001333988AB70FDF7E3FF322800D86CE031
:103B300000232B703B88AB806B78002B09D0616829
:103B40002368C91A544B994253D9AB794B2B00D9EE
:103B500080E000235149524AA868338012680B88DC
:103B6000C41A944211DC1C1AA24212DA9B1A0B806E
:103B70000DE000224B4B1A80454B98684749484A54
:103B80000B881268C41A9442EDDD9B180B8003B0B9
:103B9000F0BD0880FBE7444B9C7C002C0FD0434BCE
:103BA0001A88904219D8424B1988FA239B00009337
:103BB0000023FDF77FFFA86000233380DEE7354B4D
:103BC0001A883B4B19883B4B00932F23FDF772FF5C
:103BD00030283DDC0020AC60EEE72E4B511C1C88E9
:103BE000FA23DB0000932200334BFDF763FFA8604C
:103BF000E2E72F48AB7904880133E200121B511829
:103C0000DBB2C908AB710180A0E73988226863681C
:103C10009B1ACA00521A9B18DB08AA789BB23B80F9
:103C2000322A00D887E7254A193B94469BB23B804D
:103C30006344DA0FD31821221B495B108B540123F4
:103C40006B7000F001FB3B8875E780B2A88066E7E7
:103C5000A860B1E7164A00241388134919339BB2B0
:103C60001380174A2C7094466344DA0FD31820222D
:103C70005B108B54FEF776F9AC7100F017FB68E728
:103C800004080020DFFCFFFF76050000C0060020CE
:103C9000D8070020D2000020E104000076060020B2
:103CA0007C040020B406002018070020D400002067
:103CB000D0000020FF070000E90300002AF9FFFF01
:103CC00012FDFFFFF0B54D4D00262A000020002711
:103CD0004B4B4C4C9C469C8008CA7C3511689942E1
:103CE00006D0CB1AA34201D201279CB20126C018EC
:103CF00004320B009542F1D1002F47D063469C80DF
:103D0000002E28D0404B414D1A784009E860012A26
:103D10003ED03F4E3278012A0FD019780A4319D18C
:103D2000611E02293ED83B2814D83A492A740A70E9
:103D300001321A700E21384B21E0C93C374BA4B236
:103D40009C4207D82F21334B1970022361468B7197
:103D5000334B1A70F0BD2C4B2C4D1A780020EE60BE
:103D6000012AD6D1621E022A38D9221F042AD0D8AD
:103D7000012207211A70274B2A741A70264B1970DA
:103D8000202361468B71264B1A70E3E71D4CB7E781
:103D9000621E022A1CD83B2820D91D4E3278012AE7
:103DA000BBD1D7E7221F042A02D86328D2D8DFE785
:103DB000C93C1A4BA4B29C42CCD82F21154A0123EE
:103DC0001170022261468A71154A33701370C1E77F
:103DD000221F042A9DD86328DFD8C9E700220E26B7
:103DE0000C492A740A700C4901320E702021664673
:103DF000B1710B491A700A708BE7C04604080020A5
:103E00007C040020204E0000D2050020D8070020AE
:103E1000D30500208604002001080020564D000034
:103E2000B106002070B5544C2378002B03D0534BBF
:103E30001B78002B07D1524B1B78002B00D170E070
:103E4000012B0AD070BD4F4B1B78002B56D000F0D1
:103E500017FF02224C4B1A70F4E7484B1B78002BDB
:103E600052D14A4D2B78012B76D0494B1B78012B30
:103E700068D02378002BE5D12B78002B1ED0454A43
:103E8000537C072B1AD844490988052916D9434879
:103E90000133C16F0068DBB2091A506989B28446E8
:103EA000614453745161082B08D1CB08C9099BB2F6
:103EB00089B23B485C18591A04811183394C208817
:103EC000002836D0384BDB79002BBBD1324A002694
:103ED0001380364B9842B5D92E4D698BFDF708FEFD
:103EE000322847D82B7F0133DBB22B77322B02D914
:103EF0006B78002B3AD023886B83A3E700F004FF94
:103F00000122214B1A709DE71E4B1B78002B0DD010
:103F1000274B1888FDF7B8FCFDF76CFA00F0B0FEEF
:103F200090E7FFF7CFFE00F0ABFE8BE700F0ECFE72
:103F300088E7184B1B78002BC4D1174A138801332C
:103F400013807FE700F024FF154B002809D00322DF
:103F50009A7100F095FE8CE7FDF74CFA00F090FEA8
:103F600083E702229A71FFF7BFFDF2E700F0D0F974
:103F700001232B702E77BEE78C060020DD06002083
:103F8000B106002000080020A0060020D205002075
:103F9000D3050020D8070020B40600200408002024
:103FA0007C0400207806002018070020DC050000B3
:103FB000A4060020031C0B2800D90B23014A5B0038
:103FC00013707047F5070020F8B5DE4657464E4699
:103FD00045460320E0B501F095FC7C239B46354B1C
:103FE000354C9946354B00259A46A34411E061783B
:103FF00000292FD1E801401B314B40008019596343
:1040000080B29963D963FDF785FD00250234A3458D
:104010000DD053462B4A26781A6000234A46138057
:10402000FF2EE4D101350234EDB2A345F1D101F008
:1040300025FC00232449224A09889362D1624A461A
:1040400013801E4B1F4A1A60F0BCBB46B246A946FD
:10405000A046F8BD4B015B1ADB00591AFA231B017D
:104060009C461A486144FDF7B5F80A23144F010035
:104070008046BB621648FDF7ADF8164BF8621B7818
:1040800015495843FDF7A6F87863B863F863E8016B
:104090004146451B1148FDF79DF86D00AE1964219E
:1040A0007043FDF797F80004000CFDF733FD002581
:1040B000ACE7C046C00600204C070020003000409E
:1040C000002C0140AAAA0000C4000020C0D8A7000C
:1040D000003E4900F5070020CF070000A086010040
:1040E00010B572B63023194AD35CFF2B07D0FFF707
:1040F0006BFF174B1A88174BDA6262B610BD154C6E
:10410000154B0320E362154B1B786363A363E363E2
:1041100001F0F8FB3723C820A362FDF7FBFC052064
:1041200001F0F0FB2823C820A362FDF7F3FC062072
:1041300001F0E8FB1923C820A362FDF7EBFC01F0B6
:104140009DFB0023064AA3621380D2E718070020D4
:10415000C4000020002C0140CF070000F50700201C
:10416000C006002070B5154B154CE36272B63C23B7
:10417000144D154E01202E60A362144B1B7863630F
:10418000A363E36301F0BEFB4B20FDF7C3FC5023A8
:104190004B20A362FDF7BEFC5A234B20A3622E6086
:1041A000FDF7B8FC01F06AFB0023094AA362138003
:1041B000084B1B88E36262B670BDC046CF070000A3
:1041C000002C014000300040AAAA0000F5070020A2
:1041D000C0060020C400002010B572B6134C144B6A
:1041E000144AE362144B03201A605023A362134B5A
:1041F0001B786363A363E36301F084FB6420FDF732
:1042000089FC46236420A362FDF784FC28236420F4
:10421000A362FDF77FFC01F031FB0023084AA36293
:104220001380084B1B88E36262B610BD002C01406E
:10423000CF070000AAAA000000300040F5070020C8
:10424000C0060020C400002010B5114B114C022004
:10425000E3623223A362104B1B786363A363E363BF
:1042600001F050FB9620FDF755FC0C4A0C4B9620B4
:104270001A601E23A362FDF74DFC01F0FFFA002334
:10428000084AA3621380084B1B88E36210BDC04636
:10429000CF070000002C0140F5070020AAAA00006B
:1042A00000300040C0060020C400002010B5114BB3
:1042B000114C0220E3622823A362104B1B78636336
:1042C000A363E36301F01EFB9620FDF723FC0C4A79
:1042D0000C4B96201A605023A362FDF71BFC01F0E3
:1042E000CDFA0023084AA3621380084B1B88E362BF
:1042F00010BDC046CF070000002C0140F50700208C
:10430000AAAA000000300040C0060020C40000201F
:10431000F8B5144D144BEB6272B67724134B144F5F
:104320001B78144E6B63AB63EB63142120003E607B
:10433000FCF750FFC0B201F0E5FA63100A330A201F
:10434000AB62023CFDF7E6FB631CEED101F096FA8E
:104350000023094AAB621380084B1B88EB6262B6EC
:10436000F8BDC046002C0140CF070000F507002033
:1043700000300040AAAA0000C0060020C4000020AF
:104380000D4885460D480E490E4A002302E0D458D8
:10439000C4500433C4188C42F9D30B4A0B4C00238D
:1043A00001E013600432A242FBD301F0CDFE01F024
:1043B000CDFEFEF7C9FEFEE700200020C000002071
:1043C00098040020CC6200089804002020090020F6
:1043D000FEE700008268030010B50120D20710D468
:1043E0008C684A68D8682243CC6809682243054C27
:1043F000204002430020DA601A69920092080A43C2
:104400001A6110BDC73FFFFF8368020010B501208D
:10441000DB070ED44C680B68D06823438C682343B9
:10442000CC68096923430B430249014000200B4338
:10443000D36010BD3CC2FEFFF0B5DE4657464E4687
:104440004546E0B50A684B6883B0002A00D172E0A7
:104450009C46012301245B4263449846A346002303
:104460000AE00E69C56874434E4635402C43C4606B
:1044700014000133DC4041D05C4615009C402540CF
:104480002242F5D02C006C436700BA46A24457463E
:10449000FF43B94657460668BE43674667433E43F7
:1044A00006604646012EDCD88668B2468E685746BE
:1044B000664301964E4637403E00019F3743876072
:1044C000C6684F46B2460E69664301965646374067
:1044D0003E00019F37436646C760022EC8D1FF2DBC
:1044E0001DD86443056A2601361BB5434E69013366
:1044F00074432C4304621400DC40BDD14346012BBD
:1045000005D84368C96893434A431A434260002070
:1045100003B0F0BCBB46B246A946A046F0BD2D0A8A
:104520006D436D43446A2E01761BB4434E69754357
:10453000254345629CE7013B9846DFE70C23184A78
:1045400070B5516805000B40082B11D0154B14496C
:104550002B604A6814481206120F825CD3406B60CD
:104560004A6812495205520F8A5CD340AB6070BD55
:10457000802350685B021840434258410C4B404234
:104580001840084B0F249C46D16A604421400131F9
:104590005668FCF795FDB30C234002334343D6E73E
:1045A0000010024000127A00AC620008BC620008F1
:1045B00000F7C2FF030070B50020002B33D1314A51
:1045C0000333116B0B40022B52D0032B48D05168A0
:1045D000012B29D00C230B40082B51D1802350688C
:1045E0005B02184043425841274B40421840274B3A
:1045F0000F249C46D16A6044214001315568FCF784
:104600005FFD0300AD0C2C40A01C58431D4B2049FE
:104610005A685B681206120F8A5C5B05D0401D4A1F
:104620005B0FD35CD84070BD0B330B40082B1DD102
:10463000802350685B02184043425841124B40426D
:104640001840124B0F249C46D16A6044214001312E
:104650005568FCF735FDAD0C2C4002346043E2E7B1
:1046600013680222100018401A42DCD00748DAE72B
:104670001800126A10401342D5D080200002D2E701
:104680000248C3E70010024000F7C2FF00127A00A0
:10469000AC620008BC6200081D4A0368904226D044
:1046A0008022D205904219D01A4A904216D01A4A56
:1046B000904217D0194A90421DD0194A90421AD000
:1046C000184A904217D003608B68C3620B888362DC
:1046D00001224369134343610020704770229343D2
:1046E0004A681343104A1340CA681343EBE7702229
:1046F00093434A6813430C4A1340CA681343036048
:104700008B68C3620B8883620B7C0363E0E7C0465F
:10471000002C014000040040002000400040014007
:104720000044014000480140FFFCFFFF802370B5BA
:104730005B00994200D1ADE041D8012900D171E080
:1047400010296DD1036A714D8B430362036A466879
:1047500084692C4015682D022C432025AB431D0095
:1047600013691B012B438B4351680D0168492B438F
:10477000884208D06749884205D06749884202D0FC
:104780006649884214D180218B431D00536940390A
:104790009B012B438B4391688D0161492B430E4054
:1047A0009169604D890031432940D569EE000E437F
:1047B000D2684660846182630362002031E0802316
:1047C0005B0199422CD1016A574E504C3140016235
:1047D000036A4568C1692140146824020C435349A7
:1047E000194013691B030B435168334009030B4302
:1047F0004749884208D04749884205D046498842FF
:1048000002D04649884204D149490D409169890145
:104810000D43D2684560C46102640362002000E079
:10482000012070BD7326036A8B430362036A4468E8
:104830008569B543166835430226B3431669334389
:104840008B4351680B433249884208D03149884232
:1048500005D03149884202D03049884213D108211D
:104860008B43190053699B000B4304218B439168D0
:1048700089000B432F490C4091690C432E490C4091
:10488000D16949000C43D268446085614263036288
:104890000020C6E77324016A264E31400162036A94
:1048A0004168C569A54314682543234C1C4013691E
:1048B0001B0223435468334024021C43144B984288
:1048C00008D0144B984205D0134B984202D0134B9A
:1048D000984213D1134B144E1C4053690E409B0257
:1048E00023430F4C23409468A4021C43936919018D
:1048F0000E4B31431940D3695E013143D3684160A7
:10490000C561C363046200208BE7C046FF8CFFFFD4
:10491000002C01400040014000440140004801409B
:10492000FFFBFFFFFFF7FFFFFFEFFFFFFFDFFFFFD3
:10493000FFBFFFFFFFFEFFFFFFFDFFFF8A680B7B4E
:1049400013430D4A13404A6813430C4A13400A6844
:1049500013430B4A1A40CB8913430A4A13400A698E
:104960001343094A13404A69084913430B40134350
:10497000436400207047C046FFFBFFFFFFF7FFFFC7
:10498000FFEFFFFFFFDFFFFFFFBFFFFFFF7FFFFF27
:1049900030B5036804000D0085B0DB071DD44B68FB
:1049A000C96802680B4329690B43A9690B43204975
:1049B0000A401343036043681E4A1340AA68134326
:1049C000436083681C4A13406A69134383601B4B2E
:1049D000984205D01A4B984218D0012005B030BD3E
:1049E0000020FFF7E7FD0028F7D029680029F4D060
:1049F0008023AA691B029A420DD04B081818FCF7B5
:104A00005FFB03041B0C0020E360E7E701A8FFF74E
:104A100095FD0398E7E74B084000C018FCF750FBF2
:104A2000084B03400007400F1843E0600020D5E723
:104A3000F369FFFFFFCFFFFFFFFCFFFF00380140DE
:104A400000440040F0FF0000FA2110B58900FCF797
:104A500037FB0022034B013858609A6005321A6018
:104A600010BDC04610E000E0014B18607047C04622
:104A700094040020054B064A998811805988054AFC
:104A800011801A88044B1A807047C046F80700202E
:104A9000E4060020E8060020480600200321074A1B
:104AA000074B9360074BD36053681B0C1B040B43ED
:104AB0005360136802390B431360704708000240CB
:104AC00040240140F80700200023124A82B00193DD
:104AD00093681149194080231B060B439360936828
:104AE000002BFCDB01230193019B002B05D0019BD4
:104AF000013B0193019B002BF9D1064A06499368BB
:104B00000B4001210B43936013681942FCD002B0A3
:104B10007047C04600240140E8FFFF7FF0B5C6465D
:104B200000B592B01022002102A801F03CFB142233
:104B3000002106A801F037FB102200210EA801F089
:104B400032FB8020454B8000996990240143996194
:104B500080219A69890202400192019A5A69E4050A
:104B60000A435A615B6908220B400093009B0323B0
:104B70000CA920000C920D93FFF75EFC402203234A
:104B80000C920D9300230CA9200098461093FFF778
:104B900053FC334B33491A6840200A401A601A68A4
:104BA000314908250A4020211A601A682F4C0A430F
:104BB0001A601A68603182431A601A6800260A4334
:104BC0001A601A682A4900271140802252000A43BD
:104BD0001A601A68274911408022D2000A431A60DD
:104BE000A36A25490343A362A36A20002B43A3625F
:104BF0008023A26A5B021343A3620B681F4A1A4018
:104C000080231B04134380220B600023120602A999
:104C10000292039304960597FFF7DCFB0022012321
:104C200008920993434606A920000A93069607971F
:104C3000FFF7EAFB04220721E3689343E36063691B
:104C40008B4301390B43636163689343636063681B
:104C5000AB43636012B080BCB846F0BD00100240A8
:104C600008000240EFBFFFFFFFCFFFFF002401401D
:104C7000FFFCFFFFFFF3FFFF08270140FFFF3FFEA0
:104C800000200221164B1870164B1A690A431A614C
:104C90001A698A431A614122134B01399A61373AE2
:104CA0001A62124A12789A62114ADA625A690A43FF
:104CB0005A6158620F4A1048D060104890601048FE
:104CC000007850600F4810608022D868920002433C
:104CD000DA601A6A0A431A621A680A431A6070474D
:104CE000000800200010024000040040860400205C
:104CF000FFFF00004400024004080020340400408C
:104D0000820400208B090000012210B502241848FB
:104D1000184B02701969214319611969A14319617E
:104D20006021154B154C99615D3919621449097858
:104D300099623D21D9625969114359611149CC6089
:104D4000114C8C6040781730486010480860802112
:104D5000D86889000143D960196A1143196280211A
:104D6000586C09020143596419680A431A6010BD5E
:104D70000008002000100240000400400805002048
:104D8000E807002044000240340400409B09000072
:104D90001020024B1B6918407047C04600040048B1
:104DA0000449054ACB681A4080235B001343CB605B
:104DB0007047C04600040048FFFCFFFF074A084B4D
:104DC000944680221868074BD2011B686344DB00BD
:104DD0009A400E331040D840C0B27047E4FFFEBF87
:104DE0001C00014088040020044B05491A680A4051
:104DF0001A60802292035A617047C0460004014045
:104E0000FFFFDFFF8023034A9B0311680B431360FE
:104E10007047C04600040140C8230D4A5B00126879
:104E20009A420ED204210B4A13688B4313600A4B3B
:104E30001B785A425A41094952055B058A60CB608A
:104E400070470421034A13680B431360EFE7C04621
:104E5000500600201C000140120100200004014007
:104E6000F0B54746CE4680B585B016006A46CB0FF2
:104E70005B185B1098465B000733DB08DB00D31A36
:104E800000AF9D466D460C00814642460021280039
:104E900001F089F9012C0BDD4846002341780278A6
:104EA00009025C000A4301332A5302309845F5DCBD
:104EB000434601212C4A7B60D3681942FCD1136917
:104EC0001B0604D5294B196851605B685360B30514
:104ED00017D10221244A13690B43136156611369E8
:104EE0003E310B4313613F39D3681942FCD1202373
:104EF000D1680B4200D0D36002211B4A13698B4357
:104F000013610023BB60FB60FB687A689A421FD97B
:104F10000120202414490B6903430B61FA68BB6824
:104F20005200525B9B191A80CB681842FCD1CB68A7
:104F30001C4200D0CC600B6983430B61BB68023319
:104F4000BB60FB680133FB60FA687B689A42E2D37E
:104F50008021BD46044A13690B43136105B0C0BCF0
:104F6000B946B046F0BDC046002002408C04002087
:104F700070B5002A2BDD040003230C4323405C4260
:104F8000634102244D1C451BAC42A44164421C42B7
:104F90001ED0531E082B1BD90B009408A4006418C4
:104FA000451A1E68EE500433A342FAD103241300BD
:104FB000A34314420BD0CC5CC4545C1CA24206DD5B
:104FC0000D5D023305559A4201DDCA5CC25470BDC5
:104FD0008A18451A0B786B5401319142FAD1F6E7E1
:104FE00000B51B4B1B4883B01B4A9A1802CB1160BB
:104FF0008342F9D101230320184A91691943916131
:10500000926913400193019B154B19688143196004
:10501000FA211A68890002431A60124B1868FCF7DB
:105020004FF8802301385B04984200D3FEE7C0218B
:105030000D4A090650600D48036A1B021B0A0B4308
:105040000362002393600733136062B603B000BDB0
:1050500000100008C010000800F0FF170010024008
:10506000000001409404002010E000E000ED00E0AA
:105070000121334A10B513688B430B431360136847
:10508000304A13680B431360013113681942FCD096
:10509000F82113688B4378390B431360536B7F39C6
:1050A0000B435363274A0131536B1942FCD0F8215B
:1050B000536B8B4378390B435363536A7F390B43EC
:1050C0005362204A0131536A1942FCD053681E4989
:1050D0001940A0239B030B430F215360D36A8B43DA
:1050E000D362802311685B040B4380211360154A4F
:1050F000890413680B42FCD0F0215368114C8B4398
:105100005360536811490B400321536053688B432C
:1051100001390B4353600C2263681340082BFBD109
:105120000B48FFF791FC0A48FFF79EFC0422636BD3
:1051300093436363236B013A9343236310BDC046DB
:105140000020024000100240FFFFC2FFFFF8FFFFF7
:10515000006CDC02064B074A1A60074A1A600222FA
:105160005A60FA2212019A60044A1A607047C046D7
:1051700000300040CCCC000055550000AAAA000029
:10518000F0B5DE4657464E464546E0B59DB0142282
:10519000002103A801F007F82022002114A801F043
:1051A00002F81822002108A800F0FDFF18220021B3
:1051B0000EA800F0F8FF80227D4D1201AB697D4CF6
:1051C0001343AB61AB6903A913400293029B7A4B73
:1051D000200092460593FFF75FFA8022082123689A
:1051E000002613432360A368744A00271340A3607A
:1051F000734B60229946A3698B460B43A36100233E
:105200001492159314AB1A002000073916961797BD
:10521000189619971A961B97FFF788FA042150469B
:10522000A3698B43A361A3690C310343A3610023EA
:1052300098461593169314AB1A002000FFF776FAE0
:10524000A36960485A460340A3614B465B688021CE
:1052500013434A46536043461593169314AB1A0002
:1052600020004900FFF762FA4B4604215B682000EA
:105270008B4349464B604B6851460B4349464B6054
:10528000434680211593169314AB1A004901FFF78A
:105290004DFA4B46494670225B684A4803404B60D2
:1052A00063682C2193436360A36810329343A36027
:1052B0006A46434652180A932D3313706B46424692
:1052C000DA8580220023920108A920000C920D9318
:1052D00008960997FFF732FB80216A6989020A4321
:1052E0006A616B6900240B4080210193019B6A690C
:1052F000C9020A436A616B6902220B400093009B5A
:10530000022302250E920F932F4B0EA998461800E8
:105310001096119712941395FFF78EF8012202232D
:105320000EA940460E920F93109611971294139562
:10533000FFF782F8802202230E920F939023DB0561
:105340000EA9180098461096119712941395FFF71E
:1053500073F880220223D2000EA940460E920F93CA
:105360001096119712941395FFF766F88022022386
:1053700092000EA940460E920F9310961197129428
:105380001395FFF759F880220223520040460EA9D8
:105390000E920F931096119712941395FFF74CF8F5
:1053A0001DB0F0BCBB46B246A946A046F0BDC04603
:1053B00000100240002C0140CF070000F8BFFFFFA3
:1053C000182C0140FFFBFFFF0004004800B589B026
:1053D0000C22002104A800F0E6FE0222174B184818
:1053E000D9691143D961D9690A4080210192019A92
:1053F0005A69C9020A435A615B6910220B40009343
:10540000009B022302920393012302A90793FFF753
:1054100013F8C22080210B4A80001358C9051B02D3
:105420001B0A0B43135080231B0113600022064B01
:105430009A623F32DA6209B000BDC04600100240F5
:105440000004004800E100E000040040F0B5DE4642
:1054500057464E464546E0B591B0FFF709FE01229A
:1054600080211027684C9346A36949051343A36123
:10547000A369802613400793079BE269B6020A439B
:10548000E261E369614A0B400693069B1368604D35
:105490003B43136080226369D202334363616369D3
:1054A000904633400493049B63695A4913436361F4
:1054B000636913400593059B9023DB059946802380
:1054C0004A461B0293625A466369134363616369E8
:1054D0001340C22209939200099BAB5819408023C4
:1054E000DB030B43AB5080238021DB002B60AB58E8
:1054F000C9051B021B0A0B43AB5080231B012B6009
:105500008A46FFF73DFE5A46E36951461343E3617D
:10551000E3690CA813400393039B17239B46534650
:105520005A469A623C4B073ACB62002100F03BFEA0
:10553000636902223343636163690AA933400893B4
:10554000089B032348460A920B93FEF775FF20221F
:1055500003230A920B9300230AA948460E93FEF7F1
:105560006BFFC322FF219200AB5858468B43AB50D0
:1055700080235B012B60E26901310A43E261E36948
:10558000C4220B400A930A9BFA2324491B01886218
:105590009200CB62AB5869301B021B0AAB508023D0
:1055A0001B032B600B6803430B60E3691C493B43FF
:1055B000E361E3691F400297029BAB581940C02387
:1055C0001B020B43AB5064212F22164B2E609A62B4
:1055D000D9624146A3690B43A361A3690B400193C0
:1055E000019B114B9A620C4ADA621A6882431A6074
:1055F000FFF7ECFE00F0EAFB11B0F0BCBB46B24690
:10560000A946A046F0BDC04600100240002002405E
:1056100000E100E0FFFF00FFFFFF0000002000406E
:10562000FF00FFFF0010004000480140014B58639D
:105630007047C046002C0140014B98637047C0463C
:10564000002C0140014BD8637047C046002C01403C
:105650000121024A53690B4353617047002C0140FA
:105660000022024B9A625A627047C0460004004012
:1056700070B501241021564B80251A6A2D02224351
:105680001A621A6A86B00A431A628022196A5200A4
:105690000A4304211A621A6A03A80A431A621A6AA0
:1056A0003C310A431A628022196AD2000A431A6204
:1056B0008022196A52010A431A6264221A641A6823
:1056C000002122431A605A6C90262A435A645A6970
:1056D000F60522435A613F4B1A6A22431A621A683E
:1056E00022431A600C2200F05EFD80220123120288
:1056F000009201930323694630000293FEF79CFE5B
:1057000014220021B56101A800F04DFD2023694657
:10571000314800930494FEF78FFE304B1A68224301
:105720001A605A6922435A61DA682243DA60DA68F9
:10573000A243DA602A4B1A6822431A605A6922434C
:105740005A618023DB051A6822431A605A69224392
:105750005A61244B1A6822431A605A6922435A61DB
:10576000DA682243DA60FFF7D9F9FFF797F9FFF714
:10577000ABF900231C4A009313681C491C431C4BC3
:1057800014601868FBF79CFC0301181A0A218000BA
:10579000FBF796FC0090009B002B05D0009B013B83
:1057A0000093009B002BF9D1C1208021114A800079
:1057B000135809061B021B0A0B4313508023136066
:1057C00080230D4A1B0211680B43136006B070BDA5
:1057D000002C01400004004000040048002000406C
:1057E00000480140001000401C000140400D030033
:1057F0009404002000E100E0000401409023DB0558
:105800001A6819490C201140802252030A431A6079
:105810008022D2009A621A68144911408022D20272
:105820000A431A60802292009A621A681049114055
:10583000802252020A431A6080220E4952009A6264
:105840000A688243043802430A600A6805388243C2
:10585000013802430A601A68074911408022120287
:105860000A431A607047C046FFFFCFFFFFFFF3FFF8
:10587000FFFFFCFF00040048FF3FFFFF0C211C4A14
:105880001C4813688B4308390B431360022393624F
:105890009023DB0519680840802149030143196002
:1058A00080210320C90099621168814302380143B5
:1058B000116090621A68104911408022D2020A4396
:1058C0001A60802292009A621A680C491140802264
:1058D000D2010A431A6080229A621A68084911406C
:1058E000802252020A431A60802252009A62704754
:1058F00000040048FFFFCFFFFFFFF3FFFF3FFFFF64
:10590000FFFFFCFF10B5062843D8D24B80001B5880
:105910009F460321D04AD14813688B4302390B4379
:10592000136090239162DB05196808408021C90249
:10593000014319608021890099621968C8480840AC
:105940008021C90101431960802199611968C54806
:105950000840802149020143196080214900996271
:10596000C14B1B7D002B00D049E11368F4398B43F8
:1059700008390B431360022393629021C9050B6819
:10598000BA4A1A4080239B03134341220B60B84B51
:105990001A6010BD9023DB051A68B149032011403D
:1059A0008022D2010A431A6080229A621A68AD49A5
:1059B0001140802252020A431A60802252009A62E9
:1059C000A54A11688143023801431160906119684A
:1059D000A24808408021C902014319608021890042
:1059E0009962A14B1B7D002B00D015E11368F5399E
:1059F000FF398B4308390B431360022393629021D4
:105A0000C9050B68994A1A4080239B03134351220E
:105A10000B60974B1A60BCE70C218F4A93481368C0
:105A20008B4308390B431360022393629023DB05F9
:105A3000196808408021490301431960802103202F
:105A4000C900996211688143023801431160906175
:105A50001A68824911408022D2020A431A608022C9
:105A600092009A62804A127D002A00D0E1E01A6812
:105A70007B4911408022D2010A431A6080229A6237
:105A80009021C9050B68774A1A4080239B02134373
:105A900061220B60764B1A607BE79023DB051A6866
:105AA0006F490C2011408022D2010A431A608022E3
:105AB0009A621A686B4902241140802252020A43FA
:105AC0001A60802252009A62634A11688143083842
:105AD00001431160946119686448084080214903BA
:105AE000014319608021C90099625F4B1B7D002B27
:105AF00000D098E0032113688B4302390B431360F5
:105B000091629021C9050B68544A1A4080231B03F7
:105B10007CE70321504A514813688B4302390B43F9
:105B2000136090239162DB05196808408021C90247
:105B30000143196080210C2089009962116881431A
:105B4000083801431160022191611A6847491140E8
:105B5000802252030A431A608022D2009A62424A8B
:105B6000127D002A6DD11A683D4911408022D20170
:105B70000A431A6080229A629021C9050B68394A4B
:105B80001A4080239B02FFE60C21334A022413684B
:105B900036488B4308390B43136090239462DB052E
:105BA0001968084080214903014319608021C90018
:105BB000996219682A4808408021C9010143196087
:105BC00080219961196827480840802149020143D2
:105BD0001960802149009962234B1B7D002B15D150
:105BE0001368FD398B4302390B4313609162902196
:105BF000C9050B68194A1A4080231B0347E70C218B
:105C000013688B4304390B431360B6E60321136812
:105C10008B431C431460EAE70C2113688B4304395F
:105C20000B431360EBE6032113688B43234313609C
:105C300067E71A680A491140802212020A431A6073
:105C40001EE71A6806491140802212020A431A60B0
:105C500092E7C0469062000800040048FFFFF3FF8F
:105C6000FF3FFFFFFFFFFCFF18070020FFFFCFFFF4
:105C70001C0001400C211C4A1C4813688B43083946
:105C80000B431360022393619023DB0519680840DE
:105C9000802149030143196080210320C9009962D2
:105CA0001168814302380143116090611A681049FC
:105CB00011408022D2020A431A60802292009A6226
:105CC0001A680C4911408022D2010A431A608022CE
:105CD0009A611A6808491140802252020A431A60E8
:105CE000802252009A62704700040048FFFFCFFFF5
:105CF000FFFFF3FFFF3FFFFFFFFFFCFF2D4B1B7D6F
:105D0000002B32D10C212C4A2C4813688B430839C4
:105D10000B431360022393629023DB05196808404C
:105D200080218903014303201960116881430238EF
:105D30000143116090621A682149114080221203C8
:105D40000A431A601A681F4911408022D2010A438F
:105D50001A6080229A629021C9050B681A4A1A407B
:105D600080239B0213430B6070470C221249134897
:105D70000B689343043A13430B609023DB051A68C6
:105D8000104080229203024303201A600A68824373
:105D9000013802430A601A6809491140802212033F
:105DA0000A431A601A6807491140802212020A4306
:105DB0001A60D0E71807002000040048FFFFCFFF5B
:105DC000FFFFF3FFFF3FFFFFFFFFFCFF30B50025A4
:105DD00091B01C22002108A800F0E5F980203E4B7C
:105DE00005959969C0010143996180219A69C902A9
:105DF00002400192019A5A69384C0A435A615B6920
:105E000040220B400093009B022302920393032342
:105E100001220493002302A9314806920793FEF75A
:105E20000BFB23682F4A08A9134010221343236059
:105E300023682D4A13402022236023689343236064
:105E40002368203293432360236840321343236046
:105E50002368264A134023602368254A1340E12221
:105E600023600023520208920993002200230A9221
:105E70000B93082200230E951E4D0C920D932800C3
:105E8000FEF786FDAB681C4A1C481340AB606B688C
:105E90001B4A1C4913402A226B60AB689343AB60DA
:105EA0002B68293A13432B602368174A0340102BB1
:105EB0000FD0A160E2603121084A53681B0C1B041B
:105EC0000B4353600B4A4F3193680B43936011B0FF
:105ED00030BDE160A260EEE7001002401C0002400D
:105EE00000040048EFBFFFFFFFCFFFFFFFFCFFFFF5
:105EF000FFF3FFFF00380140FFFBFFFF10400000F1
:105F0000FFB7FFFF9C0500202838014070B50C2426
:105F1000082301260B490A68A2431A430A600A4A69
:105F20001568B543156053681B0C1B04034353608D
:105F300013683343136004220B68A34313430B60BD
:105F400070BDC046003801401C0002407047C0468A
:105F5000FEE7C0467047C0467047C0467047C0461F
:105F600010B5274B1B78002B03D0264B1B78002B3A
:105F70002DD18022244BD201196811420BD0234924
:105F80000978002907D00A242148016AA143083C66
:105F9000214301625A601C4B1A68920406D41A68A5
:105FA000120402D5802252015A6010BD80220121C4
:105FB00052015A60174A13688B431360FDF732FF92
:105FC0008023154A1B0211690B431361EDE78023FF
:105FD0000D4A5B0151680B43536000220D4B1A6060
:105FE0000E4B1B78002B05D0FEF74AFE02220C4B0D
:105FF0001A70E5E7FEF788FE0122094B1A70DFE709
:106000008C060020DD06002000000240D3050020A1
:106010000004004044000240000401400008002049
:10602000A006002070B580250C4CAD0363692B429F
:106030000AD08023DB055A6A094B1B685B089A4229
:1060400003D96561FCF73AF870BDFEF7B7FE054B62
:106050001B788342F8D16561F6E7C0460004014031
:106060005006002012010020054B10B51A69D20716
:1060700000D410BD022252421A61FCF7D7FDF8E7A6
:1060800000100040022210B5024B52421A61FBF789
:10609000CDFF10BD002000407047C0467047C0468D
:1060A000074B1A69920702D5032252421A61044B28
:1060B0001A69D20702D5022252421A617047C046BD
:1060C00000400140074B1A69920702D50322524251
:1060D0001A61044B1A69D20702D5022252421A6190
:1060E0007047C04600040040084B10B51A6892077C
:1060F00006D40822054B19680A4200D05A6010BD28
:1061000001225A60FEF7B6FCF3E7C04600000240E9
:10611000074B1A69920702D5032252421A61044BB7
:106120001A69D20702D5022252421A617047C0464C
:10613000002C0140802210B5024B12025A61FCF77C
:106140005DFC10BD000401407047C04670B50026DC
:106150000C4D0D4C641BA410A64209D1002600F082
:106160002BF80A4D0A4C641BA410A64205D170BD41
:10617000B300EB5898470136EEE7B300EB58984769
:106180000136F2E7C4620008C4620008C462000875
:10619000C8620008002310B59A4200D110BDCC5C43
:1061A000C4540133F8E703008218934200D17047CA
:1061B00019700133F9E70000F8B5C046F8BC08BC17
:1061C0009E467047F8B5C046F8BC08BC9E4670476E
:1061D000B8170008B2170008661800085E18000813
:1061E000561800084E18000846180008381800080D
:1061F0002A180008221800081A180008B817000802
:106200000A180008F2170008E4170008B817000879
:10621000B8170008B8170008B8170008B817000822
:10622000D6170008CC170008B8170008B8170008E0
:10623000B8170008B8170008B8170008B817000802
:10624000B8170008B8170008B8170008B8170008F2
:10625000B8170008B8170008B8170008B8170008E2
:10626000C4170008191B12131D1516171A090A0B5B
:106270001E0D0E0F6825000864250008EE28000892
:10628000E8280008E2280008642500083200000021
:106290009259000894590008185A0008125B000827
:1062A0009A5A0008885B0008125900080000000094
:1062B00000000000010203040607080900000000B6
:0462C00001020304D0
:0462C400D5130008E6
:0462C800AD1300080A
:1062CC00007C0008CF07CF072D007800C800D0074E
:1062DC004C046C07DC0564004A012D0090010000A1
:1062EC00000000009001000000000000E803000026
:1062FC000000000000000000000000000000000092
:10630C00204E0000A086010002010101140046008D
:10631C00DC05010201010100D430000005010A0076
:10632C00E803000010270000000000000A00000035
:10633C0000000000640000000000000000000000ED
:10634C0000000000000000001027000050C30000F7
:10635C00B400D007D0072D001E0303006419000001
:10636C0000000000010000000000000032000000EE
:10637C000000000000000000000000000000000011
:10638C001027000050C3000002002D00D200D007DF
:10639C0064000500E8030000B400B700BA00BD00BB
:1063AC00C100C400C700CA00CD00D000D300D60085
:1063BC00D900DC00E000E300E600E900EC00EF00AF
:1063CC00F200F500F700FA00FD00000103010601E0
:1063DC0009010B010E0111011301160119011B0119
:1063EC001E0120012301250128012A012C012F0166
:1063FC0031013301350138013A013C013E014001C4
:10640C00420144014601470149014B014D014E0136
:10641C0050015101530154015601570158015A01C1
:10642C005B015C015D015E015F0160016101620164
:10643C006301630164016501650166016601670121
:10644C0067016701680168016801680168016801FA
:10645C0068016801680167016701670166016601EF
:10646C006501650164016301630162016101600101
:10647C005F015E015D015C015B015A01580157012E
:10648C00560154015301510150014E014D014B0174
:10649C004901470146014401420140013E013C01D2
:1064AC003A0138013501330131012F012C012A0148
:1064BC0028012501230120011E011B0119011601D0
:1064CC00130111010E010B01090106010301000169
:1064DC00FD00FA00F700F500F200EF00EC00E90017
:1064EC00E600E300E000DC00D900D600D300D000C9
:1064FC00CD00CA00C700C400C100BD00BA00B7007F
:10650C00B400B100AE00AB00A700A400A1009E0037
:10651C009B009800950092008F008C0088008500ED
:10652C0082007F007C0079007600730071006E00A1
:10653C006B006800650062005F005D005A00570048
:10654C00550052004F004D004A00480045004300E2
:10655C0040003E003C00390037003500330030006D
:10656C002E002C002A0028002600240022002100E6
:10657C001F001D001B001A00180017001500140046
:10658C001200110010000E000D000C000B000A0090
:10659C0009000800070006000500050004000300C0
:1065AC0003000200020001000100010000000000D5
:1065BC0000000000000000000000000000000100CE
:1065CC0001000100020002000300030004000500AA
:1065DC00050006000700080009000A000B000C006B
:1065EC000D000E0010001100120014001500170011
:1065FC0018001A001B001D001F002100220024009F
:10660C00260028002A002C002E0030003300350014
:10661C00370039003C003E00400043004500480074
:10662C004A004D004F005200550057005A005D00C3
:10663C005F006200650068006B006E007100730003
:10664C00760079007C007F008200850088008C0039
:10665C008F009200950098009B009E00A100A40062
:10666C00A700AB00AE00B1000614013278004B005D
:10667C0001005A005A001E0002010000FA0000003E
:10668C00204E200050C308001C0001402301674528
:08669C00AB89EFCD00127A007A
:107BE00041524B5F34494E315F52414D505F4630F8
:107BF000353100000000000000000000000000001F
:04000005080043812B
:00000001FF
